{
  "contractName": "AccessControl",
  "abi": [
    {
      "inputs": [],
      "stateMutability": "nonpayable",
      "type": "constructor"
    },
    {
      "inputs": [
        {
          "internalType": "address",
          "name": "account",
          "type": "address"
        }
      ],
      "name": "isOwner",
      "outputs": [
        {
          "internalType": "bool",
          "name": "",
          "type": "bool"
        }
      ],
      "stateMutability": "view",
      "type": "function"
    },
    {
      "inputs": [
        {
          "internalType": "address",
          "name": "account",
          "type": "address"
        },
        {
          "internalType": "string",
          "name": "roleType",
          "type": "string"
        }
      ],
      "name": "isRole",
      "outputs": [
        {
          "internalType": "bool",
          "name": "",
          "type": "bool"
        }
      ],
      "stateMutability": "view",
      "type": "function"
    },
    {
      "inputs": [
        {
          "internalType": "address",
          "name": "account",
          "type": "address"
        },
        {
          "internalType": "string",
          "name": "roleType",
          "type": "string"
        }
      ],
      "name": "add",
      "outputs": [],
      "stateMutability": "nonpayable",
      "type": "function"
    },
    {
      "inputs": [
        {
          "internalType": "address",
          "name": "account",
          "type": "address"
        },
        {
          "internalType": "string",
          "name": "roleType",
          "type": "string"
        }
      ],
      "name": "remove",
      "outputs": [],
      "stateMutability": "nonpayable",
      "type": "function"
    },
    {
      "inputs": [
        {
          "internalType": "address",
          "name": "account",
          "type": "address"
        }
      ],
      "name": "_changeOwnerRole",
      "outputs": [],
      "stateMutability": "nonpayable",
      "type": "function"
    }
  ],
  "bytecode": "0x608060405234801561001057600080fd5b50336000800160006101000a81548173ffffffffffffffffffffffffffffffffffffffff021916908373ffffffffffffffffffffffffffffffffffffffff1602179055506001600060010160405180807f41646d696e0000000000000000000000000000000000000000000000000000008152506005019050908152602001604051809103902060003373ffffffffffffffffffffffffffffffffffffffff1673ffffffffffffffffffffffffffffffffffffffff16815260200190815260200160002060006101000a81548160ff0219169083151502179055506001600060010160405180807f4d696e74657200000000000000000000000000000000000000000000000000008152506006019050908152602001604051809103902060003373ffffffffffffffffffffffffffffffffffffffff1673ffffffffffffffffffffffffffffffffffffffff16815260200190815260200160002060006101000a81548160ff0219169083151502179055506001600060010160405180807f536572766572000000000000000000000000000000000000000000000000000081525060060190509081526020016040518091039020600073591d6d73aa1ee46202f55443ab166d8b4b1403e073ffffffffffffffffffffffffffffffffffffffff1673ffffffffffffffffffffffffffffffffffffffff16815260200190815260200160002060006101000a81548160ff0219169083151502179055506001600060010160405180807f4d696e746572000000000000000000000000000000000000000000000000000081525060060190509081526020016040518091039020600073591d6d73aa1ee46202f55443ab166d8b4b1403e073ffffffffffffffffffffffffffffffffffffffff1673ffffffffffffffffffffffffffffffffffffffff16815260200190815260200160002060006101000a81548160ff021916908315150217905550610b7f806102e76000396000f3fe608060405234801561001057600080fd5b5060043610610074576000357c010000000000000000000000000000000000000000000000000000000090048063070eb15714610079578063267945ff1461016a5780632f54bf6e146101ae57806336d6da551461020857806349209fc8146102e3575b600080fd5b6101526004803603604081101561008f57600080fd5b81019080803573ffffffffffffffffffffffffffffffffffffffff169060200190929190803590602001906401000000008111156100cc57600080fd5b8201836020820111156100de57600080fd5b8035906020019184600183028401116401000000008311171561010057600080fd5b91908080601f016020809104026020016040519081016040528093929190818152602001838380828437600081840152601f19601f8201169050808301925050505050505091929192905050506103be565b60405180821515815260200191505060405180910390f35b6101ac6004803603602081101561018057600080fd5b81019080803573ffffffffffffffffffffffffffffffffffffffff1690602001909291905050506103de565b005b6101f0600480360360208110156101c457600080fd5b81019080803573ffffffffffffffffffffffffffffffffffffffff169060200190929190505050610562565b60405180821515815260200191505060405180910390f35b6102e16004803603604081101561021e57600080fd5b81019080803573ffffffffffffffffffffffffffffffffffffffff1690602001909291908035906020019064010000000081111561025b57600080fd5b82018360208201111561026d57600080fd5b8035906020019184600183028401116401000000008311171561028f57600080fd5b91908080601f016020809104026020016040519081016040528093929190818152602001838380828437600081840152601f19601f8201169050808301925050505050505091929192905050506105be565b005b6103bc600480360360408110156102f957600080fd5b81019080803573ffffffffffffffffffffffffffffffffffffffff1690602001909291908035906020019064010000000081111561033657600080fd5b82018360208201111561034857600080fd5b8035906020019184600183028401116401000000008311171561036a57600080fd5b91908080601f016020809104026020016040519081016040528093929190818152602001838380828437600081840152601f19601f8201169050808301925050505050505091929192905050506106f2565b005b60006103d6838360006108269092919063ffffffff16565b905092915050565b6103e733610562565b6103f057600080fd5b806000800160006101000a81548173ffffffffffffffffffffffffffffffffffffffff021916908373ffffffffffffffffffffffffffffffffffffffff16021790555061047e816040518060400160405280600681526020017f4d696e746572000000000000000000000000000000000000000000000000000081525060006109209092919063ffffffff16565b6104c9816040518060400160405280600581526020017f41646d696e00000000000000000000000000000000000000000000000000000081525060006109209092919063ffffffff16565b610514336040518060400160405280600681526020017f4d696e74657200000000000000000000000000000000000000000000000000008152506000610a359092919063ffffffff16565b61055f336040518060400160405280600581526020017f41646d696e0000000000000000000000000000000000000000000000000000008152506000610a359092919063ffffffff16565b50565b60008060000160009054906101000a900473ffffffffffffffffffffffffffffffffffffffff1673ffffffffffffffffffffffffffffffffffffffff168273ffffffffffffffffffffffffffffffffffffffff16149050919050565b6105fd336040518060400160405280600581526020017f41646d696e0000000000000000000000000000000000000000000000000000008152506103be565b61060657600080fd5b60405160200180807f4d696e7465720000000000000000000000000000000000000000000000000000815250600601905060405160208183030381529060405280519060200120816040516020018082805190602001908083835b602083106106845780518252602082019150602081019050602083039250610661565b6001836020036101000a0380198251168184511680821785525050505050509050019150506040516020818303038152906040528051906020012014156106d8576106ce33610562565b6106d757600080fd5b5b6106ee828260006109209092919063ffffffff16565b5050565b610731336040518060400160405280600581526020017f41646d696e0000000000000000000000000000000000000000000000000000008152506103be565b61073a57600080fd5b60405160200180807f4d696e7465720000000000000000000000000000000000000000000000000000815250600601905060405160208183030381529060405280519060200120816040516020018082805190602001908083835b602083106107b85780518252602082019150602081019050602083039250610795565b6001836020036101000a03801982511681845116808217855250505050505090500191505060405160208183030381529060405280519060200120141561080c5761080233610562565b61080b57600080fd5b5b61082282826000610a359092919063ffffffff16565b5050565b60008073ffffffffffffffffffffffffffffffffffffffff168373ffffffffffffffffffffffffffffffffffffffff16141561086157600080fd5b83600101826040518082805190602001908083835b602083106108995780518252602082019150602081019050602083039250610876565b6001836020036101000a038019825116818451168082178552505050505050905001915050908152602001604051809103902060008473ffffffffffffffffffffffffffffffffffffffff1673ffffffffffffffffffffffffffffffffffffffff16815260200190815260200160002060009054906101000a900460ff1690509392505050565b600073ffffffffffffffffffffffffffffffffffffffff168273ffffffffffffffffffffffffffffffffffffffff16141561095a57600080fd5b610965838383610826565b1561096f57600080fd5b600183600101826040518082805190602001908083835b602083106109a95780518252602082019150602081019050602083039250610986565b6001836020036101000a038019825116818451168082178552505050505050905001915050908152602001604051809103902060008473ffffffffffffffffffffffffffffffffffffffff1673ffffffffffffffffffffffffffffffffffffffff16815260200190815260200160002060006101000a81548160ff021916908315150217905550505050565b600073ffffffffffffffffffffffffffffffffffffffff168273ffffffffffffffffffffffffffffffffffffffff161415610a6f57600080fd5b610a7a838383610826565b610a8357600080fd5b600083600101826040518082805190602001908083835b60208310610abd5780518252602082019150602081019050602083039250610a9a565b6001836020036101000a038019825116818451168082178552505050505050905001915050908152602001604051809103902060008473ffffffffffffffffffffffffffffffffffffffff1673ffffffffffffffffffffffffffffffffffffffff16815260200190815260200160002060006101000a81548160ff02191690831515021790555050505056fea26469706673582212205cd28012f01ac6194c36645a3317236111961b613d73069b26c22375da015d5264736f6c63430007000033",
  "immutableReferences": {},
  "source": "// SPDX-License-Identifier: MIT\r\npragma solidity >=0.4.22 <0.8.0;\r\nlibrary Roles {\r\n  \r\n    struct Role {\r\n\t\taddress owner;\r\n\t\tmapping (string => mapping (address  => bool)) members;\r\n\t}\r\n\r\n\t/**\r\n\t * @dev give an account access to this role\r\n\t */\r\n\tfunction add(Role storage role, address account, string memory roleType) internal {\r\n\t\trequire(account != address(0));\r\n\t\trequire(!has(role, account, roleType));\r\n\r\n\t\trole.members[roleType][account] = true;\r\n\t}\r\n\r\n\t/**\r\n\t * @dev remove an account's access to this role\r\n\t */\r\n\tfunction remove(Role storage role, address account, string memory roleType) internal {\r\n\t\trequire(account != address(0));\r\n\t\trequire(has(role, account, roleType));\r\n\r\n\t\trole.members[roleType][account] = false;\r\n\t}\r\n\r\n\t/**\r\n\t * @dev check if an account has this role\r\n\t * @return bool\r\n\t */\r\n\tfunction has(Role storage role, address account, string memory roleType)\r\n\tinternal\r\n\tview\r\n\treturns (bool)\r\n\t{\r\n\t\trequire(account != address(0));\r\n\t\treturn role.members[roleType][account];\r\n\t}\r\n\r\n    \r\n}\r\n\r\ncontract AccessControl {\r\n    using Roles for Roles.Role;\r\n    Roles.Role internal role;\r\n    \r\n    constructor() {\r\n      role.owner = msg.sender;\r\n      role.members[\"Admin\"][msg.sender] = true;\r\n      role.members[\"Minter\"][msg.sender] = true;\r\n\r\n\t  role.members[\"Server\"][0x591D6D73AA1ee46202f55443aB166D8B4b1403E0] = true;\r\n\t  role.members[\"Minter\"][0x591D6D73AA1ee46202f55443aB166D8B4b1403E0] = true;\r\n    }\r\n    \r\n    modifier onlyOwner() {\r\n\t\trequire(isOwner(msg.sender));\r\n\t\t_;\r\n\t}\r\n\r\n\tmodifier onlyUser() {\r\n\t\trequire(!isOwner(msg.sender) && !isRole(msg.sender, \"Admin\") && !isRole(msg.sender, \"Minter\") && !isRole(msg.sender, \"Server\"));\r\n\t\t_;\r\n\t}\r\n\t\r\n\tmodifier onlyAdmin() {\r\n\t\trequire(isRole(msg.sender, \"Admin\"));\r\n\t\t_;\r\n\t}\r\n\t\r\n\tmodifier onlyMinter() {\r\n\t\trequire(isRole(msg.sender, \"Minter\"));\r\n\t\t_;\r\n\t}\r\n\r\n\tmodifier onlyServer() {\r\n\t\trequire(isRole(msg.sender, \"Server\"));\r\n\t\t_;\r\n\t}\r\n\r\n\tfunction isOwner(address account) public view returns (bool) {\r\n\t\treturn account == role.owner;\r\n\t}\r\n\t\r\n\tfunction isRole(address account, string memory roleType) public view returns (bool) {\r\n\t\treturn role.has(account, roleType);\r\n\t}\r\n\t\r\n    function add(address account, string memory roleType) public onlyAdmin {\r\n        if(keccak256(abi.encodePacked((roleType))) == keccak256(abi.encodePacked((\"Minter\")))){\r\n            require(isOwner(msg.sender));\r\n        }\r\n\t\trole.add(account, roleType);\r\n\t}\r\n\r\n    function remove(address account, string memory roleType) public onlyAdmin{\r\n        if(keccak256(abi.encodePacked((roleType))) == keccak256(abi.encodePacked((\"Minter\")))){\r\n            require(isOwner(msg.sender));\r\n        }\r\n\t    role.remove(account, roleType);\r\n\t}\r\n\t\r\n\tfunction _changeOwnerRole(address account) public onlyOwner{\r\n\t\trole.owner = account;\r\n\t\trole.add(account, \"Minter\");\r\n\t\trole.add(account, \"Admin\");\r\n\r\n\t    role.remove(msg.sender, \"Minter\");\r\n\t\trole.remove(msg.sender, \"Admin\");\r\n\t}\r\n} ",
  "sourcePath": "D:\\CN9\\Capstone\\LBAContract.github.io\\contracts\\Ownable.sol",
  "compiler": {
    "name": "solc",
    "version": "0.7.0+commit.9e61f92b.Emscripten.clang"
  },
  "schemaVersion": "3.3.3",
  "updatedAt": "2021-03-21T04:20:37.151Z",
  "devdoc": {
    "kind": "dev",
    "methods": {},
    "version": 1
  },
  "userdoc": {
    "kind": "user",
    "methods": {},
    "version": 1
  }
}