{
  "contractName": "CampaignMoney",
  "abi": [
    {
      "inputs": [],
      "stateMutability": "nonpayable",
      "type": "constructor"
    },
    {
      "inputs": [
        {
          "internalType": "address",
          "name": "",
          "type": "address"
        },
        {
          "internalType": "string",
          "name": "",
          "type": "string"
        }
      ],
      "name": "_allowedCampaign",
      "outputs": [
        {
          "internalType": "string",
          "name": "campaignId",
          "type": "string"
        },
        {
          "internalType": "uint256",
          "name": "money",
          "type": "uint256"
        },
        {
          "internalType": "uint256",
          "name": "timestamp",
          "type": "uint256"
        },
        {
          "internalType": "bool",
          "name": "isActive",
          "type": "bool"
        },
        {
          "internalType": "bool",
          "name": "isExist",
          "type": "bool"
        }
      ],
      "stateMutability": "view",
      "type": "function"
    },
    {
      "inputs": [],
      "name": "owner",
      "outputs": [
        {
          "internalType": "address",
          "name": "",
          "type": "address"
        }
      ],
      "stateMutability": "view",
      "type": "function"
    },
    {
      "inputs": [],
      "name": "getFeeCampaign",
      "outputs": [
        {
          "internalType": "uint256",
          "name": "",
          "type": "uint256"
        }
      ],
      "stateMutability": "view",
      "type": "function"
    },
    {
      "inputs": [
        {
          "internalType": "uint256",
          "name": "value",
          "type": "uint256"
        }
      ],
      "name": "changeFeeCampaign",
      "outputs": [],
      "stateMutability": "nonpayable",
      "type": "function"
    },
    {
      "inputs": [],
      "name": "getFeeCampaignCancel",
      "outputs": [
        {
          "internalType": "uint256",
          "name": "",
          "type": "uint256"
        }
      ],
      "stateMutability": "view",
      "type": "function"
    },
    {
      "inputs": [
        {
          "internalType": "uint256",
          "name": "value",
          "type": "uint256"
        }
      ],
      "name": "changeFeeCampaignCancel",
      "outputs": [],
      "stateMutability": "nonpayable",
      "type": "function"
    }
  ],
  "bytecode": "0x608060405234801561001057600080fd5b50336000806101000a81548173ffffffffffffffffffffffffffffffffffffffff021916908373ffffffffffffffffffffffffffffffffffffffff1602179055506001600281905550600a600381905550610605806100706000396000f3fe608060405234801561001057600080fd5b506004361061007e576000357c0100000000000000000000000000000000000000000000000000000000900480626fd991146100835780633a8cb7d5146100a15780633be1f80f146100bf5780635205c364146100f35780638da5cb5b1461010f578063c2975e451461012d575b600080fd5b61008b610149565b6040516100989190610476565b60405180910390f35b6100a9610153565b6040516100b69190610476565b60405180910390f35b6100d960048036038101906100d4919061031e565b61015d565b6040516100ea95949392919061041c565b60405180910390f35b61010d60048036038101906101089190610372565b610268565b005b610117610272565b6040516101249190610401565b60405180910390f35b61014760048036038101906101429190610372565b610296565b005b6000600354905090565b6000600254905090565b60016020528160005260406000208180516020810182018051848252602083016020850120818352809550505050505060009150915050806000018054600181600116156101000203166002900480601f01602080910402602001604051908101604052809291908181526020018280546001816001161561010002031660029004801561022c5780601f106102015761010080835404028352916020019161022c565b820191906000526020600020905b81548152906001019060200180831161020f57829003601f168201915b5050505050908060010154908060020154908060030160009054906101000a900460ff16908060030160019054906101000a900460ff16905085565b8060028190555050565b60008054906101000a900473ffffffffffffffffffffffffffffffffffffffff1681565b8060038190555050565b6000813590506102af816105a1565b92915050565b600082601f8301126102c657600080fd5b81356102d96102d4826104be565b610491565b915080825260208301602083018583830111156102f557600080fd5b61030083828461054e565b50505092915050565b600081359050610318816105b8565b92915050565b6000806040838503121561033157600080fd5b600061033f858286016102a0565b925050602083013567ffffffffffffffff81111561035c57600080fd5b610368858286016102b5565b9150509250929050565b60006020828403121561038457600080fd5b600061039284828501610309565b91505092915050565b6103a481610506565b82525050565b6103b381610518565b82525050565b60006103c4826104ea565b6103ce81856104f5565b93506103de81856020860161055d565b6103e781610590565b840191505092915050565b6103fb81610544565b82525050565b6000602082019050610416600083018461039b565b92915050565b600060a082019050818103600083015261043681886103b9565b905061044560208301876103f2565b61045260408301866103f2565b61045f60608301856103aa565b61046c60808301846103aa565b9695505050505050565b600060208201905061048b60008301846103f2565b92915050565b6000604051905081810181811067ffffffffffffffff821117156104b457600080fd5b8060405250919050565b600067ffffffffffffffff8211156104d557600080fd5b601f19601f8301169050602081019050919050565b600081519050919050565b600082825260208201905092915050565b600061051182610524565b9050919050565b60008115159050919050565b600073ffffffffffffffffffffffffffffffffffffffff82169050919050565b6000819050919050565b82818337600083830152505050565b60005b8381101561057b578082015181840152602081019050610560565b8381111561058a576000848401525b50505050565b6000601f19601f8301169050919050565b6105aa81610506565b81146105b557600080fd5b50565b6105c181610544565b81146105cc57600080fd5b5056fea264697066735822122029cf6651fe5eb96562fbb414036f4f2f13bd61a6999b35c44385d70b61303de164736f6c63430007000033",
  "immutableReferences": {},
  "source": "// SPDX-License-Identifier: MIT\r\npragma solidity >=0.4.22 <0.8.0;\r\npragma experimental ABIEncoderV2;\r\nimport './Ownable.sol';\r\n\r\ncontract CampaignMoney is Ownable{\r\n    \r\n    struct Campaign {\r\n        string campaignId;\r\n        uint money;\r\n        uint timestamp;\r\n        bool isActive;\r\n        bool isExist;\r\n    }\r\n    mapping (address => mapping (string => Campaign)) public _allowedCampaign;\r\n    uint private _feeCampaign;\r\n    uint private _feeCampaignCancel;\r\n\r\n    constructor(){\r\n        _feeCampaign = 1;\r\n        _feeCampaignCancel = 10;\r\n    }\r\n    \r\n\r\n    function getFeeCampaign() public view returns (uint256) {\r\n        return _feeCampaign;\r\n    }\r\n\r\n    function changeFeeCampaign(uint256 value) public {\r\n        _feeCampaign = value;\r\n    }\r\n    \r\n    function getFeeCampaignCancel() public view returns (uint256) {\r\n        return _feeCampaignCancel;\r\n    }\r\n\r\n    function changeFeeCampaignCancel(uint256 value) public {\r\n        _feeCampaignCancel = value;\r\n    }\r\n}",
  "sourcePath": "D:\\CN9\\Capstone\\blockchain-1\\contracts\\CampaignMoney.sol",
  "compiler": {
    "name": "solc",
    "version": "0.7.0+commit.9e61f92b.Emscripten.clang"
  },
  "schemaVersion": "3.3.3",
  "updatedAt": "2021-02-04T06:58:14.513Z",
  "devdoc": {
    "kind": "dev",
    "methods": {},
    "version": 1
  },
  "userdoc": {
    "kind": "user",
    "methods": {},
    "version": 1
  }
}