{
  "contractName": "CampaignDetail",
  "abi": [
    {
      "anonymous": false,
      "inputs": [
        {
          "indexed": true,
          "internalType": "address",
          "name": "owner",
          "type": "address"
        },
        {
          "indexed": false,
          "internalType": "string",
          "name": "campaignId",
          "type": "string"
        },
        {
          "indexed": false,
          "internalType": "uint256",
          "name": "value",
          "type": "uint256"
        }
      ],
      "name": "AuthorityCampaign",
      "type": "event"
    },
    {
      "anonymous": false,
      "inputs": [
        {
          "indexed": true,
          "internalType": "address",
          "name": "owner",
          "type": "address"
        },
        {
          "indexed": false,
          "internalType": "string",
          "name": "campaignId",
          "type": "string"
        },
        {
          "indexed": false,
          "internalType": "uint256",
          "name": "value",
          "type": "uint256"
        }
      ],
      "name": "CreateCampaign",
      "type": "event"
    },
    {
      "inputs": [
        {
          "internalType": "string",
          "name": "",
          "type": "string"
        }
      ],
      "name": "campaigns",
      "outputs": [
        {
          "internalType": "string",
          "name": "campaignId",
          "type": "string"
        },
        {
          "internalType": "address",
          "name": "advertiser",
          "type": "address"
        },
        {
          "internalType": "uint256",
          "name": "totalBudget",
          "type": "uint256"
        },
        {
          "internalType": "uint256",
          "name": "remainBudget",
          "type": "uint256"
        },
        {
          "internalType": "uint256",
          "name": "feeCancel",
          "type": "uint256"
        },
        {
          "internalType": "bool",
          "name": "isActive",
          "type": "bool"
        },
        {
          "internalType": "bool",
          "name": "isExist",
          "type": "bool"
        }
      ],
      "stateMutability": "view",
      "type": "function"
    },
    {
      "inputs": [],
      "name": "owner",
      "outputs": [
        {
          "internalType": "address",
          "name": "",
          "type": "address"
        }
      ],
      "stateMutability": "view",
      "type": "function"
    }
  ],
  "bytecode": "0x608060405234801561001057600080fd5b50336000806101000a81548173ffffffffffffffffffffffffffffffffffffffff021916908373ffffffffffffffffffffffffffffffffffffffff1602179055506104cc806100606000396000f3fe608060405234801561001057600080fd5b5060043610610053576000357c0100000000000000000000000000000000000000000000000000000000900480631d39e509146100585780638da5cb5b1461008e575b600080fd5b610072600480360381019061006d919061024e565b6100ac565b6040516100859796959493929190610310565b60405180910390f35b6100966101d6565b6040516100a391906102f5565b60405180910390f35b600181805160208101820180518482526020830160208501208183528095505050505050600091509050806000018054600181600116156101000203166002900480601f01602080910402602001604051908101604052809291908181526020018280546001816001161561010002031660029004801561016e5780601f106101435761010080835404028352916020019161016e565b820191906000526020600020905b81548152906001019060200180831161015157829003601f168201915b5050505050908060010160009054906101000a900473ffffffffffffffffffffffffffffffffffffffff16908060020154908060030154908060040154908060050160009054906101000a900460ff16908060050160019054906101000a900460ff16905087565b60008054906101000a900473ffffffffffffffffffffffffffffffffffffffff1681565b600082601f83011261020b57600080fd5b813561021e610219826103b3565b610386565b9150808252602083016020830185838301111561023a57600080fd5b610245838284610443565b50505092915050565b60006020828403121561026057600080fd5b600082013567ffffffffffffffff81111561027a57600080fd5b610286848285016101fa565b91505092915050565b610298816103fb565b82525050565b6102a78161040d565b82525050565b60006102b8826103df565b6102c281856103ea565b93506102d2818560208601610452565b6102db81610485565b840191505092915050565b6102ef81610439565b82525050565b600060208201905061030a600083018461028f565b92915050565b600060e082019050818103600083015261032a818a6102ad565b9050610339602083018961028f565b61034660408301886102e6565b61035360608301876102e6565b61036060808301866102e6565b61036d60a083018561029e565b61037a60c083018461029e565b98975050505050505050565b6000604051905081810181811067ffffffffffffffff821117156103a957600080fd5b8060405250919050565b600067ffffffffffffffff8211156103ca57600080fd5b601f19601f8301169050602081019050919050565b600081519050919050565b600082825260208201905092915050565b600061040682610419565b9050919050565b60008115159050919050565b600073ffffffffffffffffffffffffffffffffffffffff82169050919050565b6000819050919050565b82818337600083830152505050565b60005b83811015610470578082015181840152602081019050610455565b8381111561047f576000848401525b50505050565b6000601f19601f830116905091905056fea26469706673582212205a7a1eaf11a28fd8ffc4c1a403ebdf7b04390e910665964a97d71a8b0d53f97164736f6c63430007000033",
  "immutableReferences": {},
  "source": "// SPDX-License-Identifier: MIT\r\npragma solidity >=0.7.0 <0.8.0;\r\npragma experimental ABIEncoderV2;\r\nimport './Ownable.sol';\r\n\r\ncontract CampaignDetail is Ownable{\r\n    \r\n    struct Campaign {\r\n        string campaignId;\r\n        address advertiser;\r\n        uint totalBudget;\r\n        uint remainBudget;\r\n        uint feeCancel;\r\n        bool isActive;\r\n        bool isExist;\r\n    }\r\n\r\n    event AuthorityCampaign(address indexed owner, string campaignId, uint256 value);\r\n    event CreateCampaign(address indexed owner, string campaignId, uint256 value);\r\n    mapping (string => Campaign) public campaigns;\r\n}",
  "sourcePath": "D:\\CN9\\Capstone\\LBAContract.github.io\\contracts\\CampaignDetail.sol",
  "compiler": {
    "name": "solc",
    "version": "0.7.0+commit.9e61f92b.Emscripten.clang"
  },
  "schemaVersion": "3.3.3",
  "updatedAt": "2021-03-08T04:55:39.897Z",
  "devdoc": {
    "kind": "dev",
    "methods": {},
    "version": 1
  },
  "userdoc": {
    "kind": "user",
    "methods": {},
    "version": 1
  }
}