{
  "contractName": "CampaignMoney",
  "abi": [
    {
      "inputs": [],
      "stateMutability": "nonpayable",
      "type": "constructor"
    },
    {
      "anonymous": false,
      "inputs": [
        {
          "indexed": true,
          "internalType": "address",
          "name": "owner",
          "type": "address"
        },
        {
          "indexed": false,
          "internalType": "string",
          "name": "campaignId",
          "type": "string"
        },
        {
          "indexed": false,
          "internalType": "uint256",
          "name": "value",
          "type": "uint256"
        }
      ],
      "name": "AuthorityCampaign",
      "type": "event"
    },
    {
      "inputs": [
        {
          "internalType": "address",
          "name": "",
          "type": "address"
        },
        {
          "internalType": "string",
          "name": "",
          "type": "string"
        }
      ],
      "name": "_allowedCampaign",
      "outputs": [
        {
          "internalType": "string",
          "name": "campaignId",
          "type": "string"
        },
        {
          "internalType": "uint256",
          "name": "money",
          "type": "uint256"
        },
        {
          "internalType": "uint256",
          "name": "timestamp",
          "type": "uint256"
        },
        {
          "internalType": "bool",
          "name": "isActive",
          "type": "bool"
        },
        {
          "internalType": "bool",
          "name": "isExist",
          "type": "bool"
        }
      ],
      "stateMutability": "view",
      "type": "function"
    },
    {
      "inputs": [],
      "name": "owner",
      "outputs": [
        {
          "internalType": "address",
          "name": "",
          "type": "address"
        }
      ],
      "stateMutability": "view",
      "type": "function"
    },
    {
      "inputs": [],
      "name": "getFeeAdvertiserCampaign",
      "outputs": [
        {
          "internalType": "uint256",
          "name": "",
          "type": "uint256"
        }
      ],
      "stateMutability": "view",
      "type": "function"
    },
    {
      "inputs": [
        {
          "internalType": "uint256",
          "name": "value",
          "type": "uint256"
        }
      ],
      "name": "setFeeAdvertiserCampaign",
      "outputs": [],
      "stateMutability": "nonpayable",
      "type": "function"
    },
    {
      "inputs": [],
      "name": "getFeePublisherCampaign",
      "outputs": [
        {
          "internalType": "uint256",
          "name": "",
          "type": "uint256"
        }
      ],
      "stateMutability": "view",
      "type": "function"
    },
    {
      "inputs": [
        {
          "internalType": "uint256",
          "name": "value",
          "type": "uint256"
        }
      ],
      "name": "setFeePublisherCampaign",
      "outputs": [],
      "stateMutability": "nonpayable",
      "type": "function"
    },
    {
      "inputs": [],
      "name": "getFeeCampaignCancel",
      "outputs": [
        {
          "internalType": "uint256",
          "name": "",
          "type": "uint256"
        }
      ],
      "stateMutability": "view",
      "type": "function"
    },
    {
      "inputs": [
        {
          "internalType": "uint256",
          "name": "value",
          "type": "uint256"
        }
      ],
      "name": "changeFeeCampaignCancel",
      "outputs": [],
      "stateMutability": "nonpayable",
      "type": "function"
    }
  ],
  "bytecode": "0x608060405234801561001057600080fd5b50336000806101000a81548173ffffffffffffffffffffffffffffffffffffffff021916908373ffffffffffffffffffffffffffffffffffffffff16021790555060016002819055506001600381905550600a600481905550610679806100786000396000f3fe608060405234801561001057600080fd5b50600436106100a4576000357c0100000000000000000000000000000000000000000000000000000000900480638da5cb5b116100785780638da5cb5b146101355780639d7364d814610153578063c2975e451461016f578063cc50fd011461018b576100a4565b80626fd991146100a9578063128e9aed146100c75780633be1f80f146100e55780634a3ab03014610119575b600080fd5b6100b16101a9565b6040516100be91906104ea565b60405180910390f35b6100cf6101b3565b6040516100dc91906104ea565b60405180910390f35b6100ff60048036038101906100fa9190610392565b6101bd565b604051610110959493929190610490565b60405180910390f35b610133600480360381019061012e91906103e6565b6102c8565b005b61013d6102d2565b60405161014a9190610475565b60405180910390f35b61016d600480360381019061016891906103e6565b6102f6565b005b610189600480360381019061018491906103e6565b610300565b005b61019361030a565b6040516101a091906104ea565b60405180910390f35b6000600454905090565b6000600354905090565b60016020528160005260406000208180516020810182018051848252602083016020850120818352809550505050505060009150915050806000018054600181600116156101000203166002900480601f01602080910402602001604051908101604052809291908181526020018280546001816001161561010002031660029004801561028c5780601f106102615761010080835404028352916020019161028c565b820191906000526020600020905b81548152906001019060200180831161026f57829003601f168201915b5050505050908060010154908060020154908060030160009054906101000a900460ff16908060030160019054906101000a900460ff16905085565b8060028190555050565b60008054906101000a900473ffffffffffffffffffffffffffffffffffffffff1681565b8060038190555050565b8060048190555050565b6000600254905090565b60008135905061032381610615565b92915050565b600082601f83011261033a57600080fd5b813561034d61034882610532565b610505565b9150808252602083016020830185838301111561036957600080fd5b6103748382846105c2565b50505092915050565b60008135905061038c8161062c565b92915050565b600080604083850312156103a557600080fd5b60006103b385828601610314565b925050602083013567ffffffffffffffff8111156103d057600080fd5b6103dc85828601610329565b9150509250929050565b6000602082840312156103f857600080fd5b60006104068482850161037d565b91505092915050565b6104188161057a565b82525050565b6104278161058c565b82525050565b60006104388261055e565b6104428185610569565b93506104528185602086016105d1565b61045b81610604565b840191505092915050565b61046f816105b8565b82525050565b600060208201905061048a600083018461040f565b92915050565b600060a08201905081810360008301526104aa818861042d565b90506104b96020830187610466565b6104c66040830186610466565b6104d3606083018561041e565b6104e0608083018461041e565b9695505050505050565b60006020820190506104ff6000830184610466565b92915050565b6000604051905081810181811067ffffffffffffffff8211171561052857600080fd5b8060405250919050565b600067ffffffffffffffff82111561054957600080fd5b601f19601f8301169050602081019050919050565b600081519050919050565b600082825260208201905092915050565b600061058582610598565b9050919050565b60008115159050919050565b600073ffffffffffffffffffffffffffffffffffffffff82169050919050565b6000819050919050565b82818337600083830152505050565b60005b838110156105ef5780820151818401526020810190506105d4565b838111156105fe576000848401525b50505050565b6000601f19601f8301169050919050565b61061e8161057a565b811461062957600080fd5b50565b610635816105b8565b811461064057600080fd5b5056fea2646970667358221220fa0e9944c706e8c247f8b12ac901794d0a8e7e4835038da21b5907f339fdf55864736f6c63430007000033",
  "immutableReferences": {},
  "source": "// SPDX-License-Identifier: MIT\r\npragma solidity >=0.4.22 <0.8.0;\r\npragma experimental ABIEncoderV2;\r\nimport './Ownable.sol';\r\n\r\ncontract CampaignMoney is Ownable{\r\n    \r\n    struct Campaign {\r\n        string campaignId;\r\n        uint money;\r\n        uint timestamp;\r\n        bool isActive;\r\n        bool isExist;\r\n    }\r\n    event AuthorityCampaign(address indexed owner, string campaignId, uint256 value);\r\n    mapping (address => mapping (string => Campaign)) public _allowedCampaign;\r\n    uint private _feeAdvertiserCampaign;\r\n    uint private _feePublisherCampaign;\r\n    uint private _feeCampaignCancel;\r\n\r\n    constructor(){\r\n        _feeAdvertiserCampaign = 1;\r\n        _feePublisherCampaign = 1;\r\n        _feeCampaignCancel = 10;\r\n    }\r\n    \r\n\r\n    function getFeeAdvertiserCampaign() public view returns (uint256) {\r\n        return _feeAdvertiserCampaign;\r\n    }\r\n\r\n    function setFeeAdvertiserCampaign(uint256 value) public {\r\n        _feeAdvertiserCampaign = value;\r\n    }\r\n\r\n    function getFeePublisherCampaign() public view returns (uint256) {\r\n        return _feePublisherCampaign;\r\n    }\r\n\r\n    function setFeePublisherCampaign(uint256 value) public {\r\n        _feePublisherCampaign = value;\r\n    }\r\n    \r\n    function getFeeCampaignCancel() public view returns (uint256) {\r\n        return _feeCampaignCancel;\r\n    }\r\n\r\n    function changeFeeCampaignCancel(uint256 value) public {\r\n        _feeCampaignCancel = value;\r\n    }\r\n}",
  "sourcePath": "D:\\CN9\\Capstone\\blockchain-1\\contracts\\CampaignMoney.sol",
  "compiler": {
    "name": "solc",
    "version": "0.7.0+commit.9e61f92b.Emscripten.clang"
  },
  "schemaVersion": "3.3.3",
  "updatedAt": "2021-03-01T04:36:35.630Z",
  "devdoc": {
    "kind": "dev",
    "methods": {},
    "version": 1
  },
  "userdoc": {
    "kind": "user",
    "methods": {},
    "version": 1
  }
}