{
  "contractName": "ManageDocument",
  "abi": [
    {
      "anonymous": false,
      "inputs": [
        {
          "indexed": false,
          "internalType": "bytes",
          "name": "id",
          "type": "bytes"
        },
        {
          "indexed": true,
          "internalType": "address",
          "name": "from",
          "type": "address"
        },
        {
          "indexed": false,
          "internalType": "string",
          "name": "comment",
          "type": "string"
        }
      ],
      "name": "Add",
      "type": "event"
    },
    {
      "anonymous": false,
      "inputs": [
        {
          "indexed": false,
          "internalType": "bytes",
          "name": "id",
          "type": "bytes"
        },
        {
          "indexed": true,
          "internalType": "address",
          "name": "from",
          "type": "address"
        },
        {
          "indexed": false,
          "internalType": "string",
          "name": "comment",
          "type": "string"
        }
      ],
      "name": "Delete",
      "type": "event"
    },
    {
      "anonymous": false,
      "inputs": [
        {
          "indexed": false,
          "internalType": "bytes",
          "name": "id",
          "type": "bytes"
        },
        {
          "indexed": true,
          "internalType": "address",
          "name": "from",
          "type": "address"
        },
        {
          "indexed": false,
          "internalType": "string",
          "name": "comment",
          "type": "string"
        }
      ],
      "name": "Sign",
      "type": "event"
    },
    {
      "inputs": [
        {
          "internalType": "bytes32",
          "name": "",
          "type": "bytes32"
        }
      ],
      "name": "documents",
      "outputs": [
        {
          "internalType": "uint256",
          "name": "timestamp",
          "type": "uint256"
        },
        {
          "internalType": "bytes",
          "name": "ipfs_hash",
          "type": "bytes"
        },
        {
          "internalType": "address",
          "name": "owner",
          "type": "address"
        },
        {
          "internalType": "bool",
          "name": "isExist",
          "type": "bool"
        }
      ],
      "stateMutability": "view",
      "type": "function"
    },
    {
      "inputs": [
        {
          "internalType": "bytes",
          "name": "id",
          "type": "bytes"
        },
        {
          "internalType": "address",
          "name": "checkAddress",
          "type": "address"
        }
      ],
      "name": "removeApprove",
      "outputs": [
        {
          "internalType": "bool",
          "name": "",
          "type": "bool"
        }
      ],
      "stateMutability": "nonpayable",
      "type": "function"
    },
    {
      "inputs": [
        {
          "internalType": "bytes",
          "name": "id",
          "type": "bytes"
        },
        {
          "internalType": "address",
          "name": "checkAddress",
          "type": "address"
        }
      ],
      "name": "removeReject",
      "outputs": [
        {
          "internalType": "bool",
          "name": "",
          "type": "bool"
        }
      ],
      "stateMutability": "nonpayable",
      "type": "function"
    }
  ],
  "bytecode": "0x608060405234801561001057600080fd5b506107c6806100206000396000f3fe608060405234801561001057600080fd5b506004361061005e576000357c0100000000000000000000000000000000000000000000000000000000900480632b2805db146100635780634340d51c146101375780634f8eb0c814610228575b600080fd5b61008f6004803603602081101561007957600080fd5b8101908080359060200190929190505050610319565b60405180858152602001806020018473ffffffffffffffffffffffffffffffffffffffff1681526020018315158152602001828103825285818151815260200191508051906020019080838360005b838110156100f95780820151818401526020810190506100de565b50505050905090810190601f1680156101265780820380516001836020036101000a031916815260200191505b509550505050505060405180910390f35b6102106004803603604081101561014d57600080fd5b810190808035906020019064010000000081111561016a57600080fd5b82018360208201111561017c57600080fd5b8035906020019184600183028401116401000000008311171561019e57600080fd5b91908080601f016020809104026020016040519081016040528093929190818152602001838380828437600081840152601f19601f820116905080830192505050505050509192919290803573ffffffffffffffffffffffffffffffffffffffff16906020019092919050505061040e565b60405180821515815260200191505060405180910390f35b6103016004803603604081101561023e57600080fd5b810190808035906020019064010000000081111561025b57600080fd5b82018360208201111561026d57600080fd5b8035906020019184600183028401116401000000008311171561028f57600080fd5b91908080601f016020809104026020016040519081016040528093929190818152602001838380828437600081840152601f19601f820116905080830192505050505050509192919290803573ffffffffffffffffffffffffffffffffffffffff1690602001909291905050506105cf565b60405180821515815260200191505060405180910390f35b6000602052806000526040600020600091509050806000015490806001018054600181600116156101000203166002900480601f0160208091040260200160405190810160405280929190818152602001828054600181600116156101000203166002900480156103cb5780601f106103a0576101008083540402835291602001916103cb565b820191906000526020600020905b8154815290600101906020018083116103ae57829003601f168201915b5050505050908060020160009054906101000a900473ffffffffffffffffffffffffffffffffffffffff16908060050160009054906101000a900460ff16905084565b600080600090506000808580519060200120815260200190815260200160002060050160009054906101000a900460ff16156105c55760005b60008086805190602001208152602001908152602001600020600301805490508110156105c35783604051602001808273ffffffffffffffffffffffffffffffffffffffff166c01000000000000000000000000028152601401915050604051602081830303815290604052805190602001206000808780519060200120815260200190815260200160002060030182815481106104e157fe5b9060005260206000200160009054906101000a900473ffffffffffffffffffffffffffffffffffffffff16604051602001808273ffffffffffffffffffffffffffffffffffffffff166c010000000000000000000000000281526014019150506040516020818303038152906040528051906020012014156105b65760008086805190602001208152602001908152602001600020600301818154811061058457fe5b9060005260206000200160006101000a81549073ffffffffffffffffffffffffffffffffffffffff0219169055600191505b8080600101915050610447565b505b8091505092915050565b600080600090506000808580519060200120815260200190815260200160002060050160009054906101000a900460ff16156107865760005b60008086805190602001208152602001908152602001600020600401805490508110156107845783604051602001808273ffffffffffffffffffffffffffffffffffffffff166c01000000000000000000000000028152601401915050604051602081830303815290604052805190602001206000808780519060200120815260200190815260200160002060040182815481106106a257fe5b9060005260206000200160009054906101000a900473ffffffffffffffffffffffffffffffffffffffff16604051602001808273ffffffffffffffffffffffffffffffffffffffff166c010000000000000000000000000281526014019150506040516020818303038152906040528051906020012014156107775760008086805190602001208152602001908152602001600020600401818154811061074557fe5b9060005260206000200160006101000a81549073ffffffffffffffffffffffffffffffffffffffff0219169055600191505b8080600101915050610608565b505b809150509291505056fea2646970667358221220626316a7ee393487fac11ef3a53c9d4348fe2fe8f4bcbfc20a629e8f30f96bfa64736f6c63430007000033",
  "immutableReferences": {},
  "source": "// SPDX-License-Identifier: MIT\npragma solidity >=0.4.22 <0.8.0;\nimport \"./TRC21.sol\";\n\ncontract ManageDocument{\n    struct Document {\n        uint timestamp;\n        bytes ipfs_hash;\n        address owner;\n        address[] approve;\n        address[] reject;\n        bool isExist;\n    }\n\n    mapping(bytes32 => Document) public documents;\n\n    event Add(bytes id, address indexed from, string comment);\n    event Delete(bytes id, address indexed from, string comment);\n    event Sign(bytes id, address indexed from, string comment);\n\n    /**\n\t * @dev Function to remove who approved this document\n\t * @param id The security Hash of documents.\n\t */\n    function removeApprove(bytes memory id, address checkAddress) public returns(bool){\n        bool result = false;\n        if(documents[keccak256(id)].isExist){\n            for(uint i = 0; i < documents[keccak256(id)].approve.length; i++){\n                if(keccak256(abi.encodePacked(documents[keccak256(id)].approve[i])) == keccak256(abi.encodePacked(checkAddress))){\n                    delete documents[keccak256(id)].approve[i];\n                    result = true;\n                }\n            }\n        } \n        return result;\n    }\n\n    /**\n\t * @dev Function to remove who rejected this document\n\t * @param id The security Hash of documents.\n\t */\n    function removeReject(bytes memory id, address checkAddress) public returns(bool){\n        bool result = false;\n        if(documents[keccak256(id)].isExist){\n            for(uint i = 0; i < documents[keccak256(id)].reject.length; i++){\n                if(keccak256(abi.encodePacked(documents[keccak256(id)].reject[i])) == keccak256(abi.encodePacked(checkAddress))){\n                    delete documents[keccak256(id)].reject[i];\n                    result = true;\n                }\n            }\n        } \n        return result;\n    }\n}",
  "sourcePath": "D:\\CN9\\Capstone\\LBAContract.github.io\\contracts\\ManageDocument.sol",
  "compiler": {
    "name": "solc",
    "version": "0.7.0+commit.9e61f92b.Emscripten.clang"
  },
  "schemaVersion": "3.3.4",
  "updatedAt": "2021-04-22T13:40:16.054Z",
  "devdoc": {
    "kind": "dev",
    "methods": {
      "removeApprove(bytes,address)": {
        "details": "Function to remove who approved this document",
        "params": {
          "id": "The security Hash of documents."
        }
      },
      "removeReject(bytes,address)": {
        "details": "Function to remove who rejected this document",
        "params": {
          "id": "The security Hash of documents."
        }
      }
    },
    "version": 1
  },
  "userdoc": {
    "kind": "user",
    "methods": {},
    "version": 1
  }
}