{
  "contractName": "Ownable",
  "abi": [
    {
      "inputs": [],
      "stateMutability": "nonpayable",
      "type": "constructor"
    },
    {
      "inputs": [],
      "name": "owner",
      "outputs": [
        {
          "internalType": "address",
          "name": "",
          "type": "address"
        }
      ],
      "stateMutability": "view",
      "type": "function"
    }
  ],
  "bytecode": "0x608060405234801561001057600080fd5b50336000806101000a81548173ffffffffffffffffffffffffffffffffffffffff021916908373ffffffffffffffffffffffffffffffffffffffff16021790555060d68061005f6000396000f3fe6080604052348015600f57600080fd5b50600436106045576000357c0100000000000000000000000000000000000000000000000000000000900480638da5cb5b14604a575b600080fd5b6050607c565b604051808273ffffffffffffffffffffffffffffffffffffffff16815260200191505060405180910390f35b60008054906101000a900473ffffffffffffffffffffffffffffffffffffffff168156fea2646970667358221220d118872af45b1edc811697adf9df56a197097ffe6da211eb69ceb5d3b14165b264736f6c63430007000033",
  "immutableReferences": {},
  "source": "// SPDX-License-Identifier: MIT\r\npragma solidity >=0.4.22 <0.8.0;\r\n\r\ncontract Ownable {\r\n    address public owner;\r\n    constructor() {\r\n      owner = msg.sender;\r\n      }\r\n\r\n    modifier onlyOwner() {\r\n      require(msg.sender == owner, \"This function is only use by Owner\");  \r\n      _;\r\n    }\r\n\r\n    modifier onlyUser() {  \r\n      require(msg.sender != owner, \"This function is only use by user\"); \r\n      _;\r\n    }\r\n} ",
  "sourcePath": "D:\\CN9\\Capstone\\LBAContract.github.io\\contracts\\Ownable.sol",
  "compiler": {
    "name": "solc",
    "version": "0.7.0+commit.9e61f92b.Emscripten.clang"
  },
  "schemaVersion": "3.3.3",
  "updatedAt": "2021-03-01T14:07:20.180Z",
  "devdoc": {
    "kind": "dev",
    "methods": {},
    "version": 1
  },
  "userdoc": {
    "kind": "user",
    "methods": {},
    "version": 1
  }
}