{
  "contractName": "SignDocument",
  "abi": [
    {
      "anonymous": false,
      "inputs": [
        {
          "indexed": false,
          "internalType": "bytes",
          "name": "id",
          "type": "bytes"
        },
        {
          "indexed": true,
          "internalType": "address",
          "name": "from",
          "type": "address"
        },
        {
          "indexed": false,
          "internalType": "string",
          "name": "comment",
          "type": "string"
        }
      ],
      "name": "Add",
      "type": "event"
    },
    {
      "anonymous": false,
      "inputs": [
        {
          "indexed": false,
          "internalType": "bytes",
          "name": "id",
          "type": "bytes"
        },
        {
          "indexed": true,
          "internalType": "address",
          "name": "from",
          "type": "address"
        },
        {
          "indexed": false,
          "internalType": "string",
          "name": "comment",
          "type": "string"
        }
      ],
      "name": "Sign",
      "type": "event"
    },
    {
      "inputs": [
        {
          "internalType": "bytes32",
          "name": "",
          "type": "bytes32"
        }
      ],
      "name": "documents",
      "outputs": [
        {
          "internalType": "uint256",
          "name": "timestamp",
          "type": "uint256"
        },
        {
          "internalType": "bytes",
          "name": "ipfs_hash",
          "type": "bytes"
        },
        {
          "internalType": "bool",
          "name": "isExist",
          "type": "bool"
        }
      ],
      "stateMutability": "view",
      "type": "function"
    },
    {
      "inputs": [
        {
          "internalType": "bytes",
          "name": "id",
          "type": "bytes"
        }
      ],
      "name": "addDocument",
      "outputs": [],
      "stateMutability": "nonpayable",
      "type": "function"
    },
    {
      "inputs": [
        {
          "internalType": "bytes",
          "name": "id",
          "type": "bytes"
        }
      ],
      "name": "signDocument",
      "outputs": [],
      "stateMutability": "nonpayable",
      "type": "function"
    },
    {
      "inputs": [
        {
          "internalType": "bytes",
          "name": "id",
          "type": "bytes"
        }
      ],
      "name": "getSignatures",
      "outputs": [
        {
          "internalType": "address[]",
          "name": "",
          "type": "address[]"
        }
      ],
      "stateMutability": "view",
      "type": "function"
    }
  ],
  "bytecode": "0x608060405234801561001057600080fd5b50610fdc806100206000396000f3fe608060405234801561001057600080fd5b5060043610610069576000357c010000000000000000000000000000000000000000000000000000000090048063228bc0a91461006e5780632b2805db146101295780636b45b4e3146101e0578063c63c5bd1146102f0575b600080fd5b6101276004803603602081101561008457600080fd5b81019080803590602001906401000000008111156100a157600080fd5b8201836020820111156100b357600080fd5b803590602001918460018302840111640100000000831117156100d557600080fd5b91908080601f016020809104026020016040519081016040528093929190818152602001838380828437600081840152601f19601f8201169050808301925050505050505091929192905050506103ab565b005b6101556004803603602081101561013f57600080fd5b81019080803590602001909291905050506107b3565b60405180848152602001806020018315158152602001828103825284818151815260200191508051906020019080838360005b838110156101a3578082015181840152602081019050610188565b50505050905090810190601f1680156101d05780820380516001836020036101000a031916815260200191505b5094505050505060405180910390f35b610299600480360360208110156101f657600080fd5b810190808035906020019064010000000081111561021357600080fd5b82018360208201111561022557600080fd5b8035906020019184600183028401116401000000008311171561024757600080fd5b91908080601f016020809104026020016040519081016040528093929190818152602001838380828437600081840152601f19601f820116905080830192505050505050509192919290505050610882565b6040518080602001828103825283818151815260200191508051906020019060200280838360005b838110156102dc5780820151818401526020810190506102c1565b505050509050019250505060405180910390f35b6103a96004803603602081101561030657600080fd5b810190808035906020019064010000000081111561032357600080fd5b82018360208201111561033557600080fd5b8035906020019184600183028401116401000000008311171561035757600080fd5b91908080601f016020809104026020016040519081016040528093929190818152602001838380828437600081840152601f19601f82011690508083019250505050505050919291929050505061092c565b005b6000808280519060200120815260200190815260200160002060030160009054906101000a900460ff1615610534573373ffffffffffffffffffffffffffffffffffffffff167fce62159ff3c25a8e61a8bc74b520c1c33ff5acc534e8af236f3b5a587b050b0582604051808060200180602001838103835284818151815260200191508051906020019080838360005b8381101561045757808201518184015260208101905061043c565b50505050905090810190601f1680156104845780820380516001836020036101000a031916815260200191505b50838103825260118152602001807f446f63756d656e74206973204578697374000000000000000000000000000000815250602001935050505060405180910390a26040517f08c379a00000000000000000000000000000000000000000000000000000000081526004018080602001828103825260118152602001807f446f63756d656e7420697320457869737400000000000000000000000000000081525060200191505060405180910390fd5b6060600167ffffffffffffffff8111801561054e57600080fd5b5060405190808252806020026020018201604052801561057d5781602001602082028036833780820191505090505b50905060405180608001604052804281526020014284336040516020018084815260200183805190602001908083835b602083106105d057805182526020820191506020810190506020830392506105ad565b6001836020036101000a0380198251168184511680821785525050505050509050018273ffffffffffffffffffffffffffffffffffffffff166c01000000000000000000000000028152601401935050505060405160208183030381529060405281526020018281526020016001151581525060008084805190602001208152602001908152602001600020600082015181600001556020820151816001019080519060200190610682929190610e44565b50604082015181600201908051906020019061069f929190610ec4565b5060608201518160030160006101000a81548160ff0219169083151502179055509050503373ffffffffffffffffffffffffffffffffffffffff167fce62159ff3c25a8e61a8bc74b520c1c33ff5acc534e8af236f3b5a587b050b0583604051808060200180602001838103835284818151815260200191508051906020019080838360005b83811015610740578082015181840152602081019050610725565b50505050905090810190601f16801561076d5780820380516001836020036101000a031916815260200191505b508381038252600e8152602001807f446f63756d656e74204164646564000000000000000000000000000000000000815250602001935050505060405180910390a25050565b6000602052806000526040600020600091509050806000015490806001018054600181600116156101000203166002900480601f0160208091040260200160405190810160405280929190818152602001828054600181600116156101000203166002900480156108655780601f1061083a57610100808354040283529160200191610865565b820191906000526020600020905b81548152906001019060200180831161084857829003601f168201915b5050505050908060030160009054906101000a900460ff16905083565b60606000808380519060200120815260200190815260200160002060020180548060200260200160405190810160405280929190818152602001828054801561092057602002820191906000526020600020905b8160009054906101000a900473ffffffffffffffffffffffffffffffffffffffff1673ffffffffffffffffffffffffffffffffffffffff16815260200190600101908083116108d6575b50505050509050919050565b6000808280519060200120815260200190815260200160002060030160009054906101000a900460ff16610ab4573373ffffffffffffffffffffffffffffffffffffffff167f7b178bf1583b36c417d982a222dfebdf8e3c8ecff7e75e459627b176a9e8bd7282604051808060200180602001838103835284818151815260200191508051906020019080838360005b838110156109d75780820151818401526020810190506109bc565b50505050905090810190601f168015610a045780820380516001836020036101000a031916815260200191505b50838103825260158152602001807f446f63756d656e74206973206e6f742045786973740000000000000000000000815250602001935050505060405180910390a26040517f08c379a00000000000000000000000000000000000000000000000000000000081526004018080602001828103825260158152602001807f446f63756d656e74206973206e6f74204578697374000000000000000000000081525060200191505060405180910390fd5b6000805b6000808480519060200120815260200190815260200160002060020180549050811015610be45733604051602001808273ffffffffffffffffffffffffffffffffffffffff166c0100000000000000000000000002815260140191505060405160208183030381529060405280519060200120600080858051906020012081526020019081526020016000206002018281548110610b5257fe5b9060005260206000200160009054906101000a900473ffffffffffffffffffffffffffffffffffffffff16604051602001808273ffffffffffffffffffffffffffffffffffffffff166c01000000000000000000000000028152601401915050604051602081830303815290604052805190602001201415610bd75760019150610be4565b8080600101915050610ab8565b5080610d545760008083805190602001208152602001908152602001600020600201339080600181540180825580915050600190039060005260206000200160009091909190916101000a81548173ffffffffffffffffffffffffffffffffffffffff021916908373ffffffffffffffffffffffffffffffffffffffff1602179055503373ffffffffffffffffffffffffffffffffffffffff167f7b178bf1583b36c417d982a222dfebdf8e3c8ecff7e75e459627b176a9e8bd7283604051808060200180602001838103835284818151815260200191508051906020019080838360005b83811015610ce4578082015181840152602081019050610cc9565b50505050905090810190601f168015610d115780820380516001836020036101000a031916815260200191505b508381038252600f8152602001807f446f63756d656e74205369676e65640000000000000000000000000000000000815250602001935050505060405180910390a25b3373ffffffffffffffffffffffffffffffffffffffff167f7b178bf1583b36c417d982a222dfebdf8e3c8ecff7e75e459627b176a9e8bd7283604051808060200180602001838103835284818151815260200191508051906020019080838360005b83811015610dd1578082015181840152602081019050610db6565b50505050905090810190601f168015610dfe5780820380516001836020036101000a031916815260200191505b50838103825260178152602001807f446f63756d656e7420616c7265616479205369676e6564000000000000000000815250602001935050505060405180910390a25050565b828054600181600116156101000203166002900490600052602060002090601f016020900481019282601f10610e8557805160ff1916838001178555610eb3565b82800160010185558215610eb3579182015b82811115610eb2578251825591602001919060010190610e97565b5b509050610ec09190610f4e565b5090565b828054828255906000526020600020908101928215610f3d579160200282015b82811115610f3c5782518260006101000a81548173ffffffffffffffffffffffffffffffffffffffff021916908373ffffffffffffffffffffffffffffffffffffffff16021790555091602001919060010190610ee4565b5b509050610f4a9190610f6b565b5090565b5b80821115610f67576000816000905550600101610f4f565b5090565b5b80821115610fa257600081816101000a81549073ffffffffffffffffffffffffffffffffffffffff021916905550600101610f6c565b509056fea26469706673582212201e30a947b572decfc31e3fb2af685a0d6c5f0bf9a529680cec7f9fbd3a7a6a6c64736f6c63430007000033",
  "immutableReferences": {},
  "source": "// SPDX-License-Identifier: MIT\r\npragma solidity >=0.4.22 <0.8.0;\r\nimport \"./TRC21.sol\";\r\n\r\ncontract SignDocument{\r\n    struct Document {\r\n        uint timestamp;\r\n        bytes ipfs_hash;\r\n        address[] signatures;\r\n        bool isExist;\r\n    }\r\n\r\n    mapping(bytes32 => Document) public documents; \r\n\r\n    event Add(bytes id, address indexed from, string comment);\r\n    event Sign(bytes id, address indexed from, string comment);\r\n\r\n    function addDocument(bytes memory id) public {\r\n        if(documents[keccak256(id)].isExist){\r\n            emit Add(id, msg.sender, \"Document is Exist\");\r\n            revert(\"Document is Exist\");\r\n        } \r\n        address[] memory sender = new address[](1);\r\n        documents[keccak256(id)] = Document(block.timestamp, abi.encodePacked(block.timestamp, id, msg.sender), sender, true);\r\n        emit Add(id, msg.sender, \"Document Added\");\r\n    }\r\n\r\n    function signDocument(bytes memory id) public {\r\n        if(!documents[keccak256(id)].isExist){\r\n            emit Sign(id, msg.sender, \"Document is not Exist\"); \r\n            revert(\"Document is not Exist\");\r\n        }\r\n        bool checkDulicate = false;\r\n        for(uint i = 0; i < documents[keccak256(id)].signatures.length; i++){\r\n            if(keccak256(abi.encodePacked(documents[keccak256(id)].signatures[i])) == keccak256(abi.encodePacked(msg.sender))){\r\n                checkDulicate = true;\r\n                break;\r\n            }\r\n        }\r\n        if(!checkDulicate){\r\n            documents[keccak256(id)].signatures.push(msg.sender);\r\n            emit Sign(id, msg.sender, \"Document Signed\");\r\n        }\r\n        emit Sign(id, msg.sender, \"Document already Signed\");\r\n    }\r\n    \r\n    function getSignatures(bytes memory id) public view returns (address[] memory) {\r\n        return documents[keccak256(id)].signatures;\r\n    }\r\n}",
  "sourcePath": "D:\\CN9\\Capstone\\LBAContract.github.io\\contracts\\SignDocument.sol",
  "compiler": {
    "name": "solc",
    "version": "0.7.0+commit.9e61f92b.Emscripten.clang"
  },
  "schemaVersion": "3.3.3",
  "updatedAt": "2021-03-01T14:29:14.257Z",
  "devdoc": {
    "kind": "dev",
    "methods": {},
    "version": 1
  },
  "userdoc": {
    "kind": "user",
    "methods": {},
    "version": 1
  }
}