{
  "contractName": "SignDocument",
  "abi": [
    {
      "inputs": [
        {
          "internalType": "bytes32",
          "name": "",
          "type": "bytes32"
        }
      ],
      "name": "documents",
      "outputs": [
        {
          "internalType": "uint256",
          "name": "timestamp",
          "type": "uint256"
        },
        {
          "internalType": "bytes",
          "name": "ipfs_hash",
          "type": "bytes"
        },
        {
          "internalType": "bool",
          "name": "isExist",
          "type": "bool"
        }
      ],
      "stateMutability": "view",
      "type": "function"
    },
    {
      "inputs": [
        {
          "internalType": "bytes",
          "name": "id",
          "type": "bytes"
        }
      ],
      "name": "addDocument",
      "outputs": [],
      "stateMutability": "nonpayable",
      "type": "function"
    },
    {
      "inputs": [
        {
          "internalType": "bytes",
          "name": "id",
          "type": "bytes"
        }
      ],
      "name": "signDocument",
      "outputs": [],
      "stateMutability": "nonpayable",
      "type": "function"
    },
    {
      "inputs": [
        {
          "internalType": "bytes",
          "name": "id",
          "type": "bytes"
        }
      ],
      "name": "getSignatures",
      "outputs": [
        {
          "internalType": "address[]",
          "name": "",
          "type": "address[]"
        }
      ],
      "stateMutability": "view",
      "type": "function"
    }
  ],
  "bytecode": "0x608060405234801561001057600080fd5b50610b9c806100206000396000f3fe608060405234801561001057600080fd5b5060043610610069576000357c010000000000000000000000000000000000000000000000000000000090048063228bc0a91461006e5780632b2805db146101295780636b45b4e3146101e0578063c63c5bd1146102f0575b600080fd5b6101276004803603602081101561008457600080fd5b81019080803590602001906401000000008111156100a157600080fd5b8201836020820111156100b357600080fd5b803590602001918460018302840111640100000000831117156100d557600080fd5b91908080601f016020809104026020016040519081016040528093929190818152602001838380828437600081840152601f19601f8201169050808301925050505050505091929192905050506103ab565b005b6101556004803603602081101561013f57600080fd5b8101908080359060200190929190505050610637565b60405180848152602001806020018315158152602001828103825284818151815260200191508051906020019080838360005b838110156101a3578082015181840152602081019050610188565b50505050905090810190601f1680156101d05780820380516001836020036101000a031916815260200191505b5094505050505060405180910390f35b610299600480360360208110156101f657600080fd5b810190808035906020019064010000000081111561021357600080fd5b82018360208201111561022557600080fd5b8035906020019184600183028401116401000000008311171561024757600080fd5b91908080601f016020809104026020016040519081016040528093929190818152602001838380828437600081840152601f19601f820116905080830192505050505050509192919290505050610706565b6040518080602001828103825283818151815260200191508051906020019060200280838360005b838110156102dc5780820151818401526020810190506102c1565b505050509050019250505060405180910390f35b6103a96004803603602081101561030657600080fd5b810190808035906020019064010000000081111561032357600080fd5b82018360208201111561033557600080fd5b8035906020019184600183028401116401000000008311171561035757600080fd5b91908080601f016020809104026020016040519081016040528093929190818152602001838380828437600081840152601f19601f8201169050808301925050505050505091929192905050506107b0565b005b6000808280519060200120815260200190815260200160002060030160009054906101000a900460ff1615610448576040517f08c379a00000000000000000000000000000000000000000000000000000000081526004018080602001828103825260118152602001807f446f63756d656e7420697320457869737400000000000000000000000000000081525060200191505060405180910390fd5b6060600167ffffffffffffffff8111801561046257600080fd5b506040519080825280602002602001820160405280156104915781602001602082028036833780820191505090505b50905033816000815181106104a257fe5b602002602001019073ffffffffffffffffffffffffffffffffffffffff16908173ffffffffffffffffffffffffffffffffffffffff168152505060405180608001604052804281526020014284846000815181106104fc57fe5b60200260200101516040516020018084815260200183805190602001908083835b60208310610540578051825260208201915060208101905060208303925061051d565b6001836020036101000a0380198251168184511680821785525050505050509050018273ffffffffffffffffffffffffffffffffffffffff166c010000000000000000000000000281526014019350505050604051602081830303815290604052815260200182815260200160011515815250600080848051906020012081526020019081526020016000206000820151816000015560208201518160010190805190602001906105f2929190610a04565b50604082015181600201908051906020019061060f929190610a84565b5060608201518160030160006101000a81548160ff0219169083151502179055509050505050565b6000602052806000526040600020600091509050806000015490806001018054600181600116156101000203166002900480601f0160208091040260200160405190810160405280929190818152602001828054600181600116156101000203166002900480156106e95780601f106106be576101008083540402835291602001916106e9565b820191906000526020600020905b8154815290600101906020018083116106cc57829003601f168201915b5050505050908060030160009054906101000a900460ff16905083565b6060600080838051906020012081526020019081526020016000206002018054806020026020016040519081016040528092919081815260200182805480156107a457602002820191906000526020600020905b8160009054906101000a900473ffffffffffffffffffffffffffffffffffffffff1673ffffffffffffffffffffffffffffffffffffffff168152602001906001019080831161075a575b50505050509050919050565b6000808280519060200120815260200190815260200160002060030160009054906101000a900460ff1661084c576040517f08c379a00000000000000000000000000000000000000000000000000000000081526004018080602001828103825260158152602001807f446f63756d656e74206973206e6f74204578697374000000000000000000000081525060200191505060405180910390fd5b6000805b600080848051906020012081526020019081526020016000206002018054905081101561097c5733604051602001808273ffffffffffffffffffffffffffffffffffffffff166c01000000000000000000000000028152601401915050604051602081830303815290604052805190602001206000808580519060200120815260200190815260200160002060020182815481106108ea57fe5b9060005260206000200160009054906101000a900473ffffffffffffffffffffffffffffffffffffffff16604051602001808273ffffffffffffffffffffffffffffffffffffffff166c0100000000000000000000000002815260140191505060405160208183030381529060405280519060200120141561096f576001915061097c565b8080600101915050610850565b5080610a005760008083805190602001208152602001908152602001600020600201339080600181540180825580915050600190039060005260206000200160009091909190916101000a81548173ffffffffffffffffffffffffffffffffffffffff021916908373ffffffffffffffffffffffffffffffffffffffff1602179055505b5050565b828054600181600116156101000203166002900490600052602060002090601f016020900481019282601f10610a4557805160ff1916838001178555610a73565b82800160010185558215610a73579182015b82811115610a72578251825591602001919060010190610a57565b5b509050610a809190610b0e565b5090565b828054828255906000526020600020908101928215610afd579160200282015b82811115610afc5782518260006101000a81548173ffffffffffffffffffffffffffffffffffffffff021916908373ffffffffffffffffffffffffffffffffffffffff16021790555091602001919060010190610aa4565b5b509050610b0a9190610b2b565b5090565b5b80821115610b27576000816000905550600101610b0f565b5090565b5b80821115610b6257600081816101000a81549073ffffffffffffffffffffffffffffffffffffffff021916905550600101610b2c565b509056fea2646970667358221220f5573c44b6b2a8f336ea3598d9b2d67466382cf72fbd77bf994fe11b9a9f223164736f6c63430007000033",
  "immutableReferences": {},
  "source": "// SPDX-License-Identifier: MIT\r\npragma solidity >=0.4.22 <0.8.0;\r\nimport \"./TRC21.sol\";\r\n\r\ncontract SignDocument{\r\n    struct Document {\r\n        uint timestamp;\r\n        bytes ipfs_hash;\r\n        address[] signatures;\r\n        bool isExist;\r\n    }\r\n\r\n    mapping(bytes32 => Document) public documents; \r\n\r\n    function addDocument(bytes memory id) public {\r\n        require(!documents[keccak256(id)].isExist, \"Document is Exist\");\r\n        address[] memory sender = new address[](1);\r\n        sender[0] = msg.sender;\r\n        documents[keccak256(id)] = Document(block.timestamp, abi.encodePacked(block.timestamp, id, sender[0]), sender, true);\r\n    }\r\n\r\n    function signDocument(bytes memory id) public {\r\n        require(documents[keccak256(id)].isExist, \"Document is not Exist\");\r\n        bool checkDulicate = false;\r\n        for(uint i = 0; i < documents[keccak256(id)].signatures.length; i++){\r\n            if(keccak256(abi.encodePacked(documents[keccak256(id)].signatures[i])) == keccak256(abi.encodePacked(msg.sender))){\r\n                checkDulicate = true;\r\n                break;\r\n            }\r\n        }\r\n\r\n        if(!checkDulicate){\r\n            documents[keccak256(id)].signatures.push(msg.sender);\r\n        }\r\n    }\r\n    \r\n    function getSignatures(bytes memory id) public view returns (address[] memory) {\r\n        return documents[keccak256(id)].signatures;\r\n    }\r\n}",
  "sourcePath": "D:\\CN9\\Capstone\\blockchain-1\\contracts\\SignDocument.sol",
  "compiler": {
    "name": "solc",
    "version": "0.7.0+commit.9e61f92b.Emscripten.clang"
  },
  "schemaVersion": "3.3.3",
  "updatedAt": "2021-02-04T06:58:14.523Z",
  "devdoc": {
    "kind": "dev",
    "methods": {},
    "version": 1
  },
  "userdoc": {
    "kind": "user",
    "methods": {},
    "version": 1
  }
}