{
  "contractName": "Support",
  "abi": [
    {
      "anonymous": false,
      "inputs": [
        {
          "indexed": false,
          "internalType": "bytes",
          "name": "id",
          "type": "bytes"
        },
        {
          "indexed": true,
          "internalType": "address",
          "name": "from",
          "type": "address"
        },
        {
          "indexed": false,
          "internalType": "string",
          "name": "comment",
          "type": "string"
        }
      ],
      "name": "Add",
      "type": "event"
    },
    {
      "anonymous": false,
      "inputs": [
        {
          "indexed": true,
          "internalType": "address",
          "name": "owner",
          "type": "address"
        },
        {
          "indexed": true,
          "internalType": "address",
          "name": "spender",
          "type": "address"
        },
        {
          "indexed": false,
          "internalType": "uint256",
          "name": "value",
          "type": "uint256"
        }
      ],
      "name": "Approval",
      "type": "event"
    },
    {
      "anonymous": false,
      "inputs": [
        {
          "indexed": true,
          "internalType": "address",
          "name": "owner",
          "type": "address"
        },
        {
          "indexed": false,
          "internalType": "string",
          "name": "campaignId",
          "type": "string"
        },
        {
          "indexed": false,
          "internalType": "uint256",
          "name": "value",
          "type": "uint256"
        }
      ],
      "name": "AuthorityCampaign",
      "type": "event"
    },
    {
      "anonymous": false,
      "inputs": [
        {
          "indexed": true,
          "internalType": "address",
          "name": "owner",
          "type": "address"
        },
        {
          "indexed": false,
          "internalType": "string",
          "name": "campaignId",
          "type": "string"
        },
        {
          "indexed": false,
          "internalType": "uint256",
          "name": "value",
          "type": "uint256"
        }
      ],
      "name": "CreateCampaign",
      "type": "event"
    },
    {
      "anonymous": false,
      "inputs": [
        {
          "indexed": true,
          "internalType": "address",
          "name": "from",
          "type": "address"
        },
        {
          "indexed": true,
          "internalType": "address",
          "name": "to",
          "type": "address"
        },
        {
          "indexed": true,
          "internalType": "address",
          "name": "issuer",
          "type": "address"
        },
        {
          "indexed": false,
          "internalType": "uint256",
          "name": "value",
          "type": "uint256"
        }
      ],
      "name": "Fee",
      "type": "event"
    },
    {
      "anonymous": false,
      "inputs": [
        {
          "indexed": true,
          "internalType": "address",
          "name": "account",
          "type": "address"
        }
      ],
      "name": "MinterAdded",
      "type": "event"
    },
    {
      "anonymous": false,
      "inputs": [
        {
          "indexed": true,
          "internalType": "address",
          "name": "account",
          "type": "address"
        }
      ],
      "name": "MinterRemoved",
      "type": "event"
    },
    {
      "anonymous": false,
      "inputs": [
        {
          "indexed": false,
          "internalType": "bytes",
          "name": "id",
          "type": "bytes"
        },
        {
          "indexed": true,
          "internalType": "address",
          "name": "from",
          "type": "address"
        },
        {
          "indexed": false,
          "internalType": "string",
          "name": "comment",
          "type": "string"
        }
      ],
      "name": "Sign",
      "type": "event"
    },
    {
      "anonymous": false,
      "inputs": [
        {
          "indexed": true,
          "internalType": "address",
          "name": "from",
          "type": "address"
        },
        {
          "indexed": true,
          "internalType": "address",
          "name": "to",
          "type": "address"
        },
        {
          "indexed": false,
          "internalType": "uint256",
          "name": "value",
          "type": "uint256"
        }
      ],
      "name": "Transfer",
      "type": "event"
    },
    {
      "inputs": [
        {
          "internalType": "bytes",
          "name": "id",
          "type": "bytes"
        }
      ],
      "name": "addDocument",
      "outputs": [],
      "stateMutability": "nonpayable",
      "type": "function"
    },
    {
      "inputs": [
        {
          "internalType": "address",
          "name": "account",
          "type": "address"
        }
      ],
      "name": "addMinter",
      "outputs": [],
      "stateMutability": "nonpayable",
      "type": "function"
    },
    {
      "inputs": [
        {
          "internalType": "address",
          "name": "owner",
          "type": "address"
        },
        {
          "internalType": "address",
          "name": "spender",
          "type": "address"
        }
      ],
      "name": "allowance",
      "outputs": [
        {
          "internalType": "uint256",
          "name": "",
          "type": "uint256"
        }
      ],
      "stateMutability": "view",
      "type": "function",
      "constant": true
    },
    {
      "inputs": [
        {
          "internalType": "address",
          "name": "spender",
          "type": "address"
        },
        {
          "internalType": "uint256",
          "name": "value",
          "type": "uint256"
        }
      ],
      "name": "approve",
      "outputs": [
        {
          "internalType": "bool",
          "name": "",
          "type": "bool"
        }
      ],
      "stateMutability": "nonpayable",
      "type": "function"
    },
    {
      "inputs": [
        {
          "internalType": "address",
          "name": "owner",
          "type": "address"
        }
      ],
      "name": "balanceOf",
      "outputs": [
        {
          "internalType": "uint256",
          "name": "",
          "type": "uint256"
        }
      ],
      "stateMutability": "view",
      "type": "function",
      "constant": true
    },
    {
      "inputs": [
        {
          "internalType": "uint256",
          "name": "value",
          "type": "uint256"
        }
      ],
      "name": "burn",
      "outputs": [
        {
          "internalType": "bool",
          "name": "",
          "type": "bool"
        }
      ],
      "stateMutability": "nonpayable",
      "type": "function"
    },
    {
      "inputs": [
        {
          "internalType": "string",
          "name": "",
          "type": "string"
        }
      ],
      "name": "campaigns",
      "outputs": [
        {
          "internalType": "string",
          "name": "campaignId",
          "type": "string"
        },
        {
          "internalType": "address",
          "name": "advertiser",
          "type": "address"
        },
        {
          "internalType": "uint256",
          "name": "totalBudget",
          "type": "uint256"
        },
        {
          "internalType": "uint256",
          "name": "remainBudget",
          "type": "uint256"
        },
        {
          "internalType": "uint256",
          "name": "feeCancel",
          "type": "uint256"
        },
        {
          "internalType": "bool",
          "name": "isActive",
          "type": "bool"
        },
        {
          "internalType": "bool",
          "name": "isExist",
          "type": "bool"
        }
      ],
      "stateMutability": "view",
      "type": "function",
      "constant": true
    },
    {
      "inputs": [],
      "name": "decimals",
      "outputs": [
        {
          "internalType": "uint8",
          "name": "",
          "type": "uint8"
        }
      ],
      "stateMutability": "view",
      "type": "function",
      "constant": true
    },
    {
      "inputs": [
        {
          "internalType": "bytes32",
          "name": "",
          "type": "bytes32"
        }
      ],
      "name": "documents",
      "outputs": [
        {
          "internalType": "uint256",
          "name": "timestamp",
          "type": "uint256"
        },
        {
          "internalType": "bytes",
          "name": "ipfs_hash",
          "type": "bytes"
        },
        {
          "internalType": "bool",
          "name": "isExist",
          "type": "bool"
        }
      ],
      "stateMutability": "view",
      "type": "function",
      "constant": true
    },
    {
      "inputs": [
        {
          "internalType": "uint256",
          "name": "value",
          "type": "uint256"
        }
      ],
      "name": "estimateFee",
      "outputs": [
        {
          "internalType": "uint256",
          "name": "",
          "type": "uint256"
        }
      ],
      "stateMutability": "view",
      "type": "function",
      "constant": true
    },
    {
      "inputs": [
        {
          "internalType": "bytes",
          "name": "id",
          "type": "bytes"
        }
      ],
      "name": "getSignatures",
      "outputs": [
        {
          "internalType": "address[]",
          "name": "",
          "type": "address[]"
        }
      ],
      "stateMutability": "view",
      "type": "function",
      "constant": true
    },
    {
      "inputs": [
        {
          "internalType": "address",
          "name": "account",
          "type": "address"
        }
      ],
      "name": "isMinter",
      "outputs": [
        {
          "internalType": "bool",
          "name": "",
          "type": "bool"
        }
      ],
      "stateMutability": "view",
      "type": "function",
      "constant": true
    },
    {
      "inputs": [],
      "name": "issuer",
      "outputs": [
        {
          "internalType": "address",
          "name": "",
          "type": "address"
        }
      ],
      "stateMutability": "view",
      "type": "function",
      "constant": true
    },
    {
      "inputs": [],
      "name": "minFee",
      "outputs": [
        {
          "internalType": "uint256",
          "name": "",
          "type": "uint256"
        }
      ],
      "stateMutability": "view",
      "type": "function",
      "constant": true
    },
    {
      "inputs": [
        {
          "internalType": "address",
          "name": "to",
          "type": "address"
        },
        {
          "internalType": "uint256",
          "name": "value",
          "type": "uint256"
        }
      ],
      "name": "mint",
      "outputs": [
        {
          "internalType": "bool",
          "name": "",
          "type": "bool"
        }
      ],
      "stateMutability": "nonpayable",
      "type": "function"
    },
    {
      "inputs": [],
      "name": "name",
      "outputs": [
        {
          "internalType": "string",
          "name": "",
          "type": "string"
        }
      ],
      "stateMutability": "view",
      "type": "function",
      "constant": true
    },
    {
      "inputs": [],
      "name": "owner",
      "outputs": [
        {
          "internalType": "address",
          "name": "",
          "type": "address"
        }
      ],
      "stateMutability": "view",
      "type": "function",
      "constant": true
    },
    {
      "inputs": [],
      "name": "renounceMinter",
      "outputs": [],
      "stateMutability": "nonpayable",
      "type": "function"
    },
    {
      "inputs": [
        {
          "internalType": "uint256",
          "name": "value",
          "type": "uint256"
        }
      ],
      "name": "setMinFee",
      "outputs": [],
      "stateMutability": "nonpayable",
      "type": "function"
    },
    {
      "inputs": [
        {
          "internalType": "bytes",
          "name": "id",
          "type": "bytes"
        }
      ],
      "name": "signDocument",
      "outputs": [],
      "stateMutability": "nonpayable",
      "type": "function"
    },
    {
      "inputs": [],
      "name": "symbol",
      "outputs": [
        {
          "internalType": "string",
          "name": "",
          "type": "string"
        }
      ],
      "stateMutability": "view",
      "type": "function",
      "constant": true
    },
    {
      "inputs": [],
      "name": "totalSupply",
      "outputs": [
        {
          "internalType": "uint256",
          "name": "",
          "type": "uint256"
        }
      ],
      "stateMutability": "view",
      "type": "function",
      "constant": true
    },
    {
      "inputs": [
        {
          "internalType": "address",
          "name": "to",
          "type": "address"
        },
        {
          "internalType": "uint256",
          "name": "value",
          "type": "uint256"
        }
      ],
      "name": "transfer",
      "outputs": [
        {
          "internalType": "bool",
          "name": "",
          "type": "bool"
        }
      ],
      "stateMutability": "nonpayable",
      "type": "function"
    },
    {
      "inputs": [
        {
          "internalType": "address",
          "name": "from",
          "type": "address"
        },
        {
          "internalType": "address",
          "name": "to",
          "type": "address"
        },
        {
          "internalType": "uint256",
          "name": "value",
          "type": "uint256"
        }
      ],
      "name": "transferFrom",
      "outputs": [
        {
          "internalType": "bool",
          "name": "",
          "type": "bool"
        }
      ],
      "stateMutability": "nonpayable",
      "type": "function"
    },
    {
      "inputs": [
        {
          "internalType": "string",
          "name": "campaignId",
          "type": "string"
        },
        {
          "internalType": "uint256",
          "name": "totalWithFee",
          "type": "uint256"
        },
        {
          "internalType": "uint256",
          "name": "totalBudget",
          "type": "uint256"
        },
        {
          "internalType": "uint256",
          "name": "remainBudget",
          "type": "uint256"
        },
        {
          "internalType": "uint256",
          "name": "feeCancel",
          "type": "uint256"
        }
      ],
      "name": "createCampaign",
      "outputs": [],
      "stateMutability": "nonpayable",
      "type": "function"
    },
    {
      "inputs": [
        {
          "internalType": "string",
          "name": "campaignId",
          "type": "string"
        },
        {
          "internalType": "uint256",
          "name": "redudant",
          "type": "uint256"
        }
      ],
      "name": "checkOutCampaign",
      "outputs": [],
      "stateMutability": "nonpayable",
      "type": "function"
    },
    {
      "inputs": [
        {
          "internalType": "string",
          "name": "campaignId",
          "type": "string"
        },
        {
          "internalType": "address",
          "name": "supplier",
          "type": "address"
        },
        {
          "internalType": "uint256",
          "name": "value",
          "type": "uint256"
        }
      ],
      "name": "payToSupplier",
      "outputs": [
        {
          "internalType": "bool",
          "name": "",
          "type": "bool"
        }
      ],
      "stateMutability": "nonpayable",
      "type": "function"
    },
    {
      "inputs": [
        {
          "internalType": "string",
          "name": "campaignId",
          "type": "string"
        }
      ],
      "name": "cancelCampaign",
      "outputs": [],
      "stateMutability": "nonpayable",
      "type": "function"
    },
    {
      "inputs": [
        {
          "internalType": "string",
          "name": "campaignId",
          "type": "string"
        }
      ],
      "name": "getCampaignById",
      "outputs": [
        {
          "components": [
            {
              "internalType": "string",
              "name": "campaignId",
              "type": "string"
            },
            {
              "internalType": "address",
              "name": "advertiser",
              "type": "address"
            },
            {
              "internalType": "uint256",
              "name": "totalBudget",
              "type": "uint256"
            },
            {
              "internalType": "uint256",
              "name": "remainBudget",
              "type": "uint256"
            },
            {
              "internalType": "uint256",
              "name": "feeCancel",
              "type": "uint256"
            },
            {
              "internalType": "bool",
              "name": "isActive",
              "type": "bool"
            },
            {
              "internalType": "bool",
              "name": "isExist",
              "type": "bool"
            }
          ],
          "internalType": "struct CampaignDetail.Campaign",
          "name": "",
          "type": "tuple"
        }
      ],
      "stateMutability": "view",
      "type": "function",
      "constant": true
    }
  ],
  "bytecode": "0x60806040523480156200001157600080fd5b506040518060400160405280600b81526020017f41647665726973696e67320000000000000000000000000000000000000000008152506040518060400160405280600481526020017f4c4241320000000000000000000000000000000000000000000000000000000081525060006012600a0a6000026012600a0a600102620000aa3362000192640100000000026401000000009004565b33600660006101000a81548173ffffffffffffffffffffffffffffffffffffffff021916908373ffffffffffffffffffffffffffffffffffffffff1602179055508460079080519060200190620001039291906200056a565b5083600890805190602001906200011c9291906200056a565b5082600960006101000a81548160ff021916908360ff160217905550620001533083620001fc640100000000026401000000009004565b6200016d336200036f640100000000026401000000009004565b6200018781620003ee640100000000026401000000009004565b505050505062000620565b620001b6816005620003f864010000000002620028f7179091906401000000009004565b8073ffffffffffffffffffffffffffffffffffffffff167f6ae172837ea30b801fbfcdd4108aa1d5bf8ff775444fd70256b44e6bf3dfc3f660405160405180910390a250565b600073ffffffffffffffffffffffffffffffffffffffff168273ffffffffffffffffffffffffffffffffffffffff1614156200023757600080fd5b6200025c81600454620004b764010000000002620029a3179091906401000000009004565b600481905550620002c3816000808573ffffffffffffffffffffffffffffffffffffffff1673ffffffffffffffffffffffffffffffffffffffff16815260200190815260200160002054620004b764010000000002620029a3179091906401000000009004565b6000808473ffffffffffffffffffffffffffffffffffffffff1673ffffffffffffffffffffffffffffffffffffffff168152602001908152602001600020819055508173ffffffffffffffffffffffffffffffffffffffff16600073ffffffffffffffffffffffffffffffffffffffff167fddf252ad1be2c89b69c2b068fc378daa952ba7f163c4a11628f55a4df523b3ef836040518082815260200191505060405180910390a35050565b600073ffffffffffffffffffffffffffffffffffffffff168173ffffffffffffffffffffffffffffffffffffffff161415620003aa57600080fd5b80600260006101000a81548173ffffffffffffffffffffffffffffffffffffffff021916908373ffffffffffffffffffffffffffffffffffffffff16021790555050565b8060018190555050565b600073ffffffffffffffffffffffffffffffffffffffff168173ffffffffffffffffffffffffffffffffffffffff1614156200043357600080fd5b6200044e8282620004d7640100000000026401000000009004565b156200045957600080fd5b60018260000160008373ffffffffffffffffffffffffffffffffffffffff1673ffffffffffffffffffffffffffffffffffffffff16815260200190815260200160002060006101000a81548160ff0219169083151502179055505050565b600080828401905083811015620004cd57600080fd5b8091505092915050565b60008073ffffffffffffffffffffffffffffffffffffffff168273ffffffffffffffffffffffffffffffffffffffff1614156200051357600080fd5b8260000160008373ffffffffffffffffffffffffffffffffffffffff1673ffffffffffffffffffffffffffffffffffffffff16815260200190815260200160002060009054906101000a900460ff16905092915050565b828054600181600116156101000203166002900490600052602060002090601f016020900481019282620005a25760008555620005ee565b82601f10620005bd57805160ff1916838001178555620005ee565b82800160010185558215620005ee579182015b82811115620005ed578251825591602001919060010190620005d0565b5b509050620005fd919062000601565b5090565b5b808211156200061c57600081600090555060010162000602565b5090565b613fc780620006306000396000f3fe608060405234801561001057600080fd5b50600436106101ec576000357c0100000000000000000000000000000000000000000000000000000000900480636b45b4e311610121578063aa271e1a116100bf578063dd62ed3e1161008e578063dd62ed3e146105a1578063e26034cd146105d1578063e35d66a814610601578063e631ce991461061d576101ec565b8063aa271e1a14610509578063c63c5bd114610539578063c79de09b14610555578063d63e832514610571576101ec565b806395d89b41116100fb57806395d89b4114610495578063983b2d56146104b357806398650275146104cf578063a9059cbb146104d9576101ec565b80636b45b4e31461041757806370a08231146104475780638da5cb5b14610477576101ec565b806323b872dd1161018e578063313ce56711610168578063313ce5671461037d57806331ac99201461039b57806340c10f19146103b757806342966c68146103e7576101ec565b806323b872dd146102fd57806324ec75901461032d5780632b2805db1461034b576101ec565b806318160ddd116101ca57806318160ddd1461026f5780631d1438481461028d5780631d39e509146102ab578063228bc0a9146102e1576101ec565b806306fdde03146101f1578063095ea7b31461020f578063127e8e4d1461023f575b600080fd5b6101f9610639565b6040516102069190613b59565b60405180910390f35b61022960048036038101906102249190613539565b6106db565b6040516102369190613b3e565b60405180910390f35b6102596004803603810190610254919061376a565b610882565b6040516102669190613cc3565b60405180910390f35b6102776108b3565b6040516102849190613cc3565b60405180910390f35b6102956108bd565b6040516102a29190613b01565b60405180910390f35b6102c560048036038101906102c091906135df565b6108e7565b6040516102d89796959493929190613b7b565b60405180910390f35b6102fb60048036038101906102f6919061359e565b610a11565b005b610317600480360381019061031291906134ea565b610e1b565b6040516103249190613b3e565b60405180910390f35b6103356111bf565b6040516103429190613cc3565b60405180910390f35b61036560048036038101906103609190613575565b6111c9565b60405161037493929190613cde565b60405180910390f35b610385611298565b6040516103929190613d1c565b60405180910390f35b6103b560048036038101906103b0919061376a565b6112af565b005b6103d160048036038101906103cc9190613539565b6112fa565b6040516103de9190613b3e565b60405180910390f35b61040160048036038101906103fc919061376a565b611322565b60405161040e9190613b3e565b60405180910390f35b610431600480360381019061042c919061359e565b611337565b60405161043e9190613b1c565b60405180910390f35b610461600480360381019061045c9190613485565b6113e2565b60405161046e9190613cc3565b60405180910390f35b61047f61142a565b60405161048c9190613b01565b60405180910390f35b61049d611450565b6040516104aa9190613b59565b60405180910390f35b6104cd60048036038101906104c89190613485565b6114f2565b005b6104d7611510565b005b6104f360048036038101906104ee9190613539565b61151b565b6040516105009190613b3e565b60405180910390f35b610523600480360381019061051e9190613485565b61166d565b6040516105309190613b3e565b60405180910390f35b610553600480360381019061054e919061359e565b61168a565b005b61056f600480360381019061056a91906136db565b611ba6565b005b61058b60048036038101906105869190613620565b611f64565b6040516105989190613b3e565b60405180910390f35b6105bb60048036038101906105b691906134ae565b612124565b6040516105c89190613cc3565b60405180910390f35b6105eb60048036038101906105e691906135df565b6121ab565b6040516105f89190613ca1565b60405180910390f35b61061b600480360381019061061691906135df565b61232f565b005b61063760048036038101906106329190613687565b61262f565b005b606060078054600181600116156101000203166002900480601f0160208091040260200160405190810160405280929190818152602001828054600181600116156101000203166002900480156106d15780601f106106a6576101008083540402835291602001916106d1565b820191906000526020600020905b8154815290600101906020018083116106b457829003601f168201915b5050505050905090565b60008073ffffffffffffffffffffffffffffffffffffffff168373ffffffffffffffffffffffffffffffffffffffff16141561071657600080fd5b6001546000803373ffffffffffffffffffffffffffffffffffffffff1673ffffffffffffffffffffffffffffffffffffffff16815260200190815260200160002054101561076357600080fd5b81600360003373ffffffffffffffffffffffffffffffffffffffff1673ffffffffffffffffffffffffffffffffffffffff16815260200190815260200160002060008573ffffffffffffffffffffffffffffffffffffffff1673ffffffffffffffffffffffffffffffffffffffff1681526020019081526020016000208190555061081333600260009054906101000a900473ffffffffffffffffffffffffffffffffffffffff166001546129c2565b8273ffffffffffffffffffffffffffffffffffffffff163373ffffffffffffffffffffffffffffffffffffffff167f8c5be1e5ebec7d5bd14f71427d1e84f3dd0314c0f7b2291e5b200ac8c7c3b925846040518082815260200191505060405180910390a36001905092915050565b60006108ac60015461089e600085612c4090919063ffffffff16565b6129a390919063ffffffff16565b9050919050565b6000600454905090565b6000600260009054906101000a900473ffffffffffffffffffffffffffffffffffffffff16905090565b600b81805160208101820180518482526020830160208501208183528095505050505050600091509050806000018054600181600116156101000203166002900480601f0160208091040260200160405190810160405280929190818152602001828054600181600116156101000203166002900480156109a95780601f1061097e576101008083540402835291602001916109a9565b820191906000526020600020905b81548152906001019060200180831161098c57829003601f168201915b5050505050908060010160009054906101000a900473ffffffffffffffffffffffffffffffffffffffff16908060020154908060030154908060040154908060050160009054906101000a900460ff16908060050160019054906101000a900460ff16905087565b600a60008280519060200120815260200190815260200160002060030160009054906101000a900460ff1615610b9b573373ffffffffffffffffffffffffffffffffffffffff167fce62159ff3c25a8e61a8bc74b520c1c33ff5acc534e8af236f3b5a587b050b0582604051808060200180602001838103835284818151815260200191508051906020019080838360005b83811015610abe578082015181840152602081019050610aa3565b50505050905090810190601f168015610aeb5780820380516001836020036101000a031916815260200191505b50838103825260118152602001807f446f63756d656e74206973204578697374000000000000000000000000000000815250602001935050505060405180910390a26040517f08c379a00000000000000000000000000000000000000000000000000000000081526004018080602001828103825260118152602001807f446f63756d656e7420697320457869737400000000000000000000000000000081525060200191505060405180910390fd5b6060600167ffffffffffffffff81118015610bb557600080fd5b50604051908082528060200260200182016040528015610be45781602001602082028036833780820191505090505b50905060405180608001604052804281526020014284336040516020018084815260200183805190602001908083835b60208310610c375780518252602082019150602081019050602083039250610c14565b6001836020036101000a0380198251168184511680821785525050505050509050018273ffffffffffffffffffffffffffffffffffffffff166c010000000000000000000000000281526014019350505050604051602081830303815290604052815260200182815260200160011515815250600a600084805190602001208152602001908152602001600020600082015181600001556020820151816001019080519060200190610cea929190613184565b506040820151816002019080519060200190610d07929190613212565b5060608201518160030160006101000a81548160ff0219169083151502179055509050503373ffffffffffffffffffffffffffffffffffffffff167fce62159ff3c25a8e61a8bc74b520c1c33ff5acc534e8af236f3b5a587b050b0583604051808060200180602001838103835284818151815260200191508051906020019080838360005b83811015610da8578082015181840152602081019050610d8d565b50505050905090810190601f168015610dd55780820380516001836020036101000a031916815260200191505b508381038252600e8152602001807f446f63756d656e74204164646564000000000000000000000000000000000000815250602001935050505060405180910390a25050565b600080610e33600154846129a390919063ffffffff16565b9050600073ffffffffffffffffffffffffffffffffffffffff168473ffffffffffffffffffffffffffffffffffffffff161415610ed8576040517f08c379a00000000000000000000000000000000000000000000000000000000081526004018080602001828103825260178152602001807f5472616e7366657220546f206e6f74206265206e756c6c00000000000000000081525060200191505060405180910390fd5b600360008673ffffffffffffffffffffffffffffffffffffffff1673ffffffffffffffffffffffffffffffffffffffff16815260200190815260200160002060003373ffffffffffffffffffffffffffffffffffffffff1673ffffffffffffffffffffffffffffffffffffffff16815260200190815260200160002054811115610fca576040517f08c379a00000000000000000000000000000000000000000000000000000000081526004018080602001828103825260108152602001807f4e6f7420456e6f756768204d6f6e65790000000000000000000000000000000081525060200191505060405180910390fd5b61105981600360008873ffffffffffffffffffffffffffffffffffffffff1673ffffffffffffffffffffffffffffffffffffffff16815260200190815260200160002060003373ffffffffffffffffffffffffffffffffffffffff1673ffffffffffffffffffffffffffffffffffffffff16815260200190815260200160002054612c7a90919063ffffffff16565b600360008773ffffffffffffffffffffffffffffffffffffffff1673ffffffffffffffffffffffffffffffffffffffff16815260200190815260200160002060003373ffffffffffffffffffffffffffffffffffffffff1673ffffffffffffffffffffffffffffffffffffffff168152602001908152602001600020819055506110e48585856129c2565b61111385600260009054906101000a900473ffffffffffffffffffffffffffffffffffffffff166001546129c2565b600260009054906101000a900473ffffffffffffffffffffffffffffffffffffffff1673ffffffffffffffffffffffffffffffffffffffff168473ffffffffffffffffffffffffffffffffffffffff163373ffffffffffffffffffffffffffffffffffffffff167ffcf5b3276434181e3c48bd3fe569b8939808f11e845d4b963693b9d7dbd6dd996001546040518082815260200191505060405180910390a460019150509392505050565b6000600154905090565b600a602052806000526040600020600091509050806000015490806001018054600181600116156101000203166002900480601f01602080910402602001604051908101604052809291908181526020018280546001816001161561010002031660029004801561127b5780601f106112505761010080835404028352916020019161127b565b820191906000526020600020905b81548152906001019060200180831161125e57829003601f168201915b5050505050908060030160009054906101000a900460ff16905083565b6000600960009054906101000a900460ff16905090565b6112b76108bd565b73ffffffffffffffffffffffffffffffffffffffff163373ffffffffffffffffffffffffffffffffffffffff16146112ee57600080fd5b6112f781612c9a565b50565b60006113053361166d565b61130e57600080fd5b6113188383612ca4565b6001905092915050565b600061132e3383612df6565b60019050919050565b6060600a6000838051906020012081526020019081526020016000206002018054806020026020016040519081016040528092919081815260200182805480156113d657602002820191906000526020600020905b8160009054906101000a900473ffffffffffffffffffffffffffffffffffffffff1673ffffffffffffffffffffffffffffffffffffffff168152602001906001019080831161138c575b50505050509050919050565b60008060008373ffffffffffffffffffffffffffffffffffffffff1673ffffffffffffffffffffffffffffffffffffffff168152602001908152602001600020549050919050565b600660009054906101000a900473ffffffffffffffffffffffffffffffffffffffff1681565b606060088054600181600116156101000203166002900480601f0160208091040260200160405190810160405280929190818152602001828054600181600116156101000203166002900480156114e85780601f106114bd576101008083540402835291602001916114e8565b820191906000526020600020905b8154815290600101906020018083116114cb57829003601f168201915b5050505050905090565b6114fb3361166d565b61150457600080fd5b61150d81612f93565b50565b61151933612fed565b565b600080611533600154846129a390919063ffffffff16565b9050600073ffffffffffffffffffffffffffffffffffffffff168473ffffffffffffffffffffffffffffffffffffffff16141561156f57600080fd5b8083111561157c57600080fd5b6115873385856129c2565b60006001541115611662576115c133600260009054906101000a900473ffffffffffffffffffffffffffffffffffffffff166001546129c2565b600260009054906101000a900473ffffffffffffffffffffffffffffffffffffffff1673ffffffffffffffffffffffffffffffffffffffff168473ffffffffffffffffffffffffffffffffffffffff163373ffffffffffffffffffffffffffffffffffffffff167ffcf5b3276434181e3c48bd3fe569b8939808f11e845d4b963693b9d7dbd6dd996001546040518082815260200191505060405180910390a45b600191505092915050565b600061168382600561304790919063ffffffff16565b9050919050565b600a60008280519060200120815260200190815260200160002060030160009054906101000a900460ff16611813573373ffffffffffffffffffffffffffffffffffffffff167f7b178bf1583b36c417d982a222dfebdf8e3c8ecff7e75e459627b176a9e8bd7282604051808060200180602001838103835284818151815260200191508051906020019080838360005b8381101561173657808201518184015260208101905061171b565b50505050905090810190601f1680156117635780820380516001836020036101000a031916815260200191505b50838103825260158152602001807f446f63756d656e74206973206e6f742045786973740000000000000000000000815250602001935050505060405180910390a26040517f08c379a00000000000000000000000000000000000000000000000000000000081526004018080602001828103825260158152602001807f446f63756d656e74206973206e6f74204578697374000000000000000000000081525060200191505060405180910390fd5b6000805b600a600084805190602001208152602001908152602001600020600201805490508110156119455733604051602001808273ffffffffffffffffffffffffffffffffffffffff166c0100000000000000000000000002815260140191505060405160208183030381529060405280519060200120600a60008580519060200120815260200190815260200160002060020182815481106118b357fe5b9060005260206000200160009054906101000a900473ffffffffffffffffffffffffffffffffffffffff16604051602001808273ffffffffffffffffffffffffffffffffffffffff166c010000000000000000000000000281526014019150506040516020818303038152906040528051906020012014156119385760019150611945565b8080600101915050611817565b5080611ab657600a600083805190602001208152602001908152602001600020600201339080600181540180825580915050600190039060005260206000200160009091909190916101000a81548173ffffffffffffffffffffffffffffffffffffffff021916908373ffffffffffffffffffffffffffffffffffffffff1602179055503373ffffffffffffffffffffffffffffffffffffffff167f7b178bf1583b36c417d982a222dfebdf8e3c8ecff7e75e459627b176a9e8bd7283604051808060200180602001838103835284818151815260200191508051906020019080838360005b83811015611a46578082015181840152602081019050611a2b565b50505050905090810190601f168015611a735780820380516001836020036101000a031916815260200191505b508381038252600f8152602001807f446f63756d656e74205369676e65640000000000000000000000000000000000815250602001935050505060405180910390a25b3373ffffffffffffffffffffffffffffffffffffffff167f7b178bf1583b36c417d982a222dfebdf8e3c8ecff7e75e459627b176a9e8bd7283604051808060200180602001838103835284818151815260200191508051906020019080838360005b83811015611b33578082015181840152602081019050611b18565b50505050905090810190601f168015611b605780820380516001836020036101000a031916815260200191505b50838103825260178152602001807f446f63756d656e7420616c7265616479205369676e6564000000000000000000815250602001935050505060405180910390a25050565b600660009054906101000a900473ffffffffffffffffffffffffffffffffffffffff1673ffffffffffffffffffffffffffffffffffffffff163373ffffffffffffffffffffffffffffffffffffffff161415611c4d576040517f08c379a0000000000000000000000000000000000000000000000000000000008152600401808060200182810382526021815260200180613f4f6021913960400191505060405180910390fd5b600360003373ffffffffffffffffffffffffffffffffffffffff1673ffffffffffffffffffffffffffffffffffffffff16815260200190815260200160002060003073ffffffffffffffffffffffffffffffffffffffff1673ffffffffffffffffffffffffffffffffffffffff16815260200190815260200160002054841115611d0c576040517f08c379a0000000000000000000000000000000000000000000000000000000008152600401611d0390613c61565b60405180910390fd5b600b85604051611d1c9190613aea565b908152602001604051809103902060050160019054906101000a900460ff16611f0d57611d4a3330866129c2565b611dd984600360003373ffffffffffffffffffffffffffffffffffffffff1673ffffffffffffffffffffffffffffffffffffffff16815260200190815260200160002060003073ffffffffffffffffffffffffffffffffffffffff1673ffffffffffffffffffffffffffffffffffffffff16815260200190815260200160002054612c7a90919063ffffffff16565b506040518060e001604052808681526020013373ffffffffffffffffffffffffffffffffffffffff16815260200184815260200183815260200182815260200160011515815260200160011515815250600b86604051611e399190613aea565b90815260200160405180910390206000820151816000019080519060200190611e6392919061329c565b5060208201518160010160006101000a81548173ffffffffffffffffffffffffffffffffffffffff021916908373ffffffffffffffffffffffffffffffffffffffff16021790555060408201518160020155606082015181600301556080820151816004015560a08201518160050160006101000a81548160ff02191690831515021790555060c08201518160050160016101000a81548160ff0219169083151502179055509050505b3373ffffffffffffffffffffffffffffffffffffffff167f5c04f4c64423af25dc8dc6bd45d037a95fe962bb56e5ca1b993600448846f07f8685604051611f55929190613bf1565b60405180910390a25050505050565b6000600660009054906101000a900473ffffffffffffffffffffffffffffffffffffffff1673ffffffffffffffffffffffffffffffffffffffff163373ffffffffffffffffffffffffffffffffffffffff161461200c576040517f08c379a0000000000000000000000000000000000000000000000000000000008152600401808060200182810382526022815260200180613f706022913960400191505060405180910390fd5b600073ffffffffffffffffffffffffffffffffffffffff168373ffffffffffffffffffffffffffffffffffffffff16141561204657600080fd5b600b846040516120569190613aea565b90815260200160405180910390206003015482111561207457600080fd5b6120a882600b866040516120889190613aea565b908152602001604051809103902060030154612c7a90919063ffffffff16565b600b856040516120b89190613aea565b90815260200160405180910390206003018190555061211930600b866040516120e19190613aea565b908152602001604051809103902060010160009054906101000a900473ffffffffffffffffffffffffffffffffffffffff16846129c2565b600190509392505050565b6000600360008473ffffffffffffffffffffffffffffffffffffffff1673ffffffffffffffffffffffffffffffffffffffff16815260200190815260200160002060008373ffffffffffffffffffffffffffffffffffffffff1673ffffffffffffffffffffffffffffffffffffffff16815260200190815260200160002054905092915050565b6121b361332a565b600b826040516121c39190613aea565b90815260200160405180910390206040518060e0016040529081600082018054600181600116156101000203166002900480601f0160208091040260200160405190810160405280929190818152602001828054600181600116156101000203166002900480156122755780601f1061224a57610100808354040283529160200191612275565b820191906000526020600020905b81548152906001019060200180831161225857829003601f168201915b505050505081526020016001820160009054906101000a900473ffffffffffffffffffffffffffffffffffffffff1673ffffffffffffffffffffffffffffffffffffffff1673ffffffffffffffffffffffffffffffffffffffff1681526020016002820154815260200160038201548152602001600482015481526020016005820160009054906101000a900460ff161515151581526020016005820160019054906101000a900460ff1615151515815250509050919050565b600660009054906101000a900473ffffffffffffffffffffffffffffffffffffffff1673ffffffffffffffffffffffffffffffffffffffff163373ffffffffffffffffffffffffffffffffffffffff1614156123d6576040517f08c379a0000000000000000000000000000000000000000000000000000000008152600401808060200182810382526021815260200180613f4f6021913960400191505060405180910390fd5b600b816040516123e69190613aea565b908152602001604051809103902060050160019054906101000a900460ff16612444576040517f08c379a000000000000000000000000000000000000000000000000000000000815260040161243b90613c21565b60405180910390fd5b600b816040516124549190613aea565b908152602001604051809103902060050160009054906101000a900460ff166124b2576040517f08c379a00000000000000000000000000000000000000000000000000000000081526004016124a990613c81565b60405180910390fd5b3373ffffffffffffffffffffffffffffffffffffffff16600b826040516124d99190613aea565b908152602001604051809103902060010160009054906101000a900473ffffffffffffffffffffffffffffffffffffffff1673ffffffffffffffffffffffffffffffffffffffff161461252b57600080fd5b6125ca600b8260405161253e9190613aea565b908152602001604051809103902060010160009054906101000a900473ffffffffffffffffffffffffffffffffffffffff166125c5600b846040516125839190613aea565b908152602001604051809103902060040154600b856040516125a59190613aea565b908152602001604051809103902060020154612c7a90919063ffffffff16565b61151b565b506000600b826040516125dd9190613aea565b908152602001604051809103902060050160006101000a81548160ff0219169083151502179055506000600b826040516126179190613aea565b90815260200160405180910390206003018190555050565b600660009054906101000a900473ffffffffffffffffffffffffffffffffffffffff1673ffffffffffffffffffffffffffffffffffffffff163373ffffffffffffffffffffffffffffffffffffffff16146126d5576040517f08c379a0000000000000000000000000000000000000000000000000000000008152600401808060200182810382526022815260200180613f706022913960400191505060405180910390fd5b600b826040516126e59190613aea565b908152602001604051809103902060050160019054906101000a900460ff16612743576040517f08c379a000000000000000000000000000000000000000000000000000000000815260040161273a90613c21565b60405180910390fd5b600b826040516127539190613aea565b908152602001604051809103902060050160009054906101000a900460ff166127b1576040517f08c379a00000000000000000000000000000000000000000000000000000000081526004016127a890613c81565b60405180910390fd5b80600b836040516127c29190613aea565b90815260200160405180910390206003015411612814576040517f08c379a000000000000000000000000000000000000000000000000000000000815260040161280b90613c41565b60405180910390fd5b61285f600b836040516128279190613aea565b908152602001604051809103902060010160009054906101000a900473ffffffffffffffffffffffffffffffffffffffff168261151b565b506000600b836040516128729190613aea565b908152602001604051809103902060050160006101000a81548160ff0219169083151502179055506128ce81600b846040516128ae9190613aea565b908152602001604051809103902060030154612c7a90919063ffffffff16565b600b836040516128de9190613aea565b9081526020016040518091039020600301819055505050565b600073ffffffffffffffffffffffffffffffffffffffff168173ffffffffffffffffffffffffffffffffffffffff16141561293157600080fd5b61293b8282613047565b1561294557600080fd5b60018260000160008373ffffffffffffffffffffffffffffffffffffffff1673ffffffffffffffffffffffffffffffffffffffff16815260200190815260200160002060006101000a81548160ff0219169083151502179055505050565b6000808284019050838110156129b857600080fd5b8091505092915050565b6000808473ffffffffffffffffffffffffffffffffffffffff1673ffffffffffffffffffffffffffffffffffffffff16815260200190815260200160002054811115612a76576040517f08c379a00000000000000000000000000000000000000000000000000000000081526004018080602001828103825260108152602001807f4e6f7420456e6f756768204d6f6e65790000000000000000000000000000000081525060200191505060405180910390fd5b600073ffffffffffffffffffffffffffffffffffffffff168273ffffffffffffffffffffffffffffffffffffffff161415612ab057600080fd5b612b01816000808673ffffffffffffffffffffffffffffffffffffffff1673ffffffffffffffffffffffffffffffffffffffff16815260200190815260200160002054612c7a90919063ffffffff16565b6000808573ffffffffffffffffffffffffffffffffffffffff1673ffffffffffffffffffffffffffffffffffffffff16815260200190815260200160002081905550612b94816000808573ffffffffffffffffffffffffffffffffffffffff1673ffffffffffffffffffffffffffffffffffffffff168152602001908152602001600020546129a390919063ffffffff16565b6000808473ffffffffffffffffffffffffffffffffffffffff1673ffffffffffffffffffffffffffffffffffffffff168152602001908152602001600020819055508173ffffffffffffffffffffffffffffffffffffffff168373ffffffffffffffffffffffffffffffffffffffff167fddf252ad1be2c89b69c2b068fc378daa952ba7f163c4a11628f55a4df523b3ef836040518082815260200191505060405180910390a3505050565b600080831415612c535760009050612c74565b6000828402905082848281612c6457fe5b0414612c6f57600080fd5b809150505b92915050565b600082821115612c8957600080fd5b600082840390508091505092915050565b8060018190555050565b600073ffffffffffffffffffffffffffffffffffffffff168273ffffffffffffffffffffffffffffffffffffffff161415612cde57600080fd5b612cf3816004546129a390919063ffffffff16565b600481905550612d4a816000808573ffffffffffffffffffffffffffffffffffffffff1673ffffffffffffffffffffffffffffffffffffffff168152602001908152602001600020546129a390919063ffffffff16565b6000808473ffffffffffffffffffffffffffffffffffffffff1673ffffffffffffffffffffffffffffffffffffffff168152602001908152602001600020819055508173ffffffffffffffffffffffffffffffffffffffff16600073ffffffffffffffffffffffffffffffffffffffff167fddf252ad1be2c89b69c2b068fc378daa952ba7f163c4a11628f55a4df523b3ef836040518082815260200191505060405180910390a35050565b600073ffffffffffffffffffffffffffffffffffffffff168273ffffffffffffffffffffffffffffffffffffffff161415612e3057600080fd5b6000808373ffffffffffffffffffffffffffffffffffffffff1673ffffffffffffffffffffffffffffffffffffffff16815260200190815260200160002054811115612e7b57600080fd5b612e9081600454612c7a90919063ffffffff16565b600481905550612ee7816000808573ffffffffffffffffffffffffffffffffffffffff1673ffffffffffffffffffffffffffffffffffffffff16815260200190815260200160002054612c7a90919063ffffffff16565b6000808473ffffffffffffffffffffffffffffffffffffffff1673ffffffffffffffffffffffffffffffffffffffff16815260200190815260200160002081905550600073ffffffffffffffffffffffffffffffffffffffff168273ffffffffffffffffffffffffffffffffffffffff167fddf252ad1be2c89b69c2b068fc378daa952ba7f163c4a11628f55a4df523b3ef836040518082815260200191505060405180910390a35050565b612fa78160056128f790919063ffffffff16565b8073ffffffffffffffffffffffffffffffffffffffff167f6ae172837ea30b801fbfcdd4108aa1d5bf8ff775444fd70256b44e6bf3dfc3f660405160405180910390a250565b6130018160056130d990919063ffffffff16565b8073ffffffffffffffffffffffffffffffffffffffff167fe94479a9f7e1952cc78f2d6baab678adc1b772d936c6583def489e524cb6669260405160405180910390a250565b60008073ffffffffffffffffffffffffffffffffffffffff168273ffffffffffffffffffffffffffffffffffffffff16141561308257600080fd5b8260000160008373ffffffffffffffffffffffffffffffffffffffff1673ffffffffffffffffffffffffffffffffffffffff16815260200190815260200160002060009054906101000a900460ff16905092915050565b600073ffffffffffffffffffffffffffffffffffffffff168173ffffffffffffffffffffffffffffffffffffffff16141561311357600080fd5b61311d8282613047565b61312657600080fd5b60008260000160008373ffffffffffffffffffffffffffffffffffffffff1673ffffffffffffffffffffffffffffffffffffffff16815260200190815260200160002060006101000a81548160ff0219169083151502179055505050565b828054600181600116156101000203166002900490600052602060002090601f0160209004810192826131ba5760008555613201565b82601f106131d357805160ff1916838001178555613201565b82800160010185558215613201579182015b828111156132005782518255916020019190600101906131e5565b5b50905061320e9190613381565b5090565b82805482825590600052602060002090810192821561328b579160200282015b8281111561328a5782518260006101000a81548173ffffffffffffffffffffffffffffffffffffffff021916908373ffffffffffffffffffffffffffffffffffffffff16021790555091602001919060010190613232565b5b5090506132989190613381565b5090565b828054600181600116156101000203166002900490600052602060002090601f0160209004810192826132d25760008555613319565b82601f106132eb57805160ff1916838001178555613319565b82800160010185558215613319579182015b828111156133185782518255916020019190600101906132fd565b5b5090506133269190613381565b5090565b6040518060e0016040528060608152602001600073ffffffffffffffffffffffffffffffffffffffff1681526020016000815260200160008152602001600081526020016000151581526020016000151581525090565b5b8082111561339a576000816000905550600101613382565b5090565b6000813590506133ad81613f09565b92915050565b6000813590506133c281613f20565b92915050565b600082601f8301126133d957600080fd5b81356133ec6133e782613d68565b613d37565b9150808252602083016020830185838301111561340857600080fd5b613413838284613eb4565b50505092915050565b600082601f83011261342d57600080fd5b813561344061343b82613d98565b613d37565b9150808252602083016020830185838301111561345c57600080fd5b613467838284613eb4565b50505092915050565b60008135905061347f81613f37565b92915050565b60006020828403121561349757600080fd5b60006134a58482850161339e565b91505092915050565b600080604083850312156134c157600080fd5b60006134cf8582860161339e565b92505060206134e08582860161339e565b9150509250929050565b6000806000606084860312156134ff57600080fd5b600061350d8682870161339e565b935050602061351e8682870161339e565b925050604061352f86828701613470565b9150509250925092565b6000806040838503121561354c57600080fd5b600061355a8582860161339e565b925050602061356b85828601613470565b9150509250929050565b60006020828403121561358757600080fd5b6000613595848285016133b3565b91505092915050565b6000602082840312156135b057600080fd5b600082013567ffffffffffffffff8111156135ca57600080fd5b6135d6848285016133c8565b91505092915050565b6000602082840312156135f157600080fd5b600082013567ffffffffffffffff81111561360b57600080fd5b6136178482850161341c565b91505092915050565b60008060006060848603121561363557600080fd5b600084013567ffffffffffffffff81111561364f57600080fd5b61365b8682870161341c565b935050602061366c8682870161339e565b925050604061367d86828701613470565b9150509250925092565b6000806040838503121561369a57600080fd5b600083013567ffffffffffffffff8111156136b457600080fd5b6136c08582860161341c565b92505060206136d185828601613470565b9150509250929050565b600080600080600060a086880312156136f357600080fd5b600086013567ffffffffffffffff81111561370d57600080fd5b6137198882890161341c565b955050602061372a88828901613470565b945050604061373b88828901613470565b935050606061374c88828901613470565b925050608061375d88828901613470565b9150509295509295909350565b60006020828403121561377c57600080fd5b600061378a84828501613470565b91505092915050565b600061379f83836137ab565b60208301905092915050565b6137b481613e55565b82525050565b6137c381613e55565b82525050565b60006137d482613dd8565b6137de8185613e06565b93506137e983613dc8565b8060005b8381101561381a5781516138018882613793565b975061380c83613df9565b9250506001810190506137ed565b5085935050505092915050565b61383081613e67565b82525050565b61383f81613e67565b82525050565b600061385082613de3565b61385a8185613e17565b935061386a818560208601613ec3565b61387381613ef8565b840191505092915050565b600061388982613dee565b6138938185613e28565b93506138a3818560208601613ec3565b6138ac81613ef8565b840191505092915050565b60006138c282613dee565b6138cc8185613e39565b93506138dc818560208601613ec3565b6138e581613ef8565b840191505092915050565b60006138fb82613dee565b6139058185613e4a565b9350613915818560208601613ec3565b80840191505092915050565b600061392e601583613e39565b91507f43616d706169676e206973206e6f7420457869737400000000000000000000006000830152602082019050919050565b600061396e601183613e39565b91507f5265647564616e742069732077726f6e670000000000000000000000000000006000830152602082019050919050565b60006139ae601083613e39565b91507f4e6f7420456e6f756768204d6f6e6579000000000000000000000000000000006000830152602082019050919050565b60006139ee601683613e39565b91507f43616d706169676e206973206e6f7420416374697665000000000000000000006000830152602082019050919050565b600060e0830160008301518482036000860152613a3e828261387e565b9150506020830151613a5360208601826137ab565b506040830151613a666040860182613abd565b506060830151613a796060860182613abd565b506080830151613a8c6080860182613abd565b5060a0830151613a9f60a0860182613827565b5060c0830151613ab260c0860182613827565b508091505092915050565b613ac681613e9d565b82525050565b613ad581613e9d565b82525050565b613ae481613ea7565b82525050565b6000613af682846138f0565b915081905092915050565b6000602082019050613b1660008301846137ba565b92915050565b60006020820190508181036000830152613b3681846137c9565b905092915050565b6000602082019050613b536000830184613836565b92915050565b60006020820190508181036000830152613b7381846138b7565b905092915050565b600060e0820190508181036000830152613b95818a6138b7565b9050613ba460208301896137ba565b613bb16040830188613acc565b613bbe6060830187613acc565b613bcb6080830186613acc565b613bd860a0830185613836565b613be560c0830184613836565b98975050505050505050565b60006040820190508181036000830152613c0b81856138b7565b9050613c1a6020830184613acc565b9392505050565b60006020820190508181036000830152613c3a81613921565b9050919050565b60006020820190508181036000830152613c5a81613961565b9050919050565b60006020820190508181036000830152613c7a816139a1565b9050919050565b60006020820190508181036000830152613c9a816139e1565b9050919050565b60006020820190508181036000830152613cbb8184613a21565b905092915050565b6000602082019050613cd86000830184613acc565b92915050565b6000606082019050613cf36000830186613acc565b8181036020830152613d058185613845565b9050613d146040830184613836565b949350505050565b6000602082019050613d316000830184613adb565b92915050565b6000604051905081810181811067ffffffffffffffff82111715613d5e57613d5d613ef6565b5b8060405250919050565b600067ffffffffffffffff821115613d8357613d82613ef6565b5b601f19601f8301169050602081019050919050565b600067ffffffffffffffff821115613db357613db2613ef6565b5b601f19601f8301169050602081019050919050565b6000819050602082019050919050565b600081519050919050565b600081519050919050565b600081519050919050565b6000602082019050919050565b600082825260208201905092915050565b600082825260208201905092915050565b600082825260208201905092915050565b600082825260208201905092915050565b600081905092915050565b6000613e6082613e7d565b9050919050565b60008115159050919050565b6000819050919050565b600073ffffffffffffffffffffffffffffffffffffffff82169050919050565b6000819050919050565b600060ff82169050919050565b82818337600083830152505050565b60005b83811015613ee1578082015181840152602081019050613ec6565b83811115613ef0576000848401525b50505050565bfe5b6000601f19601f8301169050919050565b613f1281613e55565b8114613f1d57600080fd5b50565b613f2981613e73565b8114613f3457600080fd5b50565b613f4081613e9d565b8114613f4b57600080fd5b5056fe546869732066756e6374696f6e206973206f6e6c79207573652062792075736572546869732066756e6374696f6e206973206f6e6c7920757365206279204f776e6572a26469706673582212205d26fc8b240ff9dd0db151baebfb825f5ddce6f0355ccb73f67afebac01af2bf64736f6c63430007040033",
  "immutableReferences": {},
  "source": "// SPDX-License-Identifier: MIT\r\npragma experimental ABIEncoderV2;\r\npragma solidity >=0.7.0 <0.8.0;\r\nimport \"./TRC21.sol\";\r\nimport \"./SignDocument.sol\";\r\nimport \"./CampaignDetail.sol\";\r\nimport './SafeMath.sol';\r\nimport './Ownable.sol';\r\n\r\ncontract Support is Ownable, MyTRC21Mintable(\"Adverising2\",\"LBA2\", 0, uint256(0) * uint256(10)**18, 1 * uint256(10)**18), SignDocument, CampaignDetail{\r\n    using SafeMath for uint;\r\n\r\n    function createCampaign (string memory campaignId, uint totalWithFee, uint totalBudget, uint remainBudget, uint feeCancel) public onlyUser{\r\n        //check money amount\r\n        require(totalWithFee <= _allowed[msg.sender][address(this)],\"Not Enough Money\");\r\n        //check campaign\r\n        if(!campaigns[campaignId].isExist){\r\n            //send money to server wallet\r\n            _transfer(msg.sender, address(this), totalWithFee);\r\n            _allowed[msg.sender][address(this)].sub(totalWithFee);\r\n            //create campaign\r\n            campaigns[campaignId] = Campaign(campaignId, msg.sender, totalBudget, remainBudget, feeCancel, true, true);\r\n        }\r\n        emit CreateCampaign(msg.sender, campaignId, totalBudget);\r\n    }\r\n\r\n    function checkOutCampaign(string memory campaignId, uint redudant) public onlyOwner{\r\n        require(campaigns[campaignId].isExist,\"Campaign is not Exist\");\r\n        require(campaigns[campaignId].isActive,\"Campaign is not Active\");\r\n        require(campaigns[campaignId].remainBudget > redudant, \"Redudant is wrong\");\r\n\r\n        transfer(campaigns[campaignId].advertiser, redudant);\r\n        campaigns[campaignId].isActive = false;\r\n        campaigns[campaignId].remainBudget = campaigns[campaignId].remainBudget.sub(redudant);\r\n    }\r\n\r\n    function payToSupplier(string memory campaignId, address supplier, uint256 value) public onlyOwner returns (bool) {\r\n        require(supplier != address(0));\r\n        require(value <= campaigns[campaignId].remainBudget);\r\n\r\n        campaigns[campaignId].remainBudget = campaigns[campaignId].remainBudget.sub(value);\r\n        _transfer(address(this), campaigns[campaignId].advertiser, value);\r\n        return true;\r\n    }\r\n\r\n    function cancelCampaign(string memory campaignId) public onlyUser{\r\n        require(campaigns[campaignId].isExist,\"Campaign is not Exist\");\r\n        require(campaigns[campaignId].isActive,\"Campaign is not Active\");\r\n        require(campaigns[campaignId].advertiser == msg.sender);\r\n\r\n        transfer(campaigns[campaignId].advertiser, \r\n                            campaigns[campaignId].totalBudget.sub(campaigns[campaignId].feeCancel));\r\n\r\n        \r\n        campaigns[campaignId].isActive = false;\r\n        campaigns[campaignId].remainBudget = 0;\r\n    }\r\n\r\n    function getCampaignById(string memory campaignId) public view returns (Campaign memory){\r\n        return campaigns[campaignId];\r\n    }\r\n}",
  "sourcePath": "D:/CN9/Capstone/LBAContract.github.io/contracts/Support.sol",
  "compiler": {
    "name": "solc",
    "version": "0.7.4+commit.3f05b770.Emscripten.clang"
  },
  "schemaVersion": "3.3.3",
  "updatedAt": "2021-03-08T04:56:28.130Z",
  "networkType": "ethereum",
  "devdoc": {
    "kind": "dev",
    "methods": {
      "allowance(address,address)": {
        "details": "Function to check the amount of tokens that an owner allowed to a spender.",
        "params": {
          "owner": "address The address which owns the funds.",
          "spender": "address The address which will spend the funds."
        },
        "returns": {
          "_0": "A uint256 specifying the amount of tokens still available for the spender."
        }
      },
      "approve(address,uint256)": {
        "details": "Approve the passed address to spend the specified amount of tokens on behalf of msg.sender. Beware that changing an allowance with this method brings the risk that someone may use both the old and the new allowance by unfortunate transaction ordering. One possible solution to mitigate this race condition is to first reduce the spender's allowance to 0 and set the desired value afterwards: https://github.com/ethereum/EIPs/issues/20#issuecomment-263524729",
        "params": {
          "spender": "The address which will spend the funds.",
          "value": "The amount of tokens to be spent."
        }
      },
      "balanceOf(address)": {
        "details": "Gets the balance of the specified address.",
        "params": {
          "owner": "The address to query the balance of."
        },
        "returns": {
          "_0": "An uint256 representing the amount owned by the passed address."
        }
      },
      "burn(uint256)": {
        "details": "Function to burn tokens",
        "params": {
          "value": "The amount of tokens to mint."
        },
        "returns": {
          "_0": "A boolean that indicates if the operation was successful."
        }
      },
      "decimals()": {
        "returns": {
          "_0": "the number of decimals of the token."
        }
      },
      "estimateFee(uint256)": {
        "details": "Estimate transaction fee.",
        "params": {
          "value": "amount tokens sent"
        }
      },
      "issuer()": {
        "details": "token's foundation"
      },
      "minFee()": {
        "details": "The amount fee that will be lost when transferring."
      },
      "mint(address,uint256)": {
        "details": "Function to mint tokens",
        "params": {
          "to": "The address that will receive the minted tokens.",
          "value": "The amount of tokens to mint."
        },
        "returns": {
          "_0": "A boolean that indicates if the operation was successful."
        }
      },
      "name()": {
        "returns": {
          "_0": "the name of the token."
        }
      },
      "symbol()": {
        "returns": {
          "_0": "the symbol of the token."
        }
      },
      "totalSupply()": {
        "details": "Total number of tokens in existence"
      },
      "transfer(address,uint256)": {
        "details": "Transfer token for a specified address",
        "params": {
          "to": "The address to transfer to.",
          "value": "The amount to be transferred."
        }
      },
      "transferFrom(address,address,uint256)": {
        "details": "Transfer tokens from one address to another",
        "params": {
          "from": "address The address which you want to send tokens from",
          "to": "address The address which you want to transfer to",
          "value": "uint256 the amount of tokens to be transferred"
        }
      }
    },
    "version": 1
  },
  "userdoc": {
    "kind": "user",
    "methods": {},
    "version": 1
  }
}