{
  "contractName": "Support",
  "abi": [
    {
      "anonymous": false,
      "inputs": [
        {
          "indexed": false,
          "internalType": "bytes",
          "name": "id",
          "type": "bytes"
        },
        {
          "indexed": true,
          "internalType": "address",
          "name": "from",
          "type": "address"
        },
        {
          "indexed": false,
          "internalType": "string",
          "name": "comment",
          "type": "string"
        }
      ],
      "name": "Add",
      "type": "event"
    },
    {
      "anonymous": false,
      "inputs": [
        {
          "indexed": true,
          "internalType": "address",
          "name": "owner",
          "type": "address"
        },
        {
          "indexed": true,
          "internalType": "address",
          "name": "spender",
          "type": "address"
        },
        {
          "indexed": false,
          "internalType": "uint256",
          "name": "value",
          "type": "uint256"
        }
      ],
      "name": "Approval",
      "type": "event"
    },
    {
      "anonymous": false,
      "inputs": [
        {
          "indexed": true,
          "internalType": "address",
          "name": "owner",
          "type": "address"
        },
        {
          "indexed": false,
          "internalType": "string",
          "name": "campaignId",
          "type": "string"
        },
        {
          "indexed": false,
          "internalType": "uint256",
          "name": "value",
          "type": "uint256"
        }
      ],
      "name": "AuthorityCampaign",
      "type": "event"
    },
    {
      "anonymous": false,
      "inputs": [
        {
          "indexed": true,
          "internalType": "address",
          "name": "owner",
          "type": "address"
        },
        {
          "indexed": false,
          "internalType": "string",
          "name": "campaignId",
          "type": "string"
        },
        {
          "indexed": false,
          "internalType": "uint256",
          "name": "value",
          "type": "uint256"
        }
      ],
      "name": "CreateCampaign",
      "type": "event"
    },
    {
      "anonymous": false,
      "inputs": [
        {
          "indexed": false,
          "internalType": "bytes",
          "name": "id",
          "type": "bytes"
        },
        {
          "indexed": true,
          "internalType": "address",
          "name": "from",
          "type": "address"
        },
        {
          "indexed": false,
          "internalType": "string",
          "name": "comment",
          "type": "string"
        }
      ],
      "name": "Delete",
      "type": "event"
    },
    {
      "anonymous": false,
      "inputs": [
        {
          "indexed": true,
          "internalType": "address",
          "name": "from",
          "type": "address"
        },
        {
          "indexed": true,
          "internalType": "address",
          "name": "to",
          "type": "address"
        },
        {
          "indexed": true,
          "internalType": "address",
          "name": "issuer",
          "type": "address"
        },
        {
          "indexed": false,
          "internalType": "uint256",
          "name": "value",
          "type": "uint256"
        }
      ],
      "name": "Fee",
      "type": "event"
    },
    {
      "anonymous": false,
      "inputs": [
        {
          "indexed": false,
          "internalType": "bytes",
          "name": "id",
          "type": "bytes"
        },
        {
          "indexed": true,
          "internalType": "address",
          "name": "from",
          "type": "address"
        },
        {
          "indexed": false,
          "internalType": "string",
          "name": "comment",
          "type": "string"
        }
      ],
      "name": "Sign",
      "type": "event"
    },
    {
      "anonymous": false,
      "inputs": [
        {
          "indexed": true,
          "internalType": "address",
          "name": "from",
          "type": "address"
        },
        {
          "indexed": true,
          "internalType": "address",
          "name": "to",
          "type": "address"
        },
        {
          "indexed": false,
          "internalType": "uint256",
          "name": "value",
          "type": "uint256"
        }
      ],
      "name": "Transfer",
      "type": "event"
    },
    {
      "inputs": [
        {
          "internalType": "address",
          "name": "account",
          "type": "address"
        }
      ],
      "name": "_changeOwnerRole",
      "outputs": [],
      "stateMutability": "nonpayable",
      "type": "function"
    },
    {
      "inputs": [
        {
          "internalType": "address",
          "name": "account",
          "type": "address"
        },
        {
          "internalType": "string",
          "name": "roleType",
          "type": "string"
        }
      ],
      "name": "add",
      "outputs": [],
      "stateMutability": "nonpayable",
      "type": "function"
    },
    {
      "inputs": [
        {
          "internalType": "address",
          "name": "owner",
          "type": "address"
        },
        {
          "internalType": "address",
          "name": "spender",
          "type": "address"
        }
      ],
      "name": "allowance",
      "outputs": [
        {
          "internalType": "uint256",
          "name": "",
          "type": "uint256"
        }
      ],
      "stateMutability": "view",
      "type": "function",
      "constant": true
    },
    {
      "inputs": [
        {
          "internalType": "address",
          "name": "spender",
          "type": "address"
        },
        {
          "internalType": "uint256",
          "name": "value",
          "type": "uint256"
        }
      ],
      "name": "approve",
      "outputs": [
        {
          "internalType": "bool",
          "name": "",
          "type": "bool"
        }
      ],
      "stateMutability": "nonpayable",
      "type": "function"
    },
    {
      "inputs": [
        {
          "internalType": "address",
          "name": "owner",
          "type": "address"
        }
      ],
      "name": "balanceOf",
      "outputs": [
        {
          "internalType": "uint256",
          "name": "",
          "type": "uint256"
        }
      ],
      "stateMutability": "view",
      "type": "function",
      "constant": true
    },
    {
      "inputs": [
        {
          "internalType": "uint256",
          "name": "value",
          "type": "uint256"
        }
      ],
      "name": "burn",
      "outputs": [
        {
          "internalType": "bool",
          "name": "",
          "type": "bool"
        }
      ],
      "stateMutability": "nonpayable",
      "type": "function"
    },
    {
      "inputs": [
        {
          "internalType": "string",
          "name": "",
          "type": "string"
        }
      ],
      "name": "campaigns",
      "outputs": [
        {
          "internalType": "string",
          "name": "campaignId",
          "type": "string"
        },
        {
          "internalType": "address",
          "name": "advertiser",
          "type": "address"
        },
        {
          "internalType": "uint256",
          "name": "totalBudget",
          "type": "uint256"
        },
        {
          "internalType": "uint256",
          "name": "remainBudget",
          "type": "uint256"
        },
        {
          "internalType": "uint256",
          "name": "feeCancel",
          "type": "uint256"
        },
        {
          "internalType": "bool",
          "name": "isActive",
          "type": "bool"
        },
        {
          "internalType": "bool",
          "name": "isExist",
          "type": "bool"
        }
      ],
      "stateMutability": "view",
      "type": "function",
      "constant": true
    },
    {
      "inputs": [
        {
          "internalType": "string",
          "name": "",
          "type": "string"
        },
        {
          "internalType": "string",
          "name": "",
          "type": "string"
        }
      ],
      "name": "checkPayed",
      "outputs": [
        {
          "internalType": "bool",
          "name": "",
          "type": "bool"
        }
      ],
      "stateMutability": "view",
      "type": "function",
      "constant": true
    },
    {
      "inputs": [],
      "name": "decimals",
      "outputs": [
        {
          "internalType": "uint8",
          "name": "",
          "type": "uint8"
        }
      ],
      "stateMutability": "view",
      "type": "function",
      "constant": true
    },
    {
      "inputs": [
        {
          "internalType": "bytes32",
          "name": "",
          "type": "bytes32"
        }
      ],
      "name": "documents",
      "outputs": [
        {
          "internalType": "uint256",
          "name": "timestamp",
          "type": "uint256"
        },
        {
          "internalType": "bytes",
          "name": "ipfs_hash",
          "type": "bytes"
        },
        {
          "internalType": "address",
          "name": "owner",
          "type": "address"
        },
        {
          "internalType": "bool",
          "name": "isExist",
          "type": "bool"
        }
      ],
      "stateMutability": "view",
      "type": "function",
      "constant": true
    },
    {
      "inputs": [
        {
          "internalType": "uint256",
          "name": "value",
          "type": "uint256"
        }
      ],
      "name": "estimateFee",
      "outputs": [
        {
          "internalType": "uint256",
          "name": "",
          "type": "uint256"
        }
      ],
      "stateMutability": "view",
      "type": "function",
      "constant": true
    },
    {
      "inputs": [
        {
          "internalType": "address",
          "name": "account",
          "type": "address"
        }
      ],
      "name": "isOwner",
      "outputs": [
        {
          "internalType": "bool",
          "name": "",
          "type": "bool"
        }
      ],
      "stateMutability": "view",
      "type": "function",
      "constant": true
    },
    {
      "inputs": [
        {
          "internalType": "address",
          "name": "account",
          "type": "address"
        },
        {
          "internalType": "string",
          "name": "roleType",
          "type": "string"
        }
      ],
      "name": "isRole",
      "outputs": [
        {
          "internalType": "bool",
          "name": "",
          "type": "bool"
        }
      ],
      "stateMutability": "view",
      "type": "function",
      "constant": true
    },
    {
      "inputs": [],
      "name": "issuer",
      "outputs": [
        {
          "internalType": "address",
          "name": "",
          "type": "address"
        }
      ],
      "stateMutability": "view",
      "type": "function",
      "constant": true
    },
    {
      "inputs": [],
      "name": "minFee",
      "outputs": [
        {
          "internalType": "uint256",
          "name": "",
          "type": "uint256"
        }
      ],
      "stateMutability": "view",
      "type": "function",
      "constant": true
    },
    {
      "inputs": [],
      "name": "name",
      "outputs": [
        {
          "internalType": "string",
          "name": "",
          "type": "string"
        }
      ],
      "stateMutability": "view",
      "type": "function",
      "constant": true
    },
    {
      "inputs": [
        {
          "internalType": "address",
          "name": "account",
          "type": "address"
        },
        {
          "internalType": "string",
          "name": "roleType",
          "type": "string"
        }
      ],
      "name": "remove",
      "outputs": [],
      "stateMutability": "nonpayable",
      "type": "function"
    },
    {
      "inputs": [
        {
          "internalType": "bytes",
          "name": "id",
          "type": "bytes"
        },
        {
          "internalType": "address",
          "name": "checkAddress",
          "type": "address"
        }
      ],
      "name": "removeApprove",
      "outputs": [
        {
          "internalType": "bool",
          "name": "",
          "type": "bool"
        }
      ],
      "stateMutability": "nonpayable",
      "type": "function"
    },
    {
      "inputs": [
        {
          "internalType": "bytes",
          "name": "id",
          "type": "bytes"
        },
        {
          "internalType": "address",
          "name": "checkAddress",
          "type": "address"
        }
      ],
      "name": "removeReject",
      "outputs": [
        {
          "internalType": "bool",
          "name": "",
          "type": "bool"
        }
      ],
      "stateMutability": "nonpayable",
      "type": "function"
    },
    {
      "inputs": [
        {
          "internalType": "uint256",
          "name": "value",
          "type": "uint256"
        }
      ],
      "name": "setMinFee",
      "outputs": [],
      "stateMutability": "nonpayable",
      "type": "function"
    },
    {
      "inputs": [],
      "name": "symbol",
      "outputs": [
        {
          "internalType": "string",
          "name": "",
          "type": "string"
        }
      ],
      "stateMutability": "view",
      "type": "function",
      "constant": true
    },
    {
      "inputs": [],
      "name": "totalSupply",
      "outputs": [
        {
          "internalType": "uint256",
          "name": "",
          "type": "uint256"
        }
      ],
      "stateMutability": "view",
      "type": "function",
      "constant": true
    },
    {
      "inputs": [
        {
          "internalType": "address",
          "name": "to",
          "type": "address"
        },
        {
          "internalType": "uint256",
          "name": "value",
          "type": "uint256"
        }
      ],
      "name": "transfer",
      "outputs": [
        {
          "internalType": "bool",
          "name": "",
          "type": "bool"
        }
      ],
      "stateMutability": "nonpayable",
      "type": "function"
    },
    {
      "inputs": [
        {
          "internalType": "address",
          "name": "from",
          "type": "address"
        },
        {
          "internalType": "address",
          "name": "to",
          "type": "address"
        },
        {
          "internalType": "uint256",
          "name": "value",
          "type": "uint256"
        }
      ],
      "name": "transferFrom",
      "outputs": [
        {
          "internalType": "bool",
          "name": "",
          "type": "bool"
        }
      ],
      "stateMutability": "nonpayable",
      "type": "function"
    },
    {
      "inputs": [
        {
          "internalType": "bytes",
          "name": "id",
          "type": "bytes"
        }
      ],
      "name": "addDocument",
      "outputs": [],
      "stateMutability": "nonpayable",
      "type": "function"
    },
    {
      "inputs": [
        {
          "internalType": "bytes",
          "name": "id",
          "type": "bytes"
        }
      ],
      "name": "deleteDocument",
      "outputs": [],
      "stateMutability": "nonpayable",
      "type": "function"
    },
    {
      "inputs": [
        {
          "internalType": "bytes",
          "name": "id",
          "type": "bytes"
        }
      ],
      "name": "approveDocument",
      "outputs": [],
      "stateMutability": "nonpayable",
      "type": "function"
    },
    {
      "inputs": [
        {
          "internalType": "bytes",
          "name": "id",
          "type": "bytes"
        }
      ],
      "name": "rejectDocument",
      "outputs": [],
      "stateMutability": "nonpayable",
      "type": "function"
    },
    {
      "inputs": [
        {
          "internalType": "bytes",
          "name": "id",
          "type": "bytes"
        }
      ],
      "name": "getOwnerDocument",
      "outputs": [
        {
          "internalType": "address",
          "name": "",
          "type": "address"
        }
      ],
      "stateMutability": "view",
      "type": "function",
      "constant": true
    },
    {
      "inputs": [
        {
          "internalType": "bytes",
          "name": "id",
          "type": "bytes"
        }
      ],
      "name": "getRejectDocument",
      "outputs": [
        {
          "internalType": "address[]",
          "name": "",
          "type": "address[]"
        }
      ],
      "stateMutability": "view",
      "type": "function",
      "constant": true
    },
    {
      "inputs": [
        {
          "internalType": "bytes",
          "name": "id",
          "type": "bytes"
        }
      ],
      "name": "getApproveDocument",
      "outputs": [
        {
          "internalType": "address[]",
          "name": "",
          "type": "address[]"
        }
      ],
      "stateMutability": "view",
      "type": "function",
      "constant": true
    },
    {
      "inputs": [
        {
          "internalType": "string",
          "name": "campaignId",
          "type": "string"
        },
        {
          "internalType": "uint256",
          "name": "totalWithFee",
          "type": "uint256"
        },
        {
          "internalType": "uint256",
          "name": "totalBudget",
          "type": "uint256"
        },
        {
          "internalType": "uint256",
          "name": "remainBudget",
          "type": "uint256"
        },
        {
          "internalType": "uint256",
          "name": "feeCancel",
          "type": "uint256"
        }
      ],
      "name": "createCampaign",
      "outputs": [],
      "stateMutability": "nonpayable",
      "type": "function"
    },
    {
      "inputs": [
        {
          "internalType": "string",
          "name": "campaignId",
          "type": "string"
        },
        {
          "internalType": "uint256",
          "name": "redudant",
          "type": "uint256"
        }
      ],
      "name": "checkOutCampaign",
      "outputs": [],
      "stateMutability": "nonpayable",
      "type": "function"
    },
    {
      "inputs": [
        {
          "internalType": "string",
          "name": "campaignId",
          "type": "string"
        },
        {
          "internalType": "string",
          "name": "paymentKey",
          "type": "string"
        },
        {
          "internalType": "address",
          "name": "supplier",
          "type": "address"
        },
        {
          "internalType": "uint256",
          "name": "value",
          "type": "uint256"
        }
      ],
      "name": "payToSupplier",
      "outputs": [
        {
          "internalType": "bool",
          "name": "",
          "type": "bool"
        }
      ],
      "stateMutability": "nonpayable",
      "type": "function"
    },
    {
      "inputs": [
        {
          "internalType": "string",
          "name": "campaignId",
          "type": "string"
        }
      ],
      "name": "cancelCampaign",
      "outputs": [],
      "stateMutability": "nonpayable",
      "type": "function"
    },
    {
      "inputs": [
        {
          "internalType": "string",
          "name": "campaignId",
          "type": "string"
        }
      ],
      "name": "getCampaignById",
      "outputs": [
        {
          "components": [
            {
              "internalType": "string",
              "name": "campaignId",
              "type": "string"
            },
            {
              "internalType": "address",
              "name": "advertiser",
              "type": "address"
            },
            {
              "internalType": "uint256",
              "name": "totalBudget",
              "type": "uint256"
            },
            {
              "internalType": "uint256",
              "name": "remainBudget",
              "type": "uint256"
            },
            {
              "internalType": "uint256",
              "name": "feeCancel",
              "type": "uint256"
            },
            {
              "internalType": "bool",
              "name": "isActive",
              "type": "bool"
            },
            {
              "internalType": "bool",
              "name": "isExist",
              "type": "bool"
            }
          ],
          "internalType": "struct CampaignDetail.Campaign",
          "name": "",
          "type": "tuple"
        }
      ],
      "stateMutability": "view",
      "type": "function",
      "constant": true
    },
    {
      "inputs": [
        {
          "internalType": "address",
          "name": "newOwner",
          "type": "address"
        }
      ],
      "name": "changeOwner",
      "outputs": [],
      "stateMutability": "nonpayable",
      "type": "function"
    },
    {
      "inputs": [
        {
          "internalType": "address",
          "name": "to",
          "type": "address"
        },
        {
          "internalType": "uint256",
          "name": "value",
          "type": "uint256"
        }
      ],
      "name": "mint",
      "outputs": [
        {
          "internalType": "bool",
          "name": "",
          "type": "bool"
        }
      ],
      "stateMutability": "nonpayable",
      "type": "function"
    }
  ],
  "bytecode": "0x60806040523480156200001157600080fd5b506040518060400160405280600a81526020017f41647665726973696e67000000000000000000000000000000000000000000008152506040518060400160405280600481526020017f4c4241540000000000000000000000000000000000000000000000000000000081525060006012600a0a6000026012600a0a6000028460059080519060200190620000a89291906200059d565b508360069080519060200190620000c19291906200059d565b5082600760006101000a81548160ff021916908360ff160217905550620000f830836200037f640100000000026401000000009004565b6200011233620004f4640100000000026401000000009004565b6200012c8162000573640100000000026401000000009004565b505050505033600b60000160006101000a81548173ffffffffffffffffffffffffffffffffffffffff021916908373ffffffffffffffffffffffffffffffffffffffff1602179055506001600b6001016040516200018a9062000748565b908152602001604051809103902060003373ffffffffffffffffffffffffffffffffffffffff1673ffffffffffffffffffffffffffffffffffffffff16815260200190815260200160002060006101000a81548160ff0219169083151502179055506001600b60010160405162000201906200071a565b908152602001604051809103902060003373ffffffffffffffffffffffffffffffffffffffff1673ffffffffffffffffffffffffffffffffffffffff16815260200190815260200160002060006101000a81548160ff0219169083151502179055506001600b600101604051620002789062000731565b9081526020016040518091039020600073591d6d73aa1ee46202f55443ab166d8b4b1403e073ffffffffffffffffffffffffffffffffffffffff1673ffffffffffffffffffffffffffffffffffffffff16815260200190815260200160002060006101000a81548160ff0219169083151502179055506001600b60010160405162000303906200071a565b9081526020016040518091039020600073591d6d73aa1ee46202f55443ab166d8b4b1403e073ffffffffffffffffffffffffffffffffffffffff1673ffffffffffffffffffffffffffffffffffffffff16815260200190815260200160002060006101000a81548160ff02191690831515021790555062000791565b600073ffffffffffffffffffffffffffffffffffffffff168273ffffffffffffffffffffffffffffffffffffffff161415620003ba57600080fd5b620003df816004546200057d64010000000002620032fd179091906401000000009004565b60048190555062000446816000808573ffffffffffffffffffffffffffffffffffffffff1673ffffffffffffffffffffffffffffffffffffffff168152602001908152602001600020546200057d64010000000002620032fd179091906401000000009004565b6000808473ffffffffffffffffffffffffffffffffffffffff1673ffffffffffffffffffffffffffffffffffffffff168152602001908152602001600020819055508173ffffffffffffffffffffffffffffffffffffffff16600073ffffffffffffffffffffffffffffffffffffffff167fddf252ad1be2c89b69c2b068fc378daa952ba7f163c4a11628f55a4df523b3ef83604051620004e891906200075f565b60405180910390a35050565b600073ffffffffffffffffffffffffffffffffffffffff168173ffffffffffffffffffffffffffffffffffffffff1614156200052f57600080fd5b80600260006101000a81548173ffffffffffffffffffffffffffffffffffffffff021916908373ffffffffffffffffffffffffffffffffffffffff16021790555050565b8060018190555050565b6000808284019050838110156200059357600080fd5b8091505092915050565b828054600181600116156101000203166002900490600052602060002090601f016020900481019282601f10620005e057805160ff191683800117855562000611565b8280016001018555821562000611579182015b8281111562000610578251825591602001919060010190620005f3565b5b50905062000620919062000624565b5090565b5b808211156200063f57600081600090555060010162000625565b5090565b6000620006526006836200077c565b91507f4d696e74657200000000000000000000000000000000000000000000000000006000830152600682019050919050565b6000620006946006836200077c565b91507f53657276657200000000000000000000000000000000000000000000000000006000830152600682019050919050565b6000620006d66005836200077c565b91507f41646d696e0000000000000000000000000000000000000000000000000000006000830152600582019050919050565b620007148162000787565b82525050565b6000620007278262000643565b9150819050919050565b60006200073e8262000685565b9150819050919050565b60006200075582620006c7565b9150819050919050565b600060208201905062000776600083018462000709565b92915050565b600081905092915050565b6000819050919050565b614fbb80620007a16000396000f3fe608060405234801561001057600080fd5b506004361061024f576000357c01000000000000000000000000000000000000000000000000000000009004806336d6da551161014d57806395d89b41116100d5578063dd62ed3e11610099578063dd62ed3e14610759578063e26034cd14610789578063e35d66a8146107b9578063e631ce99146107d5578063ebdc695d146107f15761024f565b806395d89b41146106b7578063a6f9dae1146106d5578063a9059cbb146106f1578063be7e2a0b14610721578063c79de09b1461073d5761024f565b806349209fc81161011c57806349209fc8146105ef5780634f8eb0c81461060b57806370a082311461063b5780637769bc741461066b5780638f21a9a5146106875761024f565b806336d6da551461054357806340c10f191461055f57806342966c681461058f5780634340d51c146105bf5761024f565b8063228bc0a9116101db5780632b2805db1161019f5780632b2805db146104765780632bae5a44146104a95780632f54bf6e146104d9578063313ce5671461050957806331ac9920146105275761024f565b8063228bc0a9146103c057806323b872dd146103dc57806323e8f4bb1461040c57806324ec75901461043c578063267945ff1461045a5761024f565b806314c160621161022257806314c160621461030257806318160ddd1461031e5780631d1438481461033c5780631d39e5091461035a578063219782f7146103905761024f565b806306fdde0314610254578063070eb15714610272578063095ea7b3146102a2578063127e8e4d146102d2575b600080fd5b61025c610821565b6040516102699190614ada565b60405180910390f35b61028c60048036038101906102879190613fb7565b6108c3565b60405161029991906149b6565b60405180910390f35b6102bc60048036038101906102b7919061400b565b6108e3565b6040516102c991906149b6565b60405180910390f35b6102ec60048036038101906102e79190614328565b610a8a565b6040516102f99190614c84565b60405180910390f35b61031c60048036038101906103179190614070565b610abb565b005b610326610d38565b6040516103339190614c84565b60405180910390f35b610344610d42565b6040516103519190614979565b60405180910390f35b610374600480360381019061036f9190614105565b610d6c565b6040516103879796959493929190614afc565b60405180910390f35b6103aa60048036038101906103a591906141b2565b610e96565b6040516103b791906149b6565b60405180910390f35b6103da60048036038101906103d59190614070565b61109e565b005b6103f660048036038101906103f19190613f68565b6113cf565b60405161040391906149b6565b60405180910390f35b61042660048036038101906104219190614146565b61170d565b60405161043391906149b6565b60405180910390f35b610444611768565b6040516104519190614c84565b60405180910390f35b610474600480360381019061046f9190613f03565b611772565b005b610490600480360381019061048b9190614047565b6118f7565b6040516104a09493929190614c9f565b60405180910390f35b6104c360048036038101906104be9190614070565b6119ec565b6040516104d09190614994565b60405180910390f35b6104f360048036038101906104ee9190613f03565b611a97565b60405161050091906149b6565b60405180910390f35b610511611af4565b60405161051e9190614ceb565b60405180910390f35b610541600480360381019061053c9190614328565b611b0b565b005b61055d60048036038101906105589190613fb7565b611b56565b005b6105796004803603810190610574919061400b565b611c1d565b60405161058691906149b6565b60405180910390f35b6105a960048036038101906105a49190614328565b611c7b565b6040516105b691906149b6565b60405180910390f35b6105d960048036038101906105d491906140b1565b611c90565b6040516105e691906149b6565b60405180910390f35b61060960048036038101906106049190613fb7565b611e0c565b005b610625600480360381019061062091906140b1565b611ed3565b60405161063291906149b6565b60405180910390f35b61065560048036038101906106509190613f03565b61204f565b6040516106629190614c84565b60405180910390f35b61068560048036038101906106809190614070565b612097565b005b6106a1600480360381019061069c9190614070565b612314565b6040516106ae9190614994565b60405180910390f35b6106bf6123bf565b6040516106cc9190614ada565b60405180910390f35b6106ef60048036038101906106ea9190613f03565b612461565b005b61070b6004803603810190610706919061400b565b612488565b60405161071891906149b6565b60405180910390f35b61073b60048036038101906107369190614070565b6125da565b005b61075760048036038101906107529190614299565b6127c4565b005b610773600480360381019061076e9190613f2c565b612adb565b6040516107809190614c84565b60405180910390f35b6107a3600480360381019061079e9190614105565b612b62565b6040516107b09190614c62565b60405180910390f35b6107d360048036038101906107ce9190614105565b612ce6565b005b6107ef60048036038101906107ea9190614245565b61304c565b005b61080b60048036038101906108069190614070565b6132b6565b6040516108189190614979565b60405180910390f35b606060058054600181600116156101000203166002900480601f0160208091040260200160405190810160405280929190818152602001828054600181600116156101000203166002900480156108b95780601f1061088e576101008083540402835291602001916108b9565b820191906000526020600020905b81548152906001019060200180831161089c57829003601f168201915b5050505050905090565b60006108db8383600b61331c9092919063ffffffff16565b905092915050565b60008073ffffffffffffffffffffffffffffffffffffffff168373ffffffffffffffffffffffffffffffffffffffff16141561091e57600080fd5b6001546000803373ffffffffffffffffffffffffffffffffffffffff1673ffffffffffffffffffffffffffffffffffffffff16815260200190815260200160002054101561096b57600080fd5b81600360003373ffffffffffffffffffffffffffffffffffffffff1673ffffffffffffffffffffffffffffffffffffffff16815260200190815260200160002060008573ffffffffffffffffffffffffffffffffffffffff1673ffffffffffffffffffffffffffffffffffffffff16815260200190815260200160002081905550610a1b33600260009054906101000a900473ffffffffffffffffffffffffffffffffffffffff166001546133cb565b8273ffffffffffffffffffffffffffffffffffffffff163373ffffffffffffffffffffffffffffffffffffffff167f8c5be1e5ebec7d5bd14f71427d1e84f3dd0314c0f7b2291e5b200ac8c7c3b92584604051610a789190614c84565b60405180910390a36001905092915050565b6000610ab4600154610aa660008561361690919063ffffffff16565b6132fd90919063ffffffff16565b9050919050565b610afa336040518060400160405280600681526020017f4d696e74657200000000000000000000000000000000000000000000000000008152506108c3565b158015610b0d5750610b0b33611a97565b155b8015610b555750610b53336040518060400160405280600681526020017f53657276657200000000000000000000000000000000000000000000000000008152506108c3565b155b610b5e57600080fd5b610b9d336040518060400160405280600581526020017f41646d696e0000000000000000000000000000000000000000000000000000008152506108c3565b610ba657600080fd5b600860008280519060200120815260200190815260200160002060050160009054906101000a900460ff16610c5e573373ffffffffffffffffffffffffffffffffffffffff167f7b178bf1583b36c417d982a222dfebdf8e3c8ecff7e75e459627b176a9e8bd7282604051610c1b91906149d1565b60405180910390a26040517f08c379a0000000000000000000000000000000000000000000000000000000008152600401610c5590614ba2565b60405180910390fd5b610c688133611c90565b506008600082805190602001208152602001908152602001600020600401339080600181540180825580915050600190039060005260206000200160009091909190916101000a81548173ffffffffffffffffffffffffffffffffffffffff021916908373ffffffffffffffffffffffffffffffffffffffff1602179055503373ffffffffffffffffffffffffffffffffffffffff167f7b178bf1583b36c417d982a222dfebdf8e3c8ecff7e75e459627b176a9e8bd7282604051610d2d9190614aa5565b60405180910390a250565b6000600454905090565b6000600260009054906101000a900473ffffffffffffffffffffffffffffffffffffffff16905090565b600981805160208101820180518482526020830160208501208183528095505050505050600091509050806000018054600181600116156101000203166002900480601f016020809104026020016040519081016040528092919081815260200182805460018160011615610100020316600290048015610e2e5780601f10610e0357610100808354040283529160200191610e2e565b820191906000526020600020905b815481529060010190602001808311610e1157829003601f168201915b5050505050908060010160009054906101000a900473ffffffffffffffffffffffffffffffffffffffff16908060020154908060030154908060040154908060050160009054906101000a900460ff16908060050160019054906101000a900460ff16905087565b6000610ed7336040518060400160405280600681526020017f53657276657200000000000000000000000000000000000000000000000000008152506108c3565b610ee057600080fd5b600073ffffffffffffffffffffffffffffffffffffffff168373ffffffffffffffffffffffffffffffffffffffff161415610f1a57600080fd5b600985604051610f2a9190614914565b908152602001604051809103902060030154821115610f4857600080fd5b600a85604051610f589190614914565b908152602001604051809103902084604051610f749190614914565b908152602001604051809103902060009054906101000a900460ff1615610f9a57600080fd5b610fce82600987604051610fae9190614914565b90815260200160405180910390206003015461365090919063ffffffff16565b600986604051610fde9190614914565b90815260200160405180910390206003018190555061103f306009876040516110079190614914565b908152602001604051809103902060010160009054906101000a900473ffffffffffffffffffffffffffffffffffffffff16846133cb565b6001600a866040516110519190614914565b90815260200160405180910390208560405161106d9190614914565b908152602001604051809103902060006101000a81548160ff02191690831515021790555060019050949350505050565b600860008280519060200120815260200190815260200160002060050160009054906101000a900460ff16801561115d5750336040516020016110e191906148f9565b60405160208183030381529060405280519060200120600860008380519060200120815260200190815260200160002060020160009054906101000a900473ffffffffffffffffffffffffffffffffffffffff1660405160200161114591906148de565b60405160208183030381529060405280519060200120145b806111905750600860008280519060200120815260200190815260200160002060050160009054906101000a900460ff16155b156113cc576060600067ffffffffffffffff811180156111af57600080fd5b506040519080825280602002602001820160405280156111de5781602001602082028036833780820191505090505b5090506060600067ffffffffffffffff811180156111fb57600080fd5b5060405190808252806020026020018201604052801561122a5781602001602082028036833780820191505090505b5090506040518060c0016040528042815260200142853360405160200161125393929190614940565b60405160208183030381529060405281526020013373ffffffffffffffffffffffffffffffffffffffff1681526020018381526020018281526020016001151581525060086000858051906020012081526020019081526020016000206000820151816000015560208201518160010190805190602001906112d6929190613b7a565b5060408201518160020160006101000a81548173ffffffffffffffffffffffffffffffffffffffff021916908373ffffffffffffffffffffffffffffffffffffffff160217905550606082015181600301908051906020019061133a929190613bfa565b506080820151816004019080519060200190611357929190613bfa565b5060a08201518160050160006101000a81548160ff0219169083151502179055509050503373ffffffffffffffffffffffffffffffffffffffff167fce62159ff3c25a8e61a8bc74b520c1c33ff5acc534e8af236f3b5a587b050b05846040516113c19190614a70565b60405180910390a250505b50565b6000806113e7600154846132fd90919063ffffffff16565b9050600073ffffffffffffffffffffffffffffffffffffffff168473ffffffffffffffffffffffffffffffffffffffff161415611459576040517f08c379a000000000000000000000000000000000000000000000000000000000815260040161145090614c22565b60405180910390fd5b600360008673ffffffffffffffffffffffffffffffffffffffff1673ffffffffffffffffffffffffffffffffffffffff16815260200190815260200160002060003373ffffffffffffffffffffffffffffffffffffffff1673ffffffffffffffffffffffffffffffffffffffff16815260200190815260200160002054811115611518576040517f08c379a000000000000000000000000000000000000000000000000000000000815260040161150f90614c02565b60405180910390fd5b6115a781600360008873ffffffffffffffffffffffffffffffffffffffff1673ffffffffffffffffffffffffffffffffffffffff16815260200190815260200160002060003373ffffffffffffffffffffffffffffffffffffffff1673ffffffffffffffffffffffffffffffffffffffff1681526020019081526020016000205461365090919063ffffffff16565b600360008773ffffffffffffffffffffffffffffffffffffffff1673ffffffffffffffffffffffffffffffffffffffff16815260200190815260200160002060003373ffffffffffffffffffffffffffffffffffffffff1673ffffffffffffffffffffffffffffffffffffffff168152602001908152602001600020819055506116328585856133cb565b61166185600260009054906101000a900473ffffffffffffffffffffffffffffffffffffffff166001546133cb565b600260009054906101000a900473ffffffffffffffffffffffffffffffffffffffff1673ffffffffffffffffffffffffffffffffffffffff168473ffffffffffffffffffffffffffffffffffffffff163373ffffffffffffffffffffffffffffffffffffffff167ffcf5b3276434181e3c48bd3fe569b8939808f11e845d4b963693b9d7dbd6dd996001546040516116f99190614c84565b60405180910390a460019150509392505050565b600a82805160208101820180518482526020830160208501208183528095505050505050818051602081018201805184825260208301602085012081835280955050505050506000915091509054906101000a900460ff1681565b6000600154905090565b61177b33611a97565b61178457600080fd5b80600b60000160006101000a81548173ffffffffffffffffffffffffffffffffffffffff021916908373ffffffffffffffffffffffffffffffffffffffff160217905550611813816040518060400160405280600681526020017f4d696e7465720000000000000000000000000000000000000000000000000000815250600b6136709092919063ffffffff16565b61185e816040518060400160405280600581526020017f41646d696e000000000000000000000000000000000000000000000000000000815250600b6136709092919063ffffffff16565b6118a9336040518060400160405280600681526020017f4d696e7465720000000000000000000000000000000000000000000000000000815250600b61373a9092919063ffffffff16565b6118f4336040518060400160405280600581526020017f41646d696e000000000000000000000000000000000000000000000000000000815250600b61373a9092919063ffffffff16565b50565b6008602052806000526040600020600091509050806000015490806001018054600181600116156101000203166002900480601f0160208091040260200160405190810160405280929190818152602001828054600181600116156101000203166002900480156119a95780601f1061197e576101008083540402835291602001916119a9565b820191906000526020600020905b81548152906001019060200180831161198c57829003601f168201915b5050505050908060020160009054906101000a900473ffffffffffffffffffffffffffffffffffffffff16908060050160009054906101000a900460ff16905084565b60606008600083805190602001208152602001908152602001600020600301805480602002602001604051908101604052809291908181526020018280548015611a8b57602002820191906000526020600020905b8160009054906101000a900473ffffffffffffffffffffffffffffffffffffffff1673ffffffffffffffffffffffffffffffffffffffff1681526020019060010190808311611a41575b50505050509050919050565b6000600b60000160009054906101000a900473ffffffffffffffffffffffffffffffffffffffff1673ffffffffffffffffffffffffffffffffffffffff168273ffffffffffffffffffffffffffffffffffffffff16149050919050565b6000600760009054906101000a900460ff16905090565b611b13610d42565b73ffffffffffffffffffffffffffffffffffffffff163373ffffffffffffffffffffffffffffffffffffffff1614611b4a57600080fd5b611b5381613803565b50565b611b95336040518060400160405280600581526020017f41646d696e0000000000000000000000000000000000000000000000000000008152506108c3565b611b9e57600080fd5b604051602001611bad9061492b565b6040516020818303038152906040528051906020012081604051602001611bd49190614914565b604051602081830303815290604052805190602001201415611c0357611bf933611a97565b611c0257600080fd5b5b611c198282600b6136709092919063ffffffff16565b5050565b6000611c5e336040518060400160405280600681526020017f4d696e74657200000000000000000000000000000000000000000000000000008152506108c3565b611c6757600080fd5b611c71838361380d565b6001905092915050565b6000611c87338361395f565b60019050919050565b6000600860008480519060200120815260200190815260200160002060050160009054906101000a900460ff1615611e015760005b600860008580519060200120815260200190815260200160002060030180549050811015611dff5782604051602001611cfe91906148de565b6040516020818303038152906040528051906020012060086000868051906020012081526020019081526020016000206003018281548110611d3c57fe5b9060005260206000200160009054906101000a900473ffffffffffffffffffffffffffffffffffffffff16604051602001611d7791906148de565b604051602081830303815290604052805190602001201415611df25760086000858051906020012081526020019081526020016000206003018181548110611dbb57fe5b9060005260206000200160006101000a81549073ffffffffffffffffffffffffffffffffffffffff02191690556001915050611e06565b8080600101915050611cc5565b505b600090505b92915050565b611e4b336040518060400160405280600581526020017f41646d696e0000000000000000000000000000000000000000000000000000008152506108c3565b611e5457600080fd5b604051602001611e639061492b565b6040516020818303038152906040528051906020012081604051602001611e8a9190614914565b604051602081830303815290604052805190602001201415611eb957611eaf33611a97565b611eb857600080fd5b5b611ecf8282600b61373a9092919063ffffffff16565b5050565b6000600860008480519060200120815260200190815260200160002060050160009054906101000a900460ff16156120445760005b6008600085805190602001208152602001908152602001600020600401805490508110156120425782604051602001611f4191906148de565b6040516020818303038152906040528051906020012060086000868051906020012081526020019081526020016000206004018281548110611f7f57fe5b9060005260206000200160009054906101000a900473ffffffffffffffffffffffffffffffffffffffff16604051602001611fba91906148de565b6040516020818303038152906040528051906020012014156120355760086000858051906020012081526020019081526020016000206004018181548110611ffe57fe5b9060005260206000200160006101000a81549073ffffffffffffffffffffffffffffffffffffffff02191690556001915050612049565b8080600101915050611f08565b505b600090505b92915050565b60008060008373ffffffffffffffffffffffffffffffffffffffff1673ffffffffffffffffffffffffffffffffffffffff168152602001908152602001600020549050919050565b6120d6336040518060400160405280600681526020017f4d696e74657200000000000000000000000000000000000000000000000000008152506108c3565b1580156120e957506120e733611a97565b155b8015612131575061212f336040518060400160405280600681526020017f53657276657200000000000000000000000000000000000000000000000000008152506108c3565b155b61213a57600080fd5b612179336040518060400160405280600581526020017f41646d696e0000000000000000000000000000000000000000000000000000008152506108c3565b61218257600080fd5b600860008280519060200120815260200190815260200160002060050160009054906101000a900460ff1661223a573373ffffffffffffffffffffffffffffffffffffffff167f7b178bf1583b36c417d982a222dfebdf8e3c8ecff7e75e459627b176a9e8bd72826040516121f791906149d1565b60405180910390a26040517f08c379a000000000000000000000000000000000000000000000000000000000815260040161223190614ba2565b60405180910390fd5b6122448133611ed3565b506008600082805190602001208152602001908152602001600020600301339080600181540180825580915050600190039060005260206000200160009091909190916101000a81548173ffffffffffffffffffffffffffffffffffffffff021916908373ffffffffffffffffffffffffffffffffffffffff1602179055503373ffffffffffffffffffffffffffffffffffffffff167f7b178bf1583b36c417d982a222dfebdf8e3c8ecff7e75e459627b176a9e8bd72826040516123099190614a06565b60405180910390a250565b606060086000838051906020012081526020019081526020016000206004018054806020026020016040519081016040528092919081815260200182805480156123b357602002820191906000526020600020905b8160009054906101000a900473ffffffffffffffffffffffffffffffffffffffff1673ffffffffffffffffffffffffffffffffffffffff1681526020019060010190808311612369575b50505050509050919050565b606060068054600181600116156101000203166002900480601f0160208091040260200160405190810160405280929190818152602001828054600181600116156101000203166002900480156124575780601f1061242c57610100808354040283529160200191612457565b820191906000526020600020905b81548152906001019060200180831161243a57829003601f168201915b5050505050905090565b61246a33611a97565b61247357600080fd5b61247c81613afc565b61248581611772565b50565b6000806124a0600154846132fd90919063ffffffff16565b9050600073ffffffffffffffffffffffffffffffffffffffff168473ffffffffffffffffffffffffffffffffffffffff1614156124dc57600080fd5b808311156124e957600080fd5b6124f43385856133cb565b600060015411156125cf5761252e33600260009054906101000a900473ffffffffffffffffffffffffffffffffffffffff166001546133cb565b600260009054906101000a900473ffffffffffffffffffffffffffffffffffffffff1673ffffffffffffffffffffffffffffffffffffffff168473ffffffffffffffffffffffffffffffffffffffff163373ffffffffffffffffffffffffffffffffffffffff167ffcf5b3276434181e3c48bd3fe569b8939808f11e845d4b963693b9d7dbd6dd996001546040516125c69190614c84565b60405180910390a45b600191505092915050565b600860008280519060200120815260200190815260200160002060050160009054906101000a900460ff16156127c1573360405160200161261b91906148f9565b60405160208183030381529060405280519060200120600860008380519060200120815260200190815260200160002060020160009054906101000a900473ffffffffffffffffffffffffffffffffffffffff1660405160200161267f91906148de565b6040516020818303038152906040528051906020012014806126dc57506126db336040518060400160405280600581526020017f41646d696e0000000000000000000000000000000000000000000000000000008152506108c3565b5b156127c05760086000828051906020012081526020019081526020016000206000808201600090556001820160006127149190613c84565b6002820160006101000a81549073ffffffffffffffffffffffffffffffffffffffff021916905560038201600061274b9190613ccc565b60048201600061275b9190613ccc565b6005820160006101000a81549060ff021916905550503373ffffffffffffffffffffffffffffffffffffffff167f28002293bad88b08fb13722e242b2f4fe6671e857d23067f331280ed245c4557826040516127b79190614a3b565b60405180910390a25b5b50565b600360003373ffffffffffffffffffffffffffffffffffffffff1673ffffffffffffffffffffffffffffffffffffffff16815260200190815260200160002060003073ffffffffffffffffffffffffffffffffffffffff1673ffffffffffffffffffffffffffffffffffffffff16815260200190815260200160002054841115612883576040517f08c379a000000000000000000000000000000000000000000000000000000000815260040161287a90614c02565b60405180910390fd5b6009856040516128939190614914565b908152602001604051809103902060050160019054906101000a900460ff16612a84576128c13330866133cb565b61295084600360003373ffffffffffffffffffffffffffffffffffffffff1673ffffffffffffffffffffffffffffffffffffffff16815260200190815260200160002060003073ffffffffffffffffffffffffffffffffffffffff1673ffffffffffffffffffffffffffffffffffffffff1681526020019081526020016000205461365090919063ffffffff16565b506040518060e001604052808681526020013373ffffffffffffffffffffffffffffffffffffffff168152602001848152602001838152602001828152602001600115158152602001600115158152506009866040516129b09190614914565b908152602001604051809103902060008201518160000190805190602001906129da929190613ced565b5060208201518160010160006101000a81548173ffffffffffffffffffffffffffffffffffffffff021916908373ffffffffffffffffffffffffffffffffffffffff16021790555060408201518160020155606082015181600301556080820151816004015560a08201518160050160006101000a81548160ff02191690831515021790555060c08201518160050160016101000a81548160ff0219169083151502179055509050505b3373ffffffffffffffffffffffffffffffffffffffff167f5c04f4c64423af25dc8dc6bd45d037a95fe962bb56e5ca1b993600448846f07f8685604051612acc929190614b72565b60405180910390a25050505050565b6000600360008473ffffffffffffffffffffffffffffffffffffffff1673ffffffffffffffffffffffffffffffffffffffff16815260200190815260200160002060008373ffffffffffffffffffffffffffffffffffffffff1673ffffffffffffffffffffffffffffffffffffffff16815260200190815260200160002054905092915050565b612b6a613d6d565b600982604051612b7a9190614914565b90815260200160405180910390206040518060e0016040529081600082018054600181600116156101000203166002900480601f016020809104026020016040519081016040528092919081815260200182805460018160011615610100020316600290048015612c2c5780601f10612c0157610100808354040283529160200191612c2c565b820191906000526020600020905b815481529060010190602001808311612c0f57829003601f168201915b505050505081526020016001820160009054906101000a900473ffffffffffffffffffffffffffffffffffffffff1673ffffffffffffffffffffffffffffffffffffffff1673ffffffffffffffffffffffffffffffffffffffff1681526020016002820154815260200160038201548152602001600482015481526020016005820160009054906101000a900460ff161515151581526020016005820160019054906101000a900460ff1615151515815250509050919050565b600981604051612cf69190614914565b908152602001604051809103902060050160019054906101000a900460ff16612d54576040517f08c379a0000000000000000000000000000000000000000000000000000000008152600401612d4b90614bc2565b60405180910390fd5b600981604051612d649190614914565b908152602001604051809103902060050160009054906101000a900460ff16612dc2576040517f08c379a0000000000000000000000000000000000000000000000000000000008152600401612db990614c42565b60405180910390fd5b3373ffffffffffffffffffffffffffffffffffffffff16600982604051612de99190614914565b908152602001604051809103902060010160009054906101000a900473ffffffffffffffffffffffffffffffffffffffff1673ffffffffffffffffffffffffffffffffffffffff161480612e785750612e77336040518060400160405280600581526020017f41646d696e0000000000000000000000000000000000000000000000000000008152506108c3565b5b612e8157600080fd5b612ec0336040518060400160405280600581526020017f41646d696e0000000000000000000000000000000000000000000000000000008152506108c3565b15612f3757612f31600982604051612ed89190614914565b908152602001604051809103902060010160009054906101000a900473ffffffffffffffffffffffffffffffffffffffff16600983604051612f1a9190614914565b908152602001604051809103902060030154612488565b50612fe8565b6000612f8e600983604051612f4c9190614914565b908152602001604051809103902060040154600984604051612f6e9190614914565b90815260200160405180910390206003015461365090919063ffffffff16565b90506000811115612fe657612fe4600983604051612fac9190614914565b908152602001604051809103902060010160009054906101000a900473ffffffffffffffffffffffffffffffffffffffff1682612488565b505b505b6000600982604051612ffa9190614914565b908152602001604051809103902060050160006101000a81548160ff02191690831515021790555060006009826040516130349190614914565b90815260200160405180910390206003018190555050565b61308b336040518060400160405280600681526020017f53657276657200000000000000000000000000000000000000000000000000008152506108c3565b61309457600080fd5b6009826040516130a49190614914565b908152602001604051809103902060050160019054906101000a900460ff16613102576040517f08c379a00000000000000000000000000000000000000000000000000000000081526004016130f990614bc2565b60405180910390fd5b6009826040516131129190614914565b908152602001604051809103902060050160009054906101000a900460ff16613170576040517f08c379a000000000000000000000000000000000000000000000000000000000815260040161316790614c42565b60405180910390fd5b806009836040516131819190614914565b908152602001604051809103902060030154116131d3576040517f08c379a00000000000000000000000000000000000000000000000000000000081526004016131ca90614be2565b60405180910390fd5b61321e6009836040516131e69190614914565b908152602001604051809103902060010160009054906101000a900473ffffffffffffffffffffffffffffffffffffffff1682612488565b5060006009836040516132319190614914565b908152602001604051809103902060050160006101000a81548160ff02191690831515021790555061328d8160098460405161326d9190614914565b90815260200160405180910390206003015461365090919063ffffffff16565b60098360405161329d9190614914565b9081526020016040518091039020600301819055505050565b6000600860008380519060200120815260200190815260200160002060020160009054906101000a900473ffffffffffffffffffffffffffffffffffffffff169050919050565b60008082840190508381101561331257600080fd5b8091505092915050565b60008073ffffffffffffffffffffffffffffffffffffffff168373ffffffffffffffffffffffffffffffffffffffff16141561335757600080fd5b83600101826040516133699190614914565b908152602001604051809103902060008473ffffffffffffffffffffffffffffffffffffffff1673ffffffffffffffffffffffffffffffffffffffff16815260200190815260200160002060009054906101000a900460ff1690509392505050565b6000808473ffffffffffffffffffffffffffffffffffffffff1673ffffffffffffffffffffffffffffffffffffffff1681526020019081526020016000205481111561344c576040517f08c379a000000000000000000000000000000000000000000000000000000000815260040161344390614c02565b60405180910390fd5b600073ffffffffffffffffffffffffffffffffffffffff168273ffffffffffffffffffffffffffffffffffffffff16141561348657600080fd5b6134d7816000808673ffffffffffffffffffffffffffffffffffffffff1673ffffffffffffffffffffffffffffffffffffffff1681526020019081526020016000205461365090919063ffffffff16565b6000808573ffffffffffffffffffffffffffffffffffffffff1673ffffffffffffffffffffffffffffffffffffffff1681526020019081526020016000208190555061356a816000808573ffffffffffffffffffffffffffffffffffffffff1673ffffffffffffffffffffffffffffffffffffffff168152602001908152602001600020546132fd90919063ffffffff16565b6000808473ffffffffffffffffffffffffffffffffffffffff1673ffffffffffffffffffffffffffffffffffffffff168152602001908152602001600020819055508173ffffffffffffffffffffffffffffffffffffffff168373ffffffffffffffffffffffffffffffffffffffff167fddf252ad1be2c89b69c2b068fc378daa952ba7f163c4a11628f55a4df523b3ef836040516136099190614c84565b60405180910390a3505050565b600080831415613629576000905061364a565b600082840290508284828161363a57fe5b041461364557600080fd5b809150505b92915050565b60008282111561365f57600080fd5b600082840390508091505092915050565b600073ffffffffffffffffffffffffffffffffffffffff168273ffffffffffffffffffffffffffffffffffffffff1614156136aa57600080fd5b6136b583838361331c565b156136bf57600080fd5b600183600101826040516136d39190614914565b908152602001604051809103902060008473ffffffffffffffffffffffffffffffffffffffff1673ffffffffffffffffffffffffffffffffffffffff16815260200190815260200160002060006101000a81548160ff021916908315150217905550505050565b600073ffffffffffffffffffffffffffffffffffffffff168273ffffffffffffffffffffffffffffffffffffffff16141561377457600080fd5b61377f83838361331c565b61378857600080fd5b6000836001018260405161379c9190614914565b908152602001604051809103902060008473ffffffffffffffffffffffffffffffffffffffff1673ffffffffffffffffffffffffffffffffffffffff16815260200190815260200160002060006101000a81548160ff021916908315150217905550505050565b8060018190555050565b600073ffffffffffffffffffffffffffffffffffffffff168273ffffffffffffffffffffffffffffffffffffffff16141561384757600080fd5b61385c816004546132fd90919063ffffffff16565b6004819055506138b3816000808573ffffffffffffffffffffffffffffffffffffffff1673ffffffffffffffffffffffffffffffffffffffff168152602001908152602001600020546132fd90919063ffffffff16565b6000808473ffffffffffffffffffffffffffffffffffffffff1673ffffffffffffffffffffffffffffffffffffffff168152602001908152602001600020819055508173ffffffffffffffffffffffffffffffffffffffff16600073ffffffffffffffffffffffffffffffffffffffff167fddf252ad1be2c89b69c2b068fc378daa952ba7f163c4a11628f55a4df523b3ef836040516139539190614c84565b60405180910390a35050565b600073ffffffffffffffffffffffffffffffffffffffff168273ffffffffffffffffffffffffffffffffffffffff16141561399957600080fd5b6000808373ffffffffffffffffffffffffffffffffffffffff1673ffffffffffffffffffffffffffffffffffffffff168152602001908152602001600020548111156139e457600080fd5b6139f98160045461365090919063ffffffff16565b600481905550613a50816000808573ffffffffffffffffffffffffffffffffffffffff1673ffffffffffffffffffffffffffffffffffffffff1681526020019081526020016000205461365090919063ffffffff16565b6000808473ffffffffffffffffffffffffffffffffffffffff1673ffffffffffffffffffffffffffffffffffffffff16815260200190815260200160002081905550600073ffffffffffffffffffffffffffffffffffffffff168273ffffffffffffffffffffffffffffffffffffffff167fddf252ad1be2c89b69c2b068fc378daa952ba7f163c4a11628f55a4df523b3ef83604051613af09190614c84565b60405180910390a35050565b600073ffffffffffffffffffffffffffffffffffffffff168173ffffffffffffffffffffffffffffffffffffffff161415613b3657600080fd5b80600260006101000a81548173ffffffffffffffffffffffffffffffffffffffff021916908373ffffffffffffffffffffffffffffffffffffffff16021790555050565b828054600181600116156101000203166002900490600052602060002090601f016020900481019282601f10613bbb57805160ff1916838001178555613be9565b82800160010185558215613be9579182015b82811115613be8578251825591602001919060010190613bcd565b5b509050613bf69190613dc4565b5090565b828054828255906000526020600020908101928215613c73579160200282015b82811115613c725782518260006101000a81548173ffffffffffffffffffffffffffffffffffffffff021916908373ffffffffffffffffffffffffffffffffffffffff16021790555091602001919060010190613c1a565b5b509050613c809190613de1565b5090565b50805460018160011615610100020316600290046000825580601f10613caa5750613cc9565b601f016020900490600052602060002090810190613cc89190613dc4565b5b50565b5080546000825590600052602060002090810190613cea9190613dc4565b50565b828054600181600116156101000203166002900490600052602060002090601f016020900481019282601f10613d2e57805160ff1916838001178555613d5c565b82800160010185558215613d5c579182015b82811115613d5b578251825591602001919060010190613d40565b5b509050613d699190613dc4565b5090565b6040518060e0016040528060608152602001600073ffffffffffffffffffffffffffffffffffffffff1681526020016000815260200160008152602001600081526020016000151581526020016000151581525090565b5b80821115613ddd576000816000905550600101613dc5565b5090565b5b80821115613e1857600081816101000a81549073ffffffffffffffffffffffffffffffffffffffff021916905550600101613de2565b5090565b600081359050613e2b81614f40565b92915050565b600081359050613e4081614f57565b92915050565b600082601f830112613e5757600080fd5b8135613e6a613e6582614d33565b614d06565b91508082526020830160208301858383011115613e8657600080fd5b613e91838284614e94565b50505092915050565b600082601f830112613eab57600080fd5b8135613ebe613eb982614d5f565b614d06565b91508082526020830160208301858383011115613eda57600080fd5b613ee5838284614e94565b50505092915050565b600081359050613efd81614f6e565b92915050565b600060208284031215613f1557600080fd5b6000613f2384828501613e1c565b91505092915050565b60008060408385031215613f3f57600080fd5b6000613f4d85828601613e1c565b9250506020613f5e85828601613e1c565b9150509250929050565b600080600060608486031215613f7d57600080fd5b6000613f8b86828701613e1c565b9350506020613f9c86828701613e1c565b9250506040613fad86828701613eee565b9150509250925092565b60008060408385031215613fca57600080fd5b6000613fd885828601613e1c565b925050602083013567ffffffffffffffff811115613ff557600080fd5b61400185828601613e9a565b9150509250929050565b6000806040838503121561401e57600080fd5b600061402c85828601613e1c565b925050602061403d85828601613eee565b9150509250929050565b60006020828403121561405957600080fd5b600061406784828501613e31565b91505092915050565b60006020828403121561408257600080fd5b600082013567ffffffffffffffff81111561409c57600080fd5b6140a884828501613e46565b91505092915050565b600080604083850312156140c457600080fd5b600083013567ffffffffffffffff8111156140de57600080fd5b6140ea85828601613e46565b92505060206140fb85828601613e1c565b9150509250929050565b60006020828403121561411757600080fd5b600082013567ffffffffffffffff81111561413157600080fd5b61413d84828501613e9a565b91505092915050565b6000806040838503121561415957600080fd5b600083013567ffffffffffffffff81111561417357600080fd5b61417f85828601613e9a565b925050602083013567ffffffffffffffff81111561419c57600080fd5b6141a885828601613e9a565b9150509250929050565b600080600080608085870312156141c857600080fd5b600085013567ffffffffffffffff8111156141e257600080fd5b6141ee87828801613e9a565b945050602085013567ffffffffffffffff81111561420b57600080fd5b61421787828801613e9a565b935050604061422887828801613e1c565b925050606061423987828801613eee565b91505092959194509250565b6000806040838503121561425857600080fd5b600083013567ffffffffffffffff81111561427257600080fd5b61427e85828601613e9a565b925050602061428f85828601613eee565b9150509250929050565b600080600080600060a086880312156142b157600080fd5b600086013567ffffffffffffffff8111156142cb57600080fd5b6142d788828901613e9a565b95505060206142e888828901613eee565b94505060406142f988828901613eee565b935050606061430a88828901613eee565b925050608061431b88828901613eee565b9150509295509295909350565b60006020828403121561433a57600080fd5b600061434884828501613eee565b91505092915050565b600061435d8383614380565b60208301905092915050565b61437a61437582614e35565b614ee8565b82525050565b61438981614e23565b82525050565b61439881614e23565b82525050565b6143af6143aa82614e23565b614ed6565b82525050565b60006143c082614d9b565b6143ca8185614dc9565b93506143d583614d8b565b8060005b838110156144065781516143ed8882614351565b97506143f883614dbc565b9250506001810190506143d9565b5085935050505092915050565b61441c81614e47565b82525050565b61442b81614e47565b82525050565b600061443c82614da6565b6144468185614dda565b9350614456818560208601614ea3565b61445f81614f16565b840191505092915050565b600061447582614da6565b61447f8185614deb565b935061448f818560208601614ea3565b80840191505092915050565b60006144a682614db1565b6144b08185614df6565b93506144c0818560208601614ea3565b6144c981614f16565b840191505092915050565b60006144df82614db1565b6144e98185614e07565b93506144f9818560208601614ea3565b61450281614f16565b840191505092915050565b600061451882614db1565b6145228185614e18565b9350614532818560208601614ea3565b80840191505092915050565b600061454b601583614e07565b91507f446f63756d656e74206973206e6f7420457869737400000000000000000000006000830152602082019050919050565b600061458b601183614e07565b91507f446f63756d656e7420417070726f7665640000000000000000000000000000006000830152602082019050919050565b60006145cb601083614e07565b91507f446f63756d656e742044656c65746564000000000000000000000000000000006000830152602082019050919050565b600061460b600e83614e07565b91507f446f63756d656e742041646465640000000000000000000000000000000000006000830152602082019050919050565b600061464b601583614e07565b91507f43616d706169676e206973206e6f7420457869737400000000000000000000006000830152602082019050919050565b600061468b601183614e07565b91507f446f63756d656e742052656a65637465640000000000000000000000000000006000830152602082019050919050565b60006146cb601183614e07565b91507f5265647564616e742069732077726f6e670000000000000000000000000000006000830152602082019050919050565b600061470b600683614e18565b91507f4d696e74657200000000000000000000000000000000000000000000000000006000830152600682019050919050565b600061474b601083614e07565b91507f4e6f7420456e6f756768204d6f6e6579000000000000000000000000000000006000830152602082019050919050565b600061478b601783614e07565b91507f5472616e7366657220546f206e6f74206265206e756c6c0000000000000000006000830152602082019050919050565b60006147cb601683614e07565b91507f43616d706169676e206973206e6f7420416374697665000000000000000000006000830152602082019050919050565b600060e083016000830151848203600086015261481b828261449b565b91505060208301516148306020860182614380565b506040830151614843604086018261489a565b506060830151614856606086018261489a565b506080830151614869608086018261489a565b5060a083015161487c60a0860182614413565b5060c083015161488f60c0860182614413565b508091505092915050565b6148a381614e7d565b82525050565b6148b281614e7d565b82525050565b6148c96148c482614e7d565b614f0c565b82525050565b6148d881614e87565b82525050565b60006148ea828461439e565b60148201915081905092915050565b60006149058284614369565b60148201915081905092915050565b6000614920828461450d565b915081905092915050565b6000614936826146fe565b9150819050919050565b600061494c82866148b8565b60208201915061495c828561446a565b91506149688284614369565b601482019150819050949350505050565b600060208201905061498e600083018461438f565b92915050565b600060208201905081810360008301526149ae81846143b5565b905092915050565b60006020820190506149cb6000830184614422565b92915050565b600060408201905081810360008301526149eb8184614431565b905081810360208301526149fe8161453e565b905092915050565b60006040820190508181036000830152614a208184614431565b90508181036020830152614a338161457e565b905092915050565b60006040820190508181036000830152614a558184614431565b90508181036020830152614a68816145be565b905092915050565b60006040820190508181036000830152614a8a8184614431565b90508181036020830152614a9d816145fe565b905092915050565b60006040820190508181036000830152614abf8184614431565b90508181036020830152614ad28161467e565b905092915050565b60006020820190508181036000830152614af481846144d4565b905092915050565b600060e0820190508181036000830152614b16818a6144d4565b9050614b25602083018961438f565b614b3260408301886148a9565b614b3f60608301876148a9565b614b4c60808301866148a9565b614b5960a0830185614422565b614b6660c0830184614422565b98975050505050505050565b60006040820190508181036000830152614b8c81856144d4565b9050614b9b60208301846148a9565b9392505050565b60006020820190508181036000830152614bbb8161453e565b9050919050565b60006020820190508181036000830152614bdb8161463e565b9050919050565b60006020820190508181036000830152614bfb816146be565b9050919050565b60006020820190508181036000830152614c1b8161473e565b9050919050565b60006020820190508181036000830152614c3b8161477e565b9050919050565b60006020820190508181036000830152614c5b816147be565b9050919050565b60006020820190508181036000830152614c7c81846147fe565b905092915050565b6000602082019050614c9960008301846148a9565b92915050565b6000608082019050614cb460008301876148a9565b8181036020830152614cc68186614431565b9050614cd5604083018561438f565b614ce26060830184614422565b95945050505050565b6000602082019050614d0060008301846148cf565b92915050565b6000604051905081810181811067ffffffffffffffff82111715614d2957600080fd5b8060405250919050565b600067ffffffffffffffff821115614d4a57600080fd5b601f19601f8301169050602081019050919050565b600067ffffffffffffffff821115614d7657600080fd5b601f19601f8301169050602081019050919050565b6000819050602082019050919050565b600081519050919050565b600081519050919050565b600081519050919050565b6000602082019050919050565b600082825260208201905092915050565b600082825260208201905092915050565b600081905092915050565b600082825260208201905092915050565b600082825260208201905092915050565b600081905092915050565b6000614e2e82614e5d565b9050919050565b6000614e4082614e5d565b9050919050565b60008115159050919050565b6000819050919050565b600073ffffffffffffffffffffffffffffffffffffffff82169050919050565b6000819050919050565b600060ff82169050919050565b82818337600083830152505050565b60005b83811015614ec1578082015181840152602081019050614ea6565b83811115614ed0576000848401525b50505050565b6000614ee182614efa565b9050919050565b6000614ef382614efa565b9050919050565b6000614f0582614f27565b9050919050565b6000819050919050565b6000601f19601f8301169050919050565b60006c0100000000000000000000000082029050919050565b614f4981614e23565b8114614f5457600080fd5b50565b614f6081614e53565b8114614f6b57600080fd5b50565b614f7781614e7d565b8114614f8257600080fd5b5056fea264697066735822122002858abd0c3813f804e3fe8ed63aca988b8f43a58dc27dde81746a0173c4fff664736f6c63430007000033",
  "immutableReferences": {},
  "source": "// SPDX-License-Identifier: MIT\npragma experimental ABIEncoderV2;\npragma solidity >=0.7.0 <0.8.0;\nimport \"./TRC21.sol\";\nimport \"./ManageDocument.sol\";\nimport './SafeMath.sol';\nimport './Ownable.sol';\nimport './CampaignDetail.sol';\n\ncontract Support is MyTRC21Mintable(\"Adverising\",\"LBAT\", 0, uint256(0) * uint256(10)**18, uint256(0) * uint256(10)**18), ManageDocument, CampaignDetail, AccessControl{\n    using SafeMath for uint;\n\n    /* BEGIN: Document function*/\n    /**\n\t * @dev Function to add Document to verify\n\t * @param id The security Hash of documents.\n\t */\n    function addDocument(bytes memory id) public {\n        if((documents[keccak256(id)].isExist && keccak256(abi.encodePacked(documents[keccak256(id)].owner)) == keccak256(abi.encodePacked(msg.sender))) || !documents[keccak256(id)].isExist){\n            address[] memory approve = new address[](0);\n            address[] memory reject = new address[](0);\n            documents[keccak256(id)] = Document(block.timestamp, abi.encodePacked(block.timestamp, id, msg.sender), msg.sender, approve, reject, true);\n            emit Add(id, msg.sender, \"Document Added\");\n        }\n    }\n\n    /**\n\t * @dev Function to delete Document\n\t * @param id The security Hash of documents.\n\t */\n    function deleteDocument(bytes memory id) public {\n        if(documents[keccak256(id)].isExist){\n            if(keccak256(abi.encodePacked(documents[keccak256(id)].owner)) == keccak256(abi.encodePacked(msg.sender)) || isRole(msg.sender, \"Admin\")){\n                delete documents[keccak256(id)];\n                emit Delete(id, msg.sender, \"Document Deleted\");\n            }\n        } \n    }\n\n    /**\n\t * @dev Function to approve to Document to verify.\n\t * @param id The security Hash of documents.\n\t */\n    function approveDocument(bytes memory id) public {\n        require(!isRole(msg.sender,\"Minter\") && !isOwner(msg.sender) && !isRole(msg.sender, \"Server\"));\n        require(isRole(msg.sender,\"Admin\"));\n        if(!documents[keccak256(id)].isExist){\n            emit Sign(id, msg.sender, \"Document is not Exist\"); \n            revert(\"Document is not Exist\");\n        }\n        removeReject(id, msg.sender);\n        documents[keccak256(id)].approve.push(msg.sender);\n        emit Sign(id, msg.sender, \"Document Approved\");\n    }\n\n    /**\n\t * @dev Function to reject to Document to verify.\n\t * @param id The security Hash of documents.\n\t */\n    function rejectDocument(bytes memory id) public {\n        require(!isRole(msg.sender,\"Minter\") && !isOwner(msg.sender) && !isRole(msg.sender, \"Server\"));\n        require(isRole(msg.sender,\"Admin\"));\n        if(!documents[keccak256(id)].isExist){\n            emit Sign(id, msg.sender, \"Document is not Exist\");\n            revert(\"Document is not Exist\");\n        }\n        removeApprove(id, msg.sender);\n        documents[keccak256(id)].reject.push(msg.sender);\n        emit Sign(id, msg.sender, \"Document Rejected\");\n    }\n\n    /**\n\t * @dev Function to get all signature of document by Security hash of document\n\t * @param id The security Hash of documents.\n\t * @return Array of address of signed\n\t */\n    function getOwnerDocument(bytes memory id) public view returns (address) {\n        return documents[keccak256(id)].owner;\n    }\n\n     /**\n\t * @dev Function to get all signature of document by Security hash of document\n\t * @param id The security Hash of documents.\n\t * @return Array of address of signed\n\t */\n    function getRejectDocument(bytes memory id) public view returns (address[] memory) {\n        return documents[keccak256(id)].approve;\n    }\n\n    /**\n\t * @dev Function to get all signature of document by Security hash of document\n\t * @param id The security Hash of documents.\n\t * @return Array of address of signed\n\t */\n    function getApproveDocument(bytes memory id) public view returns (address[] memory) {\n        return documents[keccak256(id)].reject;\n    }\n    /*END: Document function*/\n\n    /*BEGIN: Campaign Detail */\n    \n    /**\n\t * @dev Function to Create Campaign\n\t * @param campaignId The string Identifier of Campaign.\n\t * @param totalWithFee This is all money of campaign include all fee.\n\t * @param totalBudget This is Budget of campaign.\n\t * @param remainBudget This is money after minus fee\n\t * @param feeCancel This is fee to cancel campaign.\n\t */\n    function createCampaign (string memory campaignId, uint totalWithFee, uint totalBudget, uint remainBudget, uint feeCancel) public{\n        //check money amount\n        require(totalWithFee <= _allowed[msg.sender][address(this)],\"Not Enough Money\");\n        //check campaign\n        if(!campaigns[campaignId].isExist){\n            //send money to server wallet\n            _transfer(msg.sender, address(this), totalWithFee);\n            _allowed[msg.sender][address(this)].sub(totalWithFee);\n            //create campaign\n            campaigns[campaignId] = Campaign(campaignId, msg.sender, totalBudget, remainBudget, feeCancel, true, true);\n        }\n        emit CreateCampaign(msg.sender, campaignId, totalBudget);\n    }\n\n    /**\n\t * @dev Function to CheckOut Campaign\n\t * @param campaignId The string Identifier of Campaign.\n\t * @param redudant The address of suppiler to transfer money.\n\t */\n    function checkOutCampaign(string memory campaignId, uint redudant) public onlyServer{\n        require(campaigns[campaignId].isExist,\"Campaign is not Exist\");\n        require(campaigns[campaignId].isActive,\"Campaign is not Active\");\n        require(campaigns[campaignId].remainBudget > redudant, \"Redudant is wrong\");\n\n        transfer(campaigns[campaignId].advertiser, redudant);\n        campaigns[campaignId].isActive = false;\n        campaigns[campaignId].remainBudget = campaigns[campaignId].remainBudget.sub(redudant);\n    }\n\n    /**\n\t * @dev Function to Pay To Supplier\n\t * @param campaignId The string Identifier of Campaign\n\t * @param supplier The address of suppiler to transfer money\n\t * @param value The value of money to transfer to supplier\n\t * @return A boolean that indicates if the operation was successful.\n\t */\n    function payToSupplier(string memory campaignId, string memory paymentKey, address supplier, uint256 value) public onlyServer returns (bool) {\n        require(supplier != address(0));\n        require(value <= campaigns[campaignId].remainBudget);\n        require(!checkPayed[campaignId][paymentKey]);\n        campaigns[campaignId].remainBudget = campaigns[campaignId].remainBudget.sub(value);\n        _transfer(address(this), campaigns[campaignId].advertiser, value);\n        checkPayed[campaignId][paymentKey] = true;\n        return true;\n    }\n\n    /**\n\t * @dev Function to Cancel Campaign\n\t * @param campaignId The string Identifier of Campaign\n\t */\n    function cancelCampaign(string memory campaignId) public{\n        require(campaigns[campaignId].isExist,\"Campaign is not Exist\");\n        require(campaigns[campaignId].isActive,\"Campaign is not Active\");\n        require(campaigns[campaignId].advertiser == msg.sender || isRole(msg.sender, \"Admin\"));\n        \n        if(isRole(msg.sender, \"Admin\")){\n            transfer(campaigns[campaignId].advertiser, campaigns[campaignId].remainBudget);\n        }else{\n            uint temp = campaigns[campaignId].remainBudget.sub(campaigns[campaignId].feeCancel);\n            if(temp > 0){\n                transfer(campaigns[campaignId].advertiser,  temp);\n            }\n        }\n        \n        campaigns[campaignId].isActive = false;\n        campaigns[campaignId].remainBudget = 0;\n    }\n\n    /**\n\t * @dev Function to Get Campaign By Id\n\t * @param campaignId The string Identifier of Campaign\n\t * @return A Campaign will return if there are campaignId \n\t */\n    function getCampaignById(string memory campaignId) public view returns (Campaign memory){\n        return campaigns[campaignId];\n    }\n    /*END: Campaign Detail */\n\n    /*START: MyTRC21Mintable */\n\n    /**\n\t * @dev Function to change OwnerOfContract\n\t * @param newOwner The address that will be new Owner.\n\t */\n    function changeOwner(address newOwner) public onlyOwner{\n        _changeIssuer(newOwner);\n        _changeOwnerRole(newOwner);\n    }\n    /**\n\t * @dev Function to mint tokens\n\t * @param to The address that will receive the minted tokens.\n\t * @param value The amount of tokens to mint.\n\t * @return A boolean that indicates if the operation was successful.\n\t */\n\tfunction mint(\n\t\taddress to,\n\t\tuint256 value\n\t)\n\tpublic\n\tonlyMinter\n\treturns (bool)\n\t{\n\t\t_mint(to, value);\n\t\treturn true;\n\t}\n    /*END: MyTRC21Mintable */\n}",
  "sourcePath": "D:/CN9/Capstone/LBAContract.github.io/contracts/Support.sol",
  "compiler": {
    "name": "solc",
    "version": "0.7.0+commit.9e61f92b.Emscripten.clang"
  },
  "schemaVersion": "3.3.4",
  "updatedAt": "2021-04-09T06:18:40.209Z",
  "networkType": "ethereum",
  "devdoc": {
    "kind": "dev",
    "methods": {
      "addDocument(bytes)": {
        "details": "Function to add Document to verify",
        "params": {
          "id": "The security Hash of documents."
        }
      },
      "allowance(address,address)": {
        "details": "Function to check the amount of tokens that an owner allowed to a spender.",
        "params": {
          "owner": "address The address which owns the funds.",
          "spender": "address The address which will spend the funds."
        },
        "returns": {
          "_0": "A uint256 specifying the amount of tokens still available for the spender."
        }
      },
      "approve(address,uint256)": {
        "details": "Approve the passed address to spend the specified amount of tokens on behalf of msg.sender. Beware that changing an allowance with this method brings the risk that someone may use both the old and the new allowance by unfortunate transaction ordering. One possible solution to mitigate this race condition is to first reduce the spender's allowance to 0 and set the desired value afterwards: https://github.com/ethereum/EIPs/issues/20#issuecomment-263524729",
        "params": {
          "spender": "The address which will spend the funds.",
          "value": "The amount of tokens to be spent."
        }
      },
      "approveDocument(bytes)": {
        "details": "Function to approve to Document to verify.",
        "params": {
          "id": "The security Hash of documents."
        }
      },
      "balanceOf(address)": {
        "details": "Gets the balance of the specified address.",
        "params": {
          "owner": "The address to query the balance of."
        },
        "returns": {
          "_0": "An uint256 representing the amount owned by the passed address."
        }
      },
      "burn(uint256)": {
        "details": "Function to burn tokens",
        "params": {
          "value": "The amount of tokens to mint."
        },
        "returns": {
          "_0": "A boolean that indicates if the operation was successful."
        }
      },
      "cancelCampaign(string)": {
        "details": "Function to Cancel Campaign",
        "params": {
          "campaignId": "The string Identifier of Campaign"
        }
      },
      "changeOwner(address)": {
        "details": "Function to change OwnerOfContract",
        "params": {
          "newOwner": "The address that will be new Owner."
        }
      },
      "checkOutCampaign(string,uint256)": {
        "details": "Function to CheckOut Campaign",
        "params": {
          "campaignId": "The string Identifier of Campaign.",
          "redudant": "The address of suppiler to transfer money."
        }
      },
      "createCampaign(string,uint256,uint256,uint256,uint256)": {
        "details": "Function to Create Campaign",
        "params": {
          "campaignId": "The string Identifier of Campaign.",
          "feeCancel": "This is fee to cancel campaign.",
          "remainBudget": "This is money after minus fee",
          "totalBudget": "This is Budget of campaign.",
          "totalWithFee": "This is all money of campaign include all fee."
        }
      },
      "decimals()": {
        "returns": {
          "_0": "the number of decimals of the token."
        }
      },
      "deleteDocument(bytes)": {
        "details": "Function to delete Document",
        "params": {
          "id": "The security Hash of documents."
        }
      },
      "estimateFee(uint256)": {
        "details": "Estimate transaction fee.",
        "params": {
          "value": "amount tokens sent"
        }
      },
      "getApproveDocument(bytes)": {
        "details": "Function to get all signature of document by Security hash of document",
        "params": {
          "id": "The security Hash of documents."
        },
        "returns": {
          "_0": "Array of address of signed"
        }
      },
      "getCampaignById(string)": {
        "details": "Function to Get Campaign By Id",
        "params": {
          "campaignId": "The string Identifier of Campaign"
        },
        "returns": {
          "_0": "A Campaign will return if there are campaignId "
        }
      },
      "getOwnerDocument(bytes)": {
        "details": "Function to get all signature of document by Security hash of document",
        "params": {
          "id": "The security Hash of documents."
        },
        "returns": {
          "_0": "Array of address of signed"
        }
      },
      "getRejectDocument(bytes)": {
        "details": "Function to get all signature of document by Security hash of document",
        "params": {
          "id": "The security Hash of documents."
        },
        "returns": {
          "_0": "Array of address of signed"
        }
      },
      "issuer()": {
        "details": "token's foundation"
      },
      "minFee()": {
        "details": "The amount fee that will be lost when transferring."
      },
      "mint(address,uint256)": {
        "details": "Function to mint tokens",
        "params": {
          "to": "The address that will receive the minted tokens.",
          "value": "The amount of tokens to mint."
        },
        "returns": {
          "_0": "A boolean that indicates if the operation was successful."
        }
      },
      "name()": {
        "returns": {
          "_0": "the name of the token."
        }
      },
      "payToSupplier(string,string,address,uint256)": {
        "details": "Function to Pay To Supplier",
        "params": {
          "campaignId": "The string Identifier of Campaign",
          "supplier": "The address of suppiler to transfer money",
          "value": "The value of money to transfer to supplier"
        },
        "returns": {
          "_0": "A boolean that indicates if the operation was successful."
        }
      },
      "rejectDocument(bytes)": {
        "details": "Function to reject to Document to verify.",
        "params": {
          "id": "The security Hash of documents."
        }
      },
      "removeApprove(bytes,address)": {
        "details": "Function to remove who approved this document",
        "params": {
          "id": "The security Hash of documents."
        }
      },
      "removeReject(bytes,address)": {
        "details": "Function to remove who rejected this document",
        "params": {
          "id": "The security Hash of documents."
        }
      },
      "symbol()": {
        "returns": {
          "_0": "the symbol of the token."
        }
      },
      "totalSupply()": {
        "details": "Total number of tokens in existence"
      },
      "transfer(address,uint256)": {
        "details": "Transfer token for a specified address",
        "params": {
          "to": "The address to transfer to.",
          "value": "The amount to be transferred."
        }
      },
      "transferFrom(address,address,uint256)": {
        "details": "Transfer tokens from one address to another",
        "params": {
          "from": "address The address which you want to send tokens from",
          "to": "address The address which you want to transfer to",
          "value": "uint256 the amount of tokens to be transferred"
        }
      }
    },
    "version": 1
  },
  "userdoc": {
    "kind": "user",
    "methods": {},
    "version": 1
  }
}