{
  "contractName": "Support",
  "abi": [
    {
      "anonymous": false,
      "inputs": [
        {
          "indexed": false,
          "internalType": "bytes",
          "name": "id",
          "type": "bytes"
        },
        {
          "indexed": true,
          "internalType": "address",
          "name": "from",
          "type": "address"
        },
        {
          "indexed": false,
          "internalType": "string",
          "name": "comment",
          "type": "string"
        }
      ],
      "name": "Add",
      "type": "event"
    },
    {
      "anonymous": false,
      "inputs": [
        {
          "indexed": true,
          "internalType": "address",
          "name": "owner",
          "type": "address"
        },
        {
          "indexed": true,
          "internalType": "address",
          "name": "spender",
          "type": "address"
        },
        {
          "indexed": false,
          "internalType": "uint256",
          "name": "value",
          "type": "uint256"
        }
      ],
      "name": "Approval",
      "type": "event"
    },
    {
      "anonymous": false,
      "inputs": [
        {
          "indexed": true,
          "internalType": "address",
          "name": "owner",
          "type": "address"
        },
        {
          "indexed": false,
          "internalType": "string",
          "name": "campaignId",
          "type": "string"
        },
        {
          "indexed": false,
          "internalType": "uint256",
          "name": "value",
          "type": "uint256"
        }
      ],
      "name": "AuthorityCampaign",
      "type": "event"
    },
    {
      "anonymous": false,
      "inputs": [
        {
          "indexed": true,
          "internalType": "address",
          "name": "owner",
          "type": "address"
        },
        {
          "indexed": false,
          "internalType": "string",
          "name": "campaignId",
          "type": "string"
        },
        {
          "indexed": false,
          "internalType": "uint256",
          "name": "value",
          "type": "uint256"
        }
      ],
      "name": "CreateCampaign",
      "type": "event"
    },
    {
      "anonymous": false,
      "inputs": [
        {
          "indexed": true,
          "internalType": "address",
          "name": "from",
          "type": "address"
        },
        {
          "indexed": true,
          "internalType": "address",
          "name": "to",
          "type": "address"
        },
        {
          "indexed": true,
          "internalType": "address",
          "name": "issuer",
          "type": "address"
        },
        {
          "indexed": false,
          "internalType": "uint256",
          "name": "value",
          "type": "uint256"
        }
      ],
      "name": "Fee",
      "type": "event"
    },
    {
      "anonymous": false,
      "inputs": [
        {
          "indexed": false,
          "internalType": "bytes",
          "name": "id",
          "type": "bytes"
        },
        {
          "indexed": true,
          "internalType": "address",
          "name": "from",
          "type": "address"
        },
        {
          "indexed": false,
          "internalType": "string",
          "name": "comment",
          "type": "string"
        }
      ],
      "name": "Sign",
      "type": "event"
    },
    {
      "anonymous": false,
      "inputs": [
        {
          "indexed": true,
          "internalType": "address",
          "name": "from",
          "type": "address"
        },
        {
          "indexed": true,
          "internalType": "address",
          "name": "to",
          "type": "address"
        },
        {
          "indexed": false,
          "internalType": "uint256",
          "name": "value",
          "type": "uint256"
        }
      ],
      "name": "Transfer",
      "type": "event"
    },
    {
      "inputs": [
        {
          "internalType": "address",
          "name": "account",
          "type": "address"
        }
      ],
      "name": "_changeOwnerRole",
      "outputs": [],
      "stateMutability": "nonpayable",
      "type": "function"
    },
    {
      "inputs": [
        {
          "internalType": "address",
          "name": "account",
          "type": "address"
        },
        {
          "internalType": "string",
          "name": "roleType",
          "type": "string"
        }
      ],
      "name": "add",
      "outputs": [],
      "stateMutability": "nonpayable",
      "type": "function"
    },
    {
      "inputs": [
        {
          "internalType": "address",
          "name": "owner",
          "type": "address"
        },
        {
          "internalType": "address",
          "name": "spender",
          "type": "address"
        }
      ],
      "name": "allowance",
      "outputs": [
        {
          "internalType": "uint256",
          "name": "",
          "type": "uint256"
        }
      ],
      "stateMutability": "view",
      "type": "function",
      "constant": true
    },
    {
      "inputs": [
        {
          "internalType": "address",
          "name": "spender",
          "type": "address"
        },
        {
          "internalType": "uint256",
          "name": "value",
          "type": "uint256"
        }
      ],
      "name": "approve",
      "outputs": [
        {
          "internalType": "bool",
          "name": "",
          "type": "bool"
        }
      ],
      "stateMutability": "nonpayable",
      "type": "function"
    },
    {
      "inputs": [
        {
          "internalType": "address",
          "name": "owner",
          "type": "address"
        }
      ],
      "name": "balanceOf",
      "outputs": [
        {
          "internalType": "uint256",
          "name": "",
          "type": "uint256"
        }
      ],
      "stateMutability": "view",
      "type": "function",
      "constant": true
    },
    {
      "inputs": [
        {
          "internalType": "uint256",
          "name": "value",
          "type": "uint256"
        }
      ],
      "name": "burn",
      "outputs": [
        {
          "internalType": "bool",
          "name": "",
          "type": "bool"
        }
      ],
      "stateMutability": "nonpayable",
      "type": "function"
    },
    {
      "inputs": [
        {
          "internalType": "string",
          "name": "",
          "type": "string"
        }
      ],
      "name": "campaigns",
      "outputs": [
        {
          "internalType": "string",
          "name": "campaignId",
          "type": "string"
        },
        {
          "internalType": "address",
          "name": "advertiser",
          "type": "address"
        },
        {
          "internalType": "uint256",
          "name": "totalBudget",
          "type": "uint256"
        },
        {
          "internalType": "uint256",
          "name": "remainBudget",
          "type": "uint256"
        },
        {
          "internalType": "uint256",
          "name": "feeCancel",
          "type": "uint256"
        },
        {
          "internalType": "bool",
          "name": "isActive",
          "type": "bool"
        },
        {
          "internalType": "bool",
          "name": "isExist",
          "type": "bool"
        }
      ],
      "stateMutability": "view",
      "type": "function",
      "constant": true
    },
    {
      "inputs": [
        {
          "internalType": "string",
          "name": "",
          "type": "string"
        },
        {
          "internalType": "string",
          "name": "",
          "type": "string"
        }
      ],
      "name": "checkPayed",
      "outputs": [
        {
          "internalType": "bool",
          "name": "",
          "type": "bool"
        }
      ],
      "stateMutability": "view",
      "type": "function",
      "constant": true
    },
    {
      "inputs": [],
      "name": "decimals",
      "outputs": [
        {
          "internalType": "uint8",
          "name": "",
          "type": "uint8"
        }
      ],
      "stateMutability": "view",
      "type": "function",
      "constant": true
    },
    {
      "inputs": [
        {
          "internalType": "bytes32",
          "name": "",
          "type": "bytes32"
        }
      ],
      "name": "documents",
      "outputs": [
        {
          "internalType": "uint256",
          "name": "timestamp",
          "type": "uint256"
        },
        {
          "internalType": "bytes",
          "name": "ipfs_hash",
          "type": "bytes"
        },
        {
          "internalType": "bool",
          "name": "isExist",
          "type": "bool"
        }
      ],
      "stateMutability": "view",
      "type": "function",
      "constant": true
    },
    {
      "inputs": [
        {
          "internalType": "uint256",
          "name": "value",
          "type": "uint256"
        }
      ],
      "name": "estimateFee",
      "outputs": [
        {
          "internalType": "uint256",
          "name": "",
          "type": "uint256"
        }
      ],
      "stateMutability": "view",
      "type": "function",
      "constant": true
    },
    {
      "inputs": [
        {
          "internalType": "address",
          "name": "account",
          "type": "address"
        }
      ],
      "name": "isOwner",
      "outputs": [
        {
          "internalType": "bool",
          "name": "",
          "type": "bool"
        }
      ],
      "stateMutability": "view",
      "type": "function",
      "constant": true
    },
    {
      "inputs": [
        {
          "internalType": "address",
          "name": "account",
          "type": "address"
        },
        {
          "internalType": "string",
          "name": "roleType",
          "type": "string"
        }
      ],
      "name": "isRole",
      "outputs": [
        {
          "internalType": "bool",
          "name": "",
          "type": "bool"
        }
      ],
      "stateMutability": "view",
      "type": "function",
      "constant": true
    },
    {
      "inputs": [],
      "name": "issuer",
      "outputs": [
        {
          "internalType": "address",
          "name": "",
          "type": "address"
        }
      ],
      "stateMutability": "view",
      "type": "function",
      "constant": true
    },
    {
      "inputs": [],
      "name": "minFee",
      "outputs": [
        {
          "internalType": "uint256",
          "name": "",
          "type": "uint256"
        }
      ],
      "stateMutability": "view",
      "type": "function",
      "constant": true
    },
    {
      "inputs": [],
      "name": "name",
      "outputs": [
        {
          "internalType": "string",
          "name": "",
          "type": "string"
        }
      ],
      "stateMutability": "view",
      "type": "function",
      "constant": true
    },
    {
      "inputs": [
        {
          "internalType": "address",
          "name": "account",
          "type": "address"
        },
        {
          "internalType": "string",
          "name": "roleType",
          "type": "string"
        }
      ],
      "name": "remove",
      "outputs": [],
      "stateMutability": "nonpayable",
      "type": "function"
    },
    {
      "inputs": [
        {
          "internalType": "uint256",
          "name": "value",
          "type": "uint256"
        }
      ],
      "name": "setMinFee",
      "outputs": [],
      "stateMutability": "nonpayable",
      "type": "function"
    },
    {
      "inputs": [],
      "name": "symbol",
      "outputs": [
        {
          "internalType": "string",
          "name": "",
          "type": "string"
        }
      ],
      "stateMutability": "view",
      "type": "function",
      "constant": true
    },
    {
      "inputs": [],
      "name": "totalSupply",
      "outputs": [
        {
          "internalType": "uint256",
          "name": "",
          "type": "uint256"
        }
      ],
      "stateMutability": "view",
      "type": "function",
      "constant": true
    },
    {
      "inputs": [
        {
          "internalType": "address",
          "name": "to",
          "type": "address"
        },
        {
          "internalType": "uint256",
          "name": "value",
          "type": "uint256"
        }
      ],
      "name": "transfer",
      "outputs": [
        {
          "internalType": "bool",
          "name": "",
          "type": "bool"
        }
      ],
      "stateMutability": "nonpayable",
      "type": "function"
    },
    {
      "inputs": [
        {
          "internalType": "address",
          "name": "from",
          "type": "address"
        },
        {
          "internalType": "address",
          "name": "to",
          "type": "address"
        },
        {
          "internalType": "uint256",
          "name": "value",
          "type": "uint256"
        }
      ],
      "name": "transferFrom",
      "outputs": [
        {
          "internalType": "bool",
          "name": "",
          "type": "bool"
        }
      ],
      "stateMutability": "nonpayable",
      "type": "function"
    },
    {
      "inputs": [
        {
          "internalType": "bytes",
          "name": "id",
          "type": "bytes"
        }
      ],
      "name": "addDocument",
      "outputs": [],
      "stateMutability": "nonpayable",
      "type": "function"
    },
    {
      "inputs": [
        {
          "internalType": "bytes",
          "name": "id",
          "type": "bytes"
        }
      ],
      "name": "signDocument",
      "outputs": [],
      "stateMutability": "nonpayable",
      "type": "function"
    },
    {
      "inputs": [
        {
          "internalType": "bytes",
          "name": "id",
          "type": "bytes"
        }
      ],
      "name": "getSignatures",
      "outputs": [
        {
          "internalType": "address[]",
          "name": "",
          "type": "address[]"
        }
      ],
      "stateMutability": "view",
      "type": "function",
      "constant": true
    },
    {
      "inputs": [
        {
          "internalType": "bytes",
          "name": "id",
          "type": "bytes"
        }
      ],
      "name": "checkAdminSigned",
      "outputs": [
        {
          "internalType": "bool",
          "name": "",
          "type": "bool"
        }
      ],
      "stateMutability": "view",
      "type": "function",
      "constant": true
    },
    {
      "inputs": [
        {
          "internalType": "string",
          "name": "campaignId",
          "type": "string"
        },
        {
          "internalType": "uint256",
          "name": "totalWithFee",
          "type": "uint256"
        },
        {
          "internalType": "uint256",
          "name": "totalBudget",
          "type": "uint256"
        },
        {
          "internalType": "uint256",
          "name": "remainBudget",
          "type": "uint256"
        },
        {
          "internalType": "uint256",
          "name": "feeCancel",
          "type": "uint256"
        }
      ],
      "name": "createCampaign",
      "outputs": [],
      "stateMutability": "nonpayable",
      "type": "function"
    },
    {
      "inputs": [
        {
          "internalType": "string",
          "name": "campaignId",
          "type": "string"
        },
        {
          "internalType": "uint256",
          "name": "redudant",
          "type": "uint256"
        }
      ],
      "name": "checkOutCampaign",
      "outputs": [],
      "stateMutability": "nonpayable",
      "type": "function"
    },
    {
      "inputs": [
        {
          "internalType": "string",
          "name": "campaignId",
          "type": "string"
        },
        {
          "internalType": "string",
          "name": "paymentKey",
          "type": "string"
        },
        {
          "internalType": "address",
          "name": "supplier",
          "type": "address"
        },
        {
          "internalType": "uint256",
          "name": "value",
          "type": "uint256"
        }
      ],
      "name": "payToSupplier",
      "outputs": [
        {
          "internalType": "bool",
          "name": "",
          "type": "bool"
        }
      ],
      "stateMutability": "nonpayable",
      "type": "function"
    },
    {
      "inputs": [
        {
          "internalType": "string",
          "name": "campaignId",
          "type": "string"
        }
      ],
      "name": "cancelCampaign",
      "outputs": [],
      "stateMutability": "nonpayable",
      "type": "function"
    },
    {
      "inputs": [
        {
          "internalType": "string",
          "name": "campaignId",
          "type": "string"
        }
      ],
      "name": "getCampaignById",
      "outputs": [
        {
          "components": [
            {
              "internalType": "string",
              "name": "campaignId",
              "type": "string"
            },
            {
              "internalType": "address",
              "name": "advertiser",
              "type": "address"
            },
            {
              "internalType": "uint256",
              "name": "totalBudget",
              "type": "uint256"
            },
            {
              "internalType": "uint256",
              "name": "remainBudget",
              "type": "uint256"
            },
            {
              "internalType": "uint256",
              "name": "feeCancel",
              "type": "uint256"
            },
            {
              "internalType": "bool",
              "name": "isActive",
              "type": "bool"
            },
            {
              "internalType": "bool",
              "name": "isExist",
              "type": "bool"
            }
          ],
          "internalType": "struct CampaignDetail.Campaign",
          "name": "",
          "type": "tuple"
        }
      ],
      "stateMutability": "view",
      "type": "function",
      "constant": true
    },
    {
      "inputs": [
        {
          "internalType": "address",
          "name": "newOwner",
          "type": "address"
        }
      ],
      "name": "changeOwner",
      "outputs": [],
      "stateMutability": "nonpayable",
      "type": "function"
    },
    {
      "inputs": [
        {
          "internalType": "address",
          "name": "to",
          "type": "address"
        },
        {
          "internalType": "uint256",
          "name": "value",
          "type": "uint256"
        }
      ],
      "name": "mint",
      "outputs": [
        {
          "internalType": "bool",
          "name": "",
          "type": "bool"
        }
      ],
      "stateMutability": "nonpayable",
      "type": "function"
    }
  ],
  "bytecode": "0x60806040523480156200001157600080fd5b506040518060400160405280600b81526020017f41647665726973696e67320000000000000000000000000000000000000000008152506040518060400160405280600481526020017f4c4241320000000000000000000000000000000000000000000000000000000081525060006012600a0a6000026012600a0a6000028460059080519060200190620000a89291906200059d565b508360069080519060200190620000c19291906200059d565b5082600760006101000a81548160ff021916908360ff160217905550620000f830836200037f640100000000026401000000009004565b6200011233620004f4640100000000026401000000009004565b6200012c8162000573640100000000026401000000009004565b505050505033600b60000160006101000a81548173ffffffffffffffffffffffffffffffffffffffff021916908373ffffffffffffffffffffffffffffffffffffffff1602179055506001600b6001016040516200018a9062000748565b908152602001604051809103902060003373ffffffffffffffffffffffffffffffffffffffff1673ffffffffffffffffffffffffffffffffffffffff16815260200190815260200160002060006101000a81548160ff0219169083151502179055506001600b60010160405162000201906200071a565b908152602001604051809103902060003373ffffffffffffffffffffffffffffffffffffffff1673ffffffffffffffffffffffffffffffffffffffff16815260200190815260200160002060006101000a81548160ff0219169083151502179055506001600b600101604051620002789062000731565b9081526020016040518091039020600073591d6d73aa1ee46202f55443ab166d8b4b1403e073ffffffffffffffffffffffffffffffffffffffff1673ffffffffffffffffffffffffffffffffffffffff16815260200190815260200160002060006101000a81548160ff0219169083151502179055506001600b60010160405162000303906200071a565b9081526020016040518091039020600073591d6d73aa1ee46202f55443ab166d8b4b1403e073ffffffffffffffffffffffffffffffffffffffff1673ffffffffffffffffffffffffffffffffffffffff16815260200190815260200160002060006101000a81548160ff02191690831515021790555062000791565b600073ffffffffffffffffffffffffffffffffffffffff168273ffffffffffffffffffffffffffffffffffffffff161415620003ba57600080fd5b620003df816004546200057d6401000000000262002a25179091906401000000009004565b60048190555062000446816000808573ffffffffffffffffffffffffffffffffffffffff1673ffffffffffffffffffffffffffffffffffffffff168152602001908152602001600020546200057d6401000000000262002a25179091906401000000009004565b6000808473ffffffffffffffffffffffffffffffffffffffff1673ffffffffffffffffffffffffffffffffffffffff168152602001908152602001600020819055508173ffffffffffffffffffffffffffffffffffffffff16600073ffffffffffffffffffffffffffffffffffffffff167fddf252ad1be2c89b69c2b068fc378daa952ba7f163c4a11628f55a4df523b3ef83604051620004e891906200075f565b60405180910390a35050565b600073ffffffffffffffffffffffffffffffffffffffff168173ffffffffffffffffffffffffffffffffffffffff1614156200052f57600080fd5b80600260006101000a81548173ffffffffffffffffffffffffffffffffffffffff021916908373ffffffffffffffffffffffffffffffffffffffff16021790555050565b8060018190555050565b6000808284019050838110156200059357600080fd5b8091505092915050565b828054600181600116156101000203166002900490600052602060002090601f016020900481019282601f10620005e057805160ff191683800117855562000611565b8280016001018555821562000611579182015b8281111562000610578251825591602001919060010190620005f3565b5b50905062000620919062000624565b5090565b5b808211156200063f57600081600090555060010162000625565b5090565b6000620006526006836200077c565b91507f4d696e74657200000000000000000000000000000000000000000000000000006000830152600682019050919050565b6000620006946006836200077c565b91507f53657276657200000000000000000000000000000000000000000000000000006000830152600682019050919050565b6000620006d66005836200077c565b91507f41646d696e0000000000000000000000000000000000000000000000000000006000830152600582019050919050565b620007148162000787565b82525050565b6000620007278262000643565b9150819050919050565b60006200073e8262000685565b9150819050919050565b60006200075582620006c7565b9150819050919050565b600060208201905062000776600083018462000709565b92915050565b600081905092915050565b6000819050919050565b61463880620007a16000396000f3fe608060405234801561001057600080fd5b5060043610610218576000357c01000000000000000000000000000000000000000000000000000000009004806331ac99201161013757806395d89b41116100ca578063c79de09b11610099578063c79de09b1461066d578063dd62ed3e14610689578063e26034cd146106b9578063e35d66a8146106e9578063e631ce991461070557610218565b806395d89b41146105e7578063a6f9dae114610605578063a9059cbb14610621578063c63c5bd11461065157610218565b8063475a117811610106578063475a11781461053b57806349209fc81461056b5780636b45b4e31461058757806370a08231146105b757610218565b806331ac9920146104a357806336d6da55146104bf57806340c10f19146104db57806342966c681461050b57610218565b8063228bc0a9116101af578063267945ff1161017e578063267945ff146104075780632b2805db146104235780632f54bf6e14610455578063313ce5671461048557610218565b8063228bc0a91461036d57806323b872dd1461038957806323e8f4bb146103b957806324ec7590146103e957610218565b806318160ddd116101eb57806318160ddd146102cb5780631d143848146102e95780631d39e50914610307578063219782f71461033d57610218565b806306fdde031461021d578063070eb1571461023b578063095ea7b31461026b578063127e8e4d1461029b575b600080fd5b610225610721565b6040516102329190614145565b60405180910390f35b61025560048036038101906102509190613676565b6107c3565b6040516102629190614021565b60405180910390f35b610285600480360381019061028091906136ca565b6107e3565b6040516102929190614021565b60405180910390f35b6102b560048036038101906102b09190613993565b61098a565b6040516102c2919061430f565b60405180910390f35b6102d36109bb565b6040516102e0919061430f565b60405180910390f35b6102f16109c5565b6040516102fe9190613fe4565b60405180910390f35b610321600480360381019061031c9190613770565b6109ef565b6040516103349796959493929190614167565b60405180910390f35b6103576004803603810190610352919061381d565b610b19565b6040516103649190614021565b60405180910390f35b6103876004803603810190610382919061372f565b610d21565b005b6103a3600480360381019061039e9190613627565b610f40565b6040516103b09190614021565b60405180910390f35b6103d360048036038101906103ce91906137b1565b61127e565b6040516103e09190614021565b60405180910390f35b6103f16112d9565b6040516103fe919061430f565b60405180910390f35b610421600480360381019061041c91906135c2565b6112e3565b005b61043d60048036038101906104389190613706565b611468565b60405161044c9392919061432a565b60405180910390f35b61046f600480360381019061046a91906135c2565b611537565b60405161047c9190614021565b60405180910390f35b61048d611594565b60405161049a9190614368565b60405180910390f35b6104bd60048036038101906104b89190613993565b6115ab565b005b6104d960048036038101906104d49190613676565b6115f6565b005b6104f560048036038101906104f091906136ca565b6116bd565b6040516105029190614021565b60405180910390f35b61052560048036038101906105209190613993565b61171b565b6040516105329190614021565b60405180910390f35b6105556004803603810190610550919061372f565b611730565b6040516105629190614021565b60405180910390f35b61058560048036038101906105809190613676565b611818565b005b6105a1600480360381019061059c919061372f565b6118df565b6040516105ae9190613fff565b60405180910390f35b6105d160048036038101906105cc91906135c2565b61198a565b6040516105de919061430f565b60405180910390f35b6105ef6119d2565b6040516105fc9190614145565b60405180910390f35b61061f600480360381019061061a91906135c2565b611a74565b005b61063b600480360381019061063691906136ca565b611a9b565b6040516106489190614021565b60405180910390f35b61066b6004803603810190610666919061372f565b611bed565b005b61068760048036038101906106829190613904565b611f55565b005b6106a3600480360381019061069e91906135eb565b61226c565b6040516106b0919061430f565b60405180910390f35b6106d360048036038101906106ce9190613770565b6122f3565b6040516106e091906142ed565b60405180910390f35b61070360048036038101906106fe9190613770565b612477565b005b61071f600480360381019061071a91906138b0565b6127bb565b005b606060058054600181600116156101000203166002900480601f0160208091040260200160405190810160405280929190818152602001828054600181600116156101000203166002900480156107b95780601f1061078e576101008083540402835291602001916107b9565b820191906000526020600020905b81548152906001019060200180831161079c57829003601f168201915b5050505050905090565b60006107db8383600b612a449092919063ffffffff16565b905092915050565b60008073ffffffffffffffffffffffffffffffffffffffff168373ffffffffffffffffffffffffffffffffffffffff16141561081e57600080fd5b6001546000803373ffffffffffffffffffffffffffffffffffffffff1673ffffffffffffffffffffffffffffffffffffffff16815260200190815260200160002054101561086b57600080fd5b81600360003373ffffffffffffffffffffffffffffffffffffffff1673ffffffffffffffffffffffffffffffffffffffff16815260200190815260200160002060008573ffffffffffffffffffffffffffffffffffffffff1673ffffffffffffffffffffffffffffffffffffffff1681526020019081526020016000208190555061091b33600260009054906101000a900473ffffffffffffffffffffffffffffffffffffffff16600154612af3565b8273ffffffffffffffffffffffffffffffffffffffff163373ffffffffffffffffffffffffffffffffffffffff167f8c5be1e5ebec7d5bd14f71427d1e84f3dd0314c0f7b2291e5b200ac8c7c3b92584604051610978919061430f565b60405180910390a36001905092915050565b60006109b46001546109a6600085612d3e90919063ffffffff16565b612a2590919063ffffffff16565b9050919050565b6000600454905090565b6000600260009054906101000a900473ffffffffffffffffffffffffffffffffffffffff16905090565b600981805160208101820180518482526020830160208501208183528095505050505050600091509050806000018054600181600116156101000203166002900480601f016020809104026020016040519081016040528092919081815260200182805460018160011615610100020316600290048015610ab15780601f10610a8657610100808354040283529160200191610ab1565b820191906000526020600020905b815481529060010190602001808311610a9457829003601f168201915b5050505050908060010160009054906101000a900473ffffffffffffffffffffffffffffffffffffffff16908060020154908060030154908060040154908060050160009054906101000a900460ff16908060050160019054906101000a900460ff16905087565b6000610b5a336040518060400160405280600681526020017f53657276657200000000000000000000000000000000000000000000000000008152506107c3565b610b6357600080fd5b600073ffffffffffffffffffffffffffffffffffffffff168373ffffffffffffffffffffffffffffffffffffffff161415610b9d57600080fd5b600985604051610bad9190613f7f565b908152602001604051809103902060030154821115610bcb57600080fd5b600a85604051610bdb9190613f7f565b908152602001604051809103902084604051610bf79190613f7f565b908152602001604051809103902060009054906101000a900460ff1615610c1d57600080fd5b610c5182600987604051610c319190613f7f565b908152602001604051809103902060030154612d7890919063ffffffff16565b600986604051610c619190613f7f565b908152602001604051809103902060030181905550610cc230600987604051610c8a9190613f7f565b908152602001604051809103902060010160009054906101000a900473ffffffffffffffffffffffffffffffffffffffff1684612af3565b6001600a86604051610cd49190613f7f565b908152602001604051809103902085604051610cf09190613f7f565b908152602001604051809103902060006101000a81548160ff02191690831515021790555060019050949350505050565b600860008280519060200120815260200190815260200160002060030160009054906101000a900460ff1615610dda573373ffffffffffffffffffffffffffffffffffffffff167fce62159ff3c25a8e61a8bc74b520c1c33ff5acc534e8af236f3b5a587b050b0582604051610d9791906140a6565b60405180910390a26040517f08c379a0000000000000000000000000000000000000000000000000000000008152600401610dd1906142ad565b60405180910390fd5b6060600067ffffffffffffffff81118015610df457600080fd5b50604051908082528060200260200182016040528015610e235781602001602082028036833780820191505090505b5090506040518060800160405280428152602001428433604051602001610e4c93929190613fab565b6040516020818303038152906040528152602001828152602001600115158152506008600084805190602001208152602001908152602001600020600082015181600001556020820151816001019080519060200190610ead9291906132a2565b506040820151816002019080519060200190610eca929190613322565b5060608201518160030160006101000a81548160ff0219169083151502179055509050503373ffffffffffffffffffffffffffffffffffffffff167fce62159ff3c25a8e61a8bc74b520c1c33ff5acc534e8af236f3b5a587b050b0583604051610f349190614071565b60405180910390a25050565b600080610f5860015484612a2590919063ffffffff16565b9050600073ffffffffffffffffffffffffffffffffffffffff168473ffffffffffffffffffffffffffffffffffffffff161415610fca576040517f08c379a0000000000000000000000000000000000000000000000000000000008152600401610fc19061428d565b60405180910390fd5b600360008673ffffffffffffffffffffffffffffffffffffffff1673ffffffffffffffffffffffffffffffffffffffff16815260200190815260200160002060003373ffffffffffffffffffffffffffffffffffffffff1673ffffffffffffffffffffffffffffffffffffffff16815260200190815260200160002054811115611089576040517f08c379a00000000000000000000000000000000000000000000000000000000081526004016110809061426d565b60405180910390fd5b61111881600360008873ffffffffffffffffffffffffffffffffffffffff1673ffffffffffffffffffffffffffffffffffffffff16815260200190815260200160002060003373ffffffffffffffffffffffffffffffffffffffff1673ffffffffffffffffffffffffffffffffffffffff16815260200190815260200160002054612d7890919063ffffffff16565b600360008773ffffffffffffffffffffffffffffffffffffffff1673ffffffffffffffffffffffffffffffffffffffff16815260200190815260200160002060003373ffffffffffffffffffffffffffffffffffffffff1673ffffffffffffffffffffffffffffffffffffffff168152602001908152602001600020819055506111a3858585612af3565b6111d285600260009054906101000a900473ffffffffffffffffffffffffffffffffffffffff16600154612af3565b600260009054906101000a900473ffffffffffffffffffffffffffffffffffffffff1673ffffffffffffffffffffffffffffffffffffffff168473ffffffffffffffffffffffffffffffffffffffff163373ffffffffffffffffffffffffffffffffffffffff167ffcf5b3276434181e3c48bd3fe569b8939808f11e845d4b963693b9d7dbd6dd9960015460405161126a919061430f565b60405180910390a460019150509392505050565b600a82805160208101820180518482526020830160208501208183528095505050505050818051602081018201805184825260208301602085012081835280955050505050506000915091509054906101000a900460ff1681565b6000600154905090565b6112ec33611537565b6112f557600080fd5b80600b60000160006101000a81548173ffffffffffffffffffffffffffffffffffffffff021916908373ffffffffffffffffffffffffffffffffffffffff160217905550611384816040518060400160405280600681526020017f4d696e7465720000000000000000000000000000000000000000000000000000815250600b612d989092919063ffffffff16565b6113cf816040518060400160405280600581526020017f41646d696e000000000000000000000000000000000000000000000000000000815250600b612d989092919063ffffffff16565b61141a336040518060400160405280600681526020017f4d696e7465720000000000000000000000000000000000000000000000000000815250600b612e629092919063ffffffff16565b611465336040518060400160405280600581526020017f41646d696e000000000000000000000000000000000000000000000000000000815250600b612e629092919063ffffffff16565b50565b6008602052806000526040600020600091509050806000015490806001018054600181600116156101000203166002900480601f01602080910402602001604051908101604052809291908181526020018280546001816001161561010002031660029004801561151a5780601f106114ef5761010080835404028352916020019161151a565b820191906000526020600020905b8154815290600101906020018083116114fd57829003601f168201915b5050505050908060030160009054906101000a900460ff16905083565b6000600b60000160009054906101000a900473ffffffffffffffffffffffffffffffffffffffff1673ffffffffffffffffffffffffffffffffffffffff168273ffffffffffffffffffffffffffffffffffffffff16149050919050565b6000600760009054906101000a900460ff16905090565b6115b36109c5565b73ffffffffffffffffffffffffffffffffffffffff163373ffffffffffffffffffffffffffffffffffffffff16146115ea57600080fd5b6115f381612f2b565b50565b611635336040518060400160405280600581526020017f41646d696e0000000000000000000000000000000000000000000000000000008152506107c3565b61163e57600080fd5b60405160200161164d90613f96565b60405160208183030381529060405280519060200120816040516020016116749190613f7f565b6040516020818303038152906040528051906020012014156116a35761169933611537565b6116a257600080fd5b5b6116b98282600b612d989092919063ffffffff16565b5050565b60006116fe336040518060400160405280600681526020017f4d696e74657200000000000000000000000000000000000000000000000000008152506107c3565b61170757600080fd5b6117118383612f35565b6001905092915050565b60006117273383613087565b60019050919050565b600080600090505b60086000848051906020012081526020019081526020016000206002018054905081101561180d576117f16008600085805190602001208152602001908152602001600020600201828154811061178b57fe5b9060005260206000200160009054906101000a900473ffffffffffffffffffffffffffffffffffffffff166040518060400160405280600581526020017f41646d696e0000000000000000000000000000000000000000000000000000008152506107c3565b15611800576001915050611813565b8080600101915050611738565b50600090505b919050565b611857336040518060400160405280600581526020017f41646d696e0000000000000000000000000000000000000000000000000000008152506107c3565b61186057600080fd5b60405160200161186f90613f96565b60405160208183030381529060405280519060200120816040516020016118969190613f7f565b6040516020818303038152906040528051906020012014156118c5576118bb33611537565b6118c457600080fd5b5b6118db8282600b612e629092919063ffffffff16565b5050565b6060600860008380519060200120815260200190815260200160002060020180548060200260200160405190810160405280929190818152602001828054801561197e57602002820191906000526020600020905b8160009054906101000a900473ffffffffffffffffffffffffffffffffffffffff1673ffffffffffffffffffffffffffffffffffffffff1681526020019060010190808311611934575b50505050509050919050565b60008060008373ffffffffffffffffffffffffffffffffffffffff1673ffffffffffffffffffffffffffffffffffffffff168152602001908152602001600020549050919050565b606060068054600181600116156101000203166002900480601f016020809104026020016040519081016040528092919081815260200182805460018160011615610100020316600290048015611a6a5780601f10611a3f57610100808354040283529160200191611a6a565b820191906000526020600020905b815481529060010190602001808311611a4d57829003601f168201915b5050505050905090565b611a7d33611537565b611a8657600080fd5b611a8f81613224565b611a98816112e3565b50565b600080611ab360015484612a2590919063ffffffff16565b9050600073ffffffffffffffffffffffffffffffffffffffff168473ffffffffffffffffffffffffffffffffffffffff161415611aef57600080fd5b80831115611afc57600080fd5b611b07338585612af3565b60006001541115611be257611b4133600260009054906101000a900473ffffffffffffffffffffffffffffffffffffffff16600154612af3565b600260009054906101000a900473ffffffffffffffffffffffffffffffffffffffff1673ffffffffffffffffffffffffffffffffffffffff168473ffffffffffffffffffffffffffffffffffffffff163373ffffffffffffffffffffffffffffffffffffffff167ffcf5b3276434181e3c48bd3fe569b8939808f11e845d4b963693b9d7dbd6dd99600154604051611bd9919061430f565b60405180910390a45b600191505092915050565b611c2c336040518060400160405280600681526020017f4d696e74657200000000000000000000000000000000000000000000000000008152506107c3565b158015611c3f5750611c3d33611537565b155b8015611c875750611c85336040518060400160405280600681526020017f53657276657200000000000000000000000000000000000000000000000000008152506107c3565b155b611c9057600080fd5b600860008280519060200120815260200190815260200160002060030160009054906101000a900460ff16611d48573373ffffffffffffffffffffffffffffffffffffffff167f7b178bf1583b36c417d982a222dfebdf8e3c8ecff7e75e459627b176a9e8bd7282604051611d05919061403c565b60405180910390a26040517f08c379a0000000000000000000000000000000000000000000000000000000008152600401611d3f9061420d565b60405180910390fd5b6000805b600860008480519060200120815260200190815260200160002060020180549050811015611e305733604051602001611d859190613f64565b6040516020818303038152906040528051906020012060086000858051906020012081526020019081526020016000206002018281548110611dc357fe5b9060005260206000200160009054906101000a900473ffffffffffffffffffffffffffffffffffffffff16604051602001611dfe9190613f49565b604051602081830303815290604052805190602001201415611e235760019150611e30565b8080600101915050611d4c565b5080611f03576008600083805190602001208152602001908152602001600020600201339080600181540180825580915050600190039060005260206000200160009091909190916101000a81548173ffffffffffffffffffffffffffffffffffffffff021916908373ffffffffffffffffffffffffffffffffffffffff1602179055503373ffffffffffffffffffffffffffffffffffffffff167f7b178bf1583b36c417d982a222dfebdf8e3c8ecff7e75e459627b176a9e8bd7283604051611efa9190614110565b60405180910390a25b3373ffffffffffffffffffffffffffffffffffffffff167f7b178bf1583b36c417d982a222dfebdf8e3c8ecff7e75e459627b176a9e8bd7283604051611f4991906140db565b60405180910390a25050565b600360003373ffffffffffffffffffffffffffffffffffffffff1673ffffffffffffffffffffffffffffffffffffffff16815260200190815260200160002060003073ffffffffffffffffffffffffffffffffffffffff1673ffffffffffffffffffffffffffffffffffffffff16815260200190815260200160002054841115612014576040517f08c379a000000000000000000000000000000000000000000000000000000000815260040161200b9061426d565b60405180910390fd5b6009856040516120249190613f7f565b908152602001604051809103902060050160019054906101000a900460ff1661221557612052333086612af3565b6120e184600360003373ffffffffffffffffffffffffffffffffffffffff1673ffffffffffffffffffffffffffffffffffffffff16815260200190815260200160002060003073ffffffffffffffffffffffffffffffffffffffff1673ffffffffffffffffffffffffffffffffffffffff16815260200190815260200160002054612d7890919063ffffffff16565b506040518060e001604052808681526020013373ffffffffffffffffffffffffffffffffffffffff168152602001848152602001838152602001828152602001600115158152602001600115158152506009866040516121419190613f7f565b9081526020016040518091039020600082015181600001908051906020019061216b9291906133ac565b5060208201518160010160006101000a81548173ffffffffffffffffffffffffffffffffffffffff021916908373ffffffffffffffffffffffffffffffffffffffff16021790555060408201518160020155606082015181600301556080820151816004015560a08201518160050160006101000a81548160ff02191690831515021790555060c08201518160050160016101000a81548160ff0219169083151502179055509050505b3373ffffffffffffffffffffffffffffffffffffffff167f5c04f4c64423af25dc8dc6bd45d037a95fe962bb56e5ca1b993600448846f07f868560405161225d9291906141dd565b60405180910390a25050505050565b6000600360008473ffffffffffffffffffffffffffffffffffffffff1673ffffffffffffffffffffffffffffffffffffffff16815260200190815260200160002060008373ffffffffffffffffffffffffffffffffffffffff1673ffffffffffffffffffffffffffffffffffffffff16815260200190815260200160002054905092915050565b6122fb61342c565b60098260405161230b9190613f7f565b90815260200160405180910390206040518060e0016040529081600082018054600181600116156101000203166002900480601f0160208091040260200160405190810160405280929190818152602001828054600181600116156101000203166002900480156123bd5780601f10612392576101008083540402835291602001916123bd565b820191906000526020600020905b8154815290600101906020018083116123a057829003601f168201915b505050505081526020016001820160009054906101000a900473ffffffffffffffffffffffffffffffffffffffff1673ffffffffffffffffffffffffffffffffffffffff1673ffffffffffffffffffffffffffffffffffffffff1681526020016002820154815260200160038201548152602001600482015481526020016005820160009054906101000a900460ff161515151581526020016005820160019054906101000a900460ff1615151515815250509050919050565b61248033611537565b1580156124c957506124c7336040518060400160405280600581526020017f41646d696e0000000000000000000000000000000000000000000000000000008152506107c3565b155b8015612511575061250f336040518060400160405280600681526020017f4d696e74657200000000000000000000000000000000000000000000000000008152506107c3565b155b80156125595750612557336040518060400160405280600681526020017f53657276657200000000000000000000000000000000000000000000000000008152506107c3565b155b61256257600080fd5b6009816040516125729190613f7f565b908152602001604051809103902060050160019054906101000a900460ff166125d0576040517f08c379a00000000000000000000000000000000000000000000000000000000081526004016125c79061422d565b60405180910390fd5b6009816040516125e09190613f7f565b908152602001604051809103902060050160009054906101000a900460ff1661263e576040517f08c379a0000000000000000000000000000000000000000000000000000000008152600401612635906142cd565b60405180910390fd5b3373ffffffffffffffffffffffffffffffffffffffff166009826040516126659190613f7f565b908152602001604051809103902060010160009054906101000a900473ffffffffffffffffffffffffffffffffffffffff1673ffffffffffffffffffffffffffffffffffffffff16146126b757600080fd5b6127566009826040516126ca9190613f7f565b908152602001604051809103902060010160009054906101000a900473ffffffffffffffffffffffffffffffffffffffff1661275160098460405161270f9190613f7f565b9081526020016040518091039020600401546009856040516127319190613f7f565b908152602001604051809103902060020154612d7890919063ffffffff16565b611a9b565b5060006009826040516127699190613f7f565b908152602001604051809103902060050160006101000a81548160ff02191690831515021790555060006009826040516127a39190613f7f565b90815260200160405180910390206003018190555050565b6127fa336040518060400160405280600681526020017f53657276657200000000000000000000000000000000000000000000000000008152506107c3565b61280357600080fd5b6009826040516128139190613f7f565b908152602001604051809103902060050160019054906101000a900460ff16612871576040517f08c379a00000000000000000000000000000000000000000000000000000000081526004016128689061422d565b60405180910390fd5b6009826040516128819190613f7f565b908152602001604051809103902060050160009054906101000a900460ff166128df576040517f08c379a00000000000000000000000000000000000000000000000000000000081526004016128d6906142cd565b60405180910390fd5b806009836040516128f09190613f7f565b90815260200160405180910390206003015411612942576040517f08c379a00000000000000000000000000000000000000000000000000000000081526004016129399061424d565b60405180910390fd5b61298d6009836040516129559190613f7f565b908152602001604051809103902060010160009054906101000a900473ffffffffffffffffffffffffffffffffffffffff1682611a9b565b5060006009836040516129a09190613f7f565b908152602001604051809103902060050160006101000a81548160ff0219169083151502179055506129fc816009846040516129dc9190613f7f565b908152602001604051809103902060030154612d7890919063ffffffff16565b600983604051612a0c9190613f7f565b9081526020016040518091039020600301819055505050565b600080828401905083811015612a3a57600080fd5b8091505092915050565b60008073ffffffffffffffffffffffffffffffffffffffff168373ffffffffffffffffffffffffffffffffffffffff161415612a7f57600080fd5b8360010182604051612a919190613f7f565b908152602001604051809103902060008473ffffffffffffffffffffffffffffffffffffffff1673ffffffffffffffffffffffffffffffffffffffff16815260200190815260200160002060009054906101000a900460ff1690509392505050565b6000808473ffffffffffffffffffffffffffffffffffffffff1673ffffffffffffffffffffffffffffffffffffffff16815260200190815260200160002054811115612b74576040517f08c379a0000000000000000000000000000000000000000000000000000000008152600401612b6b9061426d565b60405180910390fd5b600073ffffffffffffffffffffffffffffffffffffffff168273ffffffffffffffffffffffffffffffffffffffff161415612bae57600080fd5b612bff816000808673ffffffffffffffffffffffffffffffffffffffff1673ffffffffffffffffffffffffffffffffffffffff16815260200190815260200160002054612d7890919063ffffffff16565b6000808573ffffffffffffffffffffffffffffffffffffffff1673ffffffffffffffffffffffffffffffffffffffff16815260200190815260200160002081905550612c92816000808573ffffffffffffffffffffffffffffffffffffffff1673ffffffffffffffffffffffffffffffffffffffff16815260200190815260200160002054612a2590919063ffffffff16565b6000808473ffffffffffffffffffffffffffffffffffffffff1673ffffffffffffffffffffffffffffffffffffffff168152602001908152602001600020819055508173ffffffffffffffffffffffffffffffffffffffff168373ffffffffffffffffffffffffffffffffffffffff167fddf252ad1be2c89b69c2b068fc378daa952ba7f163c4a11628f55a4df523b3ef83604051612d31919061430f565b60405180910390a3505050565b600080831415612d515760009050612d72565b6000828402905082848281612d6257fe5b0414612d6d57600080fd5b809150505b92915050565b600082821115612d8757600080fd5b600082840390508091505092915050565b600073ffffffffffffffffffffffffffffffffffffffff168273ffffffffffffffffffffffffffffffffffffffff161415612dd257600080fd5b612ddd838383612a44565b15612de757600080fd5b60018360010182604051612dfb9190613f7f565b908152602001604051809103902060008473ffffffffffffffffffffffffffffffffffffffff1673ffffffffffffffffffffffffffffffffffffffff16815260200190815260200160002060006101000a81548160ff021916908315150217905550505050565b600073ffffffffffffffffffffffffffffffffffffffff168273ffffffffffffffffffffffffffffffffffffffff161415612e9c57600080fd5b612ea7838383612a44565b612eb057600080fd5b60008360010182604051612ec49190613f7f565b908152602001604051809103902060008473ffffffffffffffffffffffffffffffffffffffff1673ffffffffffffffffffffffffffffffffffffffff16815260200190815260200160002060006101000a81548160ff021916908315150217905550505050565b8060018190555050565b600073ffffffffffffffffffffffffffffffffffffffff168273ffffffffffffffffffffffffffffffffffffffff161415612f6f57600080fd5b612f8481600454612a2590919063ffffffff16565b600481905550612fdb816000808573ffffffffffffffffffffffffffffffffffffffff1673ffffffffffffffffffffffffffffffffffffffff16815260200190815260200160002054612a2590919063ffffffff16565b6000808473ffffffffffffffffffffffffffffffffffffffff1673ffffffffffffffffffffffffffffffffffffffff168152602001908152602001600020819055508173ffffffffffffffffffffffffffffffffffffffff16600073ffffffffffffffffffffffffffffffffffffffff167fddf252ad1be2c89b69c2b068fc378daa952ba7f163c4a11628f55a4df523b3ef8360405161307b919061430f565b60405180910390a35050565b600073ffffffffffffffffffffffffffffffffffffffff168273ffffffffffffffffffffffffffffffffffffffff1614156130c157600080fd5b6000808373ffffffffffffffffffffffffffffffffffffffff1673ffffffffffffffffffffffffffffffffffffffff1681526020019081526020016000205481111561310c57600080fd5b61312181600454612d7890919063ffffffff16565b600481905550613178816000808573ffffffffffffffffffffffffffffffffffffffff1673ffffffffffffffffffffffffffffffffffffffff16815260200190815260200160002054612d7890919063ffffffff16565b6000808473ffffffffffffffffffffffffffffffffffffffff1673ffffffffffffffffffffffffffffffffffffffff16815260200190815260200160002081905550600073ffffffffffffffffffffffffffffffffffffffff168273ffffffffffffffffffffffffffffffffffffffff167fddf252ad1be2c89b69c2b068fc378daa952ba7f163c4a11628f55a4df523b3ef83604051613218919061430f565b60405180910390a35050565b600073ffffffffffffffffffffffffffffffffffffffff168173ffffffffffffffffffffffffffffffffffffffff16141561325e57600080fd5b80600260006101000a81548173ffffffffffffffffffffffffffffffffffffffff021916908373ffffffffffffffffffffffffffffffffffffffff16021790555050565b828054600181600116156101000203166002900490600052602060002090601f016020900481019282601f106132e357805160ff1916838001178555613311565b82800160010185558215613311579182015b828111156133105782518255916020019190600101906132f5565b5b50905061331e9190613483565b5090565b82805482825590600052602060002090810192821561339b579160200282015b8281111561339a5782518260006101000a81548173ffffffffffffffffffffffffffffffffffffffff021916908373ffffffffffffffffffffffffffffffffffffffff16021790555091602001919060010190613342565b5b5090506133a891906134a0565b5090565b828054600181600116156101000203166002900490600052602060002090601f016020900481019282601f106133ed57805160ff191683800117855561341b565b8280016001018555821561341b579182015b8281111561341a5782518255916020019190600101906133ff565b5b5090506134289190613483565b5090565b6040518060e0016040528060608152602001600073ffffffffffffffffffffffffffffffffffffffff1681526020016000815260200160008152602001600081526020016000151581526020016000151581525090565b5b8082111561349c576000816000905550600101613484565b5090565b5b808211156134d757600081816101000a81549073ffffffffffffffffffffffffffffffffffffffff0219169055506001016134a1565b5090565b6000813590506134ea816145bd565b92915050565b6000813590506134ff816145d4565b92915050565b600082601f83011261351657600080fd5b8135613529613524826143b0565b614383565b9150808252602083016020830185838301111561354557600080fd5b613550838284614511565b50505092915050565b600082601f83011261356a57600080fd5b813561357d613578826143dc565b614383565b9150808252602083016020830185838301111561359957600080fd5b6135a4838284614511565b50505092915050565b6000813590506135bc816145eb565b92915050565b6000602082840312156135d457600080fd5b60006135e2848285016134db565b91505092915050565b600080604083850312156135fe57600080fd5b600061360c858286016134db565b925050602061361d858286016134db565b9150509250929050565b60008060006060848603121561363c57600080fd5b600061364a868287016134db565b935050602061365b868287016134db565b925050604061366c868287016135ad565b9150509250925092565b6000806040838503121561368957600080fd5b6000613697858286016134db565b925050602083013567ffffffffffffffff8111156136b457600080fd5b6136c085828601613559565b9150509250929050565b600080604083850312156136dd57600080fd5b60006136eb858286016134db565b92505060206136fc858286016135ad565b9150509250929050565b60006020828403121561371857600080fd5b6000613726848285016134f0565b91505092915050565b60006020828403121561374157600080fd5b600082013567ffffffffffffffff81111561375b57600080fd5b61376784828501613505565b91505092915050565b60006020828403121561378257600080fd5b600082013567ffffffffffffffff81111561379c57600080fd5b6137a884828501613559565b91505092915050565b600080604083850312156137c457600080fd5b600083013567ffffffffffffffff8111156137de57600080fd5b6137ea85828601613559565b925050602083013567ffffffffffffffff81111561380757600080fd5b61381385828601613559565b9150509250929050565b6000806000806080858703121561383357600080fd5b600085013567ffffffffffffffff81111561384d57600080fd5b61385987828801613559565b945050602085013567ffffffffffffffff81111561387657600080fd5b61388287828801613559565b9350506040613893878288016134db565b92505060606138a4878288016135ad565b91505092959194509250565b600080604083850312156138c357600080fd5b600083013567ffffffffffffffff8111156138dd57600080fd5b6138e985828601613559565b92505060206138fa858286016135ad565b9150509250929050565b600080600080600060a0868803121561391c57600080fd5b600086013567ffffffffffffffff81111561393657600080fd5b61394288828901613559565b9550506020613953888289016135ad565b9450506040613964888289016135ad565b9350506060613975888289016135ad565b9250506080613986888289016135ad565b9150509295509295909350565b6000602082840312156139a557600080fd5b60006139b3848285016135ad565b91505092915050565b60006139c883836139eb565b60208301905092915050565b6139e56139e0826144b2565b614565565b82525050565b6139f4816144a0565b82525050565b613a03816144a0565b82525050565b613a1a613a15826144a0565b614553565b82525050565b6000613a2b82614418565b613a358185614446565b9350613a4083614408565b8060005b83811015613a71578151613a5888826139bc565b9750613a6383614439565b925050600181019050613a44565b5085935050505092915050565b613a87816144c4565b82525050565b613a96816144c4565b82525050565b6000613aa782614423565b613ab18185614457565b9350613ac1818560208601614520565b613aca81614593565b840191505092915050565b6000613ae082614423565b613aea8185614468565b9350613afa818560208601614520565b80840191505092915050565b6000613b118261442e565b613b1b8185614473565b9350613b2b818560208601614520565b613b3481614593565b840191505092915050565b6000613b4a8261442e565b613b548185614484565b9350613b64818560208601614520565b613b6d81614593565b840191505092915050565b6000613b838261442e565b613b8d8185614495565b9350613b9d818560208601614520565b80840191505092915050565b6000613bb6601583614484565b91507f446f63756d656e74206973206e6f7420457869737400000000000000000000006000830152602082019050919050565b6000613bf6600e83614484565b91507f446f63756d656e742041646465640000000000000000000000000000000000006000830152602082019050919050565b6000613c36601583614484565b91507f43616d706169676e206973206e6f7420457869737400000000000000000000006000830152602082019050919050565b6000613c76601183614484565b91507f5265647564616e742069732077726f6e670000000000000000000000000000006000830152602082019050919050565b6000613cb6600683614495565b91507f4d696e74657200000000000000000000000000000000000000000000000000006000830152600682019050919050565b6000613cf6601083614484565b91507f4e6f7420456e6f756768204d6f6e6579000000000000000000000000000000006000830152602082019050919050565b6000613d36601783614484565b91507f5472616e7366657220546f206e6f74206265206e756c6c0000000000000000006000830152602082019050919050565b6000613d76601183614484565b91507f446f63756d656e742069732045786973740000000000000000000000000000006000830152602082019050919050565b6000613db6601783614484565b91507f446f63756d656e7420616c7265616479205369676e65640000000000000000006000830152602082019050919050565b6000613df6600f83614484565b91507f446f63756d656e74205369676e656400000000000000000000000000000000006000830152602082019050919050565b6000613e36601683614484565b91507f43616d706169676e206973206e6f7420416374697665000000000000000000006000830152602082019050919050565b600060e0830160008301518482036000860152613e868282613b06565b9150506020830151613e9b60208601826139eb565b506040830151613eae6040860182613f05565b506060830151613ec16060860182613f05565b506080830151613ed46080860182613f05565b5060a0830151613ee760a0860182613a7e565b5060c0830151613efa60c0860182613a7e565b508091505092915050565b613f0e816144fa565b82525050565b613f1d816144fa565b82525050565b613f34613f2f826144fa565b614589565b82525050565b613f4381614504565b82525050565b6000613f558284613a09565b60148201915081905092915050565b6000613f7082846139d4565b60148201915081905092915050565b6000613f8b8284613b78565b915081905092915050565b6000613fa182613ca9565b9150819050919050565b6000613fb78286613f23565b602082019150613fc78285613ad5565b9150613fd382846139d4565b601482019150819050949350505050565b6000602082019050613ff960008301846139fa565b92915050565b600060208201905081810360008301526140198184613a20565b905092915050565b60006020820190506140366000830184613a8d565b92915050565b600060408201905081810360008301526140568184613a9c565b9050818103602083015261406981613ba9565b905092915050565b6000604082019050818103600083015261408b8184613a9c565b9050818103602083015261409e81613be9565b905092915050565b600060408201905081810360008301526140c08184613a9c565b905081810360208301526140d381613d69565b905092915050565b600060408201905081810360008301526140f58184613a9c565b9050818103602083015261410881613da9565b905092915050565b6000604082019050818103600083015261412a8184613a9c565b9050818103602083015261413d81613de9565b905092915050565b6000602082019050818103600083015261415f8184613b3f565b905092915050565b600060e0820190508181036000830152614181818a613b3f565b905061419060208301896139fa565b61419d6040830188613f14565b6141aa6060830187613f14565b6141b76080830186613f14565b6141c460a0830185613a8d565b6141d160c0830184613a8d565b98975050505050505050565b600060408201905081810360008301526141f78185613b3f565b90506142066020830184613f14565b9392505050565b6000602082019050818103600083015261422681613ba9565b9050919050565b6000602082019050818103600083015261424681613c29565b9050919050565b6000602082019050818103600083015261426681613c69565b9050919050565b6000602082019050818103600083015261428681613ce9565b9050919050565b600060208201905081810360008301526142a681613d29565b9050919050565b600060208201905081810360008301526142c681613d69565b9050919050565b600060208201905081810360008301526142e681613e29565b9050919050565b600060208201905081810360008301526143078184613e69565b905092915050565b60006020820190506143246000830184613f14565b92915050565b600060608201905061433f6000830186613f14565b81810360208301526143518185613a9c565b90506143606040830184613a8d565b949350505050565b600060208201905061437d6000830184613f3a565b92915050565b6000604051905081810181811067ffffffffffffffff821117156143a657600080fd5b8060405250919050565b600067ffffffffffffffff8211156143c757600080fd5b601f19601f8301169050602081019050919050565b600067ffffffffffffffff8211156143f357600080fd5b601f19601f8301169050602081019050919050565b6000819050602082019050919050565b600081519050919050565b600081519050919050565b600081519050919050565b6000602082019050919050565b600082825260208201905092915050565b600082825260208201905092915050565b600081905092915050565b600082825260208201905092915050565b600082825260208201905092915050565b600081905092915050565b60006144ab826144da565b9050919050565b60006144bd826144da565b9050919050565b60008115159050919050565b6000819050919050565b600073ffffffffffffffffffffffffffffffffffffffff82169050919050565b6000819050919050565b600060ff82169050919050565b82818337600083830152505050565b60005b8381101561453e578082015181840152602081019050614523565b8381111561454d576000848401525b50505050565b600061455e82614577565b9050919050565b600061457082614577565b9050919050565b6000614582826145a4565b9050919050565b6000819050919050565b6000601f19601f8301169050919050565b60006c0100000000000000000000000082029050919050565b6145c6816144a0565b81146145d157600080fd5b50565b6145dd816144d0565b81146145e857600080fd5b50565b6145f4816144fa565b81146145ff57600080fd5b5056fea26469706673582212206658c2d3697312ec4c4c5cc5885e4da591d2df1676ddce58e8e474d30e5d9bd464736f6c63430007000033",
  "immutableReferences": {},
  "source": "// SPDX-License-Identifier: MIT\r\npragma experimental ABIEncoderV2;\r\npragma solidity >=0.7.0 <0.8.0;\r\nimport \"./TRC21.sol\";\r\nimport \"./SignDocument.sol\";\r\nimport './SafeMath.sol';\r\nimport './Ownable.sol';\r\nimport './CampaignDetail.sol';\r\n\r\ncontract Support is MyTRC21Mintable(\"Adverising2\",\"LBA2\", 0, uint256(0) * uint256(10)**18, uint256(0) * uint256(10)**18), SignDocument, CampaignDetail, AccessControl{\r\n    using SafeMath for uint;\r\n\r\n    /* BEGIN: Document function*/\r\n    /**\r\n\t * @dev Function to add Document to verify\r\n\t * @param id The security Hash of documents.\r\n\t */\r\n    function addDocument(bytes memory id) public {\r\n        if(documents[keccak256(id)].isExist){\r\n            emit Add(id, msg.sender, \"Document is Exist\");\r\n            revert(\"Document is Exist\");\r\n        } \r\n        address[] memory sender = new address[](0);\r\n        documents[keccak256(id)] = Document(block.timestamp, abi.encodePacked(block.timestamp, id, msg.sender), sender, true);\r\n        emit Add(id, msg.sender, \"Document Added\");\r\n    }\r\n\r\n    /**\r\n\t * @dev Function to sign to Document to verify.\r\n\t * @param id The security Hash of documents.\r\n\t */\r\n    function signDocument(bytes memory id) public {\r\n        require(!isRole(msg.sender,\"Minter\") && !isOwner(msg.sender) && !isRole(msg.sender, \"Server\"));\r\n        if(!documents[keccak256(id)].isExist){\r\n            emit Sign(id, msg.sender, \"Document is not Exist\"); \r\n            revert(\"Document is not Exist\");\r\n        }\r\n        bool checkDulicate = false;\r\n        for(uint i = 0; i < documents[keccak256(id)].signatures.length; i++){\r\n            if(keccak256(abi.encodePacked(documents[keccak256(id)].signatures[i])) == keccak256(abi.encodePacked(msg.sender))){\r\n                checkDulicate = true;\r\n                break;\r\n            }\r\n        }\r\n        if(!checkDulicate){\r\n            documents[keccak256(id)].signatures.push(msg.sender);\r\n            emit Sign(id, msg.sender, \"Document Signed\");\r\n        }\r\n        emit Sign(id, msg.sender, \"Document already Signed\");\r\n    }\r\n\r\n    /**\r\n\t * @dev Function to get all signature of document by Security hash of document\r\n\t * @param id The security Hash of documents.\r\n\t * @return Array of address of signed\r\n\t */\r\n    function getSignatures(bytes memory id) public view returns (address[] memory) {\r\n        return documents[keccak256(id)].signatures;\r\n    }\r\n\r\n    /**\r\n\t * @dev Function to check Admin Sign\r\n\t * @param id The security Hash of documents.\r\n\t * @return A boolean that verifier admin is signed this document. True is admin signed.\r\n\t */\r\n    function checkAdminSigned(bytes memory id) public view returns (bool) {\r\n        for(uint i = 0; i < documents[keccak256(id)].signatures.length; i++){\r\n            if(isRole(documents[keccak256(id)].signatures[i], \"Admin\")){\r\n                return true;\r\n            }\r\n        }\r\n        return false;\r\n    }\r\n    /*END: Document function*/\r\n\r\n    /*BEGIN: Campaign Detail */\r\n    \r\n    /**\r\n\t * @dev Function to Create Campaign\r\n\t * @param campaignId The string Identifier of Campaign.\r\n\t * @param totalWithFee This is all money of campaign include all fee.\r\n\t * @param totalBudget This is Budget of campaign.\r\n\t * @param remainBudget This is money after minus fee\r\n\t * @param feeCancel This is fee to cancel campaign.\r\n\t */\r\n    function createCampaign (string memory campaignId, uint totalWithFee, uint totalBudget, uint remainBudget, uint feeCancel) public{\r\n        //check money amount\r\n        require(totalWithFee <= _allowed[msg.sender][address(this)],\"Not Enough Money\");\r\n        //check campaign\r\n        if(!campaigns[campaignId].isExist){\r\n            //send money to server wallet\r\n            _transfer(msg.sender, address(this), totalWithFee);\r\n            _allowed[msg.sender][address(this)].sub(totalWithFee);\r\n            //create campaign\r\n            campaigns[campaignId] = Campaign(campaignId, msg.sender, totalBudget, remainBudget, feeCancel, true, true);\r\n        }\r\n        emit CreateCampaign(msg.sender, campaignId, totalBudget);\r\n    }\r\n\r\n    /**\r\n\t * @dev Function to CheckOut Campaign\r\n\t * @param campaignId The string Identifier of Campaign.\r\n\t * @param redudant The address of suppiler to transfer money.\r\n\t */\r\n    function checkOutCampaign(string memory campaignId, uint redudant) public onlyServer{\r\n        require(campaigns[campaignId].isExist,\"Campaign is not Exist\");\r\n        require(campaigns[campaignId].isActive,\"Campaign is not Active\");\r\n        require(campaigns[campaignId].remainBudget > redudant, \"Redudant is wrong\");\r\n\r\n        transfer(campaigns[campaignId].advertiser, redudant);\r\n        campaigns[campaignId].isActive = false;\r\n        campaigns[campaignId].remainBudget = campaigns[campaignId].remainBudget.sub(redudant);\r\n    }\r\n\r\n    /**\r\n\t * @dev Function to Pay To Supplier\r\n\t * @param campaignId The string Identifier of Campaign\r\n\t * @param supplier The address of suppiler to transfer money\r\n\t * @param value The value of money to transfer to supplier\r\n\t * @return A boolean that indicates if the operation was successful.\r\n\t */\r\n    function payToSupplier(string memory campaignId, string memory paymentKey, address supplier, uint256 value) public onlyServer returns (bool) {\r\n        require(supplier != address(0));\r\n        require(value <= campaigns[campaignId].remainBudget);\r\n        require(!checkPayed[campaignId][paymentKey]);\r\n        campaigns[campaignId].remainBudget = campaigns[campaignId].remainBudget.sub(value);\r\n        _transfer(address(this), campaigns[campaignId].advertiser, value);\r\n        checkPayed[campaignId][paymentKey] = true;\r\n        return true;\r\n    }\r\n\r\n    /**\r\n\t * @dev Function to Cancel Campaign\r\n\t * @param campaignId The string Identifier of Campaign\r\n\t */\r\n    function cancelCampaign(string memory campaignId) public onlyUser{\r\n        require(campaigns[campaignId].isExist,\"Campaign is not Exist\");\r\n        require(campaigns[campaignId].isActive,\"Campaign is not Active\");\r\n        require(campaigns[campaignId].advertiser == msg.sender);\r\n\r\n        transfer(campaigns[campaignId].advertiser, \r\n                            campaigns[campaignId].totalBudget.sub(campaigns[campaignId].feeCancel));\r\n\r\n        \r\n        campaigns[campaignId].isActive = false;\r\n        campaigns[campaignId].remainBudget = 0;\r\n    }\r\n\r\n    /**\r\n\t * @dev Function to Get Campaign By Id\r\n\t * @param campaignId The string Identifier of Campaign\r\n\t * @return A Campaign will return if there are campaignId \r\n\t */\r\n    function getCampaignById(string memory campaignId) public view returns (Campaign memory){\r\n        return campaigns[campaignId];\r\n    }\r\n    /*END: Campaign Detail */\r\n\r\n    /*START: MyTRC21Mintable */\r\n\r\n    /**\r\n\t * @dev Function to change OwnerOfContract\r\n\t * @param newOwner The address that will be new Owner.\r\n\t */\r\n    function changeOwner(address newOwner) public onlyOwner{\r\n        _changeIssuer(newOwner);\r\n        _changeOwnerRole(newOwner);\r\n    }\r\n    /**\r\n\t * @dev Function to mint tokens\r\n\t * @param to The address that will receive the minted tokens.\r\n\t * @param value The amount of tokens to mint.\r\n\t * @return A boolean that indicates if the operation was successful.\r\n\t */\r\n\tfunction mint(\r\n\t\taddress to,\r\n\t\tuint256 value\r\n\t)\r\n\tpublic\r\n\tonlyMinter\r\n\treturns (bool)\r\n\t{\r\n\t\t_mint(to, value);\r\n\t\treturn true;\r\n\t}\r\n    /*END: MyTRC21Mintable */\r\n}",
  "sourcePath": "D:/CN9/Capstone/LBAContract.github.io/contracts/Support.sol",
  "compiler": {
    "name": "solc",
    "version": "0.7.0+commit.9e61f92b.Emscripten.clang"
  },
  "schemaVersion": "3.3.3",
  "updatedAt": "2021-03-16T07:21:05.409Z",
  "networkType": "ethereum",
  "devdoc": {
    "kind": "dev",
    "methods": {
      "addDocument(bytes)": {
        "details": "Function to add Document to verify",
        "params": {
          "id": "The security Hash of documents."
        }
      },
      "allowance(address,address)": {
        "details": "Function to check the amount of tokens that an owner allowed to a spender.",
        "params": {
          "owner": "address The address which owns the funds.",
          "spender": "address The address which will spend the funds."
        },
        "returns": {
          "_0": "A uint256 specifying the amount of tokens still available for the spender."
        }
      },
      "approve(address,uint256)": {
        "details": "Approve the passed address to spend the specified amount of tokens on behalf of msg.sender. Beware that changing an allowance with this method brings the risk that someone may use both the old and the new allowance by unfortunate transaction ordering. One possible solution to mitigate this race condition is to first reduce the spender's allowance to 0 and set the desired value afterwards: https://github.com/ethereum/EIPs/issues/20#issuecomment-263524729",
        "params": {
          "spender": "The address which will spend the funds.",
          "value": "The amount of tokens to be spent."
        }
      },
      "balanceOf(address)": {
        "details": "Gets the balance of the specified address.",
        "params": {
          "owner": "The address to query the balance of."
        },
        "returns": {
          "_0": "An uint256 representing the amount owned by the passed address."
        }
      },
      "burn(uint256)": {
        "details": "Function to burn tokens",
        "params": {
          "value": "The amount of tokens to mint."
        },
        "returns": {
          "_0": "A boolean that indicates if the operation was successful."
        }
      },
      "cancelCampaign(string)": {
        "details": "Function to Cancel Campaign",
        "params": {
          "campaignId": "The string Identifier of Campaign"
        }
      },
      "changeOwner(address)": {
        "details": "Function to change OwnerOfContract",
        "params": {
          "newOwner": "The address that will be new Owner."
        }
      },
      "checkAdminSigned(bytes)": {
        "details": "Function to check Admin Sign",
        "params": {
          "id": "The security Hash of documents."
        },
        "returns": {
          "_0": "A boolean that verifier admin is signed this document. True is admin signed."
        }
      },
      "checkOutCampaign(string,uint256)": {
        "details": "Function to CheckOut Campaign",
        "params": {
          "campaignId": "The string Identifier of Campaign.",
          "redudant": "The address of suppiler to transfer money."
        }
      },
      "createCampaign(string,uint256,uint256,uint256,uint256)": {
        "details": "Function to Create Campaign",
        "params": {
          "campaignId": "The string Identifier of Campaign.",
          "feeCancel": "This is fee to cancel campaign.",
          "remainBudget": "This is money after minus fee",
          "totalBudget": "This is Budget of campaign.",
          "totalWithFee": "This is all money of campaign include all fee."
        }
      },
      "decimals()": {
        "returns": {
          "_0": "the number of decimals of the token."
        }
      },
      "estimateFee(uint256)": {
        "details": "Estimate transaction fee.",
        "params": {
          "value": "amount tokens sent"
        }
      },
      "getCampaignById(string)": {
        "details": "Function to Get Campaign By Id",
        "params": {
          "campaignId": "The string Identifier of Campaign"
        },
        "returns": {
          "_0": "A Campaign will return if there are campaignId "
        }
      },
      "getSignatures(bytes)": {
        "details": "Function to get all signature of document by Security hash of document",
        "params": {
          "id": "The security Hash of documents."
        },
        "returns": {
          "_0": "Array of address of signed"
        }
      },
      "issuer()": {
        "details": "token's foundation"
      },
      "minFee()": {
        "details": "The amount fee that will be lost when transferring."
      },
      "mint(address,uint256)": {
        "details": "Function to mint tokens",
        "params": {
          "to": "The address that will receive the minted tokens.",
          "value": "The amount of tokens to mint."
        },
        "returns": {
          "_0": "A boolean that indicates if the operation was successful."
        }
      },
      "name()": {
        "returns": {
          "_0": "the name of the token."
        }
      },
      "payToSupplier(string,string,address,uint256)": {
        "details": "Function to Pay To Supplier",
        "params": {
          "campaignId": "The string Identifier of Campaign",
          "supplier": "The address of suppiler to transfer money",
          "value": "The value of money to transfer to supplier"
        },
        "returns": {
          "_0": "A boolean that indicates if the operation was successful."
        }
      },
      "signDocument(bytes)": {
        "details": "Function to sign to Document to verify.",
        "params": {
          "id": "The security Hash of documents."
        }
      },
      "symbol()": {
        "returns": {
          "_0": "the symbol of the token."
        }
      },
      "totalSupply()": {
        "details": "Total number of tokens in existence"
      },
      "transfer(address,uint256)": {
        "details": "Transfer token for a specified address",
        "params": {
          "to": "The address to transfer to.",
          "value": "The amount to be transferred."
        }
      },
      "transferFrom(address,address,uint256)": {
        "details": "Transfer tokens from one address to another",
        "params": {
          "from": "address The address which you want to send tokens from",
          "to": "address The address which you want to transfer to",
          "value": "uint256 the amount of tokens to be transferred"
        }
      }
    },
    "version": 1
  },
  "userdoc": {
    "kind": "user",
    "methods": {},
    "version": 1
  }
}