{
  "contractName": "Support",
  "abi": [
    {
      "anonymous": false,
      "inputs": [
        {
          "indexed": false,
          "internalType": "bytes",
          "name": "id",
          "type": "bytes"
        },
        {
          "indexed": true,
          "internalType": "address",
          "name": "from",
          "type": "address"
        },
        {
          "indexed": false,
          "internalType": "string",
          "name": "comment",
          "type": "string"
        }
      ],
      "name": "Add",
      "type": "event"
    },
    {
      "anonymous": false,
      "inputs": [
        {
          "indexed": true,
          "internalType": "address",
          "name": "owner",
          "type": "address"
        },
        {
          "indexed": true,
          "internalType": "address",
          "name": "spender",
          "type": "address"
        },
        {
          "indexed": false,
          "internalType": "uint256",
          "name": "value",
          "type": "uint256"
        }
      ],
      "name": "Approval",
      "type": "event"
    },
    {
      "anonymous": false,
      "inputs": [
        {
          "indexed": true,
          "internalType": "address",
          "name": "owner",
          "type": "address"
        },
        {
          "indexed": false,
          "internalType": "string",
          "name": "campaignId",
          "type": "string"
        },
        {
          "indexed": false,
          "internalType": "uint256",
          "name": "value",
          "type": "uint256"
        }
      ],
      "name": "AuthorityCampaign",
      "type": "event"
    },
    {
      "anonymous": false,
      "inputs": [
        {
          "indexed": true,
          "internalType": "address",
          "name": "owner",
          "type": "address"
        },
        {
          "indexed": false,
          "internalType": "string",
          "name": "campaignId",
          "type": "string"
        },
        {
          "indexed": false,
          "internalType": "uint256",
          "name": "value",
          "type": "uint256"
        }
      ],
      "name": "CreateCampaign",
      "type": "event"
    },
    {
      "anonymous": false,
      "inputs": [
        {
          "indexed": true,
          "internalType": "address",
          "name": "from",
          "type": "address"
        },
        {
          "indexed": true,
          "internalType": "address",
          "name": "to",
          "type": "address"
        },
        {
          "indexed": true,
          "internalType": "address",
          "name": "issuer",
          "type": "address"
        },
        {
          "indexed": false,
          "internalType": "uint256",
          "name": "value",
          "type": "uint256"
        }
      ],
      "name": "Fee",
      "type": "event"
    },
    {
      "anonymous": false,
      "inputs": [
        {
          "indexed": false,
          "internalType": "bytes",
          "name": "id",
          "type": "bytes"
        },
        {
          "indexed": true,
          "internalType": "address",
          "name": "from",
          "type": "address"
        },
        {
          "indexed": false,
          "internalType": "string",
          "name": "comment",
          "type": "string"
        }
      ],
      "name": "Sign",
      "type": "event"
    },
    {
      "anonymous": false,
      "inputs": [
        {
          "indexed": true,
          "internalType": "address",
          "name": "from",
          "type": "address"
        },
        {
          "indexed": true,
          "internalType": "address",
          "name": "to",
          "type": "address"
        },
        {
          "indexed": false,
          "internalType": "uint256",
          "name": "value",
          "type": "uint256"
        }
      ],
      "name": "Transfer",
      "type": "event"
    },
    {
      "inputs": [
        {
          "internalType": "address",
          "name": "account",
          "type": "address"
        },
        {
          "internalType": "string",
          "name": "roleType",
          "type": "string"
        }
      ],
      "name": "add",
      "outputs": [],
      "stateMutability": "nonpayable",
      "type": "function"
    },
    {
      "inputs": [
        {
          "internalType": "address",
          "name": "owner",
          "type": "address"
        },
        {
          "internalType": "address",
          "name": "spender",
          "type": "address"
        }
      ],
      "name": "allowance",
      "outputs": [
        {
          "internalType": "uint256",
          "name": "",
          "type": "uint256"
        }
      ],
      "stateMutability": "view",
      "type": "function"
    },
    {
      "inputs": [
        {
          "internalType": "address",
          "name": "spender",
          "type": "address"
        },
        {
          "internalType": "uint256",
          "name": "value",
          "type": "uint256"
        }
      ],
      "name": "approve",
      "outputs": [
        {
          "internalType": "bool",
          "name": "",
          "type": "bool"
        }
      ],
      "stateMutability": "nonpayable",
      "type": "function"
    },
    {
      "inputs": [
        {
          "internalType": "address",
          "name": "owner",
          "type": "address"
        }
      ],
      "name": "balanceOf",
      "outputs": [
        {
          "internalType": "uint256",
          "name": "",
          "type": "uint256"
        }
      ],
      "stateMutability": "view",
      "type": "function"
    },
    {
      "inputs": [
        {
          "internalType": "uint256",
          "name": "value",
          "type": "uint256"
        }
      ],
      "name": "burn",
      "outputs": [
        {
          "internalType": "bool",
          "name": "",
          "type": "bool"
        }
      ],
      "stateMutability": "nonpayable",
      "type": "function"
    },
    {
      "inputs": [
        {
          "internalType": "string",
          "name": "",
          "type": "string"
        }
      ],
      "name": "campaigns",
      "outputs": [
        {
          "internalType": "string",
          "name": "campaignId",
          "type": "string"
        },
        {
          "internalType": "address",
          "name": "advertiser",
          "type": "address"
        },
        {
          "internalType": "uint256",
          "name": "totalBudget",
          "type": "uint256"
        },
        {
          "internalType": "uint256",
          "name": "remainBudget",
          "type": "uint256"
        },
        {
          "internalType": "uint256",
          "name": "feeCancel",
          "type": "uint256"
        },
        {
          "internalType": "bool",
          "name": "isActive",
          "type": "bool"
        },
        {
          "internalType": "bool",
          "name": "isExist",
          "type": "bool"
        }
      ],
      "stateMutability": "view",
      "type": "function"
    },
    {
      "inputs": [
        {
          "internalType": "address",
          "name": "account",
          "type": "address"
        }
      ],
      "name": "changeOwnerRole",
      "outputs": [],
      "stateMutability": "nonpayable",
      "type": "function"
    },
    {
      "inputs": [],
      "name": "decimals",
      "outputs": [
        {
          "internalType": "uint8",
          "name": "",
          "type": "uint8"
        }
      ],
      "stateMutability": "view",
      "type": "function"
    },
    {
      "inputs": [
        {
          "internalType": "bytes32",
          "name": "",
          "type": "bytes32"
        }
      ],
      "name": "documents",
      "outputs": [
        {
          "internalType": "uint256",
          "name": "timestamp",
          "type": "uint256"
        },
        {
          "internalType": "bytes",
          "name": "ipfs_hash",
          "type": "bytes"
        },
        {
          "internalType": "bool",
          "name": "isExist",
          "type": "bool"
        }
      ],
      "stateMutability": "view",
      "type": "function"
    },
    {
      "inputs": [
        {
          "internalType": "uint256",
          "name": "value",
          "type": "uint256"
        }
      ],
      "name": "estimateFee",
      "outputs": [
        {
          "internalType": "uint256",
          "name": "",
          "type": "uint256"
        }
      ],
      "stateMutability": "view",
      "type": "function"
    },
    {
      "inputs": [
        {
          "internalType": "address",
          "name": "account",
          "type": "address"
        }
      ],
      "name": "isOwner",
      "outputs": [
        {
          "internalType": "bool",
          "name": "",
          "type": "bool"
        }
      ],
      "stateMutability": "view",
      "type": "function"
    },
    {
      "inputs": [
        {
          "internalType": "address",
          "name": "account",
          "type": "address"
        },
        {
          "internalType": "string",
          "name": "roleType",
          "type": "string"
        }
      ],
      "name": "isRole",
      "outputs": [
        {
          "internalType": "bool",
          "name": "",
          "type": "bool"
        }
      ],
      "stateMutability": "view",
      "type": "function"
    },
    {
      "inputs": [],
      "name": "issuer",
      "outputs": [
        {
          "internalType": "address",
          "name": "",
          "type": "address"
        }
      ],
      "stateMutability": "view",
      "type": "function"
    },
    {
      "inputs": [],
      "name": "minFee",
      "outputs": [
        {
          "internalType": "uint256",
          "name": "",
          "type": "uint256"
        }
      ],
      "stateMutability": "view",
      "type": "function"
    },
    {
      "inputs": [],
      "name": "name",
      "outputs": [
        {
          "internalType": "string",
          "name": "",
          "type": "string"
        }
      ],
      "stateMutability": "view",
      "type": "function"
    },
    {
      "inputs": [
        {
          "internalType": "address",
          "name": "account",
          "type": "address"
        },
        {
          "internalType": "string",
          "name": "roleType",
          "type": "string"
        }
      ],
      "name": "remove",
      "outputs": [],
      "stateMutability": "nonpayable",
      "type": "function"
    },
    {
      "inputs": [
        {
          "internalType": "uint256",
          "name": "value",
          "type": "uint256"
        }
      ],
      "name": "setMinFee",
      "outputs": [],
      "stateMutability": "nonpayable",
      "type": "function"
    },
    {
      "inputs": [],
      "name": "symbol",
      "outputs": [
        {
          "internalType": "string",
          "name": "",
          "type": "string"
        }
      ],
      "stateMutability": "view",
      "type": "function"
    },
    {
      "inputs": [],
      "name": "totalSupply",
      "outputs": [
        {
          "internalType": "uint256",
          "name": "",
          "type": "uint256"
        }
      ],
      "stateMutability": "view",
      "type": "function"
    },
    {
      "inputs": [
        {
          "internalType": "address",
          "name": "to",
          "type": "address"
        },
        {
          "internalType": "uint256",
          "name": "value",
          "type": "uint256"
        }
      ],
      "name": "transfer",
      "outputs": [
        {
          "internalType": "bool",
          "name": "",
          "type": "bool"
        }
      ],
      "stateMutability": "nonpayable",
      "type": "function"
    },
    {
      "inputs": [
        {
          "internalType": "address",
          "name": "from",
          "type": "address"
        },
        {
          "internalType": "address",
          "name": "to",
          "type": "address"
        },
        {
          "internalType": "uint256",
          "name": "value",
          "type": "uint256"
        }
      ],
      "name": "transferFrom",
      "outputs": [
        {
          "internalType": "bool",
          "name": "",
          "type": "bool"
        }
      ],
      "stateMutability": "nonpayable",
      "type": "function"
    },
    {
      "inputs": [
        {
          "internalType": "bytes",
          "name": "id",
          "type": "bytes"
        }
      ],
      "name": "addDocument",
      "outputs": [],
      "stateMutability": "nonpayable",
      "type": "function"
    },
    {
      "inputs": [
        {
          "internalType": "bytes",
          "name": "id",
          "type": "bytes"
        }
      ],
      "name": "signDocument",
      "outputs": [],
      "stateMutability": "nonpayable",
      "type": "function"
    },
    {
      "inputs": [
        {
          "internalType": "bytes",
          "name": "id",
          "type": "bytes"
        }
      ],
      "name": "getSignatures",
      "outputs": [
        {
          "internalType": "address[]",
          "name": "",
          "type": "address[]"
        }
      ],
      "stateMutability": "view",
      "type": "function"
    },
    {
      "inputs": [
        {
          "internalType": "string",
          "name": "campaignId",
          "type": "string"
        },
        {
          "internalType": "uint256",
          "name": "totalWithFee",
          "type": "uint256"
        },
        {
          "internalType": "uint256",
          "name": "totalBudget",
          "type": "uint256"
        },
        {
          "internalType": "uint256",
          "name": "remainBudget",
          "type": "uint256"
        },
        {
          "internalType": "uint256",
          "name": "feeCancel",
          "type": "uint256"
        }
      ],
      "name": "createCampaign",
      "outputs": [],
      "stateMutability": "nonpayable",
      "type": "function"
    },
    {
      "inputs": [
        {
          "internalType": "string",
          "name": "campaignId",
          "type": "string"
        },
        {
          "internalType": "uint256",
          "name": "redudant",
          "type": "uint256"
        }
      ],
      "name": "checkOutCampaign",
      "outputs": [],
      "stateMutability": "nonpayable",
      "type": "function"
    },
    {
      "inputs": [
        {
          "internalType": "string",
          "name": "campaignId",
          "type": "string"
        },
        {
          "internalType": "address",
          "name": "supplier",
          "type": "address"
        },
        {
          "internalType": "uint256",
          "name": "value",
          "type": "uint256"
        }
      ],
      "name": "payToSupplier",
      "outputs": [
        {
          "internalType": "bool",
          "name": "",
          "type": "bool"
        }
      ],
      "stateMutability": "nonpayable",
      "type": "function"
    },
    {
      "inputs": [
        {
          "internalType": "string",
          "name": "campaignId",
          "type": "string"
        }
      ],
      "name": "cancelCampaign",
      "outputs": [],
      "stateMutability": "nonpayable",
      "type": "function"
    },
    {
      "inputs": [
        {
          "internalType": "string",
          "name": "campaignId",
          "type": "string"
        }
      ],
      "name": "getCampaignById",
      "outputs": [
        {
          "components": [
            {
              "internalType": "string",
              "name": "campaignId",
              "type": "string"
            },
            {
              "internalType": "address",
              "name": "advertiser",
              "type": "address"
            },
            {
              "internalType": "uint256",
              "name": "totalBudget",
              "type": "uint256"
            },
            {
              "internalType": "uint256",
              "name": "remainBudget",
              "type": "uint256"
            },
            {
              "internalType": "uint256",
              "name": "feeCancel",
              "type": "uint256"
            },
            {
              "internalType": "bool",
              "name": "isActive",
              "type": "bool"
            },
            {
              "internalType": "bool",
              "name": "isExist",
              "type": "bool"
            }
          ],
          "internalType": "struct CampaignDetail.Campaign",
          "name": "",
          "type": "tuple"
        }
      ],
      "stateMutability": "view",
      "type": "function"
    },
    {
      "inputs": [
        {
          "internalType": "address",
          "name": "to",
          "type": "address"
        },
        {
          "internalType": "uint256",
          "name": "value",
          "type": "uint256"
        }
      ],
      "name": "mint",
      "outputs": [
        {
          "internalType": "bool",
          "name": "",
          "type": "bool"
        }
      ],
      "stateMutability": "nonpayable",
      "type": "function"
    }
  ],
  "bytecode": "0x60806040523480156200001157600080fd5b506040518060400160405280600b81526020017f41647665726973696e67320000000000000000000000000000000000000000008152506040518060400160405280600481526020017f4c4241320000000000000000000000000000000000000000000000000000000081525060006012600a0a6000026012600a0a6001028460059080519060200190620000a892919062000487565b508360069080519060200190620000c192919062000487565b5082600760006101000a81548160ff021916908360ff160217905550620000f8308362000269640100000000026401000000009004565b6200011233620003de640100000000026401000000009004565b6200012c816200045d640100000000026401000000009004565b505050505033600a60000160006101000a81548173ffffffffffffffffffffffffffffffffffffffff021916908373ffffffffffffffffffffffffffffffffffffffff1602179055506001600a6001016040516200018a90620005d9565b908152602001604051809103902060003373ffffffffffffffffffffffffffffffffffffffff1673ffffffffffffffffffffffffffffffffffffffff16815260200190815260200160002060006101000a81548160ff0219169083151502179055506001600a6001016040516200020190620005c2565b908152602001604051809103902060003373ffffffffffffffffffffffffffffffffffffffff1673ffffffffffffffffffffffffffffffffffffffff16815260200190815260200160002060006101000a81548160ff02191690831515021790555062000622565b600073ffffffffffffffffffffffffffffffffffffffff168273ffffffffffffffffffffffffffffffffffffffff161415620002a457600080fd5b620002c98160045462000467640100000000026200268d179091906401000000009004565b60048190555062000330816000808573ffffffffffffffffffffffffffffffffffffffff1673ffffffffffffffffffffffffffffffffffffffff1681526020019081526020016000205462000467640100000000026200268d179091906401000000009004565b6000808473ffffffffffffffffffffffffffffffffffffffff1673ffffffffffffffffffffffffffffffffffffffff168152602001908152602001600020819055508173ffffffffffffffffffffffffffffffffffffffff16600073ffffffffffffffffffffffffffffffffffffffff167fddf252ad1be2c89b69c2b068fc378daa952ba7f163c4a11628f55a4df523b3ef83604051620003d29190620005f0565b60405180910390a35050565b600073ffffffffffffffffffffffffffffffffffffffff168173ffffffffffffffffffffffffffffffffffffffff1614156200041957600080fd5b80600260006101000a81548173ffffffffffffffffffffffffffffffffffffffff021916908373ffffffffffffffffffffffffffffffffffffffff16021790555050565b8060018190555050565b6000808284019050838110156200047d57600080fd5b8091505092915050565b828054600181600116156101000203166002900490600052602060002090601f016020900481019282601f10620004ca57805160ff1916838001178555620004fb565b82800160010185558215620004fb579182015b82811115620004fa578251825591602001919060010190620004dd565b5b5090506200050a91906200050e565b5090565b5b80821115620005295760008160009055506001016200050f565b5090565b60006200053c6006836200060d565b91507f4d696e74657200000000000000000000000000000000000000000000000000006000830152600682019050919050565b60006200057e6005836200060d565b91507f41646d696e0000000000000000000000000000000000000000000000000000006000830152600582019050919050565b620005bc8162000618565b82525050565b6000620005cf826200052d565b9150819050919050565b6000620005e6826200056f565b9150819050919050565b6000602082019050620006076000830184620005b1565b92915050565b600081905092915050565b6000819050919050565b61418a80620006326000396000f3fe608060405234801561001057600080fd5b50600436106101f7576000357c01000000000000000000000000000000000000000000000000000000009004806340c10f1911610121578063a9059cbb116100bf578063dd62ed3e1161008e578063dd62ed3e146105ec578063e26034cd1461061c578063e35d66a81461064c578063e631ce9914610668576101f7565b8063a9059cbb14610554578063c63c5bd114610584578063c79de09b146105a0578063d63e8325146105bc576101f7565b80636b45b4e3116100fb5780636b45b4e3146104ba57806370a08231146104ea578063888cadef1461051a57806395d89b4114610536576101f7565b806340c10f191461043e57806342966c681461046e57806349209fc81461049e576101f7565b8063228bc0a9116101995780632f54bf6e116101685780632f54bf6e146103b8578063313ce567146103e857806331ac99201461040657806336d6da5514610422576101f7565b8063228bc0a91461031c57806323b872dd1461033857806324ec7590146103685780632b2805db14610386576101f7565b8063127e8e4d116101d5578063127e8e4d1461027a57806318160ddd146102aa5780631d143848146102c85780631d39e509146102e6576101f7565b806306fdde03146101fc578063070eb1571461021a578063095ea7b31461024a575b600080fd5b610204610684565b6040516102119190613c97565b60405180910390f35b610234600480360381019061022f9190613260565b610726565b6040516102419190613b73565b60405180910390f35b610264600480360381019061025f91906132b4565b610746565b6040516102719190613b73565b60405180910390f35b610294600480360381019061028f91906134e5565b6108ed565b6040516102a19190613e61565b60405180910390f35b6102b261091e565b6040516102bf9190613e61565b60405180910390f35b6102d0610928565b6040516102dd9190613b36565b60405180910390f35b61030060048036038101906102fb919061335a565b610952565b6040516103139796959493929190613cb9565b60405180910390f35b61033660048036038101906103319190613319565b610a7c565b005b610352600480360381019061034d9190613211565b610c9b565b60405161035f9190613b73565b60405180910390f35b610370610fd9565b60405161037d9190613e61565b60405180910390f35b6103a0600480360381019061039b91906132f0565b610fe3565b6040516103af93929190613e7c565b60405180910390f35b6103d260048036038101906103cd91906131ac565b6110b2565b6040516103df9190613b73565b60405180910390f35b6103f061110f565b6040516103fd9190613eba565b60405180910390f35b610420600480360381019061041b91906134e5565b611126565b005b61043c60048036038101906104379190613260565b611171565b005b610458600480360381019061045391906132b4565b611238565b6040516104659190613b73565b60405180910390f35b610488600480360381019061048391906134e5565b611296565b6040516104959190613b73565b60405180910390f35b6104b860048036038101906104b39190613260565b6112ab565b005b6104d460048036038101906104cf9190613319565b611372565b6040516104e19190613b51565b60405180910390f35b61050460048036038101906104ff91906131ac565b61141d565b6040516105119190613e61565b60405180910390f35b610534600480360381019061052f91906131ac565b611465565b005b61053e6115ea565b60405161054b9190613c97565b60405180910390f35b61056e600480360381019061056991906132b4565b61168c565b60405161057b9190613b73565b60405180910390f35b61059e60048036038101906105999190613319565b6117de565b005b6105ba60048036038101906105b59190613456565b611aa3565b005b6105d660048036038101906105d1919061339b565b611dba565b6040516105e39190613b73565b60405180910390f35b610606600480360381019061060191906131d5565b611f1c565b6040516106139190613e61565b60405180910390f35b6106366004803603810190610631919061335a565b611fa3565b6040516106439190613e3f565b60405180910390f35b6106666004803603810190610661919061335a565b612127565b005b610682600480360381019061067d9190613402565b612423565b005b606060058054600181600116156101000203166002900480601f01602080910402602001604051908101604052809291908181526020018280546001816001161561010002031660029004801561071c5780601f106106f15761010080835404028352916020019161071c565b820191906000526020600020905b8154815290600101906020018083116106ff57829003601f168201915b5050505050905090565b600061073e8383600a6126ac9092919063ffffffff16565b905092915050565b60008073ffffffffffffffffffffffffffffffffffffffff168373ffffffffffffffffffffffffffffffffffffffff16141561078157600080fd5b6001546000803373ffffffffffffffffffffffffffffffffffffffff1673ffffffffffffffffffffffffffffffffffffffff1681526020019081526020016000205410156107ce57600080fd5b81600360003373ffffffffffffffffffffffffffffffffffffffff1673ffffffffffffffffffffffffffffffffffffffff16815260200190815260200160002060008573ffffffffffffffffffffffffffffffffffffffff1673ffffffffffffffffffffffffffffffffffffffff1681526020019081526020016000208190555061087e33600260009054906101000a900473ffffffffffffffffffffffffffffffffffffffff1660015461275b565b8273ffffffffffffffffffffffffffffffffffffffff163373ffffffffffffffffffffffffffffffffffffffff167f8c5be1e5ebec7d5bd14f71427d1e84f3dd0314c0f7b2291e5b200ac8c7c3b925846040516108db9190613e61565b60405180910390a36001905092915050565b60006109176001546109096000856129a690919063ffffffff16565b61268d90919063ffffffff16565b9050919050565b6000600454905090565b6000600260009054906101000a900473ffffffffffffffffffffffffffffffffffffffff16905090565b600981805160208101820180518482526020830160208501208183528095505050505050600091509050806000018054600181600116156101000203166002900480601f016020809104026020016040519081016040528092919081815260200182805460018160011615610100020316600290048015610a145780601f106109e957610100808354040283529160200191610a14565b820191906000526020600020905b8154815290600101906020018083116109f757829003601f168201915b5050505050908060010160009054906101000a900473ffffffffffffffffffffffffffffffffffffffff16908060020154908060030154908060040154908060050160009054906101000a900460ff16908060050160019054906101000a900460ff16905087565b600860008280519060200120815260200190815260200160002060030160009054906101000a900460ff1615610b35573373ffffffffffffffffffffffffffffffffffffffff167fce62159ff3c25a8e61a8bc74b520c1c33ff5acc534e8af236f3b5a587b050b0582604051610af29190613bf8565b60405180910390a26040517f08c379a0000000000000000000000000000000000000000000000000000000008152600401610b2c90613dff565b60405180910390fd5b6060600067ffffffffffffffff81118015610b4f57600080fd5b50604051908082528060200260200182016040528015610b7e5781602001602082028036833780820191505090505b5090506040518060800160405280428152602001428433604051602001610ba793929190613afd565b6040516020818303038152906040528152602001828152602001600115158152506008600084805190602001208152602001908152602001600020600082015181600001556020820151816001019080519060200190610c08929190612e8c565b506040820151816002019080519060200190610c25929190612f0c565b5060608201518160030160006101000a81548160ff0219169083151502179055509050503373ffffffffffffffffffffffffffffffffffffffff167fce62159ff3c25a8e61a8bc74b520c1c33ff5acc534e8af236f3b5a587b050b0583604051610c8f9190613bc3565b60405180910390a25050565b600080610cb36001548461268d90919063ffffffff16565b9050600073ffffffffffffffffffffffffffffffffffffffff168473ffffffffffffffffffffffffffffffffffffffff161415610d25576040517f08c379a0000000000000000000000000000000000000000000000000000000008152600401610d1c90613ddf565b60405180910390fd5b600360008673ffffffffffffffffffffffffffffffffffffffff1673ffffffffffffffffffffffffffffffffffffffff16815260200190815260200160002060003373ffffffffffffffffffffffffffffffffffffffff1673ffffffffffffffffffffffffffffffffffffffff16815260200190815260200160002054811115610de4576040517f08c379a0000000000000000000000000000000000000000000000000000000008152600401610ddb90613dbf565b60405180910390fd5b610e7381600360008873ffffffffffffffffffffffffffffffffffffffff1673ffffffffffffffffffffffffffffffffffffffff16815260200190815260200160002060003373ffffffffffffffffffffffffffffffffffffffff1673ffffffffffffffffffffffffffffffffffffffff168152602001908152602001600020546129e090919063ffffffff16565b600360008773ffffffffffffffffffffffffffffffffffffffff1673ffffffffffffffffffffffffffffffffffffffff16815260200190815260200160002060003373ffffffffffffffffffffffffffffffffffffffff1673ffffffffffffffffffffffffffffffffffffffff16815260200190815260200160002081905550610efe85858561275b565b610f2d85600260009054906101000a900473ffffffffffffffffffffffffffffffffffffffff1660015461275b565b600260009054906101000a900473ffffffffffffffffffffffffffffffffffffffff1673ffffffffffffffffffffffffffffffffffffffff168473ffffffffffffffffffffffffffffffffffffffff163373ffffffffffffffffffffffffffffffffffffffff167ffcf5b3276434181e3c48bd3fe569b8939808f11e845d4b963693b9d7dbd6dd99600154604051610fc59190613e61565b60405180910390a460019150509392505050565b6000600154905090565b6008602052806000526040600020600091509050806000015490806001018054600181600116156101000203166002900480601f0160208091040260200160405190810160405280929190818152602001828054600181600116156101000203166002900480156110955780601f1061106a57610100808354040283529160200191611095565b820191906000526020600020905b81548152906001019060200180831161107857829003601f168201915b5050505050908060030160009054906101000a900460ff16905083565b6000600a60000160009054906101000a900473ffffffffffffffffffffffffffffffffffffffff1673ffffffffffffffffffffffffffffffffffffffff168273ffffffffffffffffffffffffffffffffffffffff16149050919050565b6000600760009054906101000a900460ff16905090565b61112e610928565b73ffffffffffffffffffffffffffffffffffffffff163373ffffffffffffffffffffffffffffffffffffffff161461116557600080fd5b61116e81612a00565b50565b6111b0336040518060400160405280600581526020017f41646d696e000000000000000000000000000000000000000000000000000000815250610726565b6111b957600080fd5b6040516020016111c890613ae8565b60405160208183030381529060405280519060200120816040516020016111ef9190613ad1565b60405160208183030381529060405280519060200120141561121e57611214336110b2565b61121d57600080fd5b5b6112348282600a612a0a9092919063ffffffff16565b5050565b6000611279336040518060400160405280600681526020017f4d696e7465720000000000000000000000000000000000000000000000000000815250610726565b61128257600080fd5b61128c8383612ad4565b6001905092915050565b60006112a23383612c26565b60019050919050565b6112ea336040518060400160405280600581526020017f41646d696e000000000000000000000000000000000000000000000000000000815250610726565b6112f357600080fd5b60405160200161130290613ae8565b60405160208183030381529060405280519060200120816040516020016113299190613ad1565b6040516020818303038152906040528051906020012014156113585761134e336110b2565b61135757600080fd5b5b61136e8282600a612dc39092919063ffffffff16565b5050565b6060600860008380519060200120815260200190815260200160002060020180548060200260200160405190810160405280929190818152602001828054801561141157602002820191906000526020600020905b8160009054906101000a900473ffffffffffffffffffffffffffffffffffffffff1673ffffffffffffffffffffffffffffffffffffffff16815260200190600101908083116113c7575b50505050509050919050565b60008060008373ffffffffffffffffffffffffffffffffffffffff1673ffffffffffffffffffffffffffffffffffffffff168152602001908152602001600020549050919050565b61146e336110b2565b61147757600080fd5b80600a60000160006101000a81548173ffffffffffffffffffffffffffffffffffffffff021916908373ffffffffffffffffffffffffffffffffffffffff160217905550611506816040518060400160405280600681526020017f4d696e7465720000000000000000000000000000000000000000000000000000815250600a612a0a9092919063ffffffff16565b611551816040518060400160405280600581526020017f41646d696e000000000000000000000000000000000000000000000000000000815250600a612a0a9092919063ffffffff16565b61159c336040518060400160405280600681526020017f4d696e7465720000000000000000000000000000000000000000000000000000815250600a612dc39092919063ffffffff16565b6115e7336040518060400160405280600581526020017f41646d696e000000000000000000000000000000000000000000000000000000815250600a612dc39092919063ffffffff16565b50565b606060068054600181600116156101000203166002900480601f0160208091040260200160405190810160405280929190818152602001828054600181600116156101000203166002900480156116825780601f1061165757610100808354040283529160200191611682565b820191906000526020600020905b81548152906001019060200180831161166557829003601f168201915b5050505050905090565b6000806116a46001548461268d90919063ffffffff16565b9050600073ffffffffffffffffffffffffffffffffffffffff168473ffffffffffffffffffffffffffffffffffffffff1614156116e057600080fd5b808311156116ed57600080fd5b6116f833858561275b565b600060015411156117d35761173233600260009054906101000a900473ffffffffffffffffffffffffffffffffffffffff1660015461275b565b600260009054906101000a900473ffffffffffffffffffffffffffffffffffffffff1673ffffffffffffffffffffffffffffffffffffffff168473ffffffffffffffffffffffffffffffffffffffff163373ffffffffffffffffffffffffffffffffffffffff167ffcf5b3276434181e3c48bd3fe569b8939808f11e845d4b963693b9d7dbd6dd996001546040516117ca9190613e61565b60405180910390a45b600191505092915050565b600860008280519060200120815260200190815260200160002060030160009054906101000a900460ff16611896573373ffffffffffffffffffffffffffffffffffffffff167f7b178bf1583b36c417d982a222dfebdf8e3c8ecff7e75e459627b176a9e8bd72826040516118539190613b8e565b60405180910390a26040517f08c379a000000000000000000000000000000000000000000000000000000000815260040161188d90613d5f565b60405180910390fd5b6000805b60086000848051906020012081526020019081526020016000206002018054905081101561197e57336040516020016118d39190613ab6565b604051602081830303815290604052805190602001206008600085805190602001208152602001908152602001600020600201828154811061191157fe5b9060005260206000200160009054906101000a900473ffffffffffffffffffffffffffffffffffffffff1660405160200161194c9190613a9b565b604051602081830303815290604052805190602001201415611971576001915061197e565b808060010191505061189a565b5080611a51576008600083805190602001208152602001908152602001600020600201339080600181540180825580915050600190039060005260206000200160009091909190916101000a81548173ffffffffffffffffffffffffffffffffffffffff021916908373ffffffffffffffffffffffffffffffffffffffff1602179055503373ffffffffffffffffffffffffffffffffffffffff167f7b178bf1583b36c417d982a222dfebdf8e3c8ecff7e75e459627b176a9e8bd7283604051611a489190613c62565b60405180910390a25b3373ffffffffffffffffffffffffffffffffffffffff167f7b178bf1583b36c417d982a222dfebdf8e3c8ecff7e75e459627b176a9e8bd7283604051611a979190613c2d565b60405180910390a25050565b600360003373ffffffffffffffffffffffffffffffffffffffff1673ffffffffffffffffffffffffffffffffffffffff16815260200190815260200160002060003073ffffffffffffffffffffffffffffffffffffffff1673ffffffffffffffffffffffffffffffffffffffff16815260200190815260200160002054841115611b62576040517f08c379a0000000000000000000000000000000000000000000000000000000008152600401611b5990613dbf565b60405180910390fd5b600985604051611b729190613ad1565b908152602001604051809103902060050160019054906101000a900460ff16611d6357611ba033308661275b565b611c2f84600360003373ffffffffffffffffffffffffffffffffffffffff1673ffffffffffffffffffffffffffffffffffffffff16815260200190815260200160002060003073ffffffffffffffffffffffffffffffffffffffff1673ffffffffffffffffffffffffffffffffffffffff168152602001908152602001600020546129e090919063ffffffff16565b506040518060e001604052808681526020013373ffffffffffffffffffffffffffffffffffffffff16815260200184815260200183815260200182815260200160011515815260200160011515815250600986604051611c8f9190613ad1565b90815260200160405180910390206000820151816000019080519060200190611cb9929190612f96565b5060208201518160010160006101000a81548173ffffffffffffffffffffffffffffffffffffffff021916908373ffffffffffffffffffffffffffffffffffffffff16021790555060408201518160020155606082015181600301556080820151816004015560a08201518160050160006101000a81548160ff02191690831515021790555060c08201518160050160016101000a81548160ff0219169083151502179055509050505b3373ffffffffffffffffffffffffffffffffffffffff167f5c04f4c64423af25dc8dc6bd45d037a95fe962bb56e5ca1b993600448846f07f8685604051611dab929190613d2f565b60405180910390a25050505050565b6000611dfb336040518060400160405280600581526020017f41646d696e000000000000000000000000000000000000000000000000000000815250610726565b611e0457600080fd5b600073ffffffffffffffffffffffffffffffffffffffff168373ffffffffffffffffffffffffffffffffffffffff161415611e3e57600080fd5b600984604051611e4e9190613ad1565b908152602001604051809103902060030154821115611e6c57600080fd5b611ea082600986604051611e809190613ad1565b9081526020016040518091039020600301546129e090919063ffffffff16565b600985604051611eb09190613ad1565b908152602001604051809103902060030181905550611f1130600986604051611ed99190613ad1565b908152602001604051809103902060010160009054906101000a900473ffffffffffffffffffffffffffffffffffffffff168461275b565b600190509392505050565b6000600360008473ffffffffffffffffffffffffffffffffffffffff1673ffffffffffffffffffffffffffffffffffffffff16815260200190815260200160002060008373ffffffffffffffffffffffffffffffffffffffff1673ffffffffffffffffffffffffffffffffffffffff16815260200190815260200160002054905092915050565b611fab613016565b600982604051611fbb9190613ad1565b90815260200160405180910390206040518060e0016040529081600082018054600181600116156101000203166002900480601f01602080910402602001604051908101604052809291908181526020018280546001816001161561010002031660029004801561206d5780601f106120425761010080835404028352916020019161206d565b820191906000526020600020905b81548152906001019060200180831161205057829003601f168201915b505050505081526020016001820160009054906101000a900473ffffffffffffffffffffffffffffffffffffffff1673ffffffffffffffffffffffffffffffffffffffff1673ffffffffffffffffffffffffffffffffffffffff1681526020016002820154815260200160038201548152602001600482015481526020016005820160009054906101000a900460ff161515151581526020016005820160019054906101000a900460ff1615151515815250509050919050565b612130336110b2565b1580156121795750612177336040518060400160405280600581526020017f41646d696e000000000000000000000000000000000000000000000000000000815250610726565b155b80156121c157506121bf336040518060400160405280600681526020017f4d696e7465720000000000000000000000000000000000000000000000000000815250610726565b155b6121ca57600080fd5b6009816040516121da9190613ad1565b908152602001604051809103902060050160019054906101000a900460ff16612238576040517f08c379a000000000000000000000000000000000000000000000000000000000815260040161222f90613d7f565b60405180910390fd5b6009816040516122489190613ad1565b908152602001604051809103902060050160009054906101000a900460ff166122a6576040517f08c379a000000000000000000000000000000000000000000000000000000000815260040161229d90613e1f565b60405180910390fd5b3373ffffffffffffffffffffffffffffffffffffffff166009826040516122cd9190613ad1565b908152602001604051809103902060010160009054906101000a900473ffffffffffffffffffffffffffffffffffffffff1673ffffffffffffffffffffffffffffffffffffffff161461231f57600080fd5b6123be6009826040516123329190613ad1565b908152602001604051809103902060010160009054906101000a900473ffffffffffffffffffffffffffffffffffffffff166123b96009846040516123779190613ad1565b9081526020016040518091039020600401546009856040516123999190613ad1565b9081526020016040518091039020600201546129e090919063ffffffff16565b61168c565b5060006009826040516123d19190613ad1565b908152602001604051809103902060050160006101000a81548160ff021916908315150217905550600060098260405161240b9190613ad1565b90815260200160405180910390206003018190555050565b612462336040518060400160405280600581526020017f41646d696e000000000000000000000000000000000000000000000000000000815250610726565b61246b57600080fd5b60098260405161247b9190613ad1565b908152602001604051809103902060050160019054906101000a900460ff166124d9576040517f08c379a00000000000000000000000000000000000000000000000000000000081526004016124d090613d7f565b60405180910390fd5b6009826040516124e99190613ad1565b908152602001604051809103902060050160009054906101000a900460ff16612547576040517f08c379a000000000000000000000000000000000000000000000000000000000815260040161253e90613e1f565b60405180910390fd5b806009836040516125589190613ad1565b908152602001604051809103902060030154116125aa576040517f08c379a00000000000000000000000000000000000000000000000000000000081526004016125a190613d9f565b60405180910390fd5b6125f56009836040516125bd9190613ad1565b908152602001604051809103902060010160009054906101000a900473ffffffffffffffffffffffffffffffffffffffff168261168c565b5060006009836040516126089190613ad1565b908152602001604051809103902060050160006101000a81548160ff021916908315150217905550612664816009846040516126449190613ad1565b9081526020016040518091039020600301546129e090919063ffffffff16565b6009836040516126749190613ad1565b9081526020016040518091039020600301819055505050565b6000808284019050838110156126a257600080fd5b8091505092915050565b60008073ffffffffffffffffffffffffffffffffffffffff168373ffffffffffffffffffffffffffffffffffffffff1614156126e757600080fd5b83600101826040516126f99190613ad1565b908152602001604051809103902060008473ffffffffffffffffffffffffffffffffffffffff1673ffffffffffffffffffffffffffffffffffffffff16815260200190815260200160002060009054906101000a900460ff1690509392505050565b6000808473ffffffffffffffffffffffffffffffffffffffff1673ffffffffffffffffffffffffffffffffffffffff168152602001908152602001600020548111156127dc576040517f08c379a00000000000000000000000000000000000000000000000000000000081526004016127d390613dbf565b60405180910390fd5b600073ffffffffffffffffffffffffffffffffffffffff168273ffffffffffffffffffffffffffffffffffffffff16141561281657600080fd5b612867816000808673ffffffffffffffffffffffffffffffffffffffff1673ffffffffffffffffffffffffffffffffffffffff168152602001908152602001600020546129e090919063ffffffff16565b6000808573ffffffffffffffffffffffffffffffffffffffff1673ffffffffffffffffffffffffffffffffffffffff168152602001908152602001600020819055506128fa816000808573ffffffffffffffffffffffffffffffffffffffff1673ffffffffffffffffffffffffffffffffffffffff1681526020019081526020016000205461268d90919063ffffffff16565b6000808473ffffffffffffffffffffffffffffffffffffffff1673ffffffffffffffffffffffffffffffffffffffff168152602001908152602001600020819055508173ffffffffffffffffffffffffffffffffffffffff168373ffffffffffffffffffffffffffffffffffffffff167fddf252ad1be2c89b69c2b068fc378daa952ba7f163c4a11628f55a4df523b3ef836040516129999190613e61565b60405180910390a3505050565b6000808314156129b957600090506129da565b60008284029050828482816129ca57fe5b04146129d557600080fd5b809150505b92915050565b6000828211156129ef57600080fd5b600082840390508091505092915050565b8060018190555050565b600073ffffffffffffffffffffffffffffffffffffffff168273ffffffffffffffffffffffffffffffffffffffff161415612a4457600080fd5b612a4f8383836126ac565b15612a5957600080fd5b60018360010182604051612a6d9190613ad1565b908152602001604051809103902060008473ffffffffffffffffffffffffffffffffffffffff1673ffffffffffffffffffffffffffffffffffffffff16815260200190815260200160002060006101000a81548160ff021916908315150217905550505050565b600073ffffffffffffffffffffffffffffffffffffffff168273ffffffffffffffffffffffffffffffffffffffff161415612b0e57600080fd5b612b238160045461268d90919063ffffffff16565b600481905550612b7a816000808573ffffffffffffffffffffffffffffffffffffffff1673ffffffffffffffffffffffffffffffffffffffff1681526020019081526020016000205461268d90919063ffffffff16565b6000808473ffffffffffffffffffffffffffffffffffffffff1673ffffffffffffffffffffffffffffffffffffffff168152602001908152602001600020819055508173ffffffffffffffffffffffffffffffffffffffff16600073ffffffffffffffffffffffffffffffffffffffff167fddf252ad1be2c89b69c2b068fc378daa952ba7f163c4a11628f55a4df523b3ef83604051612c1a9190613e61565b60405180910390a35050565b600073ffffffffffffffffffffffffffffffffffffffff168273ffffffffffffffffffffffffffffffffffffffff161415612c6057600080fd5b6000808373ffffffffffffffffffffffffffffffffffffffff1673ffffffffffffffffffffffffffffffffffffffff16815260200190815260200160002054811115612cab57600080fd5b612cc0816004546129e090919063ffffffff16565b600481905550612d17816000808573ffffffffffffffffffffffffffffffffffffffff1673ffffffffffffffffffffffffffffffffffffffff168152602001908152602001600020546129e090919063ffffffff16565b6000808473ffffffffffffffffffffffffffffffffffffffff1673ffffffffffffffffffffffffffffffffffffffff16815260200190815260200160002081905550600073ffffffffffffffffffffffffffffffffffffffff168273ffffffffffffffffffffffffffffffffffffffff167fddf252ad1be2c89b69c2b068fc378daa952ba7f163c4a11628f55a4df523b3ef83604051612db79190613e61565b60405180910390a35050565b600073ffffffffffffffffffffffffffffffffffffffff168273ffffffffffffffffffffffffffffffffffffffff161415612dfd57600080fd5b612e088383836126ac565b612e1157600080fd5b60008360010182604051612e259190613ad1565b908152602001604051809103902060008473ffffffffffffffffffffffffffffffffffffffff1673ffffffffffffffffffffffffffffffffffffffff16815260200190815260200160002060006101000a81548160ff021916908315150217905550505050565b828054600181600116156101000203166002900490600052602060002090601f016020900481019282601f10612ecd57805160ff1916838001178555612efb565b82800160010185558215612efb579182015b82811115612efa578251825591602001919060010190612edf565b5b509050612f08919061306d565b5090565b828054828255906000526020600020908101928215612f85579160200282015b82811115612f845782518260006101000a81548173ffffffffffffffffffffffffffffffffffffffff021916908373ffffffffffffffffffffffffffffffffffffffff16021790555091602001919060010190612f2c565b5b509050612f92919061308a565b5090565b828054600181600116156101000203166002900490600052602060002090601f016020900481019282601f10612fd757805160ff1916838001178555613005565b82800160010185558215613005579182015b82811115613004578251825591602001919060010190612fe9565b5b509050613012919061306d565b5090565b6040518060e0016040528060608152602001600073ffffffffffffffffffffffffffffffffffffffff1681526020016000815260200160008152602001600081526020016000151581526020016000151581525090565b5b8082111561308657600081600090555060010161306e565b5090565b5b808211156130c157600081816101000a81549073ffffffffffffffffffffffffffffffffffffffff02191690555060010161308b565b5090565b6000813590506130d48161410f565b92915050565b6000813590506130e981614126565b92915050565b600082601f83011261310057600080fd5b813561311361310e82613f02565b613ed5565b9150808252602083016020830185838301111561312f57600080fd5b61313a838284614063565b50505092915050565b600082601f83011261315457600080fd5b813561316761316282613f2e565b613ed5565b9150808252602083016020830185838301111561318357600080fd5b61318e838284614063565b50505092915050565b6000813590506131a68161413d565b92915050565b6000602082840312156131be57600080fd5b60006131cc848285016130c5565b91505092915050565b600080604083850312156131e857600080fd5b60006131f6858286016130c5565b9250506020613207858286016130c5565b9150509250929050565b60008060006060848603121561322657600080fd5b6000613234868287016130c5565b9350506020613245868287016130c5565b925050604061325686828701613197565b9150509250925092565b6000806040838503121561327357600080fd5b6000613281858286016130c5565b925050602083013567ffffffffffffffff81111561329e57600080fd5b6132aa85828601613143565b9150509250929050565b600080604083850312156132c757600080fd5b60006132d5858286016130c5565b92505060206132e685828601613197565b9150509250929050565b60006020828403121561330257600080fd5b6000613310848285016130da565b91505092915050565b60006020828403121561332b57600080fd5b600082013567ffffffffffffffff81111561334557600080fd5b613351848285016130ef565b91505092915050565b60006020828403121561336c57600080fd5b600082013567ffffffffffffffff81111561338657600080fd5b61339284828501613143565b91505092915050565b6000806000606084860312156133b057600080fd5b600084013567ffffffffffffffff8111156133ca57600080fd5b6133d686828701613143565b93505060206133e7868287016130c5565b92505060406133f886828701613197565b9150509250925092565b6000806040838503121561341557600080fd5b600083013567ffffffffffffffff81111561342f57600080fd5b61343b85828601613143565b925050602061344c85828601613197565b9150509250929050565b600080600080600060a0868803121561346e57600080fd5b600086013567ffffffffffffffff81111561348857600080fd5b61349488828901613143565b95505060206134a588828901613197565b94505060406134b688828901613197565b93505060606134c788828901613197565b92505060806134d888828901613197565b9150509295509295909350565b6000602082840312156134f757600080fd5b600061350584828501613197565b91505092915050565b600061351a838361353d565b60208301905092915050565b61353761353282614004565b6140b7565b82525050565b61354681613ff2565b82525050565b61355581613ff2565b82525050565b61356c61356782613ff2565b6140a5565b82525050565b600061357d82613f6a565b6135878185613f98565b935061359283613f5a565b8060005b838110156135c35781516135aa888261350e565b97506135b583613f8b565b925050600181019050613596565b5085935050505092915050565b6135d981614016565b82525050565b6135e881614016565b82525050565b60006135f982613f75565b6136038185613fa9565b9350613613818560208601614072565b61361c816140e5565b840191505092915050565b600061363282613f75565b61363c8185613fba565b935061364c818560208601614072565b80840191505092915050565b600061366382613f80565b61366d8185613fc5565b935061367d818560208601614072565b613686816140e5565b840191505092915050565b600061369c82613f80565b6136a68185613fd6565b93506136b6818560208601614072565b6136bf816140e5565b840191505092915050565b60006136d582613f80565b6136df8185613fe7565b93506136ef818560208601614072565b80840191505092915050565b6000613708601583613fd6565b91507f446f63756d656e74206973206e6f7420457869737400000000000000000000006000830152602082019050919050565b6000613748600e83613fd6565b91507f446f63756d656e742041646465640000000000000000000000000000000000006000830152602082019050919050565b6000613788601583613fd6565b91507f43616d706169676e206973206e6f7420457869737400000000000000000000006000830152602082019050919050565b60006137c8601183613fd6565b91507f5265647564616e742069732077726f6e670000000000000000000000000000006000830152602082019050919050565b6000613808600683613fe7565b91507f4d696e74657200000000000000000000000000000000000000000000000000006000830152600682019050919050565b6000613848601083613fd6565b91507f4e6f7420456e6f756768204d6f6e6579000000000000000000000000000000006000830152602082019050919050565b6000613888601783613fd6565b91507f5472616e7366657220546f206e6f74206265206e756c6c0000000000000000006000830152602082019050919050565b60006138c8601183613fd6565b91507f446f63756d656e742069732045786973740000000000000000000000000000006000830152602082019050919050565b6000613908601783613fd6565b91507f446f63756d656e7420616c7265616479205369676e65640000000000000000006000830152602082019050919050565b6000613948600f83613fd6565b91507f446f63756d656e74205369676e656400000000000000000000000000000000006000830152602082019050919050565b6000613988601683613fd6565b91507f43616d706169676e206973206e6f7420416374697665000000000000000000006000830152602082019050919050565b600060e08301600083015184820360008601526139d88282613658565b91505060208301516139ed602086018261353d565b506040830151613a006040860182613a57565b506060830151613a136060860182613a57565b506080830151613a266080860182613a57565b5060a0830151613a3960a08601826135d0565b5060c0830151613a4c60c08601826135d0565b508091505092915050565b613a608161404c565b82525050565b613a6f8161404c565b82525050565b613a86613a818261404c565b6140db565b82525050565b613a9581614056565b82525050565b6000613aa7828461355b565b60148201915081905092915050565b6000613ac28284613526565b60148201915081905092915050565b6000613add82846136ca565b915081905092915050565b6000613af3826137fb565b9150819050919050565b6000613b098286613a75565b602082019150613b198285613627565b9150613b258284613526565b601482019150819050949350505050565b6000602082019050613b4b600083018461354c565b92915050565b60006020820190508181036000830152613b6b8184613572565b905092915050565b6000602082019050613b8860008301846135df565b92915050565b60006040820190508181036000830152613ba881846135ee565b90508181036020830152613bbb816136fb565b905092915050565b60006040820190508181036000830152613bdd81846135ee565b90508181036020830152613bf08161373b565b905092915050565b60006040820190508181036000830152613c1281846135ee565b90508181036020830152613c25816138bb565b905092915050565b60006040820190508181036000830152613c4781846135ee565b90508181036020830152613c5a816138fb565b905092915050565b60006040820190508181036000830152613c7c81846135ee565b90508181036020830152613c8f8161393b565b905092915050565b60006020820190508181036000830152613cb18184613691565b905092915050565b600060e0820190508181036000830152613cd3818a613691565b9050613ce2602083018961354c565b613cef6040830188613a66565b613cfc6060830187613a66565b613d096080830186613a66565b613d1660a08301856135df565b613d2360c08301846135df565b98975050505050505050565b60006040820190508181036000830152613d498185613691565b9050613d586020830184613a66565b9392505050565b60006020820190508181036000830152613d78816136fb565b9050919050565b60006020820190508181036000830152613d988161377b565b9050919050565b60006020820190508181036000830152613db8816137bb565b9050919050565b60006020820190508181036000830152613dd88161383b565b9050919050565b60006020820190508181036000830152613df88161387b565b9050919050565b60006020820190508181036000830152613e18816138bb565b9050919050565b60006020820190508181036000830152613e388161397b565b9050919050565b60006020820190508181036000830152613e5981846139bb565b905092915050565b6000602082019050613e766000830184613a66565b92915050565b6000606082019050613e916000830186613a66565b8181036020830152613ea381856135ee565b9050613eb260408301846135df565b949350505050565b6000602082019050613ecf6000830184613a8c565b92915050565b6000604051905081810181811067ffffffffffffffff82111715613ef857600080fd5b8060405250919050565b600067ffffffffffffffff821115613f1957600080fd5b601f19601f8301169050602081019050919050565b600067ffffffffffffffff821115613f4557600080fd5b601f19601f8301169050602081019050919050565b6000819050602082019050919050565b600081519050919050565b600081519050919050565b600081519050919050565b6000602082019050919050565b600082825260208201905092915050565b600082825260208201905092915050565b600081905092915050565b600082825260208201905092915050565b600082825260208201905092915050565b600081905092915050565b6000613ffd8261402c565b9050919050565b600061400f8261402c565b9050919050565b60008115159050919050565b6000819050919050565b600073ffffffffffffffffffffffffffffffffffffffff82169050919050565b6000819050919050565b600060ff82169050919050565b82818337600083830152505050565b60005b83811015614090578082015181840152602081019050614075565b8381111561409f576000848401525b50505050565b60006140b0826140c9565b9050919050565b60006140c2826140c9565b9050919050565b60006140d4826140f6565b9050919050565b6000819050919050565b6000601f19601f8301169050919050565b60006c0100000000000000000000000082029050919050565b61411881613ff2565b811461412357600080fd5b50565b61412f81614022565b811461413a57600080fd5b50565b6141468161404c565b811461415157600080fd5b5056fea2646970667358221220eadf12c49f627e75ea5475302281c45fd3c3eb86f6aee83114be761e7444906364736f6c63430007000033",
  "immutableReferences": {},
  "source": "// SPDX-License-Identifier: MIT\r\npragma experimental ABIEncoderV2;\r\npragma solidity >=0.7.0 <0.8.0;\r\nimport \"./TRC21.sol\";\r\nimport \"./SignDocument.sol\";\r\nimport './SafeMath.sol';\r\nimport './Ownable.sol';\r\nimport './CampaignDetail.sol';\r\n\r\ncontract Support is MyTRC21Mintable(\"Adverising2\",\"LBA2\", 0, uint256(0) * uint256(10)**18, 1 * uint256(10)**18), SignDocument, CampaignDetail, AccessControl{\r\n    using SafeMath for uint;\r\n\r\n    /* BEGIN: Document function*/\r\n    function addDocument(bytes memory id) public {\r\n        if(documents[keccak256(id)].isExist){\r\n            emit Add(id, msg.sender, \"Document is Exist\");\r\n            revert(\"Document is Exist\");\r\n        } \r\n        address[] memory sender = new address[](0);\r\n        documents[keccak256(id)] = Document(block.timestamp, abi.encodePacked(block.timestamp, id, msg.sender), sender, true);\r\n        emit Add(id, msg.sender, \"Document Added\");\r\n    }\r\n\r\n    function signDocument(bytes memory id) public {\r\n        if(!documents[keccak256(id)].isExist){\r\n            emit Sign(id, msg.sender, \"Document is not Exist\"); \r\n            revert(\"Document is not Exist\");\r\n        }\r\n        bool checkDulicate = false;\r\n        for(uint i = 0; i < documents[keccak256(id)].signatures.length; i++){\r\n            if(keccak256(abi.encodePacked(documents[keccak256(id)].signatures[i])) == keccak256(abi.encodePacked(msg.sender))){\r\n                checkDulicate = true;\r\n                break;\r\n            }\r\n        }\r\n        if(!checkDulicate){\r\n            documents[keccak256(id)].signatures.push(msg.sender);\r\n            emit Sign(id, msg.sender, \"Document Signed\");\r\n        }\r\n        emit Sign(id, msg.sender, \"Document already Signed\");\r\n    }\r\n    \r\n    function getSignatures(bytes memory id) public view returns (address[] memory) {\r\n        return documents[keccak256(id)].signatures;\r\n    }\r\n\r\n    // function checkAdminSigned(bytes memory id) public view returns (bool) {\r\n    //     for(uint i = 0; i < documents[keccak256(id)].signatures.length; i++){\r\n    //         if(isRole(documents[keccak256(id)].signatures[i], \"Admin\")){\r\n    //             return true;\r\n    //         }\r\n    //     }\r\n    //     return false;\r\n    // }\r\n    /*END: Document function*/\r\n\r\n    /*BEGIN: Campaign Detail */\r\n    function createCampaign (string memory campaignId, uint totalWithFee, uint totalBudget, uint remainBudget, uint feeCancel) public{\r\n        //check money amount\r\n        require(totalWithFee <= _allowed[msg.sender][address(this)],\"Not Enough Money\");\r\n        //check campaign\r\n        if(!campaigns[campaignId].isExist){\r\n            //send money to server wallet\r\n            _transfer(msg.sender, address(this), totalWithFee);\r\n            _allowed[msg.sender][address(this)].sub(totalWithFee);\r\n            //create campaign\r\n            campaigns[campaignId] = Campaign(campaignId, msg.sender, totalBudget, remainBudget, feeCancel, true, true);\r\n        }\r\n        emit CreateCampaign(msg.sender, campaignId, totalBudget);\r\n    }\r\n\r\n    function checkOutCampaign(string memory campaignId, uint redudant) public onlyAdmin{\r\n        require(campaigns[campaignId].isExist,\"Campaign is not Exist\");\r\n        require(campaigns[campaignId].isActive,\"Campaign is not Active\");\r\n        require(campaigns[campaignId].remainBudget > redudant, \"Redudant is wrong\");\r\n\r\n        transfer(campaigns[campaignId].advertiser, redudant);\r\n        campaigns[campaignId].isActive = false;\r\n        campaigns[campaignId].remainBudget = campaigns[campaignId].remainBudget.sub(redudant);\r\n    }\r\n\r\n    function payToSupplier(string memory campaignId, address supplier, uint256 value) public onlyAdmin returns (bool) {\r\n        require(supplier != address(0));\r\n        require(value <= campaigns[campaignId].remainBudget);\r\n\r\n        campaigns[campaignId].remainBudget = campaigns[campaignId].remainBudget.sub(value);\r\n        _transfer(address(this), campaigns[campaignId].advertiser, value);\r\n        return true;\r\n    }\r\n\r\n    function cancelCampaign(string memory campaignId) public onlyUser{\r\n        require(campaigns[campaignId].isExist,\"Campaign is not Exist\");\r\n        require(campaigns[campaignId].isActive,\"Campaign is not Active\");\r\n        require(campaigns[campaignId].advertiser == msg.sender);\r\n\r\n        transfer(campaigns[campaignId].advertiser, \r\n                            campaigns[campaignId].totalBudget.sub(campaigns[campaignId].feeCancel));\r\n\r\n        \r\n        campaigns[campaignId].isActive = false;\r\n        campaigns[campaignId].remainBudget = 0;\r\n    }\r\n\r\n    function getCampaignById(string memory campaignId) public view returns (Campaign memory){\r\n        return campaigns[campaignId];\r\n    }\r\n    /*END: Campaign Detail */\r\n\r\n    /*START: MyTRC21Mintable */\r\n    /**\r\n\t * @dev Function to mint tokens\r\n\t * @param to The address that will receive the minted tokens.\r\n\t * @param value The amount of tokens to mint.\r\n\t * @return A boolean that indicates if the operation was successful.\r\n\t */\r\n\tfunction mint(\r\n\t\taddress to,\r\n\t\tuint256 value\r\n\t)\r\n\tpublic\r\n\tonlyMinter\r\n\treturns (bool)\r\n\t{\r\n\t\t_mint(to, value);\r\n\t\treturn true;\r\n\t}\r\n    /*END: MyTRC21Mintable */\r\n}",
  "sourcePath": "D:/CN9/Capstone/LBAContract.github.io/contracts/Support.sol",
  "compiler": {
    "name": "solc",
    "version": "0.7.0+commit.9e61f92b.Emscripten.clang"
  },
  "schemaVersion": "3.3.3",
  "updatedAt": "2021-03-11T02:47:47.822Z",
  "devdoc": {
    "kind": "dev",
    "methods": {
      "allowance(address,address)": {
        "details": "Function to check the amount of tokens that an owner allowed to a spender.",
        "params": {
          "owner": "address The address which owns the funds.",
          "spender": "address The address which will spend the funds."
        },
        "returns": {
          "_0": "A uint256 specifying the amount of tokens still available for the spender."
        }
      },
      "approve(address,uint256)": {
        "details": "Approve the passed address to spend the specified amount of tokens on behalf of msg.sender. Beware that changing an allowance with this method brings the risk that someone may use both the old and the new allowance by unfortunate transaction ordering. One possible solution to mitigate this race condition is to first reduce the spender's allowance to 0 and set the desired value afterwards: https://github.com/ethereum/EIPs/issues/20#issuecomment-263524729",
        "params": {
          "spender": "The address which will spend the funds.",
          "value": "The amount of tokens to be spent."
        }
      },
      "balanceOf(address)": {
        "details": "Gets the balance of the specified address.",
        "params": {
          "owner": "The address to query the balance of."
        },
        "returns": {
          "_0": "An uint256 representing the amount owned by the passed address."
        }
      },
      "burn(uint256)": {
        "details": "Function to burn tokens",
        "params": {
          "value": "The amount of tokens to mint."
        },
        "returns": {
          "_0": "A boolean that indicates if the operation was successful."
        }
      },
      "decimals()": {
        "returns": {
          "_0": "the number of decimals of the token."
        }
      },
      "estimateFee(uint256)": {
        "details": "Estimate transaction fee.",
        "params": {
          "value": "amount tokens sent"
        }
      },
      "issuer()": {
        "details": "token's foundation"
      },
      "minFee()": {
        "details": "The amount fee that will be lost when transferring."
      },
      "mint(address,uint256)": {
        "details": "Function to mint tokens",
        "params": {
          "to": "The address that will receive the minted tokens.",
          "value": "The amount of tokens to mint."
        },
        "returns": {
          "_0": "A boolean that indicates if the operation was successful."
        }
      },
      "name()": {
        "returns": {
          "_0": "the name of the token."
        }
      },
      "symbol()": {
        "returns": {
          "_0": "the symbol of the token."
        }
      },
      "totalSupply()": {
        "details": "Total number of tokens in existence"
      },
      "transfer(address,uint256)": {
        "details": "Transfer token for a specified address",
        "params": {
          "to": "The address to transfer to.",
          "value": "The amount to be transferred."
        }
      },
      "transferFrom(address,address,uint256)": {
        "details": "Transfer tokens from one address to another",
        "params": {
          "from": "address The address which you want to send tokens from",
          "to": "address The address which you want to transfer to",
          "value": "uint256 the amount of tokens to be transferred"
        }
      }
    },
    "version": 1
  },
  "userdoc": {
    "kind": "user",
    "methods": {},
    "version": 1
  }
}