{
  "contractName": "Support",
  "abi": [
    {
      "anonymous": false,
      "inputs": [
        {
          "indexed": false,
          "internalType": "bytes",
          "name": "id",
          "type": "bytes"
        },
        {
          "indexed": true,
          "internalType": "address",
          "name": "from",
          "type": "address"
        },
        {
          "indexed": false,
          "internalType": "string",
          "name": "comment",
          "type": "string"
        }
      ],
      "name": "Add",
      "type": "event"
    },
    {
      "anonymous": false,
      "inputs": [
        {
          "indexed": true,
          "internalType": "address",
          "name": "owner",
          "type": "address"
        },
        {
          "indexed": true,
          "internalType": "address",
          "name": "spender",
          "type": "address"
        },
        {
          "indexed": false,
          "internalType": "uint256",
          "name": "value",
          "type": "uint256"
        }
      ],
      "name": "Approval",
      "type": "event"
    },
    {
      "anonymous": false,
      "inputs": [
        {
          "indexed": true,
          "internalType": "address",
          "name": "owner",
          "type": "address"
        },
        {
          "indexed": false,
          "internalType": "string",
          "name": "campaignId",
          "type": "string"
        },
        {
          "indexed": false,
          "internalType": "uint256",
          "name": "value",
          "type": "uint256"
        }
      ],
      "name": "AuthorityCampaign",
      "type": "event"
    },
    {
      "anonymous": false,
      "inputs": [
        {
          "indexed": true,
          "internalType": "address",
          "name": "owner",
          "type": "address"
        },
        {
          "indexed": false,
          "internalType": "string",
          "name": "campaignId",
          "type": "string"
        },
        {
          "indexed": false,
          "internalType": "uint256",
          "name": "value",
          "type": "uint256"
        }
      ],
      "name": "CreateCampaign",
      "type": "event"
    },
    {
      "anonymous": false,
      "inputs": [
        {
          "indexed": false,
          "internalType": "bytes",
          "name": "id",
          "type": "bytes"
        },
        {
          "indexed": true,
          "internalType": "address",
          "name": "from",
          "type": "address"
        },
        {
          "indexed": false,
          "internalType": "string",
          "name": "comment",
          "type": "string"
        }
      ],
      "name": "Delete",
      "type": "event"
    },
    {
      "anonymous": false,
      "inputs": [
        {
          "indexed": true,
          "internalType": "address",
          "name": "from",
          "type": "address"
        },
        {
          "indexed": true,
          "internalType": "address",
          "name": "to",
          "type": "address"
        },
        {
          "indexed": true,
          "internalType": "address",
          "name": "issuer",
          "type": "address"
        },
        {
          "indexed": false,
          "internalType": "uint256",
          "name": "value",
          "type": "uint256"
        }
      ],
      "name": "Fee",
      "type": "event"
    },
    {
      "anonymous": false,
      "inputs": [
        {
          "indexed": false,
          "internalType": "bytes",
          "name": "id",
          "type": "bytes"
        },
        {
          "indexed": true,
          "internalType": "address",
          "name": "from",
          "type": "address"
        },
        {
          "indexed": false,
          "internalType": "string",
          "name": "comment",
          "type": "string"
        }
      ],
      "name": "Sign",
      "type": "event"
    },
    {
      "anonymous": false,
      "inputs": [
        {
          "indexed": true,
          "internalType": "address",
          "name": "from",
          "type": "address"
        },
        {
          "indexed": true,
          "internalType": "address",
          "name": "to",
          "type": "address"
        },
        {
          "indexed": false,
          "internalType": "uint256",
          "name": "value",
          "type": "uint256"
        }
      ],
      "name": "Transfer",
      "type": "event"
    },
    {
      "inputs": [
        {
          "internalType": "address",
          "name": "account",
          "type": "address"
        }
      ],
      "name": "_changeOwnerRole",
      "outputs": [],
      "stateMutability": "nonpayable",
      "type": "function"
    },
    {
      "inputs": [
        {
          "internalType": "address",
          "name": "account",
          "type": "address"
        },
        {
          "internalType": "string",
          "name": "roleType",
          "type": "string"
        }
      ],
      "name": "add",
      "outputs": [],
      "stateMutability": "nonpayable",
      "type": "function"
    },
    {
      "inputs": [
        {
          "internalType": "address",
          "name": "owner",
          "type": "address"
        },
        {
          "internalType": "address",
          "name": "spender",
          "type": "address"
        }
      ],
      "name": "allowance",
      "outputs": [
        {
          "internalType": "uint256",
          "name": "",
          "type": "uint256"
        }
      ],
      "stateMutability": "view",
      "type": "function",
      "constant": true
    },
    {
      "inputs": [
        {
          "internalType": "address",
          "name": "spender",
          "type": "address"
        },
        {
          "internalType": "uint256",
          "name": "value",
          "type": "uint256"
        }
      ],
      "name": "approve",
      "outputs": [
        {
          "internalType": "bool",
          "name": "",
          "type": "bool"
        }
      ],
      "stateMutability": "nonpayable",
      "type": "function"
    },
    {
      "inputs": [
        {
          "internalType": "address",
          "name": "owner",
          "type": "address"
        }
      ],
      "name": "balanceOf",
      "outputs": [
        {
          "internalType": "uint256",
          "name": "",
          "type": "uint256"
        }
      ],
      "stateMutability": "view",
      "type": "function",
      "constant": true
    },
    {
      "inputs": [
        {
          "internalType": "uint256",
          "name": "value",
          "type": "uint256"
        }
      ],
      "name": "burn",
      "outputs": [
        {
          "internalType": "bool",
          "name": "",
          "type": "bool"
        }
      ],
      "stateMutability": "nonpayable",
      "type": "function"
    },
    {
      "inputs": [
        {
          "internalType": "string",
          "name": "",
          "type": "string"
        }
      ],
      "name": "campaigns",
      "outputs": [
        {
          "internalType": "string",
          "name": "campaignId",
          "type": "string"
        },
        {
          "internalType": "address",
          "name": "advertiser",
          "type": "address"
        },
        {
          "internalType": "uint256",
          "name": "totalBudget",
          "type": "uint256"
        },
        {
          "internalType": "uint256",
          "name": "remainBudget",
          "type": "uint256"
        },
        {
          "internalType": "uint256",
          "name": "feeCancel",
          "type": "uint256"
        },
        {
          "internalType": "bool",
          "name": "isActive",
          "type": "bool"
        },
        {
          "internalType": "bool",
          "name": "isExist",
          "type": "bool"
        }
      ],
      "stateMutability": "view",
      "type": "function",
      "constant": true
    },
    {
      "inputs": [
        {
          "internalType": "string",
          "name": "",
          "type": "string"
        },
        {
          "internalType": "string",
          "name": "",
          "type": "string"
        }
      ],
      "name": "checkPayed",
      "outputs": [
        {
          "internalType": "bool",
          "name": "",
          "type": "bool"
        }
      ],
      "stateMutability": "view",
      "type": "function",
      "constant": true
    },
    {
      "inputs": [],
      "name": "decimals",
      "outputs": [
        {
          "internalType": "uint8",
          "name": "",
          "type": "uint8"
        }
      ],
      "stateMutability": "view",
      "type": "function",
      "constant": true
    },
    {
      "inputs": [
        {
          "internalType": "bytes32",
          "name": "",
          "type": "bytes32"
        }
      ],
      "name": "documents",
      "outputs": [
        {
          "internalType": "uint256",
          "name": "timestamp",
          "type": "uint256"
        },
        {
          "internalType": "bytes",
          "name": "ipfs_hash",
          "type": "bytes"
        },
        {
          "internalType": "address",
          "name": "owner",
          "type": "address"
        },
        {
          "internalType": "bool",
          "name": "isExist",
          "type": "bool"
        }
      ],
      "stateMutability": "view",
      "type": "function",
      "constant": true
    },
    {
      "inputs": [
        {
          "internalType": "uint256",
          "name": "value",
          "type": "uint256"
        }
      ],
      "name": "estimateFee",
      "outputs": [
        {
          "internalType": "uint256",
          "name": "",
          "type": "uint256"
        }
      ],
      "stateMutability": "view",
      "type": "function",
      "constant": true
    },
    {
      "inputs": [
        {
          "internalType": "address",
          "name": "account",
          "type": "address"
        }
      ],
      "name": "isOwner",
      "outputs": [
        {
          "internalType": "bool",
          "name": "",
          "type": "bool"
        }
      ],
      "stateMutability": "view",
      "type": "function",
      "constant": true
    },
    {
      "inputs": [
        {
          "internalType": "address",
          "name": "account",
          "type": "address"
        },
        {
          "internalType": "string",
          "name": "roleType",
          "type": "string"
        }
      ],
      "name": "isRole",
      "outputs": [
        {
          "internalType": "bool",
          "name": "",
          "type": "bool"
        }
      ],
      "stateMutability": "view",
      "type": "function",
      "constant": true
    },
    {
      "inputs": [],
      "name": "issuer",
      "outputs": [
        {
          "internalType": "address",
          "name": "",
          "type": "address"
        }
      ],
      "stateMutability": "view",
      "type": "function",
      "constant": true
    },
    {
      "inputs": [],
      "name": "minFee",
      "outputs": [
        {
          "internalType": "uint256",
          "name": "",
          "type": "uint256"
        }
      ],
      "stateMutability": "view",
      "type": "function",
      "constant": true
    },
    {
      "inputs": [],
      "name": "name",
      "outputs": [
        {
          "internalType": "string",
          "name": "",
          "type": "string"
        }
      ],
      "stateMutability": "view",
      "type": "function",
      "constant": true
    },
    {
      "inputs": [
        {
          "internalType": "address",
          "name": "account",
          "type": "address"
        },
        {
          "internalType": "string",
          "name": "roleType",
          "type": "string"
        }
      ],
      "name": "remove",
      "outputs": [],
      "stateMutability": "nonpayable",
      "type": "function"
    },
    {
      "inputs": [
        {
          "internalType": "bytes",
          "name": "id",
          "type": "bytes"
        },
        {
          "internalType": "address",
          "name": "checkAddress",
          "type": "address"
        }
      ],
      "name": "removeApprove",
      "outputs": [
        {
          "internalType": "bool",
          "name": "",
          "type": "bool"
        }
      ],
      "stateMutability": "nonpayable",
      "type": "function"
    },
    {
      "inputs": [
        {
          "internalType": "bytes",
          "name": "id",
          "type": "bytes"
        },
        {
          "internalType": "address",
          "name": "checkAddress",
          "type": "address"
        }
      ],
      "name": "removeReject",
      "outputs": [
        {
          "internalType": "bool",
          "name": "",
          "type": "bool"
        }
      ],
      "stateMutability": "nonpayable",
      "type": "function"
    },
    {
      "inputs": [
        {
          "internalType": "uint256",
          "name": "value",
          "type": "uint256"
        }
      ],
      "name": "setMinFee",
      "outputs": [],
      "stateMutability": "nonpayable",
      "type": "function"
    },
    {
      "inputs": [],
      "name": "symbol",
      "outputs": [
        {
          "internalType": "string",
          "name": "",
          "type": "string"
        }
      ],
      "stateMutability": "view",
      "type": "function",
      "constant": true
    },
    {
      "inputs": [],
      "name": "totalSupply",
      "outputs": [
        {
          "internalType": "uint256",
          "name": "",
          "type": "uint256"
        }
      ],
      "stateMutability": "view",
      "type": "function",
      "constant": true
    },
    {
      "inputs": [
        {
          "internalType": "address",
          "name": "to",
          "type": "address"
        },
        {
          "internalType": "uint256",
          "name": "value",
          "type": "uint256"
        }
      ],
      "name": "transfer",
      "outputs": [
        {
          "internalType": "bool",
          "name": "",
          "type": "bool"
        }
      ],
      "stateMutability": "nonpayable",
      "type": "function"
    },
    {
      "inputs": [
        {
          "internalType": "address",
          "name": "from",
          "type": "address"
        },
        {
          "internalType": "address",
          "name": "to",
          "type": "address"
        },
        {
          "internalType": "uint256",
          "name": "value",
          "type": "uint256"
        }
      ],
      "name": "transferFrom",
      "outputs": [
        {
          "internalType": "bool",
          "name": "",
          "type": "bool"
        }
      ],
      "stateMutability": "nonpayable",
      "type": "function"
    },
    {
      "inputs": [
        {
          "internalType": "bytes",
          "name": "id",
          "type": "bytes"
        }
      ],
      "name": "addDocument",
      "outputs": [],
      "stateMutability": "nonpayable",
      "type": "function"
    },
    {
      "inputs": [
        {
          "internalType": "bytes",
          "name": "id",
          "type": "bytes"
        }
      ],
      "name": "deleteDocument",
      "outputs": [],
      "stateMutability": "nonpayable",
      "type": "function"
    },
    {
      "inputs": [
        {
          "internalType": "bytes",
          "name": "id",
          "type": "bytes"
        }
      ],
      "name": "approveDocument",
      "outputs": [],
      "stateMutability": "nonpayable",
      "type": "function"
    },
    {
      "inputs": [
        {
          "internalType": "bytes",
          "name": "id",
          "type": "bytes"
        }
      ],
      "name": "rejectDocument",
      "outputs": [],
      "stateMutability": "nonpayable",
      "type": "function"
    },
    {
      "inputs": [
        {
          "internalType": "bytes",
          "name": "id",
          "type": "bytes"
        }
      ],
      "name": "getOwnerDocument",
      "outputs": [
        {
          "internalType": "address",
          "name": "",
          "type": "address"
        }
      ],
      "stateMutability": "view",
      "type": "function",
      "constant": true
    },
    {
      "inputs": [
        {
          "internalType": "bytes",
          "name": "id",
          "type": "bytes"
        }
      ],
      "name": "getApproveDocument",
      "outputs": [
        {
          "internalType": "address[]",
          "name": "",
          "type": "address[]"
        }
      ],
      "stateMutability": "view",
      "type": "function",
      "constant": true
    },
    {
      "inputs": [
        {
          "internalType": "bytes",
          "name": "id",
          "type": "bytes"
        }
      ],
      "name": "getRejectDocument",
      "outputs": [
        {
          "internalType": "address[]",
          "name": "",
          "type": "address[]"
        }
      ],
      "stateMutability": "view",
      "type": "function",
      "constant": true
    },
    {
      "inputs": [
        {
          "internalType": "bytes",
          "name": "id",
          "type": "bytes"
        }
      ],
      "name": "checkDocumentIsApproveOrReject",
      "outputs": [
        {
          "internalType": "uint256",
          "name": "",
          "type": "uint256"
        }
      ],
      "stateMutability": "view",
      "type": "function",
      "constant": true
    },
    {
      "inputs": [
        {
          "internalType": "string",
          "name": "campaignId",
          "type": "string"
        },
        {
          "internalType": "uint256",
          "name": "totalWithFee",
          "type": "uint256"
        },
        {
          "internalType": "uint256",
          "name": "totalBudget",
          "type": "uint256"
        },
        {
          "internalType": "uint256",
          "name": "remainBudget",
          "type": "uint256"
        },
        {
          "internalType": "uint256",
          "name": "feeCancel",
          "type": "uint256"
        }
      ],
      "name": "createCampaign",
      "outputs": [],
      "stateMutability": "nonpayable",
      "type": "function"
    },
    {
      "inputs": [
        {
          "internalType": "string",
          "name": "campaignId",
          "type": "string"
        },
        {
          "internalType": "uint256",
          "name": "redudant",
          "type": "uint256"
        }
      ],
      "name": "checkOutCampaign",
      "outputs": [],
      "stateMutability": "nonpayable",
      "type": "function"
    },
    {
      "inputs": [
        {
          "internalType": "string",
          "name": "campaignId",
          "type": "string"
        },
        {
          "internalType": "string",
          "name": "paymentKey",
          "type": "string"
        },
        {
          "internalType": "address",
          "name": "supplier",
          "type": "address"
        },
        {
          "internalType": "uint256",
          "name": "value",
          "type": "uint256"
        }
      ],
      "name": "payToSupplier",
      "outputs": [
        {
          "internalType": "bool",
          "name": "",
          "type": "bool"
        }
      ],
      "stateMutability": "nonpayable",
      "type": "function"
    },
    {
      "inputs": [
        {
          "internalType": "string",
          "name": "campaignId",
          "type": "string"
        }
      ],
      "name": "cancelCampaign",
      "outputs": [],
      "stateMutability": "nonpayable",
      "type": "function"
    },
    {
      "inputs": [
        {
          "internalType": "string",
          "name": "campaignId",
          "type": "string"
        }
      ],
      "name": "getCampaignById",
      "outputs": [
        {
          "components": [
            {
              "internalType": "string",
              "name": "campaignId",
              "type": "string"
            },
            {
              "internalType": "address",
              "name": "advertiser",
              "type": "address"
            },
            {
              "internalType": "uint256",
              "name": "totalBudget",
              "type": "uint256"
            },
            {
              "internalType": "uint256",
              "name": "remainBudget",
              "type": "uint256"
            },
            {
              "internalType": "uint256",
              "name": "feeCancel",
              "type": "uint256"
            },
            {
              "internalType": "bool",
              "name": "isActive",
              "type": "bool"
            },
            {
              "internalType": "bool",
              "name": "isExist",
              "type": "bool"
            }
          ],
          "internalType": "struct CampaignDetail.Campaign",
          "name": "",
          "type": "tuple"
        }
      ],
      "stateMutability": "view",
      "type": "function",
      "constant": true
    },
    {
      "inputs": [
        {
          "internalType": "address",
          "name": "newOwner",
          "type": "address"
        }
      ],
      "name": "changeOwner",
      "outputs": [],
      "stateMutability": "nonpayable",
      "type": "function"
    },
    {
      "inputs": [
        {
          "internalType": "address",
          "name": "to",
          "type": "address"
        },
        {
          "internalType": "uint256",
          "name": "value",
          "type": "uint256"
        }
      ],
      "name": "mint",
      "outputs": [
        {
          "internalType": "bool",
          "name": "",
          "type": "bool"
        }
      ],
      "stateMutability": "nonpayable",
      "type": "function"
    }
  ],
  "bytecode": "0x60806040523480156200001157600080fd5b506040518060400160405280600681526020017f4d75436f696e00000000000000000000000000000000000000000000000000008152506040518060400160405280600381526020017f4d5554000000000000000000000000000000000000000000000000000000000081525060006012600a0a6000026012600a0a6000028460059080519060200190620000a89291906200059d565b508360069080519060200190620000c19291906200059d565b5082600760006101000a81548160ff021916908360ff160217905550620000f830836200037f640100000000026401000000009004565b6200011233620004f4640100000000026401000000009004565b6200012c8162000573640100000000026401000000009004565b505050505033600b60000160006101000a81548173ffffffffffffffffffffffffffffffffffffffff021916908373ffffffffffffffffffffffffffffffffffffffff1602179055506001600b6001016040516200018a9062000748565b908152602001604051809103902060003373ffffffffffffffffffffffffffffffffffffffff1673ffffffffffffffffffffffffffffffffffffffff16815260200190815260200160002060006101000a81548160ff0219169083151502179055506001600b60010160405162000201906200071a565b908152602001604051809103902060003373ffffffffffffffffffffffffffffffffffffffff1673ffffffffffffffffffffffffffffffffffffffff16815260200190815260200160002060006101000a81548160ff0219169083151502179055506001600b600101604051620002789062000731565b9081526020016040518091039020600073591d6d73aa1ee46202f55443ab166d8b4b1403e073ffffffffffffffffffffffffffffffffffffffff1673ffffffffffffffffffffffffffffffffffffffff16815260200190815260200160002060006101000a81548160ff0219169083151502179055506001600b60010160405162000303906200071a565b9081526020016040518091039020600073591d6d73aa1ee46202f55443ab166d8b4b1403e073ffffffffffffffffffffffffffffffffffffffff1673ffffffffffffffffffffffffffffffffffffffff16815260200190815260200160002060006101000a81548160ff02191690831515021790555062000791565b600073ffffffffffffffffffffffffffffffffffffffff168273ffffffffffffffffffffffffffffffffffffffff161415620003ba57600080fd5b620003df816004546200057d640100000000026200356b179091906401000000009004565b60048190555062000446816000808573ffffffffffffffffffffffffffffffffffffffff1673ffffffffffffffffffffffffffffffffffffffff168152602001908152602001600020546200057d640100000000026200356b179091906401000000009004565b6000808473ffffffffffffffffffffffffffffffffffffffff1673ffffffffffffffffffffffffffffffffffffffff168152602001908152602001600020819055508173ffffffffffffffffffffffffffffffffffffffff16600073ffffffffffffffffffffffffffffffffffffffff167fddf252ad1be2c89b69c2b068fc378daa952ba7f163c4a11628f55a4df523b3ef83604051620004e891906200075f565b60405180910390a35050565b600073ffffffffffffffffffffffffffffffffffffffff168173ffffffffffffffffffffffffffffffffffffffff1614156200052f57600080fd5b80600260006101000a81548173ffffffffffffffffffffffffffffffffffffffff021916908373ffffffffffffffffffffffffffffffffffffffff16021790555050565b8060018190555050565b6000808284019050838110156200059357600080fd5b8091505092915050565b828054600181600116156101000203166002900490600052602060002090601f016020900481019282601f10620005e057805160ff191683800117855562000611565b8280016001018555821562000611579182015b8281111562000610578251825591602001919060010190620005f3565b5b50905062000620919062000624565b5090565b5b808211156200063f57600081600090555060010162000625565b5090565b6000620006526006836200077c565b91507f4d696e74657200000000000000000000000000000000000000000000000000006000830152600682019050919050565b6000620006946006836200077c565b91507f53657276657200000000000000000000000000000000000000000000000000006000830152600682019050919050565b6000620006d66005836200077c565b91507f41646d696e0000000000000000000000000000000000000000000000000000006000830152600582019050919050565b620007148162000787565b82525050565b6000620007278262000643565b9150819050919050565b60006200073e8262000685565b9150819050919050565b60006200075582620006c7565b9150819050919050565b600060208201905062000776600083018462000709565b92915050565b600081905092915050565b6000819050919050565b61522980620007a16000396000f3fe608060405234801561001057600080fd5b506004361061025a576000357c01000000000000000000000000000000000000000000000000000000009004806331ac99201161015857806395d89b41116100d5578063dd62ed3e11610099578063dd62ed3e14610794578063e26034cd146107c4578063e35d66a8146107f4578063e631ce9914610810578063ebdc695d1461082c5761025a565b806395d89b41146106f2578063a6f9dae114610710578063a9059cbb1461072c578063be7e2a0b1461075c578063c79de09b146107785761025a565b806349209fc81161011c57806349209fc81461062a5780634f8eb0c81461064657806370a08231146106765780637769bc74146106a65780638f21a9a5146106c25761025a565b806331ac99201461056257806336d6da551461057e57806340c10f191461059a57806342966c68146105ca5780634340d51c146105fa5761025a565b8063219782f7116101e6578063267945ff116101aa578063267945ff146104955780632b2805db146104b15780632bae5a44146104e45780632f54bf6e14610514578063313ce567146105445761025a565b8063219782f7146103cb578063228bc0a9146103fb57806323b872dd1461041757806323e8f4bb1461044757806324ec7590146104775761025a565b80631410eafd1161022d5780631410eafd1461030d57806314c160621461033d57806318160ddd146103595780631d143848146103775780631d39e509146103955761025a565b806306fdde031461025f578063070eb1571461027d578063095ea7b3146102ad578063127e8e4d146102dd575b600080fd5b61026761085c565b6040516102749190614d48565b60405180910390f35b61029760048036038101906102929190614225565b6108fe565b6040516102a49190614c24565b60405180910390f35b6102c760048036038101906102c29190614279565b61091e565b6040516102d49190614c24565b60405180910390f35b6102f760048036038101906102f29190614596565b610ac5565b6040516103049190614ef2565b60405180910390f35b610327600480360381019061032291906142de565b610af6565b6040516103349190614ef2565b60405180910390f35b610357600480360381019061035291906142de565b610d1b565b005b610361610fa3565b60405161036e9190614ef2565b60405180910390f35b61037f610fad565b60405161038c9190614be7565b60405180910390f35b6103af60048036038101906103aa9190614373565b610fd7565b6040516103c29796959493929190614d6a565b60405180910390f35b6103e560048036038101906103e09190614420565b611101565b6040516103f29190614c24565b60405180910390f35b610415600480360381019061041091906142de565b6112c8565b005b610431600480360381019061042c91906141d6565b6115f9565b60405161043e9190614c24565b60405180910390f35b610461600480360381019061045c91906143b4565b611937565b60405161046e9190614c24565b60405180910390f35b61047f611992565b60405161048c9190614ef2565b60405180910390f35b6104af60048036038101906104aa9190614171565b61199c565b005b6104cb60048036038101906104c691906142b5565b611b21565b6040516104db9493929190614f0d565b60405180910390f35b6104fe60048036038101906104f991906142de565b611c16565b60405161050b9190614c02565b60405180910390f35b61052e60048036038101906105299190614171565b611cc1565b60405161053b9190614c24565b60405180910390f35b61054c611d1e565b6040516105599190614f59565b60405180910390f35b61057c60048036038101906105779190614596565b611d35565b005b61059860048036038101906105939190614225565b611d80565b005b6105b460048036038101906105af9190614279565b611e47565b6040516105c19190614c24565b60405180910390f35b6105e460048036038101906105df9190614596565b611ea5565b6040516105f19190614c24565b60405180910390f35b610614600480360381019061060f919061431f565b611eba565b6040516106219190614c24565b60405180910390f35b610644600480360381019061063f9190614225565b612035565b005b610660600480360381019061065b919061431f565b6120fc565b60405161066d9190614c24565b60405180910390f35b610690600480360381019061068b9190614171565b612277565b60405161069d9190614ef2565b60405180910390f35b6106c060048036038101906106bb91906142de565b6122bf565b005b6106dc60048036038101906106d791906142de565b612547565b6040516106e99190614c02565b60405180910390f35b6106fa6125f2565b6040516107079190614d48565b60405180910390f35b61072a60048036038101906107259190614171565b612694565b005b61074660048036038101906107419190614279565b6126bb565b6040516107539190614c24565b60405180910390f35b610776600480360381019061077191906142de565b61280d565b005b610792600480360381019061078d9190614507565b6129f7565b005b6107ae60048036038101906107a9919061419a565b612d0e565b6040516107bb9190614ef2565b60405180910390f35b6107de60048036038101906107d99190614373565b612d95565b6040516107eb9190614ed0565b60405180910390f35b61080e60048036038101906108099190614373565b612f19565b005b61082a600480360381019061082591906144b3565b6132ba565b005b610846600480360381019061084191906142de565b613524565b6040516108539190614be7565b60405180910390f35b606060058054600181600116156101000203166002900480601f0160208091040260200160405190810160405280929190818152602001828054600181600116156101000203166002900480156108f45780601f106108c9576101008083540402835291602001916108f4565b820191906000526020600020905b8154815290600101906020018083116108d757829003601f168201915b5050505050905090565b60006109168383600b61358a9092919063ffffffff16565b905092915050565b60008073ffffffffffffffffffffffffffffffffffffffff168373ffffffffffffffffffffffffffffffffffffffff16141561095957600080fd5b6001546000803373ffffffffffffffffffffffffffffffffffffffff1673ffffffffffffffffffffffffffffffffffffffff1681526020019081526020016000205410156109a657600080fd5b81600360003373ffffffffffffffffffffffffffffffffffffffff1673ffffffffffffffffffffffffffffffffffffffff16815260200190815260200160002060008573ffffffffffffffffffffffffffffffffffffffff1673ffffffffffffffffffffffffffffffffffffffff16815260200190815260200160002081905550610a5633600260009054906101000a900473ffffffffffffffffffffffffffffffffffffffff16600154613639565b8273ffffffffffffffffffffffffffffffffffffffff163373ffffffffffffffffffffffffffffffffffffffff167f8c5be1e5ebec7d5bd14f71427d1e84f3dd0314c0f7b2291e5b200ac8c7c3b92584604051610ab39190614ef2565b60405180910390a36001905092915050565b6000610aef600154610ae160008561388490919063ffffffff16565b61356b90919063ffffffff16565b9050919050565b600080600090506000805b600860008680519060200120815260200190815260200160002060030180549050811015610be3576000604051602001610b3b9190614b67565b6040516020818303038152906040528051906020012060086000878051906020012081526020019081526020016000206003018281548110610b7957fe5b9060005260206000200160009054906101000a900473ffffffffffffffffffffffffffffffffffffffff16604051602001610bb49190614b4c565b6040516020818303038152906040528051906020012014610bd6576001830192505b8080600101915050610b01565b5060005b600860008680519060200120815260200190815260200160002060040180549050811015610cc9576000604051602001610c219190614b67565b6040516020818303038152906040528051906020012060086000878051906020012081526020019081526020016000206004018281548110610c5f57fe5b9060005260206000200160009054906101000a900473ffffffffffffffffffffffffffffffffffffffff16604051602001610c9a9190614b4c565b6040516020818303038152906040528051906020012014610cbc576001820191505b8080600101915050610be7565b50600082148015610cda5750600081145b15610cea57600092505050610d16565b80821115610cfd57600192505050610d16565b808211610d0f57600292505050610d16565b6003925050505b919050565b610d5a336040518060400160405280600681526020017f4d696e74657200000000000000000000000000000000000000000000000000008152506108fe565b158015610d6d5750610d6b33611cc1565b155b8015610db55750610db3336040518060400160405280600681526020017f53657276657200000000000000000000000000000000000000000000000000008152506108fe565b155b610dbe57600080fd5b610dfd336040518060400160405280600581526020017f41646d696e0000000000000000000000000000000000000000000000000000008152506108fe565b610e0657600080fd5b600860008280519060200120815260200190815260200160002060050160009054906101000a900460ff16610ebe573373ffffffffffffffffffffffffffffffffffffffff167f7b178bf1583b36c417d982a222dfebdf8e3c8ecff7e75e459627b176a9e8bd7282604051610e7b9190614c3f565b60405180910390a26040517f08c379a0000000000000000000000000000000000000000000000000000000008152600401610eb590614e10565b60405180910390fd5b610ec88133611eba565b50610ed381336120fc565b506008600082805190602001208152602001908152602001600020600401339080600181540180825580915050600190039060005260206000200160009091909190916101000a81548173ffffffffffffffffffffffffffffffffffffffff021916908373ffffffffffffffffffffffffffffffffffffffff1602179055503373ffffffffffffffffffffffffffffffffffffffff167f7b178bf1583b36c417d982a222dfebdf8e3c8ecff7e75e459627b176a9e8bd7282604051610f989190614d13565b60405180910390a250565b6000600454905090565b6000600260009054906101000a900473ffffffffffffffffffffffffffffffffffffffff16905090565b600981805160208101820180518482526020830160208501208183528095505050505050600091509050806000018054600181600116156101000203166002900480601f0160208091040260200160405190810160405280929190818152602001828054600181600116156101000203166002900480156110995780601f1061106e57610100808354040283529160200191611099565b820191906000526020600020905b81548152906001019060200180831161107c57829003601f168201915b5050505050908060010160009054906101000a900473ffffffffffffffffffffffffffffffffffffffff16908060020154908060030154908060040154908060050160009054906101000a900460ff16908060050160019054906101000a900460ff16905087565b6000611142336040518060400160405280600681526020017f53657276657200000000000000000000000000000000000000000000000000008152506108fe565b61114b57600080fd5b600073ffffffffffffffffffffffffffffffffffffffff168373ffffffffffffffffffffffffffffffffffffffff16141561118557600080fd5b6009856040516111959190614b82565b9081526020016040518091039020600301548211156111b357600080fd5b600a856040516111c39190614b82565b9081526020016040518091039020846040516111df9190614b82565b908152602001604051809103902060009054906101000a900460ff161561120557600080fd5b611239826009876040516112199190614b82565b9081526020016040518091039020600301546138be90919063ffffffff16565b6009866040516112499190614b82565b908152602001604051809103902060030181905550611269308484613639565b6001600a8660405161127b9190614b82565b9081526020016040518091039020856040516112979190614b82565b908152602001604051809103902060006101000a81548160ff02191690831515021790555060019050949350505050565b600860008280519060200120815260200190815260200160002060050160009054906101000a900460ff16801561138757503360405160200161130b9190614b67565b60405160208183030381529060405280519060200120600860008380519060200120815260200190815260200160002060020160009054906101000a900473ffffffffffffffffffffffffffffffffffffffff1660405160200161136f9190614b4c565b60405160208183030381529060405280519060200120145b806113ba5750600860008280519060200120815260200190815260200160002060050160009054906101000a900460ff16155b156115f6576060600067ffffffffffffffff811180156113d957600080fd5b506040519080825280602002602001820160405280156114085781602001602082028036833780820191505090505b5090506060600067ffffffffffffffff8111801561142557600080fd5b506040519080825280602002602001820160405280156114545781602001602082028036833780820191505090505b5090506040518060c0016040528042815260200142853360405160200161147d93929190614bae565b60405160208183030381529060405281526020013373ffffffffffffffffffffffffffffffffffffffff168152602001838152602001828152602001600115158152506008600085805190602001208152602001908152602001600020600082015181600001556020820151816001019080519060200190611500929190613de8565b5060408201518160020160006101000a81548173ffffffffffffffffffffffffffffffffffffffff021916908373ffffffffffffffffffffffffffffffffffffffff1602179055506060820151816003019080519060200190611564929190613e68565b506080820151816004019080519060200190611581929190613e68565b5060a08201518160050160006101000a81548160ff0219169083151502179055509050503373ffffffffffffffffffffffffffffffffffffffff167fce62159ff3c25a8e61a8bc74b520c1c33ff5acc534e8af236f3b5a587b050b05846040516115eb9190614cde565b60405180910390a250505b50565b6000806116116001548461356b90919063ffffffff16565b9050600073ffffffffffffffffffffffffffffffffffffffff168473ffffffffffffffffffffffffffffffffffffffff161415611683576040517f08c379a000000000000000000000000000000000000000000000000000000000815260040161167a90614e90565b60405180910390fd5b600360008673ffffffffffffffffffffffffffffffffffffffff1673ffffffffffffffffffffffffffffffffffffffff16815260200190815260200160002060003373ffffffffffffffffffffffffffffffffffffffff1673ffffffffffffffffffffffffffffffffffffffff16815260200190815260200160002054811115611742576040517f08c379a000000000000000000000000000000000000000000000000000000000815260040161173990614e70565b60405180910390fd5b6117d181600360008873ffffffffffffffffffffffffffffffffffffffff1673ffffffffffffffffffffffffffffffffffffffff16815260200190815260200160002060003373ffffffffffffffffffffffffffffffffffffffff1673ffffffffffffffffffffffffffffffffffffffff168152602001908152602001600020546138be90919063ffffffff16565b600360008773ffffffffffffffffffffffffffffffffffffffff1673ffffffffffffffffffffffffffffffffffffffff16815260200190815260200160002060003373ffffffffffffffffffffffffffffffffffffffff1673ffffffffffffffffffffffffffffffffffffffff1681526020019081526020016000208190555061185c858585613639565b61188b85600260009054906101000a900473ffffffffffffffffffffffffffffffffffffffff16600154613639565b600260009054906101000a900473ffffffffffffffffffffffffffffffffffffffff1673ffffffffffffffffffffffffffffffffffffffff168473ffffffffffffffffffffffffffffffffffffffff163373ffffffffffffffffffffffffffffffffffffffff167ffcf5b3276434181e3c48bd3fe569b8939808f11e845d4b963693b9d7dbd6dd996001546040516119239190614ef2565b60405180910390a460019150509392505050565b600a82805160208101820180518482526020830160208501208183528095505050505050818051602081018201805184825260208301602085012081835280955050505050506000915091509054906101000a900460ff1681565b6000600154905090565b6119a533611cc1565b6119ae57600080fd5b80600b60000160006101000a81548173ffffffffffffffffffffffffffffffffffffffff021916908373ffffffffffffffffffffffffffffffffffffffff160217905550611a3d816040518060400160405280600681526020017f4d696e7465720000000000000000000000000000000000000000000000000000815250600b6138de9092919063ffffffff16565b611a88816040518060400160405280600581526020017f41646d696e000000000000000000000000000000000000000000000000000000815250600b6138de9092919063ffffffff16565b611ad3336040518060400160405280600681526020017f4d696e7465720000000000000000000000000000000000000000000000000000815250600b6139a89092919063ffffffff16565b611b1e336040518060400160405280600581526020017f41646d696e000000000000000000000000000000000000000000000000000000815250600b6139a89092919063ffffffff16565b50565b6008602052806000526040600020600091509050806000015490806001018054600181600116156101000203166002900480601f016020809104026020016040519081016040528092919081815260200182805460018160011615610100020316600290048015611bd35780601f10611ba857610100808354040283529160200191611bd3565b820191906000526020600020905b815481529060010190602001808311611bb657829003601f168201915b5050505050908060020160009054906101000a900473ffffffffffffffffffffffffffffffffffffffff16908060050160009054906101000a900460ff16905084565b60606008600083805190602001208152602001908152602001600020600401805480602002602001604051908101604052809291908181526020018280548015611cb557602002820191906000526020600020905b8160009054906101000a900473ffffffffffffffffffffffffffffffffffffffff1673ffffffffffffffffffffffffffffffffffffffff1681526020019060010190808311611c6b575b50505050509050919050565b6000600b60000160009054906101000a900473ffffffffffffffffffffffffffffffffffffffff1673ffffffffffffffffffffffffffffffffffffffff168273ffffffffffffffffffffffffffffffffffffffff16149050919050565b6000600760009054906101000a900460ff16905090565b611d3d610fad565b73ffffffffffffffffffffffffffffffffffffffff163373ffffffffffffffffffffffffffffffffffffffff1614611d7457600080fd5b611d7d81613a71565b50565b611dbf336040518060400160405280600581526020017f41646d696e0000000000000000000000000000000000000000000000000000008152506108fe565b611dc857600080fd5b604051602001611dd790614b99565b6040516020818303038152906040528051906020012081604051602001611dfe9190614b82565b604051602081830303815290604052805190602001201415611e2d57611e2333611cc1565b611e2c57600080fd5b5b611e438282600b6138de9092919063ffffffff16565b5050565b6000611e88336040518060400160405280600681526020017f4d696e74657200000000000000000000000000000000000000000000000000008152506108fe565b611e9157600080fd5b611e9b8383613a7b565b6001905092915050565b6000611eb13383613bcd565b60019050919050565b60008060009050600860008580519060200120815260200190815260200160002060050160009054906101000a900460ff161561202b5760005b6008600086805190602001208152602001908152602001600020600301805490508110156120295783604051602001611f2d9190614b4c565b6040516020818303038152906040528051906020012060086000878051906020012081526020019081526020016000206003018281548110611f6b57fe5b9060005260206000200160009054906101000a900473ffffffffffffffffffffffffffffffffffffffff16604051602001611fa69190614b4c565b60405160208183030381529060405280519060200120141561201c5760086000868051906020012081526020019081526020016000206003018181548110611fea57fe5b9060005260206000200160006101000a81549073ffffffffffffffffffffffffffffffffffffffff0219169055600191505b8080600101915050611ef4565b505b8091505092915050565b612074336040518060400160405280600581526020017f41646d696e0000000000000000000000000000000000000000000000000000008152506108fe565b61207d57600080fd5b60405160200161208c90614b99565b60405160208183030381529060405280519060200120816040516020016120b39190614b82565b6040516020818303038152906040528051906020012014156120e2576120d833611cc1565b6120e157600080fd5b5b6120f88282600b6139a89092919063ffffffff16565b5050565b60008060009050600860008580519060200120815260200190815260200160002060050160009054906101000a900460ff161561226d5760005b60086000868051906020012081526020019081526020016000206004018054905081101561226b578360405160200161216f9190614b4c565b60405160208183030381529060405280519060200120600860008780519060200120815260200190815260200160002060040182815481106121ad57fe5b9060005260206000200160009054906101000a900473ffffffffffffffffffffffffffffffffffffffff166040516020016121e89190614b4c565b60405160208183030381529060405280519060200120141561225e576008600086805190602001208152602001908152602001600020600401818154811061222c57fe5b9060005260206000200160006101000a81549073ffffffffffffffffffffffffffffffffffffffff0219169055600191505b8080600101915050612136565b505b8091505092915050565b60008060008373ffffffffffffffffffffffffffffffffffffffff1673ffffffffffffffffffffffffffffffffffffffff168152602001908152602001600020549050919050565b6122fe336040518060400160405280600681526020017f4d696e74657200000000000000000000000000000000000000000000000000008152506108fe565b158015612311575061230f33611cc1565b155b80156123595750612357336040518060400160405280600681526020017f53657276657200000000000000000000000000000000000000000000000000008152506108fe565b155b61236257600080fd5b6123a1336040518060400160405280600581526020017f41646d696e0000000000000000000000000000000000000000000000000000008152506108fe565b6123aa57600080fd5b600860008280519060200120815260200190815260200160002060050160009054906101000a900460ff16612462573373ffffffffffffffffffffffffffffffffffffffff167f7b178bf1583b36c417d982a222dfebdf8e3c8ecff7e75e459627b176a9e8bd728260405161241f9190614c3f565b60405180910390a26040517f08c379a000000000000000000000000000000000000000000000000000000000815260040161245990614e10565b60405180910390fd5b61246c8133611eba565b5061247781336120fc565b506008600082805190602001208152602001908152602001600020600301339080600181540180825580915050600190039060005260206000200160009091909190916101000a81548173ffffffffffffffffffffffffffffffffffffffff021916908373ffffffffffffffffffffffffffffffffffffffff1602179055503373ffffffffffffffffffffffffffffffffffffffff167f7b178bf1583b36c417d982a222dfebdf8e3c8ecff7e75e459627b176a9e8bd728260405161253c9190614c74565b60405180910390a250565b606060086000838051906020012081526020019081526020016000206003018054806020026020016040519081016040528092919081815260200182805480156125e657602002820191906000526020600020905b8160009054906101000a900473ffffffffffffffffffffffffffffffffffffffff1673ffffffffffffffffffffffffffffffffffffffff168152602001906001019080831161259c575b50505050509050919050565b606060068054600181600116156101000203166002900480601f01602080910402602001604051908101604052809291908181526020018280546001816001161561010002031660029004801561268a5780601f1061265f5761010080835404028352916020019161268a565b820191906000526020600020905b81548152906001019060200180831161266d57829003601f168201915b5050505050905090565b61269d33611cc1565b6126a657600080fd5b6126af81613d6a565b6126b88161199c565b50565b6000806126d36001548461356b90919063ffffffff16565b9050600073ffffffffffffffffffffffffffffffffffffffff168473ffffffffffffffffffffffffffffffffffffffff16141561270f57600080fd5b8083111561271c57600080fd5b612727338585613639565b600060015411156128025761276133600260009054906101000a900473ffffffffffffffffffffffffffffffffffffffff16600154613639565b600260009054906101000a900473ffffffffffffffffffffffffffffffffffffffff1673ffffffffffffffffffffffffffffffffffffffff168473ffffffffffffffffffffffffffffffffffffffff163373ffffffffffffffffffffffffffffffffffffffff167ffcf5b3276434181e3c48bd3fe569b8939808f11e845d4b963693b9d7dbd6dd996001546040516127f99190614ef2565b60405180910390a45b600191505092915050565b600860008280519060200120815260200190815260200160002060050160009054906101000a900460ff16156129f4573360405160200161284e9190614b67565b60405160208183030381529060405280519060200120600860008380519060200120815260200190815260200160002060020160009054906101000a900473ffffffffffffffffffffffffffffffffffffffff166040516020016128b29190614b4c565b60405160208183030381529060405280519060200120148061290f575061290e336040518060400160405280600581526020017f41646d696e0000000000000000000000000000000000000000000000000000008152506108fe565b5b156129f35760086000828051906020012081526020019081526020016000206000808201600090556001820160006129479190613ef2565b6002820160006101000a81549073ffffffffffffffffffffffffffffffffffffffff021916905560038201600061297e9190613f3a565b60048201600061298e9190613f3a565b6005820160006101000a81549060ff021916905550503373ffffffffffffffffffffffffffffffffffffffff167f28002293bad88b08fb13722e242b2f4fe6671e857d23067f331280ed245c4557826040516129ea9190614ca9565b60405180910390a25b5b50565b600360003373ffffffffffffffffffffffffffffffffffffffff1673ffffffffffffffffffffffffffffffffffffffff16815260200190815260200160002060003073ffffffffffffffffffffffffffffffffffffffff1673ffffffffffffffffffffffffffffffffffffffff16815260200190815260200160002054841115612ab6576040517f08c379a0000000000000000000000000000000000000000000000000000000008152600401612aad90614e70565b60405180910390fd5b600985604051612ac69190614b82565b908152602001604051809103902060050160019054906101000a900460ff16612cb757612af4333086613639565b612b8384600360003373ffffffffffffffffffffffffffffffffffffffff1673ffffffffffffffffffffffffffffffffffffffff16815260200190815260200160002060003073ffffffffffffffffffffffffffffffffffffffff1673ffffffffffffffffffffffffffffffffffffffff168152602001908152602001600020546138be90919063ffffffff16565b506040518060e001604052808681526020013373ffffffffffffffffffffffffffffffffffffffff16815260200184815260200183815260200182815260200160011515815260200160011515815250600986604051612be39190614b82565b90815260200160405180910390206000820151816000019080519060200190612c0d929190613f5b565b5060208201518160010160006101000a81548173ffffffffffffffffffffffffffffffffffffffff021916908373ffffffffffffffffffffffffffffffffffffffff16021790555060408201518160020155606082015181600301556080820151816004015560a08201518160050160006101000a81548160ff02191690831515021790555060c08201518160050160016101000a81548160ff0219169083151502179055509050505b3373ffffffffffffffffffffffffffffffffffffffff167f5c04f4c64423af25dc8dc6bd45d037a95fe962bb56e5ca1b993600448846f07f8685604051612cff929190614de0565b60405180910390a25050505050565b6000600360008473ffffffffffffffffffffffffffffffffffffffff1673ffffffffffffffffffffffffffffffffffffffff16815260200190815260200160002060008373ffffffffffffffffffffffffffffffffffffffff1673ffffffffffffffffffffffffffffffffffffffff16815260200190815260200160002054905092915050565b612d9d613fdb565b600982604051612dad9190614b82565b90815260200160405180910390206040518060e0016040529081600082018054600181600116156101000203166002900480601f016020809104026020016040519081016040528092919081815260200182805460018160011615610100020316600290048015612e5f5780601f10612e3457610100808354040283529160200191612e5f565b820191906000526020600020905b815481529060010190602001808311612e4257829003601f168201915b505050505081526020016001820160009054906101000a900473ffffffffffffffffffffffffffffffffffffffff1673ffffffffffffffffffffffffffffffffffffffff1673ffffffffffffffffffffffffffffffffffffffff1681526020016002820154815260200160038201548152602001600482015481526020016005820160009054906101000a900460ff161515151581526020016005820160019054906101000a900460ff1615151515815250509050919050565b600981604051612f299190614b82565b908152602001604051809103902060050160019054906101000a900460ff16612f87576040517f08c379a0000000000000000000000000000000000000000000000000000000008152600401612f7e90614e30565b60405180910390fd5b600981604051612f979190614b82565b908152602001604051809103902060050160009054906101000a900460ff16612ff5576040517f08c379a0000000000000000000000000000000000000000000000000000000008152600401612fec90614eb0565b60405180910390fd5b3373ffffffffffffffffffffffffffffffffffffffff1660098260405161301c9190614b82565b908152602001604051809103902060010160009054906101000a900473ffffffffffffffffffffffffffffffffffffffff1673ffffffffffffffffffffffffffffffffffffffff1614806130ab57506130aa336040518060400160405280600581526020017f41646d696e0000000000000000000000000000000000000000000000000000008152506108fe565b5b6130b457600080fd5b6130f3336040518060400160405280600581526020017f41646d696e0000000000000000000000000000000000000000000000000000008152506108fe565b1561316a576131653060098360405161310c9190614b82565b908152602001604051809103902060010160009054906101000a900473ffffffffffffffffffffffffffffffffffffffff1660098460405161314e9190614b82565b908152602001604051809103902060030154613639565b613256565b60098160405161317a9190614b82565b90815260200160405180910390206004015460098260405161319c9190614b82565b908152602001604051809103902060030154111561325557613254306009836040516131c89190614b82565b908152602001604051809103902060010160009054906101000a900473ffffffffffffffffffffffffffffffffffffffff1661324f60098560405161320d9190614b82565b90815260200160405180910390206004015460098660405161322f9190614b82565b9081526020016040518091039020600301546138be90919063ffffffff16565b613639565b5b5b60006009826040516132689190614b82565b908152602001604051809103902060050160006101000a81548160ff02191690831515021790555060006009826040516132a29190614b82565b90815260200160405180910390206003018190555050565b6132f9336040518060400160405280600681526020017f53657276657200000000000000000000000000000000000000000000000000008152506108fe565b61330257600080fd5b6009826040516133129190614b82565b908152602001604051809103902060050160019054906101000a900460ff16613370576040517f08c379a000000000000000000000000000000000000000000000000000000000815260040161336790614e30565b60405180910390fd5b6009826040516133809190614b82565b908152602001604051809103902060050160009054906101000a900460ff166133de576040517f08c379a00000000000000000000000000000000000000000000000000000000081526004016133d590614eb0565b60405180910390fd5b806009836040516133ef9190614b82565b90815260200160405180910390206003015411613441576040517f08c379a000000000000000000000000000000000000000000000000000000000815260040161343890614e50565b60405180910390fd5b61348d306009846040516134559190614b82565b908152602001604051809103902060010160009054906101000a900473ffffffffffffffffffffffffffffffffffffffff1683613639565b600060098360405161349f9190614b82565b908152602001604051809103902060050160006101000a81548160ff0219169083151502179055506134fb816009846040516134db9190614b82565b9081526020016040518091039020600301546138be90919063ffffffff16565b60098360405161350b9190614b82565b9081526020016040518091039020600301819055505050565b6000600860008380519060200120815260200190815260200160002060020160009054906101000a900473ffffffffffffffffffffffffffffffffffffffff169050919050565b60008082840190508381101561358057600080fd5b8091505092915050565b60008073ffffffffffffffffffffffffffffffffffffffff168373ffffffffffffffffffffffffffffffffffffffff1614156135c557600080fd5b83600101826040516135d79190614b82565b908152602001604051809103902060008473ffffffffffffffffffffffffffffffffffffffff1673ffffffffffffffffffffffffffffffffffffffff16815260200190815260200160002060009054906101000a900460ff1690509392505050565b6000808473ffffffffffffffffffffffffffffffffffffffff1673ffffffffffffffffffffffffffffffffffffffff168152602001908152602001600020548111156136ba576040517f08c379a00000000000000000000000000000000000000000000000000000000081526004016136b190614e70565b60405180910390fd5b600073ffffffffffffffffffffffffffffffffffffffff168273ffffffffffffffffffffffffffffffffffffffff1614156136f457600080fd5b613745816000808673ffffffffffffffffffffffffffffffffffffffff1673ffffffffffffffffffffffffffffffffffffffff168152602001908152602001600020546138be90919063ffffffff16565b6000808573ffffffffffffffffffffffffffffffffffffffff1673ffffffffffffffffffffffffffffffffffffffff168152602001908152602001600020819055506137d8816000808573ffffffffffffffffffffffffffffffffffffffff1673ffffffffffffffffffffffffffffffffffffffff1681526020019081526020016000205461356b90919063ffffffff16565b6000808473ffffffffffffffffffffffffffffffffffffffff1673ffffffffffffffffffffffffffffffffffffffff168152602001908152602001600020819055508173ffffffffffffffffffffffffffffffffffffffff168373ffffffffffffffffffffffffffffffffffffffff167fddf252ad1be2c89b69c2b068fc378daa952ba7f163c4a11628f55a4df523b3ef836040516138779190614ef2565b60405180910390a3505050565b60008083141561389757600090506138b8565b60008284029050828482816138a857fe5b04146138b357600080fd5b809150505b92915050565b6000828211156138cd57600080fd5b600082840390508091505092915050565b600073ffffffffffffffffffffffffffffffffffffffff168273ffffffffffffffffffffffffffffffffffffffff16141561391857600080fd5b61392383838361358a565b1561392d57600080fd5b600183600101826040516139419190614b82565b908152602001604051809103902060008473ffffffffffffffffffffffffffffffffffffffff1673ffffffffffffffffffffffffffffffffffffffff16815260200190815260200160002060006101000a81548160ff021916908315150217905550505050565b600073ffffffffffffffffffffffffffffffffffffffff168273ffffffffffffffffffffffffffffffffffffffff1614156139e257600080fd5b6139ed83838361358a565b6139f657600080fd5b60008360010182604051613a0a9190614b82565b908152602001604051809103902060008473ffffffffffffffffffffffffffffffffffffffff1673ffffffffffffffffffffffffffffffffffffffff16815260200190815260200160002060006101000a81548160ff021916908315150217905550505050565b8060018190555050565b600073ffffffffffffffffffffffffffffffffffffffff168273ffffffffffffffffffffffffffffffffffffffff161415613ab557600080fd5b613aca8160045461356b90919063ffffffff16565b600481905550613b21816000808573ffffffffffffffffffffffffffffffffffffffff1673ffffffffffffffffffffffffffffffffffffffff1681526020019081526020016000205461356b90919063ffffffff16565b6000808473ffffffffffffffffffffffffffffffffffffffff1673ffffffffffffffffffffffffffffffffffffffff168152602001908152602001600020819055508173ffffffffffffffffffffffffffffffffffffffff16600073ffffffffffffffffffffffffffffffffffffffff167fddf252ad1be2c89b69c2b068fc378daa952ba7f163c4a11628f55a4df523b3ef83604051613bc19190614ef2565b60405180910390a35050565b600073ffffffffffffffffffffffffffffffffffffffff168273ffffffffffffffffffffffffffffffffffffffff161415613c0757600080fd5b6000808373ffffffffffffffffffffffffffffffffffffffff1673ffffffffffffffffffffffffffffffffffffffff16815260200190815260200160002054811115613c5257600080fd5b613c67816004546138be90919063ffffffff16565b600481905550613cbe816000808573ffffffffffffffffffffffffffffffffffffffff1673ffffffffffffffffffffffffffffffffffffffff168152602001908152602001600020546138be90919063ffffffff16565b6000808473ffffffffffffffffffffffffffffffffffffffff1673ffffffffffffffffffffffffffffffffffffffff16815260200190815260200160002081905550600073ffffffffffffffffffffffffffffffffffffffff168273ffffffffffffffffffffffffffffffffffffffff167fddf252ad1be2c89b69c2b068fc378daa952ba7f163c4a11628f55a4df523b3ef83604051613d5e9190614ef2565b60405180910390a35050565b600073ffffffffffffffffffffffffffffffffffffffff168173ffffffffffffffffffffffffffffffffffffffff161415613da457600080fd5b80600260006101000a81548173ffffffffffffffffffffffffffffffffffffffff021916908373ffffffffffffffffffffffffffffffffffffffff16021790555050565b828054600181600116156101000203166002900490600052602060002090601f016020900481019282601f10613e2957805160ff1916838001178555613e57565b82800160010185558215613e57579182015b82811115613e56578251825591602001919060010190613e3b565b5b509050613e649190614032565b5090565b828054828255906000526020600020908101928215613ee1579160200282015b82811115613ee05782518260006101000a81548173ffffffffffffffffffffffffffffffffffffffff021916908373ffffffffffffffffffffffffffffffffffffffff16021790555091602001919060010190613e88565b5b509050613eee919061404f565b5090565b50805460018160011615610100020316600290046000825580601f10613f185750613f37565b601f016020900490600052602060002090810190613f369190614032565b5b50565b5080546000825590600052602060002090810190613f589190614032565b50565b828054600181600116156101000203166002900490600052602060002090601f016020900481019282601f10613f9c57805160ff1916838001178555613fca565b82800160010185558215613fca579182015b82811115613fc9578251825591602001919060010190613fae565b5b509050613fd79190614032565b5090565b6040518060e0016040528060608152602001600073ffffffffffffffffffffffffffffffffffffffff1681526020016000815260200160008152602001600081526020016000151581526020016000151581525090565b5b8082111561404b576000816000905550600101614033565b5090565b5b8082111561408657600081816101000a81549073ffffffffffffffffffffffffffffffffffffffff021916905550600101614050565b5090565b600081359050614099816151ae565b92915050565b6000813590506140ae816151c5565b92915050565b600082601f8301126140c557600080fd5b81356140d86140d382614fa1565b614f74565b915080825260208301602083018583830111156140f457600080fd5b6140ff838284615102565b50505092915050565b600082601f83011261411957600080fd5b813561412c61412782614fcd565b614f74565b9150808252602083016020830185838301111561414857600080fd5b614153838284615102565b50505092915050565b60008135905061416b816151dc565b92915050565b60006020828403121561418357600080fd5b60006141918482850161408a565b91505092915050565b600080604083850312156141ad57600080fd5b60006141bb8582860161408a565b92505060206141cc8582860161408a565b9150509250929050565b6000806000606084860312156141eb57600080fd5b60006141f98682870161408a565b935050602061420a8682870161408a565b925050604061421b8682870161415c565b9150509250925092565b6000806040838503121561423857600080fd5b60006142468582860161408a565b925050602083013567ffffffffffffffff81111561426357600080fd5b61426f85828601614108565b9150509250929050565b6000806040838503121561428c57600080fd5b600061429a8582860161408a565b92505060206142ab8582860161415c565b9150509250929050565b6000602082840312156142c757600080fd5b60006142d58482850161409f565b91505092915050565b6000602082840312156142f057600080fd5b600082013567ffffffffffffffff81111561430a57600080fd5b614316848285016140b4565b91505092915050565b6000806040838503121561433257600080fd5b600083013567ffffffffffffffff81111561434c57600080fd5b614358858286016140b4565b92505060206143698582860161408a565b9150509250929050565b60006020828403121561438557600080fd5b600082013567ffffffffffffffff81111561439f57600080fd5b6143ab84828501614108565b91505092915050565b600080604083850312156143c757600080fd5b600083013567ffffffffffffffff8111156143e157600080fd5b6143ed85828601614108565b925050602083013567ffffffffffffffff81111561440a57600080fd5b61441685828601614108565b9150509250929050565b6000806000806080858703121561443657600080fd5b600085013567ffffffffffffffff81111561445057600080fd5b61445c87828801614108565b945050602085013567ffffffffffffffff81111561447957600080fd5b61448587828801614108565b93505060406144968782880161408a565b92505060606144a78782880161415c565b91505092959194509250565b600080604083850312156144c657600080fd5b600083013567ffffffffffffffff8111156144e057600080fd5b6144ec85828601614108565b92505060206144fd8582860161415c565b9150509250929050565b600080600080600060a0868803121561451f57600080fd5b600086013567ffffffffffffffff81111561453957600080fd5b61454588828901614108565b95505060206145568882890161415c565b94505060406145678882890161415c565b93505060606145788882890161415c565b92505060806145898882890161415c565b9150509295509295909350565b6000602082840312156145a857600080fd5b60006145b68482850161415c565b91505092915050565b60006145cb83836145ee565b60208301905092915050565b6145e86145e3826150a3565b615156565b82525050565b6145f781615091565b82525050565b61460681615091565b82525050565b61461d61461882615091565b615144565b82525050565b600061462e82615009565b6146388185615037565b935061464383614ff9565b8060005b8381101561467457815161465b88826145bf565b97506146668361502a565b925050600181019050614647565b5085935050505092915050565b61468a816150b5565b82525050565b614699816150b5565b82525050565b60006146aa82615014565b6146b48185615048565b93506146c4818560208601615111565b6146cd81615184565b840191505092915050565b60006146e382615014565b6146ed8185615059565b93506146fd818560208601615111565b80840191505092915050565b60006147148261501f565b61471e8185615064565b935061472e818560208601615111565b61473781615184565b840191505092915050565b600061474d8261501f565b6147578185615075565b9350614767818560208601615111565b61477081615184565b840191505092915050565b60006147868261501f565b6147908185615086565b93506147a0818560208601615111565b80840191505092915050565b60006147b9601583615075565b91507f446f63756d656e74206973206e6f7420457869737400000000000000000000006000830152602082019050919050565b60006147f9601183615075565b91507f446f63756d656e7420417070726f7665640000000000000000000000000000006000830152602082019050919050565b6000614839601083615075565b91507f446f63756d656e742044656c65746564000000000000000000000000000000006000830152602082019050919050565b6000614879600e83615075565b91507f446f63756d656e742041646465640000000000000000000000000000000000006000830152602082019050919050565b60006148b9601583615075565b91507f43616d706169676e206973206e6f7420457869737400000000000000000000006000830152602082019050919050565b60006148f9601183615075565b91507f446f63756d656e742052656a65637465640000000000000000000000000000006000830152602082019050919050565b6000614939601183615075565b91507f5265647564616e742069732077726f6e670000000000000000000000000000006000830152602082019050919050565b6000614979600683615086565b91507f4d696e74657200000000000000000000000000000000000000000000000000006000830152600682019050919050565b60006149b9601083615075565b91507f4e6f7420456e6f756768204d6f6e6579000000000000000000000000000000006000830152602082019050919050565b60006149f9601783615075565b91507f5472616e7366657220546f206e6f74206265206e756c6c0000000000000000006000830152602082019050919050565b6000614a39601683615075565b91507f43616d706169676e206973206e6f7420416374697665000000000000000000006000830152602082019050919050565b600060e0830160008301518482036000860152614a898282614709565b9150506020830151614a9e60208601826145ee565b506040830151614ab16040860182614b08565b506060830151614ac46060860182614b08565b506080830151614ad76080860182614b08565b5060a0830151614aea60a0860182614681565b5060c0830151614afd60c0860182614681565b508091505092915050565b614b11816150eb565b82525050565b614b20816150eb565b82525050565b614b37614b32826150eb565b61517a565b82525050565b614b46816150f5565b82525050565b6000614b58828461460c565b60148201915081905092915050565b6000614b7382846145d7565b60148201915081905092915050565b6000614b8e828461477b565b915081905092915050565b6000614ba48261496c565b9150819050919050565b6000614bba8286614b26565b602082019150614bca82856146d8565b9150614bd682846145d7565b601482019150819050949350505050565b6000602082019050614bfc60008301846145fd565b92915050565b60006020820190508181036000830152614c1c8184614623565b905092915050565b6000602082019050614c396000830184614690565b92915050565b60006040820190508181036000830152614c59818461469f565b90508181036020830152614c6c816147ac565b905092915050565b60006040820190508181036000830152614c8e818461469f565b90508181036020830152614ca1816147ec565b905092915050565b60006040820190508181036000830152614cc3818461469f565b90508181036020830152614cd68161482c565b905092915050565b60006040820190508181036000830152614cf8818461469f565b90508181036020830152614d0b8161486c565b905092915050565b60006040820190508181036000830152614d2d818461469f565b90508181036020830152614d40816148ec565b905092915050565b60006020820190508181036000830152614d628184614742565b905092915050565b600060e0820190508181036000830152614d84818a614742565b9050614d9360208301896145fd565b614da06040830188614b17565b614dad6060830187614b17565b614dba6080830186614b17565b614dc760a0830185614690565b614dd460c0830184614690565b98975050505050505050565b60006040820190508181036000830152614dfa8185614742565b9050614e096020830184614b17565b9392505050565b60006020820190508181036000830152614e29816147ac565b9050919050565b60006020820190508181036000830152614e49816148ac565b9050919050565b60006020820190508181036000830152614e698161492c565b9050919050565b60006020820190508181036000830152614e89816149ac565b9050919050565b60006020820190508181036000830152614ea9816149ec565b9050919050565b60006020820190508181036000830152614ec981614a2c565b9050919050565b60006020820190508181036000830152614eea8184614a6c565b905092915050565b6000602082019050614f076000830184614b17565b92915050565b6000608082019050614f226000830187614b17565b8181036020830152614f34818661469f565b9050614f4360408301856145fd565b614f506060830184614690565b95945050505050565b6000602082019050614f6e6000830184614b3d565b92915050565b6000604051905081810181811067ffffffffffffffff82111715614f9757600080fd5b8060405250919050565b600067ffffffffffffffff821115614fb857600080fd5b601f19601f8301169050602081019050919050565b600067ffffffffffffffff821115614fe457600080fd5b601f19601f8301169050602081019050919050565b6000819050602082019050919050565b600081519050919050565b600081519050919050565b600081519050919050565b6000602082019050919050565b600082825260208201905092915050565b600082825260208201905092915050565b600081905092915050565b600082825260208201905092915050565b600082825260208201905092915050565b600081905092915050565b600061509c826150cb565b9050919050565b60006150ae826150cb565b9050919050565b60008115159050919050565b6000819050919050565b600073ffffffffffffffffffffffffffffffffffffffff82169050919050565b6000819050919050565b600060ff82169050919050565b82818337600083830152505050565b60005b8381101561512f578082015181840152602081019050615114565b8381111561513e576000848401525b50505050565b600061514f82615168565b9050919050565b600061516182615168565b9050919050565b600061517382615195565b9050919050565b6000819050919050565b6000601f19601f8301169050919050565b60006c0100000000000000000000000082029050919050565b6151b781615091565b81146151c257600080fd5b50565b6151ce816150c1565b81146151d957600080fd5b50565b6151e5816150eb565b81146151f057600080fd5b5056fea264697066735822122033db42cfc3595d56ac8d1a4ad7f8db02e7219fd4ed6b2ba4ea85463d1aa8c9df64736f6c63430007000033",
  "immutableReferences": {},
  "source": "// SPDX-License-Identifier: MIT\npragma experimental ABIEncoderV2;\npragma solidity >=0.7.0 <0.8.0;\nimport \"./TRC21.sol\";\nimport \"./ManageDocument.sol\";\nimport './SafeMath.sol';\nimport './Ownable.sol';\nimport './CampaignDetail.sol';\n\ncontract Support is MyTRC21Mintable(\"MuCoin\", \"MUT\", 0, uint256(0) * uint256(10)**18, uint256(0) * uint256(10)**18), ManageDocument, CampaignDetail, AccessControl{\n    using SafeMath for uint;\n\n    /* BEGIN: Document function*/\n    /**\n\t * @dev Function to add Document to verify\n\t * @param id The security Hash of documents.\n\t */\n    function addDocument(bytes memory id) public {\n        if((documents[keccak256(id)].isExist && keccak256(abi.encodePacked(documents[keccak256(id)].owner)) == keccak256(abi.encodePacked(msg.sender))) || !documents[keccak256(id)].isExist){\n            address[] memory approve = new address[](0);\n            address[] memory reject = new address[](0);\n            documents[keccak256(id)] = Document(block.timestamp, abi.encodePacked(block.timestamp, id, msg.sender), msg.sender, approve, reject, true);\n            emit Add(id, msg.sender, \"Document Added\");\n        }\n    }\n\n    /**\n\t * @dev Function to delete Document\n\t * @param id The security Hash of documents.\n\t */\n    function deleteDocument(bytes memory id) public {\n        if(documents[keccak256(id)].isExist){\n            if(keccak256(abi.encodePacked(documents[keccak256(id)].owner)) == keccak256(abi.encodePacked(msg.sender)) || isRole(msg.sender, \"Admin\")){\n                delete documents[keccak256(id)];\n                emit Delete(id, msg.sender, \"Document Deleted\");\n            }\n        } \n    }\n\n    /**\n\t * @dev Function to approve to Document to verify.\n\t * @param id The security Hash of documents.\n\t */\n    function approveDocument(bytes memory id) public {\n        require(!isRole(msg.sender,\"Minter\") && !isOwner(msg.sender) && !isRole(msg.sender, \"Server\"));\n        require(isRole(msg.sender,\"Admin\"));\n        if(!documents[keccak256(id)].isExist){\n            emit Sign(id, msg.sender, \"Document is not Exist\"); \n            revert(\"Document is not Exist\");\n        }\n        removeApprove(id, msg.sender);\n        removeReject(id, msg.sender);\n        documents[keccak256(id)].approve.push(msg.sender);\n        emit Sign(id, msg.sender, \"Document Approved\");\n    }\n\n    /**\n\t * @dev Function to reject to Document to verify.\n\t * @param id The security Hash of documents.\n\t */\n    function rejectDocument(bytes memory id) public {\n        require(!isRole(msg.sender,\"Minter\") && !isOwner(msg.sender) && !isRole(msg.sender, \"Server\"));\n        require(isRole(msg.sender,\"Admin\"));\n        if(!documents[keccak256(id)].isExist){\n            emit Sign(id, msg.sender, \"Document is not Exist\");\n            revert(\"Document is not Exist\");\n        }\n        removeApprove(id, msg.sender);\n        removeReject(id, msg.sender);\n        documents[keccak256(id)].reject.push(msg.sender);\n        emit Sign(id, msg.sender, \"Document Rejected\");\n    }\n\n    /**\n\t * @dev Function to get all signature of document by Security hash of document\n\t * @param id The security Hash of documents.\n\t * @return Array of address of signed\n\t */\n    function getOwnerDocument(bytes memory id) public view returns (address) {\n        return documents[keccak256(id)].owner;\n    }\n\n     /**\n\t * @dev Function to get all signature of document by Security hash of document\n\t * @param id The security Hash of documents.\n\t * @return Array of address of signed\n\t */\n    function getApproveDocument(bytes memory id) public view returns (address[] memory) {\n        return documents[keccak256(id)].approve;\n    }\n\n    /**\n\t * @dev Function to get all signature of document by Security hash of document\n\t * @param id The security Hash of documents.\n\t * @return Array of address of signed\n\t */\n    function getRejectDocument(bytes memory id) public view returns (address[] memory) {\n        return documents[keccak256(id)].reject;\n    }\n\n    /**\n\t * @dev Function to get all signature of document by Security hash of document\n\t * @param id The security Hash of documents.\n\t * @return Array of address of signed\n\t */\n    function checkDocumentIsApproveOrReject(bytes memory id) public view returns (uint) {\n        uint countApprove = 0;\n        uint countReject = 0;\n        \n        for(uint i = 0; i < documents[keccak256(id)].approve.length; i++){\n            if(keccak256(abi.encodePacked(documents[keccak256(id)].approve[i])) != keccak256(abi.encodePacked(address(0x0)))){\n                countApprove=countApprove+1;\n            }\n        }\n        \n        for(uint i = 0; i < documents[keccak256(id)].reject.length; i++){\n            if(keccak256(abi.encodePacked(documents[keccak256(id)].reject[i])) != keccak256(abi.encodePacked(address(0x0)))){\n                countReject=countReject+1;\n            }\n        }\n        if(countApprove == 0 && countReject == 0) return 0;\n        if(countApprove > countReject) return 1;\n        if(countApprove <= countReject) return 2;\n        return 3;\n    }\n    /*END: Document function*/\n\n    /*BEGIN: Campaign Detail */\n    \n    /**\n\t * @dev Function to Create Campaign\n\t * @param campaignId The string Identifier of Campaign.\n\t * @param totalWithFee This is all money of campaign include all fee.\n\t * @param totalBudget This is Budget of campaign.\n\t * @param remainBudget This is money after minus fee\n\t * @param feeCancel This is fee to cancel campaign.\n\t */\n    function createCampaign (string memory campaignId, uint totalWithFee, uint totalBudget, uint remainBudget, uint feeCancel) public{\n        //check money amount\n        require(totalWithFee <= _allowed[msg.sender][address(this)],\"Not Enough Money\");\n        //check campaign\n        if(!campaigns[campaignId].isExist){\n            //send money to server wallet\n            _transfer(msg.sender, address(this), totalWithFee);\n            _allowed[msg.sender][address(this)].sub(totalWithFee);\n            //create campaign\n            campaigns[campaignId] = Campaign(campaignId, msg.sender, totalBudget, remainBudget, feeCancel, true, true);\n        }\n        emit CreateCampaign(msg.sender, campaignId, totalBudget);\n    }\n\n    /**\n\t * @dev Function to CheckOut Campaign\n\t * @param campaignId The string Identifier of Campaign.\n\t * @param redudant The address of suppiler to transfer money.\n\t */\n    function checkOutCampaign(string memory campaignId, uint redudant) public onlyServer{\n        require(campaigns[campaignId].isExist,\"Campaign is not Exist\");\n        require(campaigns[campaignId].isActive,\"Campaign is not Active\");\n        require(campaigns[campaignId].remainBudget > redudant, \"Redudant is wrong\");\n\n        _transfer(address(this), campaigns[campaignId].advertiser, redudant);\n        campaigns[campaignId].isActive = false;\n        campaigns[campaignId].remainBudget = campaigns[campaignId].remainBudget.sub(redudant);\n    }\n\n    /**\n\t * @dev Function to Pay To Supplier\n\t * @param campaignId The string Identifier of Campaign\n\t * @param supplier The address of suppiler to transfer money\n\t * @param value The value of money to transfer to supplier\n\t * @return A boolean that indicates if the operation was successful.\n\t */\n    function payToSupplier(string memory campaignId, string memory paymentKey, address supplier, uint256 value) public onlyServer returns (bool) {\n        require(supplier != address(0));\n        require(value <= campaigns[campaignId].remainBudget);\n        require(!checkPayed[campaignId][paymentKey]);\n        campaigns[campaignId].remainBudget = campaigns[campaignId].remainBudget.sub(value);\n        _transfer(address(this), supplier, value);\n        checkPayed[campaignId][paymentKey] = true;\n        return true;\n    }\n\n    /**\n\t * @dev Function to Cancel Campaign\n\t * @param campaignId The string Identifier of Campaign\n\t */\n    function cancelCampaign(string memory campaignId) public{\n        require(campaigns[campaignId].isExist,\"Campaign is not Exist\");\n        require(campaigns[campaignId].isActive,\"Campaign is not Active\");\n        require(campaigns[campaignId].advertiser == msg.sender || isRole(msg.sender, \"Admin\"));\n        \n        if(isRole(msg.sender, \"Admin\")){\n            _transfer(address(this), campaigns[campaignId].advertiser, campaigns[campaignId].remainBudget);\n        }else{\n            if(campaigns[campaignId].remainBudget > campaigns[campaignId].feeCancel){\n                _transfer(address(this), campaigns[campaignId].advertiser, campaigns[campaignId].remainBudget.sub(campaigns[campaignId].feeCancel));\n            }\n        }\n        campaigns[campaignId].isActive = false;\n        campaigns[campaignId].remainBudget = 0;\n    }\n\n    /**\n\t * @dev Function to Get Campaign By Id\n\t * @param campaignId The string Identifier of Campaign\n\t * @return A Campaign will return if there are campaignId \n\t */\n    function getCampaignById(string memory campaignId) public view returns (Campaign memory){\n        return campaigns[campaignId];\n    }\n    /*END: Campaign Detail */\n\n    /*START: MyTRC21Mintable */\n\n    /**\n\t * @dev Function to change OwnerOfContract\n\t * @param newOwner The address that will be new Owner.\n\t */\n    function changeOwner(address newOwner) public onlyOwner{\n        _changeIssuer(newOwner);\n        _changeOwnerRole(newOwner);\n    }\n    /**\n\t * @dev Function to mint tokens\n\t * @param to The address that will receive the minted tokens.\n\t * @param value The amount of tokens to mint.\n\t * @return A boolean that indicates if the operation was successful.\n\t */\n\tfunction mint(\n\t\taddress to,\n\t\tuint256 value\n\t)\n\tpublic\n\tonlyMinter\n\treturns (bool)\n\t{\n\t\t_mint(to, value);\n\t\treturn true;\n\t}\n    /*END: MyTRC21Mintable */\n}",
  "sourcePath": "D:/CN9/Capstone/LBAContract.github.io/contracts/Support.sol",
  "compiler": {
    "name": "solc",
    "version": "0.7.0+commit.9e61f92b.Emscripten.clang"
  },
  "schemaVersion": "3.3.4",
  "updatedAt": "2021-04-22T13:40:59.238Z",
  "networkType": "ethereum",
  "devdoc": {
    "kind": "dev",
    "methods": {
      "addDocument(bytes)": {
        "details": "Function to add Document to verify",
        "params": {
          "id": "The security Hash of documents."
        }
      },
      "allowance(address,address)": {
        "details": "Function to check the amount of tokens that an owner allowed to a spender.",
        "params": {
          "owner": "address The address which owns the funds.",
          "spender": "address The address which will spend the funds."
        },
        "returns": {
          "_0": "A uint256 specifying the amount of tokens still available for the spender."
        }
      },
      "approve(address,uint256)": {
        "details": "Approve the passed address to spend the specified amount of tokens on behalf of msg.sender. Beware that changing an allowance with this method brings the risk that someone may use both the old and the new allowance by unfortunate transaction ordering. One possible solution to mitigate this race condition is to first reduce the spender's allowance to 0 and set the desired value afterwards: https://github.com/ethereum/EIPs/issues/20#issuecomment-263524729",
        "params": {
          "spender": "The address which will spend the funds.",
          "value": "The amount of tokens to be spent."
        }
      },
      "approveDocument(bytes)": {
        "details": "Function to approve to Document to verify.",
        "params": {
          "id": "The security Hash of documents."
        }
      },
      "balanceOf(address)": {
        "details": "Gets the balance of the specified address.",
        "params": {
          "owner": "The address to query the balance of."
        },
        "returns": {
          "_0": "An uint256 representing the amount owned by the passed address."
        }
      },
      "burn(uint256)": {
        "details": "Function to burn tokens",
        "params": {
          "value": "The amount of tokens to mint."
        },
        "returns": {
          "_0": "A boolean that indicates if the operation was successful."
        }
      },
      "cancelCampaign(string)": {
        "details": "Function to Cancel Campaign",
        "params": {
          "campaignId": "The string Identifier of Campaign"
        }
      },
      "changeOwner(address)": {
        "details": "Function to change OwnerOfContract",
        "params": {
          "newOwner": "The address that will be new Owner."
        }
      },
      "checkDocumentIsApproveOrReject(bytes)": {
        "details": "Function to get all signature of document by Security hash of document",
        "params": {
          "id": "The security Hash of documents."
        },
        "returns": {
          "_0": "Array of address of signed"
        }
      },
      "checkOutCampaign(string,uint256)": {
        "details": "Function to CheckOut Campaign",
        "params": {
          "campaignId": "The string Identifier of Campaign.",
          "redudant": "The address of suppiler to transfer money."
        }
      },
      "createCampaign(string,uint256,uint256,uint256,uint256)": {
        "details": "Function to Create Campaign",
        "params": {
          "campaignId": "The string Identifier of Campaign.",
          "feeCancel": "This is fee to cancel campaign.",
          "remainBudget": "This is money after minus fee",
          "totalBudget": "This is Budget of campaign.",
          "totalWithFee": "This is all money of campaign include all fee."
        }
      },
      "decimals()": {
        "returns": {
          "_0": "the number of decimals of the token."
        }
      },
      "deleteDocument(bytes)": {
        "details": "Function to delete Document",
        "params": {
          "id": "The security Hash of documents."
        }
      },
      "estimateFee(uint256)": {
        "details": "Estimate transaction fee.",
        "params": {
          "value": "amount tokens sent"
        }
      },
      "getApproveDocument(bytes)": {
        "details": "Function to get all signature of document by Security hash of document",
        "params": {
          "id": "The security Hash of documents."
        },
        "returns": {
          "_0": "Array of address of signed"
        }
      },
      "getCampaignById(string)": {
        "details": "Function to Get Campaign By Id",
        "params": {
          "campaignId": "The string Identifier of Campaign"
        },
        "returns": {
          "_0": "A Campaign will return if there are campaignId "
        }
      },
      "getOwnerDocument(bytes)": {
        "details": "Function to get all signature of document by Security hash of document",
        "params": {
          "id": "The security Hash of documents."
        },
        "returns": {
          "_0": "Array of address of signed"
        }
      },
      "getRejectDocument(bytes)": {
        "details": "Function to get all signature of document by Security hash of document",
        "params": {
          "id": "The security Hash of documents."
        },
        "returns": {
          "_0": "Array of address of signed"
        }
      },
      "issuer()": {
        "details": "token's foundation"
      },
      "minFee()": {
        "details": "The amount fee that will be lost when transferring."
      },
      "mint(address,uint256)": {
        "details": "Function to mint tokens",
        "params": {
          "to": "The address that will receive the minted tokens.",
          "value": "The amount of tokens to mint."
        },
        "returns": {
          "_0": "A boolean that indicates if the operation was successful."
        }
      },
      "name()": {
        "returns": {
          "_0": "the name of the token."
        }
      },
      "payToSupplier(string,string,address,uint256)": {
        "details": "Function to Pay To Supplier",
        "params": {
          "campaignId": "The string Identifier of Campaign",
          "supplier": "The address of suppiler to transfer money",
          "value": "The value of money to transfer to supplier"
        },
        "returns": {
          "_0": "A boolean that indicates if the operation was successful."
        }
      },
      "rejectDocument(bytes)": {
        "details": "Function to reject to Document to verify.",
        "params": {
          "id": "The security Hash of documents."
        }
      },
      "removeApprove(bytes,address)": {
        "details": "Function to remove who approved this document",
        "params": {
          "id": "The security Hash of documents."
        }
      },
      "removeReject(bytes,address)": {
        "details": "Function to remove who rejected this document",
        "params": {
          "id": "The security Hash of documents."
        }
      },
      "symbol()": {
        "returns": {
          "_0": "the symbol of the token."
        }
      },
      "totalSupply()": {
        "details": "Total number of tokens in existence"
      },
      "transfer(address,uint256)": {
        "details": "Transfer token for a specified address",
        "params": {
          "to": "The address to transfer to.",
          "value": "The amount to be transferred."
        }
      },
      "transferFrom(address,address,uint256)": {
        "details": "Transfer tokens from one address to another",
        "params": {
          "from": "address The address which you want to send tokens from",
          "to": "address The address which you want to transfer to",
          "value": "uint256 the amount of tokens to be transferred"
        }
      }
    },
    "version": 1
  },
  "userdoc": {
    "kind": "user",
    "methods": {},
    "version": 1
  }
}