{
  "contractName": "Support",
  "abi": [
    {
      "anonymous": false,
      "inputs": [
        {
          "indexed": false,
          "internalType": "bytes",
          "name": "id",
          "type": "bytes"
        },
        {
          "indexed": true,
          "internalType": "address",
          "name": "from",
          "type": "address"
        },
        {
          "indexed": false,
          "internalType": "string",
          "name": "comment",
          "type": "string"
        }
      ],
      "name": "Add",
      "type": "event"
    },
    {
      "anonymous": false,
      "inputs": [
        {
          "indexed": true,
          "internalType": "address",
          "name": "owner",
          "type": "address"
        },
        {
          "indexed": true,
          "internalType": "address",
          "name": "spender",
          "type": "address"
        },
        {
          "indexed": false,
          "internalType": "uint256",
          "name": "value",
          "type": "uint256"
        }
      ],
      "name": "Approval",
      "type": "event"
    },
    {
      "anonymous": false,
      "inputs": [
        {
          "indexed": true,
          "internalType": "address",
          "name": "owner",
          "type": "address"
        },
        {
          "indexed": false,
          "internalType": "string",
          "name": "campaignId",
          "type": "string"
        },
        {
          "indexed": false,
          "internalType": "uint256",
          "name": "value",
          "type": "uint256"
        }
      ],
      "name": "AuthorityCampaign",
      "type": "event"
    },
    {
      "anonymous": false,
      "inputs": [
        {
          "indexed": true,
          "internalType": "address",
          "name": "owner",
          "type": "address"
        },
        {
          "indexed": false,
          "internalType": "string",
          "name": "campaignId",
          "type": "string"
        },
        {
          "indexed": false,
          "internalType": "uint256",
          "name": "value",
          "type": "uint256"
        }
      ],
      "name": "CreateCampaign",
      "type": "event"
    },
    {
      "anonymous": false,
      "inputs": [
        {
          "indexed": false,
          "internalType": "bytes",
          "name": "id",
          "type": "bytes"
        },
        {
          "indexed": true,
          "internalType": "address",
          "name": "from",
          "type": "address"
        },
        {
          "indexed": false,
          "internalType": "string",
          "name": "comment",
          "type": "string"
        }
      ],
      "name": "Delete",
      "type": "event"
    },
    {
      "anonymous": false,
      "inputs": [
        {
          "indexed": true,
          "internalType": "address",
          "name": "from",
          "type": "address"
        },
        {
          "indexed": true,
          "internalType": "address",
          "name": "to",
          "type": "address"
        },
        {
          "indexed": true,
          "internalType": "address",
          "name": "issuer",
          "type": "address"
        },
        {
          "indexed": false,
          "internalType": "uint256",
          "name": "value",
          "type": "uint256"
        }
      ],
      "name": "Fee",
      "type": "event"
    },
    {
      "anonymous": false,
      "inputs": [
        {
          "indexed": false,
          "internalType": "bytes",
          "name": "id",
          "type": "bytes"
        },
        {
          "indexed": true,
          "internalType": "address",
          "name": "from",
          "type": "address"
        },
        {
          "indexed": false,
          "internalType": "string",
          "name": "comment",
          "type": "string"
        }
      ],
      "name": "Sign",
      "type": "event"
    },
    {
      "anonymous": false,
      "inputs": [
        {
          "indexed": true,
          "internalType": "address",
          "name": "from",
          "type": "address"
        },
        {
          "indexed": true,
          "internalType": "address",
          "name": "to",
          "type": "address"
        },
        {
          "indexed": false,
          "internalType": "uint256",
          "name": "value",
          "type": "uint256"
        }
      ],
      "name": "Transfer",
      "type": "event"
    },
    {
      "inputs": [
        {
          "internalType": "address",
          "name": "account",
          "type": "address"
        }
      ],
      "name": "_changeOwnerRole",
      "outputs": [],
      "stateMutability": "nonpayable",
      "type": "function"
    },
    {
      "inputs": [
        {
          "internalType": "address",
          "name": "account",
          "type": "address"
        },
        {
          "internalType": "string",
          "name": "roleType",
          "type": "string"
        }
      ],
      "name": "add",
      "outputs": [],
      "stateMutability": "nonpayable",
      "type": "function"
    },
    {
      "inputs": [
        {
          "internalType": "address",
          "name": "owner",
          "type": "address"
        },
        {
          "internalType": "address",
          "name": "spender",
          "type": "address"
        }
      ],
      "name": "allowance",
      "outputs": [
        {
          "internalType": "uint256",
          "name": "",
          "type": "uint256"
        }
      ],
      "stateMutability": "view",
      "type": "function",
      "constant": true
    },
    {
      "inputs": [
        {
          "internalType": "address",
          "name": "spender",
          "type": "address"
        },
        {
          "internalType": "uint256",
          "name": "value",
          "type": "uint256"
        }
      ],
      "name": "approve",
      "outputs": [
        {
          "internalType": "bool",
          "name": "",
          "type": "bool"
        }
      ],
      "stateMutability": "nonpayable",
      "type": "function"
    },
    {
      "inputs": [
        {
          "internalType": "address",
          "name": "owner",
          "type": "address"
        }
      ],
      "name": "balanceOf",
      "outputs": [
        {
          "internalType": "uint256",
          "name": "",
          "type": "uint256"
        }
      ],
      "stateMutability": "view",
      "type": "function",
      "constant": true
    },
    {
      "inputs": [
        {
          "internalType": "uint256",
          "name": "value",
          "type": "uint256"
        }
      ],
      "name": "burn",
      "outputs": [
        {
          "internalType": "bool",
          "name": "",
          "type": "bool"
        }
      ],
      "stateMutability": "nonpayable",
      "type": "function"
    },
    {
      "inputs": [
        {
          "internalType": "string",
          "name": "",
          "type": "string"
        }
      ],
      "name": "campaigns",
      "outputs": [
        {
          "internalType": "string",
          "name": "campaignId",
          "type": "string"
        },
        {
          "internalType": "address",
          "name": "advertiser",
          "type": "address"
        },
        {
          "internalType": "uint256",
          "name": "totalBudget",
          "type": "uint256"
        },
        {
          "internalType": "uint256",
          "name": "remainBudget",
          "type": "uint256"
        },
        {
          "internalType": "uint256",
          "name": "feeCancel",
          "type": "uint256"
        },
        {
          "internalType": "bool",
          "name": "isActive",
          "type": "bool"
        },
        {
          "internalType": "bool",
          "name": "isExist",
          "type": "bool"
        }
      ],
      "stateMutability": "view",
      "type": "function",
      "constant": true
    },
    {
      "inputs": [
        {
          "internalType": "string",
          "name": "",
          "type": "string"
        },
        {
          "internalType": "string",
          "name": "",
          "type": "string"
        }
      ],
      "name": "checkPayed",
      "outputs": [
        {
          "internalType": "bool",
          "name": "",
          "type": "bool"
        }
      ],
      "stateMutability": "view",
      "type": "function",
      "constant": true
    },
    {
      "inputs": [],
      "name": "decimals",
      "outputs": [
        {
          "internalType": "uint8",
          "name": "",
          "type": "uint8"
        }
      ],
      "stateMutability": "view",
      "type": "function",
      "constant": true
    },
    {
      "inputs": [
        {
          "internalType": "bytes32",
          "name": "",
          "type": "bytes32"
        }
      ],
      "name": "documents",
      "outputs": [
        {
          "internalType": "uint256",
          "name": "timestamp",
          "type": "uint256"
        },
        {
          "internalType": "bytes",
          "name": "ipfs_hash",
          "type": "bytes"
        },
        {
          "internalType": "address",
          "name": "owner",
          "type": "address"
        },
        {
          "internalType": "bool",
          "name": "isExist",
          "type": "bool"
        }
      ],
      "stateMutability": "view",
      "type": "function",
      "constant": true
    },
    {
      "inputs": [
        {
          "internalType": "uint256",
          "name": "value",
          "type": "uint256"
        }
      ],
      "name": "estimateFee",
      "outputs": [
        {
          "internalType": "uint256",
          "name": "",
          "type": "uint256"
        }
      ],
      "stateMutability": "view",
      "type": "function",
      "constant": true
    },
    {
      "inputs": [
        {
          "internalType": "address",
          "name": "account",
          "type": "address"
        }
      ],
      "name": "isOwner",
      "outputs": [
        {
          "internalType": "bool",
          "name": "",
          "type": "bool"
        }
      ],
      "stateMutability": "view",
      "type": "function",
      "constant": true
    },
    {
      "inputs": [
        {
          "internalType": "address",
          "name": "account",
          "type": "address"
        },
        {
          "internalType": "string",
          "name": "roleType",
          "type": "string"
        }
      ],
      "name": "isRole",
      "outputs": [
        {
          "internalType": "bool",
          "name": "",
          "type": "bool"
        }
      ],
      "stateMutability": "view",
      "type": "function",
      "constant": true
    },
    {
      "inputs": [],
      "name": "issuer",
      "outputs": [
        {
          "internalType": "address",
          "name": "",
          "type": "address"
        }
      ],
      "stateMutability": "view",
      "type": "function",
      "constant": true
    },
    {
      "inputs": [],
      "name": "minFee",
      "outputs": [
        {
          "internalType": "uint256",
          "name": "",
          "type": "uint256"
        }
      ],
      "stateMutability": "view",
      "type": "function",
      "constant": true
    },
    {
      "inputs": [],
      "name": "name",
      "outputs": [
        {
          "internalType": "string",
          "name": "",
          "type": "string"
        }
      ],
      "stateMutability": "view",
      "type": "function",
      "constant": true
    },
    {
      "inputs": [
        {
          "internalType": "address",
          "name": "account",
          "type": "address"
        },
        {
          "internalType": "string",
          "name": "roleType",
          "type": "string"
        }
      ],
      "name": "remove",
      "outputs": [],
      "stateMutability": "nonpayable",
      "type": "function"
    },
    {
      "inputs": [
        {
          "internalType": "bytes",
          "name": "id",
          "type": "bytes"
        },
        {
          "internalType": "address",
          "name": "checkAddress",
          "type": "address"
        }
      ],
      "name": "removeApprove",
      "outputs": [
        {
          "internalType": "bool",
          "name": "",
          "type": "bool"
        }
      ],
      "stateMutability": "nonpayable",
      "type": "function"
    },
    {
      "inputs": [
        {
          "internalType": "bytes",
          "name": "id",
          "type": "bytes"
        },
        {
          "internalType": "address",
          "name": "checkAddress",
          "type": "address"
        }
      ],
      "name": "removeReject",
      "outputs": [
        {
          "internalType": "bool",
          "name": "",
          "type": "bool"
        }
      ],
      "stateMutability": "nonpayable",
      "type": "function"
    },
    {
      "inputs": [
        {
          "internalType": "uint256",
          "name": "value",
          "type": "uint256"
        }
      ],
      "name": "setMinFee",
      "outputs": [],
      "stateMutability": "nonpayable",
      "type": "function"
    },
    {
      "inputs": [],
      "name": "symbol",
      "outputs": [
        {
          "internalType": "string",
          "name": "",
          "type": "string"
        }
      ],
      "stateMutability": "view",
      "type": "function",
      "constant": true
    },
    {
      "inputs": [],
      "name": "totalSupply",
      "outputs": [
        {
          "internalType": "uint256",
          "name": "",
          "type": "uint256"
        }
      ],
      "stateMutability": "view",
      "type": "function",
      "constant": true
    },
    {
      "inputs": [
        {
          "internalType": "address",
          "name": "to",
          "type": "address"
        },
        {
          "internalType": "uint256",
          "name": "value",
          "type": "uint256"
        }
      ],
      "name": "transfer",
      "outputs": [
        {
          "internalType": "bool",
          "name": "",
          "type": "bool"
        }
      ],
      "stateMutability": "nonpayable",
      "type": "function"
    },
    {
      "inputs": [
        {
          "internalType": "address",
          "name": "from",
          "type": "address"
        },
        {
          "internalType": "address",
          "name": "to",
          "type": "address"
        },
        {
          "internalType": "uint256",
          "name": "value",
          "type": "uint256"
        }
      ],
      "name": "transferFrom",
      "outputs": [
        {
          "internalType": "bool",
          "name": "",
          "type": "bool"
        }
      ],
      "stateMutability": "nonpayable",
      "type": "function"
    },
    {
      "inputs": [
        {
          "internalType": "bytes",
          "name": "id",
          "type": "bytes"
        }
      ],
      "name": "addDocument",
      "outputs": [],
      "stateMutability": "nonpayable",
      "type": "function"
    },
    {
      "inputs": [
        {
          "internalType": "bytes",
          "name": "id",
          "type": "bytes"
        }
      ],
      "name": "deleteDocument",
      "outputs": [],
      "stateMutability": "nonpayable",
      "type": "function"
    },
    {
      "inputs": [
        {
          "internalType": "bytes",
          "name": "id",
          "type": "bytes"
        }
      ],
      "name": "approveDocument",
      "outputs": [],
      "stateMutability": "nonpayable",
      "type": "function"
    },
    {
      "inputs": [
        {
          "internalType": "bytes",
          "name": "id",
          "type": "bytes"
        }
      ],
      "name": "rejectDocument",
      "outputs": [],
      "stateMutability": "nonpayable",
      "type": "function"
    },
    {
      "inputs": [
        {
          "internalType": "bytes",
          "name": "id",
          "type": "bytes"
        }
      ],
      "name": "getOwnerDocument",
      "outputs": [
        {
          "internalType": "address",
          "name": "",
          "type": "address"
        }
      ],
      "stateMutability": "view",
      "type": "function",
      "constant": true
    },
    {
      "inputs": [
        {
          "internalType": "bytes",
          "name": "id",
          "type": "bytes"
        }
      ],
      "name": "getApproveDocument",
      "outputs": [
        {
          "internalType": "address[]",
          "name": "",
          "type": "address[]"
        }
      ],
      "stateMutability": "view",
      "type": "function",
      "constant": true
    },
    {
      "inputs": [
        {
          "internalType": "bytes",
          "name": "id",
          "type": "bytes"
        }
      ],
      "name": "getRejectDocument",
      "outputs": [
        {
          "internalType": "address[]",
          "name": "",
          "type": "address[]"
        }
      ],
      "stateMutability": "view",
      "type": "function",
      "constant": true
    },
    {
      "inputs": [
        {
          "internalType": "bytes",
          "name": "id",
          "type": "bytes"
        }
      ],
      "name": "checkDocumentIsApproveOrReject",
      "outputs": [
        {
          "internalType": "uint256",
          "name": "",
          "type": "uint256"
        }
      ],
      "stateMutability": "view",
      "type": "function",
      "constant": true
    },
    {
      "inputs": [
        {
          "internalType": "string",
          "name": "campaignId",
          "type": "string"
        },
        {
          "internalType": "uint256",
          "name": "totalWithFee",
          "type": "uint256"
        },
        {
          "internalType": "uint256",
          "name": "totalBudget",
          "type": "uint256"
        },
        {
          "internalType": "uint256",
          "name": "remainBudget",
          "type": "uint256"
        },
        {
          "internalType": "uint256",
          "name": "feeCancel",
          "type": "uint256"
        }
      ],
      "name": "createCampaign",
      "outputs": [],
      "stateMutability": "nonpayable",
      "type": "function"
    },
    {
      "inputs": [
        {
          "internalType": "string",
          "name": "campaignId",
          "type": "string"
        },
        {
          "internalType": "uint256",
          "name": "redudant",
          "type": "uint256"
        }
      ],
      "name": "checkOutCampaign",
      "outputs": [],
      "stateMutability": "nonpayable",
      "type": "function"
    },
    {
      "inputs": [
        {
          "internalType": "string",
          "name": "campaignId",
          "type": "string"
        },
        {
          "internalType": "string",
          "name": "paymentKey",
          "type": "string"
        },
        {
          "internalType": "address",
          "name": "supplier",
          "type": "address"
        },
        {
          "internalType": "uint256",
          "name": "value",
          "type": "uint256"
        }
      ],
      "name": "payToSupplier",
      "outputs": [
        {
          "internalType": "bool",
          "name": "",
          "type": "bool"
        }
      ],
      "stateMutability": "nonpayable",
      "type": "function"
    },
    {
      "inputs": [
        {
          "internalType": "string",
          "name": "campaignId",
          "type": "string"
        }
      ],
      "name": "cancelCampaign",
      "outputs": [],
      "stateMutability": "nonpayable",
      "type": "function"
    },
    {
      "inputs": [
        {
          "internalType": "string",
          "name": "campaignId",
          "type": "string"
        }
      ],
      "name": "getCampaignById",
      "outputs": [
        {
          "components": [
            {
              "internalType": "string",
              "name": "campaignId",
              "type": "string"
            },
            {
              "internalType": "address",
              "name": "advertiser",
              "type": "address"
            },
            {
              "internalType": "uint256",
              "name": "totalBudget",
              "type": "uint256"
            },
            {
              "internalType": "uint256",
              "name": "remainBudget",
              "type": "uint256"
            },
            {
              "internalType": "uint256",
              "name": "feeCancel",
              "type": "uint256"
            },
            {
              "internalType": "bool",
              "name": "isActive",
              "type": "bool"
            },
            {
              "internalType": "bool",
              "name": "isExist",
              "type": "bool"
            }
          ],
          "internalType": "struct CampaignDetail.Campaign",
          "name": "",
          "type": "tuple"
        }
      ],
      "stateMutability": "view",
      "type": "function",
      "constant": true
    },
    {
      "inputs": [
        {
          "internalType": "address",
          "name": "newOwner",
          "type": "address"
        }
      ],
      "name": "changeOwner",
      "outputs": [],
      "stateMutability": "nonpayable",
      "type": "function"
    },
    {
      "inputs": [
        {
          "internalType": "address",
          "name": "to",
          "type": "address"
        },
        {
          "internalType": "uint256",
          "name": "value",
          "type": "uint256"
        }
      ],
      "name": "mint",
      "outputs": [
        {
          "internalType": "bool",
          "name": "",
          "type": "bool"
        }
      ],
      "stateMutability": "nonpayable",
      "type": "function"
    }
  ],
  "bytecode": "0x60806040523480156200001157600080fd5b506040518060400160405280600a81526020017f41647665726973696e67000000000000000000000000000000000000000000008152506040518060400160405280600481526020017f4c4241540000000000000000000000000000000000000000000000000000000081525060006012600a0a6000026012600a0a6000028460059080519060200190620000a89291906200059d565b508360069080519060200190620000c19291906200059d565b5082600760006101000a81548160ff021916908360ff160217905550620000f830836200037f640100000000026401000000009004565b6200011233620004f4640100000000026401000000009004565b6200012c8162000573640100000000026401000000009004565b505050505033600b60000160006101000a81548173ffffffffffffffffffffffffffffffffffffffff021916908373ffffffffffffffffffffffffffffffffffffffff1602179055506001600b6001016040516200018a9062000748565b908152602001604051809103902060003373ffffffffffffffffffffffffffffffffffffffff1673ffffffffffffffffffffffffffffffffffffffff16815260200190815260200160002060006101000a81548160ff0219169083151502179055506001600b60010160405162000201906200071a565b908152602001604051809103902060003373ffffffffffffffffffffffffffffffffffffffff1673ffffffffffffffffffffffffffffffffffffffff16815260200190815260200160002060006101000a81548160ff0219169083151502179055506001600b600101604051620002789062000731565b9081526020016040518091039020600073591d6d73aa1ee46202f55443ab166d8b4b1403e073ffffffffffffffffffffffffffffffffffffffff1673ffffffffffffffffffffffffffffffffffffffff16815260200190815260200160002060006101000a81548160ff0219169083151502179055506001600b60010160405162000303906200071a565b9081526020016040518091039020600073591d6d73aa1ee46202f55443ab166d8b4b1403e073ffffffffffffffffffffffffffffffffffffffff1673ffffffffffffffffffffffffffffffffffffffff16815260200190815260200160002060006101000a81548160ff02191690831515021790555062000791565b600073ffffffffffffffffffffffffffffffffffffffff168273ffffffffffffffffffffffffffffffffffffffff161415620003ba57600080fd5b620003df816004546200057d640100000000026200355d179091906401000000009004565b60048190555062000446816000808573ffffffffffffffffffffffffffffffffffffffff1673ffffffffffffffffffffffffffffffffffffffff168152602001908152602001600020546200057d640100000000026200355d179091906401000000009004565b6000808473ffffffffffffffffffffffffffffffffffffffff1673ffffffffffffffffffffffffffffffffffffffff168152602001908152602001600020819055508173ffffffffffffffffffffffffffffffffffffffff16600073ffffffffffffffffffffffffffffffffffffffff167fddf252ad1be2c89b69c2b068fc378daa952ba7f163c4a11628f55a4df523b3ef83604051620004e891906200075f565b60405180910390a35050565b600073ffffffffffffffffffffffffffffffffffffffff168173ffffffffffffffffffffffffffffffffffffffff1614156200052f57600080fd5b80600260006101000a81548173ffffffffffffffffffffffffffffffffffffffff021916908373ffffffffffffffffffffffffffffffffffffffff16021790555050565b8060018190555050565b6000808284019050838110156200059357600080fd5b8091505092915050565b828054600181600116156101000203166002900490600052602060002090601f016020900481019282601f10620005e057805160ff191683800117855562000611565b8280016001018555821562000611579182015b8281111562000610578251825591602001919060010190620005f3565b5b50905062000620919062000624565b5090565b5b808211156200063f57600081600090555060010162000625565b5090565b6000620006526006836200077c565b91507f4d696e74657200000000000000000000000000000000000000000000000000006000830152600682019050919050565b6000620006946006836200077c565b91507f53657276657200000000000000000000000000000000000000000000000000006000830152600682019050919050565b6000620006d66005836200077c565b91507f41646d696e0000000000000000000000000000000000000000000000000000006000830152600582019050919050565b620007148162000787565b82525050565b6000620007278262000643565b9150819050919050565b60006200073e8262000685565b9150819050919050565b60006200075582620006c7565b9150819050919050565b600060208201905062000776600083018462000709565b92915050565b600081905092915050565b6000819050919050565b61521b80620007a16000396000f3fe608060405234801561001057600080fd5b506004361061025a576000357c01000000000000000000000000000000000000000000000000000000009004806331ac99201161015857806395d89b41116100d5578063dd62ed3e11610099578063dd62ed3e14610794578063e26034cd146107c4578063e35d66a8146107f4578063e631ce9914610810578063ebdc695d1461082c5761025a565b806395d89b41146106f2578063a6f9dae114610710578063a9059cbb1461072c578063be7e2a0b1461075c578063c79de09b146107785761025a565b806349209fc81161011c57806349209fc81461062a5780634f8eb0c81461064657806370a08231146106765780637769bc74146106a65780638f21a9a5146106c25761025a565b806331ac99201461056257806336d6da551461057e57806340c10f191461059a57806342966c68146105ca5780634340d51c146105fa5761025a565b8063219782f7116101e6578063267945ff116101aa578063267945ff146104955780632b2805db146104b15780632bae5a44146104e45780632f54bf6e14610514578063313ce567146105445761025a565b8063219782f7146103cb578063228bc0a9146103fb57806323b872dd1461041757806323e8f4bb1461044757806324ec7590146104775761025a565b80631410eafd1161022d5780631410eafd1461030d57806314c160621461033d57806318160ddd146103595780631d143848146103775780631d39e509146103955761025a565b806306fdde031461025f578063070eb1571461027d578063095ea7b3146102ad578063127e8e4d146102dd575b600080fd5b61026761085c565b6040516102749190614d3a565b60405180910390f35b61029760048036038101906102929190614217565b6108fe565b6040516102a49190614c16565b60405180910390f35b6102c760048036038101906102c2919061426b565b61091e565b6040516102d49190614c16565b60405180910390f35b6102f760048036038101906102f29190614588565b610ac5565b6040516103049190614ee4565b60405180910390f35b610327600480360381019061032291906142d0565b610af6565b6040516103349190614ee4565b60405180910390f35b610357600480360381019061035291906142d0565b610d1b565b005b610361610f98565b60405161036e9190614ee4565b60405180910390f35b61037f610fa2565b60405161038c9190614bd9565b60405180910390f35b6103af60048036038101906103aa9190614365565b610fcc565b6040516103c29796959493929190614d5c565b60405180910390f35b6103e560048036038101906103e09190614412565b6110f6565b6040516103f29190614c16565b60405180910390f35b610415600480360381019061041091906142d0565b6112fe565b005b610431600480360381019061042c91906141c8565b61162f565b60405161043e9190614c16565b60405180910390f35b610461600480360381019061045c91906143a6565b61196d565b60405161046e9190614c16565b60405180910390f35b61047f6119c8565b60405161048c9190614ee4565b60405180910390f35b6104af60048036038101906104aa9190614163565b6119d2565b005b6104cb60048036038101906104c691906142a7565b611b57565b6040516104db9493929190614eff565b60405180910390f35b6104fe60048036038101906104f991906142d0565b611c4c565b60405161050b9190614bf4565b60405180910390f35b61052e60048036038101906105299190614163565b611cf7565b60405161053b9190614c16565b60405180910390f35b61054c611d54565b6040516105599190614f4b565b60405180910390f35b61057c60048036038101906105779190614588565b611d6b565b005b61059860048036038101906105939190614217565b611db6565b005b6105b460048036038101906105af919061426b565b611e7d565b6040516105c19190614c16565b60405180910390f35b6105e460048036038101906105df9190614588565b611edb565b6040516105f19190614c16565b60405180910390f35b610614600480360381019061060f9190614311565b611ef0565b6040516106219190614c16565b60405180910390f35b610644600480360381019061063f9190614217565b61206c565b005b610660600480360381019061065b9190614311565b612133565b60405161066d9190614c16565b60405180910390f35b610690600480360381019061068b9190614163565b6122af565b60405161069d9190614ee4565b60405180910390f35b6106c060048036038101906106bb91906142d0565b6122f7565b005b6106dc60048036038101906106d791906142d0565b612574565b6040516106e99190614bf4565b60405180910390f35b6106fa61261f565b6040516107079190614d3a565b60405180910390f35b61072a60048036038101906107259190614163565b6126c1565b005b6107466004803603810190610741919061426b565b6126e8565b6040516107539190614c16565b60405180910390f35b610776600480360381019061077191906142d0565b61283a565b005b610792600480360381019061078d91906144f9565b612a24565b005b6107ae60048036038101906107a9919061418c565b612d3b565b6040516107bb9190614ee4565b60405180910390f35b6107de60048036038101906107d99190614365565b612dc2565b6040516107eb9190614ec2565b60405180910390f35b61080e60048036038101906108099190614365565b612f46565b005b61082a600480360381019061082591906144a5565b6132ac565b005b610846600480360381019061084191906142d0565b613516565b6040516108539190614bd9565b60405180910390f35b606060058054600181600116156101000203166002900480601f0160208091040260200160405190810160405280929190818152602001828054600181600116156101000203166002900480156108f45780601f106108c9576101008083540402835291602001916108f4565b820191906000526020600020905b8154815290600101906020018083116108d757829003601f168201915b5050505050905090565b60006109168383600b61357c9092919063ffffffff16565b905092915050565b60008073ffffffffffffffffffffffffffffffffffffffff168373ffffffffffffffffffffffffffffffffffffffff16141561095957600080fd5b6001546000803373ffffffffffffffffffffffffffffffffffffffff1673ffffffffffffffffffffffffffffffffffffffff1681526020019081526020016000205410156109a657600080fd5b81600360003373ffffffffffffffffffffffffffffffffffffffff1673ffffffffffffffffffffffffffffffffffffffff16815260200190815260200160002060008573ffffffffffffffffffffffffffffffffffffffff1673ffffffffffffffffffffffffffffffffffffffff16815260200190815260200160002081905550610a5633600260009054906101000a900473ffffffffffffffffffffffffffffffffffffffff1660015461362b565b8273ffffffffffffffffffffffffffffffffffffffff163373ffffffffffffffffffffffffffffffffffffffff167f8c5be1e5ebec7d5bd14f71427d1e84f3dd0314c0f7b2291e5b200ac8c7c3b92584604051610ab39190614ee4565b60405180910390a36001905092915050565b6000610aef600154610ae160008561387690919063ffffffff16565b61355d90919063ffffffff16565b9050919050565b600080600090506000805b600860008680519060200120815260200190815260200160002060030180549050811015610be3576000604051602001610b3b9190614b59565b6040516020818303038152906040528051906020012060086000878051906020012081526020019081526020016000206003018281548110610b7957fe5b9060005260206000200160009054906101000a900473ffffffffffffffffffffffffffffffffffffffff16604051602001610bb49190614b3e565b6040516020818303038152906040528051906020012014610bd6576001830192505b8080600101915050610b01565b5060005b600860008680519060200120815260200190815260200160002060040180549050811015610cc9576000604051602001610c219190614b59565b6040516020818303038152906040528051906020012060086000878051906020012081526020019081526020016000206004018281548110610c5f57fe5b9060005260206000200160009054906101000a900473ffffffffffffffffffffffffffffffffffffffff16604051602001610c9a9190614b3e565b6040516020818303038152906040528051906020012014610cbc576001820191505b8080600101915050610be7565b50600082148015610cda5750600081145b15610cea57600092505050610d16565b80821115610cfd57600192505050610d16565b808211610d0f57600292505050610d16565b6003925050505b919050565b610d5a336040518060400160405280600681526020017f4d696e74657200000000000000000000000000000000000000000000000000008152506108fe565b158015610d6d5750610d6b33611cf7565b155b8015610db55750610db3336040518060400160405280600681526020017f53657276657200000000000000000000000000000000000000000000000000008152506108fe565b155b610dbe57600080fd5b610dfd336040518060400160405280600581526020017f41646d696e0000000000000000000000000000000000000000000000000000008152506108fe565b610e0657600080fd5b600860008280519060200120815260200190815260200160002060050160009054906101000a900460ff16610ebe573373ffffffffffffffffffffffffffffffffffffffff167f7b178bf1583b36c417d982a222dfebdf8e3c8ecff7e75e459627b176a9e8bd7282604051610e7b9190614c31565b60405180910390a26040517f08c379a0000000000000000000000000000000000000000000000000000000008152600401610eb590614e02565b60405180910390fd5b610ec88133611ef0565b506008600082805190602001208152602001908152602001600020600401339080600181540180825580915050600190039060005260206000200160009091909190916101000a81548173ffffffffffffffffffffffffffffffffffffffff021916908373ffffffffffffffffffffffffffffffffffffffff1602179055503373ffffffffffffffffffffffffffffffffffffffff167f7b178bf1583b36c417d982a222dfebdf8e3c8ecff7e75e459627b176a9e8bd7282604051610f8d9190614d05565b60405180910390a250565b6000600454905090565b6000600260009054906101000a900473ffffffffffffffffffffffffffffffffffffffff16905090565b600981805160208101820180518482526020830160208501208183528095505050505050600091509050806000018054600181600116156101000203166002900480601f01602080910402602001604051908101604052809291908181526020018280546001816001161561010002031660029004801561108e5780601f106110635761010080835404028352916020019161108e565b820191906000526020600020905b81548152906001019060200180831161107157829003601f168201915b5050505050908060010160009054906101000a900473ffffffffffffffffffffffffffffffffffffffff16908060020154908060030154908060040154908060050160009054906101000a900460ff16908060050160019054906101000a900460ff16905087565b6000611137336040518060400160405280600681526020017f53657276657200000000000000000000000000000000000000000000000000008152506108fe565b61114057600080fd5b600073ffffffffffffffffffffffffffffffffffffffff168373ffffffffffffffffffffffffffffffffffffffff16141561117a57600080fd5b60098560405161118a9190614b74565b9081526020016040518091039020600301548211156111a857600080fd5b600a856040516111b89190614b74565b9081526020016040518091039020846040516111d49190614b74565b908152602001604051809103902060009054906101000a900460ff16156111fa57600080fd5b61122e8260098760405161120e9190614b74565b9081526020016040518091039020600301546138b090919063ffffffff16565b60098660405161123e9190614b74565b90815260200160405180910390206003018190555061129f306009876040516112679190614b74565b908152602001604051809103902060010160009054906101000a900473ffffffffffffffffffffffffffffffffffffffff168461362b565b6001600a866040516112b19190614b74565b9081526020016040518091039020856040516112cd9190614b74565b908152602001604051809103902060006101000a81548160ff02191690831515021790555060019050949350505050565b600860008280519060200120815260200190815260200160002060050160009054906101000a900460ff1680156113bd5750336040516020016113419190614b59565b60405160208183030381529060405280519060200120600860008380519060200120815260200190815260200160002060020160009054906101000a900473ffffffffffffffffffffffffffffffffffffffff166040516020016113a59190614b3e565b60405160208183030381529060405280519060200120145b806113f05750600860008280519060200120815260200190815260200160002060050160009054906101000a900460ff16155b1561162c576060600067ffffffffffffffff8111801561140f57600080fd5b5060405190808252806020026020018201604052801561143e5781602001602082028036833780820191505090505b5090506060600067ffffffffffffffff8111801561145b57600080fd5b5060405190808252806020026020018201604052801561148a5781602001602082028036833780820191505090505b5090506040518060c001604052804281526020014285336040516020016114b393929190614ba0565b60405160208183030381529060405281526020013373ffffffffffffffffffffffffffffffffffffffff168152602001838152602001828152602001600115158152506008600085805190602001208152602001908152602001600020600082015181600001556020820151816001019080519060200190611536929190613dda565b5060408201518160020160006101000a81548173ffffffffffffffffffffffffffffffffffffffff021916908373ffffffffffffffffffffffffffffffffffffffff160217905550606082015181600301908051906020019061159a929190613e5a565b5060808201518160040190805190602001906115b7929190613e5a565b5060a08201518160050160006101000a81548160ff0219169083151502179055509050503373ffffffffffffffffffffffffffffffffffffffff167fce62159ff3c25a8e61a8bc74b520c1c33ff5acc534e8af236f3b5a587b050b05846040516116219190614cd0565b60405180910390a250505b50565b6000806116476001548461355d90919063ffffffff16565b9050600073ffffffffffffffffffffffffffffffffffffffff168473ffffffffffffffffffffffffffffffffffffffff1614156116b9576040517f08c379a00000000000000000000000000000000000000000000000000000000081526004016116b090614e82565b60405180910390fd5b600360008673ffffffffffffffffffffffffffffffffffffffff1673ffffffffffffffffffffffffffffffffffffffff16815260200190815260200160002060003373ffffffffffffffffffffffffffffffffffffffff1673ffffffffffffffffffffffffffffffffffffffff16815260200190815260200160002054811115611778576040517f08c379a000000000000000000000000000000000000000000000000000000000815260040161176f90614e62565b60405180910390fd5b61180781600360008873ffffffffffffffffffffffffffffffffffffffff1673ffffffffffffffffffffffffffffffffffffffff16815260200190815260200160002060003373ffffffffffffffffffffffffffffffffffffffff1673ffffffffffffffffffffffffffffffffffffffff168152602001908152602001600020546138b090919063ffffffff16565b600360008773ffffffffffffffffffffffffffffffffffffffff1673ffffffffffffffffffffffffffffffffffffffff16815260200190815260200160002060003373ffffffffffffffffffffffffffffffffffffffff1673ffffffffffffffffffffffffffffffffffffffff1681526020019081526020016000208190555061189285858561362b565b6118c185600260009054906101000a900473ffffffffffffffffffffffffffffffffffffffff1660015461362b565b600260009054906101000a900473ffffffffffffffffffffffffffffffffffffffff1673ffffffffffffffffffffffffffffffffffffffff168473ffffffffffffffffffffffffffffffffffffffff163373ffffffffffffffffffffffffffffffffffffffff167ffcf5b3276434181e3c48bd3fe569b8939808f11e845d4b963693b9d7dbd6dd996001546040516119599190614ee4565b60405180910390a460019150509392505050565b600a82805160208101820180518482526020830160208501208183528095505050505050818051602081018201805184825260208301602085012081835280955050505050506000915091509054906101000a900460ff1681565b6000600154905090565b6119db33611cf7565b6119e457600080fd5b80600b60000160006101000a81548173ffffffffffffffffffffffffffffffffffffffff021916908373ffffffffffffffffffffffffffffffffffffffff160217905550611a73816040518060400160405280600681526020017f4d696e7465720000000000000000000000000000000000000000000000000000815250600b6138d09092919063ffffffff16565b611abe816040518060400160405280600581526020017f41646d696e000000000000000000000000000000000000000000000000000000815250600b6138d09092919063ffffffff16565b611b09336040518060400160405280600681526020017f4d696e7465720000000000000000000000000000000000000000000000000000815250600b61399a9092919063ffffffff16565b611b54336040518060400160405280600581526020017f41646d696e000000000000000000000000000000000000000000000000000000815250600b61399a9092919063ffffffff16565b50565b6008602052806000526040600020600091509050806000015490806001018054600181600116156101000203166002900480601f016020809104026020016040519081016040528092919081815260200182805460018160011615610100020316600290048015611c095780601f10611bde57610100808354040283529160200191611c09565b820191906000526020600020905b815481529060010190602001808311611bec57829003601f168201915b5050505050908060020160009054906101000a900473ffffffffffffffffffffffffffffffffffffffff16908060050160009054906101000a900460ff16905084565b60606008600083805190602001208152602001908152602001600020600401805480602002602001604051908101604052809291908181526020018280548015611ceb57602002820191906000526020600020905b8160009054906101000a900473ffffffffffffffffffffffffffffffffffffffff1673ffffffffffffffffffffffffffffffffffffffff1681526020019060010190808311611ca1575b50505050509050919050565b6000600b60000160009054906101000a900473ffffffffffffffffffffffffffffffffffffffff1673ffffffffffffffffffffffffffffffffffffffff168273ffffffffffffffffffffffffffffffffffffffff16149050919050565b6000600760009054906101000a900460ff16905090565b611d73610fa2565b73ffffffffffffffffffffffffffffffffffffffff163373ffffffffffffffffffffffffffffffffffffffff1614611daa57600080fd5b611db381613a63565b50565b611df5336040518060400160405280600581526020017f41646d696e0000000000000000000000000000000000000000000000000000008152506108fe565b611dfe57600080fd5b604051602001611e0d90614b8b565b6040516020818303038152906040528051906020012081604051602001611e349190614b74565b604051602081830303815290604052805190602001201415611e6357611e5933611cf7565b611e6257600080fd5b5b611e798282600b6138d09092919063ffffffff16565b5050565b6000611ebe336040518060400160405280600681526020017f4d696e74657200000000000000000000000000000000000000000000000000008152506108fe565b611ec757600080fd5b611ed18383613a6d565b6001905092915050565b6000611ee73383613bbf565b60019050919050565b6000600860008480519060200120815260200190815260200160002060050160009054906101000a900460ff16156120615760005b60086000858051906020012081526020019081526020016000206003018054905081101561205f5782604051602001611f5e9190614b3e565b6040516020818303038152906040528051906020012060086000868051906020012081526020019081526020016000206003018281548110611f9c57fe5b9060005260206000200160009054906101000a900473ffffffffffffffffffffffffffffffffffffffff16604051602001611fd79190614b3e565b604051602081830303815290604052805190602001201415612052576008600085805190602001208152602001908152602001600020600301818154811061201b57fe5b9060005260206000200160006101000a81549073ffffffffffffffffffffffffffffffffffffffff02191690556001915050612066565b8080600101915050611f25565b505b600090505b92915050565b6120ab336040518060400160405280600581526020017f41646d696e0000000000000000000000000000000000000000000000000000008152506108fe565b6120b457600080fd5b6040516020016120c390614b8b565b60405160208183030381529060405280519060200120816040516020016120ea9190614b74565b6040516020818303038152906040528051906020012014156121195761210f33611cf7565b61211857600080fd5b5b61212f8282600b61399a9092919063ffffffff16565b5050565b6000600860008480519060200120815260200190815260200160002060050160009054906101000a900460ff16156122a45760005b6008600085805190602001208152602001908152602001600020600401805490508110156122a257826040516020016121a19190614b3e565b60405160208183030381529060405280519060200120600860008680519060200120815260200190815260200160002060040182815481106121df57fe5b9060005260206000200160009054906101000a900473ffffffffffffffffffffffffffffffffffffffff1660405160200161221a9190614b3e565b604051602081830303815290604052805190602001201415612295576008600085805190602001208152602001908152602001600020600401818154811061225e57fe5b9060005260206000200160006101000a81549073ffffffffffffffffffffffffffffffffffffffff021916905560019150506122a9565b8080600101915050612168565b505b600090505b92915050565b60008060008373ffffffffffffffffffffffffffffffffffffffff1673ffffffffffffffffffffffffffffffffffffffff168152602001908152602001600020549050919050565b612336336040518060400160405280600681526020017f4d696e74657200000000000000000000000000000000000000000000000000008152506108fe565b158015612349575061234733611cf7565b155b8015612391575061238f336040518060400160405280600681526020017f53657276657200000000000000000000000000000000000000000000000000008152506108fe565b155b61239a57600080fd5b6123d9336040518060400160405280600581526020017f41646d696e0000000000000000000000000000000000000000000000000000008152506108fe565b6123e257600080fd5b600860008280519060200120815260200190815260200160002060050160009054906101000a900460ff1661249a573373ffffffffffffffffffffffffffffffffffffffff167f7b178bf1583b36c417d982a222dfebdf8e3c8ecff7e75e459627b176a9e8bd72826040516124579190614c31565b60405180910390a26040517f08c379a000000000000000000000000000000000000000000000000000000000815260040161249190614e02565b60405180910390fd5b6124a48133612133565b506008600082805190602001208152602001908152602001600020600301339080600181540180825580915050600190039060005260206000200160009091909190916101000a81548173ffffffffffffffffffffffffffffffffffffffff021916908373ffffffffffffffffffffffffffffffffffffffff1602179055503373ffffffffffffffffffffffffffffffffffffffff167f7b178bf1583b36c417d982a222dfebdf8e3c8ecff7e75e459627b176a9e8bd72826040516125699190614c66565b60405180910390a250565b6060600860008380519060200120815260200190815260200160002060030180548060200260200160405190810160405280929190818152602001828054801561261357602002820191906000526020600020905b8160009054906101000a900473ffffffffffffffffffffffffffffffffffffffff1673ffffffffffffffffffffffffffffffffffffffff16815260200190600101908083116125c9575b50505050509050919050565b606060068054600181600116156101000203166002900480601f0160208091040260200160405190810160405280929190818152602001828054600181600116156101000203166002900480156126b75780601f1061268c576101008083540402835291602001916126b7565b820191906000526020600020905b81548152906001019060200180831161269a57829003601f168201915b5050505050905090565b6126ca33611cf7565b6126d357600080fd5b6126dc81613d5c565b6126e5816119d2565b50565b6000806127006001548461355d90919063ffffffff16565b9050600073ffffffffffffffffffffffffffffffffffffffff168473ffffffffffffffffffffffffffffffffffffffff16141561273c57600080fd5b8083111561274957600080fd5b61275433858561362b565b6000600154111561282f5761278e33600260009054906101000a900473ffffffffffffffffffffffffffffffffffffffff1660015461362b565b600260009054906101000a900473ffffffffffffffffffffffffffffffffffffffff1673ffffffffffffffffffffffffffffffffffffffff168473ffffffffffffffffffffffffffffffffffffffff163373ffffffffffffffffffffffffffffffffffffffff167ffcf5b3276434181e3c48bd3fe569b8939808f11e845d4b963693b9d7dbd6dd996001546040516128269190614ee4565b60405180910390a45b600191505092915050565b600860008280519060200120815260200190815260200160002060050160009054906101000a900460ff1615612a21573360405160200161287b9190614b59565b60405160208183030381529060405280519060200120600860008380519060200120815260200190815260200160002060020160009054906101000a900473ffffffffffffffffffffffffffffffffffffffff166040516020016128df9190614b3e565b60405160208183030381529060405280519060200120148061293c575061293b336040518060400160405280600581526020017f41646d696e0000000000000000000000000000000000000000000000000000008152506108fe565b5b15612a205760086000828051906020012081526020019081526020016000206000808201600090556001820160006129749190613ee4565b6002820160006101000a81549073ffffffffffffffffffffffffffffffffffffffff02191690556003820160006129ab9190613f2c565b6004820160006129bb9190613f2c565b6005820160006101000a81549060ff021916905550503373ffffffffffffffffffffffffffffffffffffffff167f28002293bad88b08fb13722e242b2f4fe6671e857d23067f331280ed245c455782604051612a179190614c9b565b60405180910390a25b5b50565b600360003373ffffffffffffffffffffffffffffffffffffffff1673ffffffffffffffffffffffffffffffffffffffff16815260200190815260200160002060003073ffffffffffffffffffffffffffffffffffffffff1673ffffffffffffffffffffffffffffffffffffffff16815260200190815260200160002054841115612ae3576040517f08c379a0000000000000000000000000000000000000000000000000000000008152600401612ada90614e62565b60405180910390fd5b600985604051612af39190614b74565b908152602001604051809103902060050160019054906101000a900460ff16612ce457612b2133308661362b565b612bb084600360003373ffffffffffffffffffffffffffffffffffffffff1673ffffffffffffffffffffffffffffffffffffffff16815260200190815260200160002060003073ffffffffffffffffffffffffffffffffffffffff1673ffffffffffffffffffffffffffffffffffffffff168152602001908152602001600020546138b090919063ffffffff16565b506040518060e001604052808681526020013373ffffffffffffffffffffffffffffffffffffffff16815260200184815260200183815260200182815260200160011515815260200160011515815250600986604051612c109190614b74565b90815260200160405180910390206000820151816000019080519060200190612c3a929190613f4d565b5060208201518160010160006101000a81548173ffffffffffffffffffffffffffffffffffffffff021916908373ffffffffffffffffffffffffffffffffffffffff16021790555060408201518160020155606082015181600301556080820151816004015560a08201518160050160006101000a81548160ff02191690831515021790555060c08201518160050160016101000a81548160ff0219169083151502179055509050505b3373ffffffffffffffffffffffffffffffffffffffff167f5c04f4c64423af25dc8dc6bd45d037a95fe962bb56e5ca1b993600448846f07f8685604051612d2c929190614dd2565b60405180910390a25050505050565b6000600360008473ffffffffffffffffffffffffffffffffffffffff1673ffffffffffffffffffffffffffffffffffffffff16815260200190815260200160002060008373ffffffffffffffffffffffffffffffffffffffff1673ffffffffffffffffffffffffffffffffffffffff16815260200190815260200160002054905092915050565b612dca613fcd565b600982604051612dda9190614b74565b90815260200160405180910390206040518060e0016040529081600082018054600181600116156101000203166002900480601f016020809104026020016040519081016040528092919081815260200182805460018160011615610100020316600290048015612e8c5780601f10612e6157610100808354040283529160200191612e8c565b820191906000526020600020905b815481529060010190602001808311612e6f57829003601f168201915b505050505081526020016001820160009054906101000a900473ffffffffffffffffffffffffffffffffffffffff1673ffffffffffffffffffffffffffffffffffffffff1673ffffffffffffffffffffffffffffffffffffffff1681526020016002820154815260200160038201548152602001600482015481526020016005820160009054906101000a900460ff161515151581526020016005820160019054906101000a900460ff1615151515815250509050919050565b600981604051612f569190614b74565b908152602001604051809103902060050160019054906101000a900460ff16612fb4576040517f08c379a0000000000000000000000000000000000000000000000000000000008152600401612fab90614e22565b60405180910390fd5b600981604051612fc49190614b74565b908152602001604051809103902060050160009054906101000a900460ff16613022576040517f08c379a000000000000000000000000000000000000000000000000000000000815260040161301990614ea2565b60405180910390fd5b3373ffffffffffffffffffffffffffffffffffffffff166009826040516130499190614b74565b908152602001604051809103902060010160009054906101000a900473ffffffffffffffffffffffffffffffffffffffff1673ffffffffffffffffffffffffffffffffffffffff1614806130d857506130d7336040518060400160405280600581526020017f41646d696e0000000000000000000000000000000000000000000000000000008152506108fe565b5b6130e157600080fd5b613120336040518060400160405280600581526020017f41646d696e0000000000000000000000000000000000000000000000000000008152506108fe565b15613197576131916009826040516131389190614b74565b908152602001604051809103902060010160009054906101000a900473ffffffffffffffffffffffffffffffffffffffff1660098360405161317a9190614b74565b9081526020016040518091039020600301546126e8565b50613248565b60006131ee6009836040516131ac9190614b74565b9081526020016040518091039020600401546009846040516131ce9190614b74565b9081526020016040518091039020600301546138b090919063ffffffff16565b905060008111156132465761324460098360405161320c9190614b74565b908152602001604051809103902060010160009054906101000a900473ffffffffffffffffffffffffffffffffffffffff16826126e8565b505b505b600060098260405161325a9190614b74565b908152602001604051809103902060050160006101000a81548160ff02191690831515021790555060006009826040516132949190614b74565b90815260200160405180910390206003018190555050565b6132eb336040518060400160405280600681526020017f53657276657200000000000000000000000000000000000000000000000000008152506108fe565b6132f457600080fd5b6009826040516133049190614b74565b908152602001604051809103902060050160019054906101000a900460ff16613362576040517f08c379a000000000000000000000000000000000000000000000000000000000815260040161335990614e22565b60405180910390fd5b6009826040516133729190614b74565b908152602001604051809103902060050160009054906101000a900460ff166133d0576040517f08c379a00000000000000000000000000000000000000000000000000000000081526004016133c790614ea2565b60405180910390fd5b806009836040516133e19190614b74565b90815260200160405180910390206003015411613433576040517f08c379a000000000000000000000000000000000000000000000000000000000815260040161342a90614e42565b60405180910390fd5b61347e6009836040516134469190614b74565b908152602001604051809103902060010160009054906101000a900473ffffffffffffffffffffffffffffffffffffffff16826126e8565b5060006009836040516134919190614b74565b908152602001604051809103902060050160006101000a81548160ff0219169083151502179055506134ed816009846040516134cd9190614b74565b9081526020016040518091039020600301546138b090919063ffffffff16565b6009836040516134fd9190614b74565b9081526020016040518091039020600301819055505050565b6000600860008380519060200120815260200190815260200160002060020160009054906101000a900473ffffffffffffffffffffffffffffffffffffffff169050919050565b60008082840190508381101561357257600080fd5b8091505092915050565b60008073ffffffffffffffffffffffffffffffffffffffff168373ffffffffffffffffffffffffffffffffffffffff1614156135b757600080fd5b83600101826040516135c99190614b74565b908152602001604051809103902060008473ffffffffffffffffffffffffffffffffffffffff1673ffffffffffffffffffffffffffffffffffffffff16815260200190815260200160002060009054906101000a900460ff1690509392505050565b6000808473ffffffffffffffffffffffffffffffffffffffff1673ffffffffffffffffffffffffffffffffffffffff168152602001908152602001600020548111156136ac576040517f08c379a00000000000000000000000000000000000000000000000000000000081526004016136a390614e62565b60405180910390fd5b600073ffffffffffffffffffffffffffffffffffffffff168273ffffffffffffffffffffffffffffffffffffffff1614156136e657600080fd5b613737816000808673ffffffffffffffffffffffffffffffffffffffff1673ffffffffffffffffffffffffffffffffffffffff168152602001908152602001600020546138b090919063ffffffff16565b6000808573ffffffffffffffffffffffffffffffffffffffff1673ffffffffffffffffffffffffffffffffffffffff168152602001908152602001600020819055506137ca816000808573ffffffffffffffffffffffffffffffffffffffff1673ffffffffffffffffffffffffffffffffffffffff1681526020019081526020016000205461355d90919063ffffffff16565b6000808473ffffffffffffffffffffffffffffffffffffffff1673ffffffffffffffffffffffffffffffffffffffff168152602001908152602001600020819055508173ffffffffffffffffffffffffffffffffffffffff168373ffffffffffffffffffffffffffffffffffffffff167fddf252ad1be2c89b69c2b068fc378daa952ba7f163c4a11628f55a4df523b3ef836040516138699190614ee4565b60405180910390a3505050565b60008083141561388957600090506138aa565b600082840290508284828161389a57fe5b04146138a557600080fd5b809150505b92915050565b6000828211156138bf57600080fd5b600082840390508091505092915050565b600073ffffffffffffffffffffffffffffffffffffffff168273ffffffffffffffffffffffffffffffffffffffff16141561390a57600080fd5b61391583838361357c565b1561391f57600080fd5b600183600101826040516139339190614b74565b908152602001604051809103902060008473ffffffffffffffffffffffffffffffffffffffff1673ffffffffffffffffffffffffffffffffffffffff16815260200190815260200160002060006101000a81548160ff021916908315150217905550505050565b600073ffffffffffffffffffffffffffffffffffffffff168273ffffffffffffffffffffffffffffffffffffffff1614156139d457600080fd5b6139df83838361357c565b6139e857600080fd5b600083600101826040516139fc9190614b74565b908152602001604051809103902060008473ffffffffffffffffffffffffffffffffffffffff1673ffffffffffffffffffffffffffffffffffffffff16815260200190815260200160002060006101000a81548160ff021916908315150217905550505050565b8060018190555050565b600073ffffffffffffffffffffffffffffffffffffffff168273ffffffffffffffffffffffffffffffffffffffff161415613aa757600080fd5b613abc8160045461355d90919063ffffffff16565b600481905550613b13816000808573ffffffffffffffffffffffffffffffffffffffff1673ffffffffffffffffffffffffffffffffffffffff1681526020019081526020016000205461355d90919063ffffffff16565b6000808473ffffffffffffffffffffffffffffffffffffffff1673ffffffffffffffffffffffffffffffffffffffff168152602001908152602001600020819055508173ffffffffffffffffffffffffffffffffffffffff16600073ffffffffffffffffffffffffffffffffffffffff167fddf252ad1be2c89b69c2b068fc378daa952ba7f163c4a11628f55a4df523b3ef83604051613bb39190614ee4565b60405180910390a35050565b600073ffffffffffffffffffffffffffffffffffffffff168273ffffffffffffffffffffffffffffffffffffffff161415613bf957600080fd5b6000808373ffffffffffffffffffffffffffffffffffffffff1673ffffffffffffffffffffffffffffffffffffffff16815260200190815260200160002054811115613c4457600080fd5b613c59816004546138b090919063ffffffff16565b600481905550613cb0816000808573ffffffffffffffffffffffffffffffffffffffff1673ffffffffffffffffffffffffffffffffffffffff168152602001908152602001600020546138b090919063ffffffff16565b6000808473ffffffffffffffffffffffffffffffffffffffff1673ffffffffffffffffffffffffffffffffffffffff16815260200190815260200160002081905550600073ffffffffffffffffffffffffffffffffffffffff168273ffffffffffffffffffffffffffffffffffffffff167fddf252ad1be2c89b69c2b068fc378daa952ba7f163c4a11628f55a4df523b3ef83604051613d509190614ee4565b60405180910390a35050565b600073ffffffffffffffffffffffffffffffffffffffff168173ffffffffffffffffffffffffffffffffffffffff161415613d9657600080fd5b80600260006101000a81548173ffffffffffffffffffffffffffffffffffffffff021916908373ffffffffffffffffffffffffffffffffffffffff16021790555050565b828054600181600116156101000203166002900490600052602060002090601f016020900481019282601f10613e1b57805160ff1916838001178555613e49565b82800160010185558215613e49579182015b82811115613e48578251825591602001919060010190613e2d565b5b509050613e569190614024565b5090565b828054828255906000526020600020908101928215613ed3579160200282015b82811115613ed25782518260006101000a81548173ffffffffffffffffffffffffffffffffffffffff021916908373ffffffffffffffffffffffffffffffffffffffff16021790555091602001919060010190613e7a565b5b509050613ee09190614041565b5090565b50805460018160011615610100020316600290046000825580601f10613f0a5750613f29565b601f016020900490600052602060002090810190613f289190614024565b5b50565b5080546000825590600052602060002090810190613f4a9190614024565b50565b828054600181600116156101000203166002900490600052602060002090601f016020900481019282601f10613f8e57805160ff1916838001178555613fbc565b82800160010185558215613fbc579182015b82811115613fbb578251825591602001919060010190613fa0565b5b509050613fc99190614024565b5090565b6040518060e0016040528060608152602001600073ffffffffffffffffffffffffffffffffffffffff1681526020016000815260200160008152602001600081526020016000151581526020016000151581525090565b5b8082111561403d576000816000905550600101614025565b5090565b5b8082111561407857600081816101000a81549073ffffffffffffffffffffffffffffffffffffffff021916905550600101614042565b5090565b60008135905061408b816151a0565b92915050565b6000813590506140a0816151b7565b92915050565b600082601f8301126140b757600080fd5b81356140ca6140c582614f93565b614f66565b915080825260208301602083018583830111156140e657600080fd5b6140f18382846150f4565b50505092915050565b600082601f83011261410b57600080fd5b813561411e61411982614fbf565b614f66565b9150808252602083016020830185838301111561413a57600080fd5b6141458382846150f4565b50505092915050565b60008135905061415d816151ce565b92915050565b60006020828403121561417557600080fd5b60006141838482850161407c565b91505092915050565b6000806040838503121561419f57600080fd5b60006141ad8582860161407c565b92505060206141be8582860161407c565b9150509250929050565b6000806000606084860312156141dd57600080fd5b60006141eb8682870161407c565b93505060206141fc8682870161407c565b925050604061420d8682870161414e565b9150509250925092565b6000806040838503121561422a57600080fd5b60006142388582860161407c565b925050602083013567ffffffffffffffff81111561425557600080fd5b614261858286016140fa565b9150509250929050565b6000806040838503121561427e57600080fd5b600061428c8582860161407c565b925050602061429d8582860161414e565b9150509250929050565b6000602082840312156142b957600080fd5b60006142c784828501614091565b91505092915050565b6000602082840312156142e257600080fd5b600082013567ffffffffffffffff8111156142fc57600080fd5b614308848285016140a6565b91505092915050565b6000806040838503121561432457600080fd5b600083013567ffffffffffffffff81111561433e57600080fd5b61434a858286016140a6565b925050602061435b8582860161407c565b9150509250929050565b60006020828403121561437757600080fd5b600082013567ffffffffffffffff81111561439157600080fd5b61439d848285016140fa565b91505092915050565b600080604083850312156143b957600080fd5b600083013567ffffffffffffffff8111156143d357600080fd5b6143df858286016140fa565b925050602083013567ffffffffffffffff8111156143fc57600080fd5b614408858286016140fa565b9150509250929050565b6000806000806080858703121561442857600080fd5b600085013567ffffffffffffffff81111561444257600080fd5b61444e878288016140fa565b945050602085013567ffffffffffffffff81111561446b57600080fd5b614477878288016140fa565b93505060406144888782880161407c565b92505060606144998782880161414e565b91505092959194509250565b600080604083850312156144b857600080fd5b600083013567ffffffffffffffff8111156144d257600080fd5b6144de858286016140fa565b92505060206144ef8582860161414e565b9150509250929050565b600080600080600060a0868803121561451157600080fd5b600086013567ffffffffffffffff81111561452b57600080fd5b614537888289016140fa565b95505060206145488882890161414e565b94505060406145598882890161414e565b935050606061456a8882890161414e565b925050608061457b8882890161414e565b9150509295509295909350565b60006020828403121561459a57600080fd5b60006145a88482850161414e565b91505092915050565b60006145bd83836145e0565b60208301905092915050565b6145da6145d582615095565b615148565b82525050565b6145e981615083565b82525050565b6145f881615083565b82525050565b61460f61460a82615083565b615136565b82525050565b600061462082614ffb565b61462a8185615029565b935061463583614feb565b8060005b8381101561466657815161464d88826145b1565b97506146588361501c565b925050600181019050614639565b5085935050505092915050565b61467c816150a7565b82525050565b61468b816150a7565b82525050565b600061469c82615006565b6146a6818561503a565b93506146b6818560208601615103565b6146bf81615176565b840191505092915050565b60006146d582615006565b6146df818561504b565b93506146ef818560208601615103565b80840191505092915050565b600061470682615011565b6147108185615056565b9350614720818560208601615103565b61472981615176565b840191505092915050565b600061473f82615011565b6147498185615067565b9350614759818560208601615103565b61476281615176565b840191505092915050565b600061477882615011565b6147828185615078565b9350614792818560208601615103565b80840191505092915050565b60006147ab601583615067565b91507f446f63756d656e74206973206e6f7420457869737400000000000000000000006000830152602082019050919050565b60006147eb601183615067565b91507f446f63756d656e7420417070726f7665640000000000000000000000000000006000830152602082019050919050565b600061482b601083615067565b91507f446f63756d656e742044656c65746564000000000000000000000000000000006000830152602082019050919050565b600061486b600e83615067565b91507f446f63756d656e742041646465640000000000000000000000000000000000006000830152602082019050919050565b60006148ab601583615067565b91507f43616d706169676e206973206e6f7420457869737400000000000000000000006000830152602082019050919050565b60006148eb601183615067565b91507f446f63756d656e742052656a65637465640000000000000000000000000000006000830152602082019050919050565b600061492b601183615067565b91507f5265647564616e742069732077726f6e670000000000000000000000000000006000830152602082019050919050565b600061496b600683615078565b91507f4d696e74657200000000000000000000000000000000000000000000000000006000830152600682019050919050565b60006149ab601083615067565b91507f4e6f7420456e6f756768204d6f6e6579000000000000000000000000000000006000830152602082019050919050565b60006149eb601783615067565b91507f5472616e7366657220546f206e6f74206265206e756c6c0000000000000000006000830152602082019050919050565b6000614a2b601683615067565b91507f43616d706169676e206973206e6f7420416374697665000000000000000000006000830152602082019050919050565b600060e0830160008301518482036000860152614a7b82826146fb565b9150506020830151614a9060208601826145e0565b506040830151614aa36040860182614afa565b506060830151614ab66060860182614afa565b506080830151614ac96080860182614afa565b5060a0830151614adc60a0860182614673565b5060c0830151614aef60c0860182614673565b508091505092915050565b614b03816150dd565b82525050565b614b12816150dd565b82525050565b614b29614b24826150dd565b61516c565b82525050565b614b38816150e7565b82525050565b6000614b4a82846145fe565b60148201915081905092915050565b6000614b6582846145c9565b60148201915081905092915050565b6000614b80828461476d565b915081905092915050565b6000614b968261495e565b9150819050919050565b6000614bac8286614b18565b602082019150614bbc82856146ca565b9150614bc882846145c9565b601482019150819050949350505050565b6000602082019050614bee60008301846145ef565b92915050565b60006020820190508181036000830152614c0e8184614615565b905092915050565b6000602082019050614c2b6000830184614682565b92915050565b60006040820190508181036000830152614c4b8184614691565b90508181036020830152614c5e8161479e565b905092915050565b60006040820190508181036000830152614c808184614691565b90508181036020830152614c93816147de565b905092915050565b60006040820190508181036000830152614cb58184614691565b90508181036020830152614cc88161481e565b905092915050565b60006040820190508181036000830152614cea8184614691565b90508181036020830152614cfd8161485e565b905092915050565b60006040820190508181036000830152614d1f8184614691565b90508181036020830152614d32816148de565b905092915050565b60006020820190508181036000830152614d548184614734565b905092915050565b600060e0820190508181036000830152614d76818a614734565b9050614d8560208301896145ef565b614d926040830188614b09565b614d9f6060830187614b09565b614dac6080830186614b09565b614db960a0830185614682565b614dc660c0830184614682565b98975050505050505050565b60006040820190508181036000830152614dec8185614734565b9050614dfb6020830184614b09565b9392505050565b60006020820190508181036000830152614e1b8161479e565b9050919050565b60006020820190508181036000830152614e3b8161489e565b9050919050565b60006020820190508181036000830152614e5b8161491e565b9050919050565b60006020820190508181036000830152614e7b8161499e565b9050919050565b60006020820190508181036000830152614e9b816149de565b9050919050565b60006020820190508181036000830152614ebb81614a1e565b9050919050565b60006020820190508181036000830152614edc8184614a5e565b905092915050565b6000602082019050614ef96000830184614b09565b92915050565b6000608082019050614f146000830187614b09565b8181036020830152614f268186614691565b9050614f3560408301856145ef565b614f426060830184614682565b95945050505050565b6000602082019050614f606000830184614b2f565b92915050565b6000604051905081810181811067ffffffffffffffff82111715614f8957600080fd5b8060405250919050565b600067ffffffffffffffff821115614faa57600080fd5b601f19601f8301169050602081019050919050565b600067ffffffffffffffff821115614fd657600080fd5b601f19601f8301169050602081019050919050565b6000819050602082019050919050565b600081519050919050565b600081519050919050565b600081519050919050565b6000602082019050919050565b600082825260208201905092915050565b600082825260208201905092915050565b600081905092915050565b600082825260208201905092915050565b600082825260208201905092915050565b600081905092915050565b600061508e826150bd565b9050919050565b60006150a0826150bd565b9050919050565b60008115159050919050565b6000819050919050565b600073ffffffffffffffffffffffffffffffffffffffff82169050919050565b6000819050919050565b600060ff82169050919050565b82818337600083830152505050565b60005b83811015615121578082015181840152602081019050615106565b83811115615130576000848401525b50505050565b60006151418261515a565b9050919050565b60006151538261515a565b9050919050565b600061516582615187565b9050919050565b6000819050919050565b6000601f19601f8301169050919050565b60006c0100000000000000000000000082029050919050565b6151a981615083565b81146151b457600080fd5b50565b6151c0816150b3565b81146151cb57600080fd5b50565b6151d7816150dd565b81146151e257600080fd5b5056fea264697066735822122034385b752f5e9426a6e421e3e0fc674f11d61c5d698b0fb63a005c33eb28d3c464736f6c63430007000033",
  "immutableReferences": {},
  "source": "// SPDX-License-Identifier: MIT\npragma experimental ABIEncoderV2;\npragma solidity >=0.7.0 <0.8.0;\nimport \"./TRC21.sol\";\nimport \"./ManageDocument.sol\";\nimport './SafeMath.sol';\nimport './Ownable.sol';\nimport './CampaignDetail.sol';\n\ncontract Support is MyTRC21Mintable(\"Adverising\",\"LBAT\", 0, uint256(0) * uint256(10)**18, uint256(0) * uint256(10)**18), ManageDocument, CampaignDetail, AccessControl{\n    using SafeMath for uint;\n\n    /* BEGIN: Document function*/\n    /**\n\t * @dev Function to add Document to verify\n\t * @param id The security Hash of documents.\n\t */\n    function addDocument(bytes memory id) public {\n        if((documents[keccak256(id)].isExist && keccak256(abi.encodePacked(documents[keccak256(id)].owner)) == keccak256(abi.encodePacked(msg.sender))) || !documents[keccak256(id)].isExist){\n            address[] memory approve = new address[](0);\n            address[] memory reject = new address[](0);\n            documents[keccak256(id)] = Document(block.timestamp, abi.encodePacked(block.timestamp, id, msg.sender), msg.sender, approve, reject, true);\n            emit Add(id, msg.sender, \"Document Added\");\n        }\n    }\n\n    /**\n\t * @dev Function to delete Document\n\t * @param id The security Hash of documents.\n\t */\n    function deleteDocument(bytes memory id) public {\n        if(documents[keccak256(id)].isExist){\n            if(keccak256(abi.encodePacked(documents[keccak256(id)].owner)) == keccak256(abi.encodePacked(msg.sender)) || isRole(msg.sender, \"Admin\")){\n                delete documents[keccak256(id)];\n                emit Delete(id, msg.sender, \"Document Deleted\");\n            }\n        } \n    }\n\n    /**\n\t * @dev Function to approve to Document to verify.\n\t * @param id The security Hash of documents.\n\t */\n    function approveDocument(bytes memory id) public {\n        require(!isRole(msg.sender,\"Minter\") && !isOwner(msg.sender) && !isRole(msg.sender, \"Server\"));\n        require(isRole(msg.sender,\"Admin\"));\n        if(!documents[keccak256(id)].isExist){\n            emit Sign(id, msg.sender, \"Document is not Exist\"); \n            revert(\"Document is not Exist\");\n        }\n        removeReject(id, msg.sender);\n        documents[keccak256(id)].approve.push(msg.sender);\n        emit Sign(id, msg.sender, \"Document Approved\");\n    }\n\n    /**\n\t * @dev Function to reject to Document to verify.\n\t * @param id The security Hash of documents.\n\t */\n    function rejectDocument(bytes memory id) public {\n        require(!isRole(msg.sender,\"Minter\") && !isOwner(msg.sender) && !isRole(msg.sender, \"Server\"));\n        require(isRole(msg.sender,\"Admin\"));\n        if(!documents[keccak256(id)].isExist){\n            emit Sign(id, msg.sender, \"Document is not Exist\");\n            revert(\"Document is not Exist\");\n        }\n        removeApprove(id, msg.sender);\n        documents[keccak256(id)].reject.push(msg.sender);\n        emit Sign(id, msg.sender, \"Document Rejected\");\n    }\n\n    /**\n\t * @dev Function to get all signature of document by Security hash of document\n\t * @param id The security Hash of documents.\n\t * @return Array of address of signed\n\t */\n    function getOwnerDocument(bytes memory id) public view returns (address) {\n        return documents[keccak256(id)].owner;\n    }\n\n     /**\n\t * @dev Function to get all signature of document by Security hash of document\n\t * @param id The security Hash of documents.\n\t * @return Array of address of signed\n\t */\n    function getApproveDocument(bytes memory id) public view returns (address[] memory) {\n        return documents[keccak256(id)].approve;\n    }\n\n    /**\n\t * @dev Function to get all signature of document by Security hash of document\n\t * @param id The security Hash of documents.\n\t * @return Array of address of signed\n\t */\n    function getRejectDocument(bytes memory id) public view returns (address[] memory) {\n        return documents[keccak256(id)].reject;\n    }\n\n    /**\n\t * @dev Function to get all signature of document by Security hash of document\n\t * @param id The security Hash of documents.\n\t * @return Array of address of signed\n\t */\n    function checkDocumentIsApproveOrReject(bytes memory id) public view returns (uint) {\n        uint countApprove = 0;\n        uint countReject = 0;\n        \n        for(uint i = 0; i < documents[keccak256(id)].approve.length; i++){\n            if(keccak256(abi.encodePacked(documents[keccak256(id)].approve[i])) != keccak256(abi.encodePacked(address(0x0)))){\n                countApprove=countApprove+1;\n            }\n        }\n        \n        for(uint i = 0; i < documents[keccak256(id)].reject.length; i++){\n            if(keccak256(abi.encodePacked(documents[keccak256(id)].reject[i])) != keccak256(abi.encodePacked(address(0x0)))){\n                countReject=countReject+1;\n            }\n        }\n        if(countApprove == 0 && countReject == 0) return 0;\n        if(countApprove > countReject) return 1;\n        if(countApprove <= countReject) return 2;\n        return 3;\n    }\n    /*END: Document function*/\n\n    /*BEGIN: Campaign Detail */\n    \n    /**\n\t * @dev Function to Create Campaign\n\t * @param campaignId The string Identifier of Campaign.\n\t * @param totalWithFee This is all money of campaign include all fee.\n\t * @param totalBudget This is Budget of campaign.\n\t * @param remainBudget This is money after minus fee\n\t * @param feeCancel This is fee to cancel campaign.\n\t */\n    function createCampaign (string memory campaignId, uint totalWithFee, uint totalBudget, uint remainBudget, uint feeCancel) public{\n        //check money amount\n        require(totalWithFee <= _allowed[msg.sender][address(this)],\"Not Enough Money\");\n        //check campaign\n        if(!campaigns[campaignId].isExist){\n            //send money to server wallet\n            _transfer(msg.sender, address(this), totalWithFee);\n            _allowed[msg.sender][address(this)].sub(totalWithFee);\n            //create campaign\n            campaigns[campaignId] = Campaign(campaignId, msg.sender, totalBudget, remainBudget, feeCancel, true, true);\n        }\n        emit CreateCampaign(msg.sender, campaignId, totalBudget);\n    }\n\n    /**\n\t * @dev Function to CheckOut Campaign\n\t * @param campaignId The string Identifier of Campaign.\n\t * @param redudant The address of suppiler to transfer money.\n\t */\n    function checkOutCampaign(string memory campaignId, uint redudant) public onlyServer{\n        require(campaigns[campaignId].isExist,\"Campaign is not Exist\");\n        require(campaigns[campaignId].isActive,\"Campaign is not Active\");\n        require(campaigns[campaignId].remainBudget > redudant, \"Redudant is wrong\");\n\n        transfer(campaigns[campaignId].advertiser, redudant);\n        campaigns[campaignId].isActive = false;\n        campaigns[campaignId].remainBudget = campaigns[campaignId].remainBudget.sub(redudant);\n    }\n\n    /**\n\t * @dev Function to Pay To Supplier\n\t * @param campaignId The string Identifier of Campaign\n\t * @param supplier The address of suppiler to transfer money\n\t * @param value The value of money to transfer to supplier\n\t * @return A boolean that indicates if the operation was successful.\n\t */\n    function payToSupplier(string memory campaignId, string memory paymentKey, address supplier, uint256 value) public onlyServer returns (bool) {\n        require(supplier != address(0));\n        require(value <= campaigns[campaignId].remainBudget);\n        require(!checkPayed[campaignId][paymentKey]);\n        campaigns[campaignId].remainBudget = campaigns[campaignId].remainBudget.sub(value);\n        _transfer(address(this), campaigns[campaignId].advertiser, value);\n        checkPayed[campaignId][paymentKey] = true;\n        return true;\n    }\n\n    /**\n\t * @dev Function to Cancel Campaign\n\t * @param campaignId The string Identifier of Campaign\n\t */\n    function cancelCampaign(string memory campaignId) public{\n        require(campaigns[campaignId].isExist,\"Campaign is not Exist\");\n        require(campaigns[campaignId].isActive,\"Campaign is not Active\");\n        require(campaigns[campaignId].advertiser == msg.sender || isRole(msg.sender, \"Admin\"));\n        \n        if(isRole(msg.sender, \"Admin\")){\n            transfer(campaigns[campaignId].advertiser, campaigns[campaignId].remainBudget);\n        }else{\n            uint temp = campaigns[campaignId].remainBudget.sub(campaigns[campaignId].feeCancel);\n            if(temp > 0){\n                transfer(campaigns[campaignId].advertiser,  temp);\n            }\n        }\n        \n        campaigns[campaignId].isActive = false;\n        campaigns[campaignId].remainBudget = 0;\n    }\n\n    /**\n\t * @dev Function to Get Campaign By Id\n\t * @param campaignId The string Identifier of Campaign\n\t * @return A Campaign will return if there are campaignId \n\t */\n    function getCampaignById(string memory campaignId) public view returns (Campaign memory){\n        return campaigns[campaignId];\n    }\n    /*END: Campaign Detail */\n\n    /*START: MyTRC21Mintable */\n\n    /**\n\t * @dev Function to change OwnerOfContract\n\t * @param newOwner The address that will be new Owner.\n\t */\n    function changeOwner(address newOwner) public onlyOwner{\n        _changeIssuer(newOwner);\n        _changeOwnerRole(newOwner);\n    }\n    /**\n\t * @dev Function to mint tokens\n\t * @param to The address that will receive the minted tokens.\n\t * @param value The amount of tokens to mint.\n\t * @return A boolean that indicates if the operation was successful.\n\t */\n\tfunction mint(\n\t\taddress to,\n\t\tuint256 value\n\t)\n\tpublic\n\tonlyMinter\n\treturns (bool)\n\t{\n\t\t_mint(to, value);\n\t\treturn true;\n\t}\n    /*END: MyTRC21Mintable */\n}",
  "sourcePath": "D:/CN9/Capstone/LBAContract.github.io/contracts/Support.sol",
  "compiler": {
    "name": "solc",
    "version": "0.7.0+commit.9e61f92b.Emscripten.clang"
  },
  "schemaVersion": "3.3.4",
  "updatedAt": "2021-04-09T08:54:31.918Z",
  "networkType": "ethereum",
  "devdoc": {
    "kind": "dev",
    "methods": {
      "addDocument(bytes)": {
        "details": "Function to add Document to verify",
        "params": {
          "id": "The security Hash of documents."
        }
      },
      "allowance(address,address)": {
        "details": "Function to check the amount of tokens that an owner allowed to a spender.",
        "params": {
          "owner": "address The address which owns the funds.",
          "spender": "address The address which will spend the funds."
        },
        "returns": {
          "_0": "A uint256 specifying the amount of tokens still available for the spender."
        }
      },
      "approve(address,uint256)": {
        "details": "Approve the passed address to spend the specified amount of tokens on behalf of msg.sender. Beware that changing an allowance with this method brings the risk that someone may use both the old and the new allowance by unfortunate transaction ordering. One possible solution to mitigate this race condition is to first reduce the spender's allowance to 0 and set the desired value afterwards: https://github.com/ethereum/EIPs/issues/20#issuecomment-263524729",
        "params": {
          "spender": "The address which will spend the funds.",
          "value": "The amount of tokens to be spent."
        }
      },
      "approveDocument(bytes)": {
        "details": "Function to approve to Document to verify.",
        "params": {
          "id": "The security Hash of documents."
        }
      },
      "balanceOf(address)": {
        "details": "Gets the balance of the specified address.",
        "params": {
          "owner": "The address to query the balance of."
        },
        "returns": {
          "_0": "An uint256 representing the amount owned by the passed address."
        }
      },
      "burn(uint256)": {
        "details": "Function to burn tokens",
        "params": {
          "value": "The amount of tokens to mint."
        },
        "returns": {
          "_0": "A boolean that indicates if the operation was successful."
        }
      },
      "cancelCampaign(string)": {
        "details": "Function to Cancel Campaign",
        "params": {
          "campaignId": "The string Identifier of Campaign"
        }
      },
      "changeOwner(address)": {
        "details": "Function to change OwnerOfContract",
        "params": {
          "newOwner": "The address that will be new Owner."
        }
      },
      "checkDocumentIsApproveOrReject(bytes)": {
        "details": "Function to get all signature of document by Security hash of document",
        "params": {
          "id": "The security Hash of documents."
        },
        "returns": {
          "_0": "Array of address of signed"
        }
      },
      "checkOutCampaign(string,uint256)": {
        "details": "Function to CheckOut Campaign",
        "params": {
          "campaignId": "The string Identifier of Campaign.",
          "redudant": "The address of suppiler to transfer money."
        }
      },
      "createCampaign(string,uint256,uint256,uint256,uint256)": {
        "details": "Function to Create Campaign",
        "params": {
          "campaignId": "The string Identifier of Campaign.",
          "feeCancel": "This is fee to cancel campaign.",
          "remainBudget": "This is money after minus fee",
          "totalBudget": "This is Budget of campaign.",
          "totalWithFee": "This is all money of campaign include all fee."
        }
      },
      "decimals()": {
        "returns": {
          "_0": "the number of decimals of the token."
        }
      },
      "deleteDocument(bytes)": {
        "details": "Function to delete Document",
        "params": {
          "id": "The security Hash of documents."
        }
      },
      "estimateFee(uint256)": {
        "details": "Estimate transaction fee.",
        "params": {
          "value": "amount tokens sent"
        }
      },
      "getApproveDocument(bytes)": {
        "details": "Function to get all signature of document by Security hash of document",
        "params": {
          "id": "The security Hash of documents."
        },
        "returns": {
          "_0": "Array of address of signed"
        }
      },
      "getCampaignById(string)": {
        "details": "Function to Get Campaign By Id",
        "params": {
          "campaignId": "The string Identifier of Campaign"
        },
        "returns": {
          "_0": "A Campaign will return if there are campaignId "
        }
      },
      "getOwnerDocument(bytes)": {
        "details": "Function to get all signature of document by Security hash of document",
        "params": {
          "id": "The security Hash of documents."
        },
        "returns": {
          "_0": "Array of address of signed"
        }
      },
      "getRejectDocument(bytes)": {
        "details": "Function to get all signature of document by Security hash of document",
        "params": {
          "id": "The security Hash of documents."
        },
        "returns": {
          "_0": "Array of address of signed"
        }
      },
      "issuer()": {
        "details": "token's foundation"
      },
      "minFee()": {
        "details": "The amount fee that will be lost when transferring."
      },
      "mint(address,uint256)": {
        "details": "Function to mint tokens",
        "params": {
          "to": "The address that will receive the minted tokens.",
          "value": "The amount of tokens to mint."
        },
        "returns": {
          "_0": "A boolean that indicates if the operation was successful."
        }
      },
      "name()": {
        "returns": {
          "_0": "the name of the token."
        }
      },
      "payToSupplier(string,string,address,uint256)": {
        "details": "Function to Pay To Supplier",
        "params": {
          "campaignId": "The string Identifier of Campaign",
          "supplier": "The address of suppiler to transfer money",
          "value": "The value of money to transfer to supplier"
        },
        "returns": {
          "_0": "A boolean that indicates if the operation was successful."
        }
      },
      "rejectDocument(bytes)": {
        "details": "Function to reject to Document to verify.",
        "params": {
          "id": "The security Hash of documents."
        }
      },
      "removeApprove(bytes,address)": {
        "details": "Function to remove who approved this document",
        "params": {
          "id": "The security Hash of documents."
        }
      },
      "removeReject(bytes,address)": {
        "details": "Function to remove who rejected this document",
        "params": {
          "id": "The security Hash of documents."
        }
      },
      "symbol()": {
        "returns": {
          "_0": "the symbol of the token."
        }
      },
      "totalSupply()": {
        "details": "Total number of tokens in existence"
      },
      "transfer(address,uint256)": {
        "details": "Transfer token for a specified address",
        "params": {
          "to": "The address to transfer to.",
          "value": "The amount to be transferred."
        }
      },
      "transferFrom(address,address,uint256)": {
        "details": "Transfer tokens from one address to another",
        "params": {
          "from": "address The address which you want to send tokens from",
          "to": "address The address which you want to transfer to",
          "value": "uint256 the amount of tokens to be transferred"
        }
      }
    },
    "version": 1
  },
  "userdoc": {
    "kind": "user",
    "methods": {},
    "version": 1
  }
}