{
  "contractName": "Support",
  "abi": [
    {
      "anonymous": false,
      "inputs": [
        {
          "indexed": false,
          "internalType": "bytes",
          "name": "id",
          "type": "bytes"
        },
        {
          "indexed": true,
          "internalType": "address",
          "name": "from",
          "type": "address"
        },
        {
          "indexed": false,
          "internalType": "string",
          "name": "comment",
          "type": "string"
        }
      ],
      "name": "Add",
      "type": "event"
    },
    {
      "anonymous": false,
      "inputs": [
        {
          "indexed": true,
          "internalType": "address",
          "name": "owner",
          "type": "address"
        },
        {
          "indexed": true,
          "internalType": "address",
          "name": "spender",
          "type": "address"
        },
        {
          "indexed": false,
          "internalType": "uint256",
          "name": "value",
          "type": "uint256"
        }
      ],
      "name": "Approval",
      "type": "event"
    },
    {
      "anonymous": false,
      "inputs": [
        {
          "indexed": true,
          "internalType": "address",
          "name": "owner",
          "type": "address"
        },
        {
          "indexed": false,
          "internalType": "string",
          "name": "campaignId",
          "type": "string"
        },
        {
          "indexed": false,
          "internalType": "uint256",
          "name": "value",
          "type": "uint256"
        }
      ],
      "name": "AuthorityCampaign",
      "type": "event"
    },
    {
      "anonymous": false,
      "inputs": [
        {
          "indexed": true,
          "internalType": "address",
          "name": "owner",
          "type": "address"
        },
        {
          "indexed": false,
          "internalType": "string",
          "name": "campaignId",
          "type": "string"
        },
        {
          "indexed": false,
          "internalType": "uint256",
          "name": "value",
          "type": "uint256"
        }
      ],
      "name": "CreateCampaign",
      "type": "event"
    },
    {
      "anonymous": false,
      "inputs": [
        {
          "indexed": false,
          "internalType": "bytes",
          "name": "id",
          "type": "bytes"
        },
        {
          "indexed": true,
          "internalType": "address",
          "name": "from",
          "type": "address"
        },
        {
          "indexed": false,
          "internalType": "string",
          "name": "comment",
          "type": "string"
        }
      ],
      "name": "Delete",
      "type": "event"
    },
    {
      "anonymous": false,
      "inputs": [
        {
          "indexed": true,
          "internalType": "address",
          "name": "from",
          "type": "address"
        },
        {
          "indexed": true,
          "internalType": "address",
          "name": "to",
          "type": "address"
        },
        {
          "indexed": true,
          "internalType": "address",
          "name": "issuer",
          "type": "address"
        },
        {
          "indexed": false,
          "internalType": "uint256",
          "name": "value",
          "type": "uint256"
        }
      ],
      "name": "Fee",
      "type": "event"
    },
    {
      "anonymous": false,
      "inputs": [
        {
          "indexed": false,
          "internalType": "bytes",
          "name": "id",
          "type": "bytes"
        },
        {
          "indexed": true,
          "internalType": "address",
          "name": "from",
          "type": "address"
        },
        {
          "indexed": false,
          "internalType": "string",
          "name": "comment",
          "type": "string"
        }
      ],
      "name": "Sign",
      "type": "event"
    },
    {
      "anonymous": false,
      "inputs": [
        {
          "indexed": true,
          "internalType": "address",
          "name": "from",
          "type": "address"
        },
        {
          "indexed": true,
          "internalType": "address",
          "name": "to",
          "type": "address"
        },
        {
          "indexed": false,
          "internalType": "uint256",
          "name": "value",
          "type": "uint256"
        }
      ],
      "name": "Transfer",
      "type": "event"
    },
    {
      "inputs": [
        {
          "internalType": "address",
          "name": "account",
          "type": "address"
        }
      ],
      "name": "_changeOwnerRole",
      "outputs": [],
      "stateMutability": "nonpayable",
      "type": "function"
    },
    {
      "inputs": [
        {
          "internalType": "address",
          "name": "account",
          "type": "address"
        },
        {
          "internalType": "string",
          "name": "roleType",
          "type": "string"
        }
      ],
      "name": "add",
      "outputs": [],
      "stateMutability": "nonpayable",
      "type": "function"
    },
    {
      "inputs": [
        {
          "internalType": "address",
          "name": "owner",
          "type": "address"
        },
        {
          "internalType": "address",
          "name": "spender",
          "type": "address"
        }
      ],
      "name": "allowance",
      "outputs": [
        {
          "internalType": "uint256",
          "name": "",
          "type": "uint256"
        }
      ],
      "stateMutability": "view",
      "type": "function",
      "constant": true
    },
    {
      "inputs": [
        {
          "internalType": "address",
          "name": "spender",
          "type": "address"
        },
        {
          "internalType": "uint256",
          "name": "value",
          "type": "uint256"
        }
      ],
      "name": "approve",
      "outputs": [
        {
          "internalType": "bool",
          "name": "",
          "type": "bool"
        }
      ],
      "stateMutability": "nonpayable",
      "type": "function"
    },
    {
      "inputs": [
        {
          "internalType": "address",
          "name": "owner",
          "type": "address"
        }
      ],
      "name": "balanceOf",
      "outputs": [
        {
          "internalType": "uint256",
          "name": "",
          "type": "uint256"
        }
      ],
      "stateMutability": "view",
      "type": "function",
      "constant": true
    },
    {
      "inputs": [
        {
          "internalType": "uint256",
          "name": "value",
          "type": "uint256"
        }
      ],
      "name": "burn",
      "outputs": [
        {
          "internalType": "bool",
          "name": "",
          "type": "bool"
        }
      ],
      "stateMutability": "nonpayable",
      "type": "function"
    },
    {
      "inputs": [
        {
          "internalType": "string",
          "name": "",
          "type": "string"
        }
      ],
      "name": "campaigns",
      "outputs": [
        {
          "internalType": "string",
          "name": "campaignId",
          "type": "string"
        },
        {
          "internalType": "address",
          "name": "advertiser",
          "type": "address"
        },
        {
          "internalType": "uint256",
          "name": "totalBudget",
          "type": "uint256"
        },
        {
          "internalType": "uint256",
          "name": "remainBudget",
          "type": "uint256"
        },
        {
          "internalType": "uint256",
          "name": "feeCancel",
          "type": "uint256"
        },
        {
          "internalType": "bool",
          "name": "isActive",
          "type": "bool"
        },
        {
          "internalType": "bool",
          "name": "isExist",
          "type": "bool"
        }
      ],
      "stateMutability": "view",
      "type": "function",
      "constant": true
    },
    {
      "inputs": [
        {
          "internalType": "string",
          "name": "",
          "type": "string"
        },
        {
          "internalType": "string",
          "name": "",
          "type": "string"
        }
      ],
      "name": "checkPayed",
      "outputs": [
        {
          "internalType": "bool",
          "name": "",
          "type": "bool"
        }
      ],
      "stateMutability": "view",
      "type": "function",
      "constant": true
    },
    {
      "inputs": [],
      "name": "decimals",
      "outputs": [
        {
          "internalType": "uint8",
          "name": "",
          "type": "uint8"
        }
      ],
      "stateMutability": "view",
      "type": "function",
      "constant": true
    },
    {
      "inputs": [
        {
          "internalType": "bytes32",
          "name": "",
          "type": "bytes32"
        }
      ],
      "name": "documents",
      "outputs": [
        {
          "internalType": "uint256",
          "name": "timestamp",
          "type": "uint256"
        },
        {
          "internalType": "bytes",
          "name": "ipfs_hash",
          "type": "bytes"
        },
        {
          "internalType": "address",
          "name": "owner",
          "type": "address"
        },
        {
          "internalType": "bool",
          "name": "isExist",
          "type": "bool"
        }
      ],
      "stateMutability": "view",
      "type": "function",
      "constant": true
    },
    {
      "inputs": [
        {
          "internalType": "uint256",
          "name": "value",
          "type": "uint256"
        }
      ],
      "name": "estimateFee",
      "outputs": [
        {
          "internalType": "uint256",
          "name": "",
          "type": "uint256"
        }
      ],
      "stateMutability": "view",
      "type": "function",
      "constant": true
    },
    {
      "inputs": [
        {
          "internalType": "address",
          "name": "account",
          "type": "address"
        }
      ],
      "name": "isOwner",
      "outputs": [
        {
          "internalType": "bool",
          "name": "",
          "type": "bool"
        }
      ],
      "stateMutability": "view",
      "type": "function",
      "constant": true
    },
    {
      "inputs": [
        {
          "internalType": "address",
          "name": "account",
          "type": "address"
        },
        {
          "internalType": "string",
          "name": "roleType",
          "type": "string"
        }
      ],
      "name": "isRole",
      "outputs": [
        {
          "internalType": "bool",
          "name": "",
          "type": "bool"
        }
      ],
      "stateMutability": "view",
      "type": "function",
      "constant": true
    },
    {
      "inputs": [],
      "name": "issuer",
      "outputs": [
        {
          "internalType": "address",
          "name": "",
          "type": "address"
        }
      ],
      "stateMutability": "view",
      "type": "function",
      "constant": true
    },
    {
      "inputs": [],
      "name": "minFee",
      "outputs": [
        {
          "internalType": "uint256",
          "name": "",
          "type": "uint256"
        }
      ],
      "stateMutability": "view",
      "type": "function",
      "constant": true
    },
    {
      "inputs": [],
      "name": "name",
      "outputs": [
        {
          "internalType": "string",
          "name": "",
          "type": "string"
        }
      ],
      "stateMutability": "view",
      "type": "function",
      "constant": true
    },
    {
      "inputs": [
        {
          "internalType": "address",
          "name": "account",
          "type": "address"
        },
        {
          "internalType": "string",
          "name": "roleType",
          "type": "string"
        }
      ],
      "name": "remove",
      "outputs": [],
      "stateMutability": "nonpayable",
      "type": "function"
    },
    {
      "inputs": [
        {
          "internalType": "uint256",
          "name": "value",
          "type": "uint256"
        }
      ],
      "name": "setMinFee",
      "outputs": [],
      "stateMutability": "nonpayable",
      "type": "function"
    },
    {
      "inputs": [],
      "name": "symbol",
      "outputs": [
        {
          "internalType": "string",
          "name": "",
          "type": "string"
        }
      ],
      "stateMutability": "view",
      "type": "function",
      "constant": true
    },
    {
      "inputs": [],
      "name": "totalSupply",
      "outputs": [
        {
          "internalType": "uint256",
          "name": "",
          "type": "uint256"
        }
      ],
      "stateMutability": "view",
      "type": "function",
      "constant": true
    },
    {
      "inputs": [
        {
          "internalType": "address",
          "name": "to",
          "type": "address"
        },
        {
          "internalType": "uint256",
          "name": "value",
          "type": "uint256"
        }
      ],
      "name": "transfer",
      "outputs": [
        {
          "internalType": "bool",
          "name": "",
          "type": "bool"
        }
      ],
      "stateMutability": "nonpayable",
      "type": "function"
    },
    {
      "inputs": [
        {
          "internalType": "address",
          "name": "from",
          "type": "address"
        },
        {
          "internalType": "address",
          "name": "to",
          "type": "address"
        },
        {
          "internalType": "uint256",
          "name": "value",
          "type": "uint256"
        }
      ],
      "name": "transferFrom",
      "outputs": [
        {
          "internalType": "bool",
          "name": "",
          "type": "bool"
        }
      ],
      "stateMutability": "nonpayable",
      "type": "function"
    },
    {
      "inputs": [
        {
          "internalType": "bytes",
          "name": "id",
          "type": "bytes"
        }
      ],
      "name": "addDocument",
      "outputs": [],
      "stateMutability": "nonpayable",
      "type": "function"
    },
    {
      "inputs": [
        {
          "internalType": "bytes",
          "name": "id",
          "type": "bytes"
        }
      ],
      "name": "deleteDocument",
      "outputs": [],
      "stateMutability": "nonpayable",
      "type": "function"
    },
    {
      "inputs": [
        {
          "internalType": "bytes",
          "name": "id",
          "type": "bytes"
        }
      ],
      "name": "signDocument",
      "outputs": [],
      "stateMutability": "nonpayable",
      "type": "function"
    },
    {
      "inputs": [
        {
          "internalType": "bytes",
          "name": "id",
          "type": "bytes"
        }
      ],
      "name": "getSignatures",
      "outputs": [
        {
          "internalType": "address[]",
          "name": "",
          "type": "address[]"
        }
      ],
      "stateMutability": "view",
      "type": "function",
      "constant": true
    },
    {
      "inputs": [
        {
          "internalType": "bytes",
          "name": "id",
          "type": "bytes"
        }
      ],
      "name": "checkAdminSigned",
      "outputs": [
        {
          "internalType": "bool",
          "name": "",
          "type": "bool"
        }
      ],
      "stateMutability": "view",
      "type": "function",
      "constant": true
    },
    {
      "inputs": [
        {
          "internalType": "string",
          "name": "campaignId",
          "type": "string"
        },
        {
          "internalType": "uint256",
          "name": "totalWithFee",
          "type": "uint256"
        },
        {
          "internalType": "uint256",
          "name": "totalBudget",
          "type": "uint256"
        },
        {
          "internalType": "uint256",
          "name": "remainBudget",
          "type": "uint256"
        },
        {
          "internalType": "uint256",
          "name": "feeCancel",
          "type": "uint256"
        }
      ],
      "name": "createCampaign",
      "outputs": [],
      "stateMutability": "nonpayable",
      "type": "function"
    },
    {
      "inputs": [
        {
          "internalType": "string",
          "name": "campaignId",
          "type": "string"
        },
        {
          "internalType": "uint256",
          "name": "redudant",
          "type": "uint256"
        }
      ],
      "name": "checkOutCampaign",
      "outputs": [],
      "stateMutability": "nonpayable",
      "type": "function"
    },
    {
      "inputs": [
        {
          "internalType": "string",
          "name": "campaignId",
          "type": "string"
        },
        {
          "internalType": "string",
          "name": "paymentKey",
          "type": "string"
        },
        {
          "internalType": "address",
          "name": "supplier",
          "type": "address"
        },
        {
          "internalType": "uint256",
          "name": "value",
          "type": "uint256"
        }
      ],
      "name": "payToSupplier",
      "outputs": [
        {
          "internalType": "bool",
          "name": "",
          "type": "bool"
        }
      ],
      "stateMutability": "nonpayable",
      "type": "function"
    },
    {
      "inputs": [
        {
          "internalType": "string",
          "name": "campaignId",
          "type": "string"
        }
      ],
      "name": "cancelCampaign",
      "outputs": [],
      "stateMutability": "nonpayable",
      "type": "function"
    },
    {
      "inputs": [
        {
          "internalType": "string",
          "name": "campaignId",
          "type": "string"
        }
      ],
      "name": "getCampaignById",
      "outputs": [
        {
          "components": [
            {
              "internalType": "string",
              "name": "campaignId",
              "type": "string"
            },
            {
              "internalType": "address",
              "name": "advertiser",
              "type": "address"
            },
            {
              "internalType": "uint256",
              "name": "totalBudget",
              "type": "uint256"
            },
            {
              "internalType": "uint256",
              "name": "remainBudget",
              "type": "uint256"
            },
            {
              "internalType": "uint256",
              "name": "feeCancel",
              "type": "uint256"
            },
            {
              "internalType": "bool",
              "name": "isActive",
              "type": "bool"
            },
            {
              "internalType": "bool",
              "name": "isExist",
              "type": "bool"
            }
          ],
          "internalType": "struct CampaignDetail.Campaign",
          "name": "",
          "type": "tuple"
        }
      ],
      "stateMutability": "view",
      "type": "function",
      "constant": true
    },
    {
      "inputs": [
        {
          "internalType": "address",
          "name": "newOwner",
          "type": "address"
        }
      ],
      "name": "changeOwner",
      "outputs": [],
      "stateMutability": "nonpayable",
      "type": "function"
    },
    {
      "inputs": [
        {
          "internalType": "address",
          "name": "to",
          "type": "address"
        },
        {
          "internalType": "uint256",
          "name": "value",
          "type": "uint256"
        }
      ],
      "name": "mint",
      "outputs": [
        {
          "internalType": "bool",
          "name": "",
          "type": "bool"
        }
      ],
      "stateMutability": "nonpayable",
      "type": "function"
    }
  ],
  "bytecode": "0x60806040523480156200001157600080fd5b506040518060400160405280600a81526020017f41647665726973696e67000000000000000000000000000000000000000000008152506040518060400160405280600481526020017f4c4241540000000000000000000000000000000000000000000000000000000081525060006012600a0a6000026012600a0a6000028460059080519060200190620000a89291906200059d565b508360069080519060200190620000c19291906200059d565b5082600760006101000a81548160ff021916908360ff160217905550620000f830836200037f640100000000026401000000009004565b6200011233620004f4640100000000026401000000009004565b6200012c8162000573640100000000026401000000009004565b505050505033600b60000160006101000a81548173ffffffffffffffffffffffffffffffffffffffff021916908373ffffffffffffffffffffffffffffffffffffffff1602179055506001600b6001016040516200018a9062000748565b908152602001604051809103902060003373ffffffffffffffffffffffffffffffffffffffff1673ffffffffffffffffffffffffffffffffffffffff16815260200190815260200160002060006101000a81548160ff0219169083151502179055506001600b60010160405162000201906200071a565b908152602001604051809103902060003373ffffffffffffffffffffffffffffffffffffffff1673ffffffffffffffffffffffffffffffffffffffff16815260200190815260200160002060006101000a81548160ff0219169083151502179055506001600b600101604051620002789062000731565b9081526020016040518091039020600073591d6d73aa1ee46202f55443ab166d8b4b1403e073ffffffffffffffffffffffffffffffffffffffff1673ffffffffffffffffffffffffffffffffffffffff16815260200190815260200160002060006101000a81548160ff0219169083151502179055506001600b60010160405162000303906200071a565b9081526020016040518091039020600073591d6d73aa1ee46202f55443ab166d8b4b1403e073ffffffffffffffffffffffffffffffffffffffff1673ffffffffffffffffffffffffffffffffffffffff16815260200190815260200160002060006101000a81548160ff02191690831515021790555062000791565b600073ffffffffffffffffffffffffffffffffffffffff168273ffffffffffffffffffffffffffffffffffffffff161415620003ba57600080fd5b620003df816004546200057d6401000000000262002eb1179091906401000000009004565b60048190555062000446816000808573ffffffffffffffffffffffffffffffffffffffff1673ffffffffffffffffffffffffffffffffffffffff168152602001908152602001600020546200057d6401000000000262002eb1179091906401000000009004565b6000808473ffffffffffffffffffffffffffffffffffffffff1673ffffffffffffffffffffffffffffffffffffffff168152602001908152602001600020819055508173ffffffffffffffffffffffffffffffffffffffff16600073ffffffffffffffffffffffffffffffffffffffff167fddf252ad1be2c89b69c2b068fc378daa952ba7f163c4a11628f55a4df523b3ef83604051620004e891906200075f565b60405180910390a35050565b600073ffffffffffffffffffffffffffffffffffffffff168173ffffffffffffffffffffffffffffffffffffffff1614156200052f57600080fd5b80600260006101000a81548173ffffffffffffffffffffffffffffffffffffffff021916908373ffffffffffffffffffffffffffffffffffffffff16021790555050565b8060018190555050565b6000808284019050838110156200059357600080fd5b8091505092915050565b828054600181600116156101000203166002900490600052602060002090601f016020900481019282601f10620005e057805160ff191683800117855562000611565b8280016001018555821562000611579182015b8281111562000610578251825591602001919060010190620005f3565b5b50905062000620919062000624565b5090565b5b808211156200063f57600081600090555060010162000625565b5090565b6000620006526006836200077c565b91507f4d696e74657200000000000000000000000000000000000000000000000000006000830152600682019050919050565b6000620006946006836200077c565b91507f53657276657200000000000000000000000000000000000000000000000000006000830152600682019050919050565b6000620006d66005836200077c565b91507f41646d696e0000000000000000000000000000000000000000000000000000006000830152600582019050919050565b620007148162000787565b82525050565b6000620007278262000643565b9150819050919050565b60006200073e8262000685565b9150819050919050565b60006200075582620006c7565b9150819050919050565b600060208201905062000776600083018462000709565b92915050565b600081905092915050565b6000819050919050565b614ad280620007a16000396000f3fe608060405234801561001057600080fd5b5060043610610223576000357c01000000000000000000000000000000000000000000000000000000009004806336d6da5511610137578063a6f9dae1116100ca578063c79de09b11610099578063c79de09b14610695578063dd62ed3e146106b1578063e26034cd146106e1578063e35d66a814610711578063e631ce991461072d57610223565b8063a6f9dae114610611578063a9059cbb1461062d578063be7e2a0b1461065d578063c63c5bd11461067957610223565b806349209fc81161010657806349209fc8146105775780636b45b4e31461059357806370a08231146105c357806395d89b41146105f357610223565b806336d6da55146104cb57806340c10f19146104e757806342966c6814610517578063475a11781461054757610223565b8063228bc0a9116101ba578063267945ff11610189578063267945ff146104125780632b2805db1461042e5780632f54bf6e14610461578063313ce5671461049157806331ac9920146104af57610223565b8063228bc0a91461037857806323b872dd1461039457806323e8f4bb146103c457806324ec7590146103f457610223565b806318160ddd116101f657806318160ddd146102d65780631d143848146102f45780631d39e50914610312578063219782f71461034857610223565b806306fdde0314610228578063070eb15714610246578063095ea7b314610276578063127e8e4d146102a6575b600080fd5b610230610749565b60405161023d91906145d1565b60405180910390f35b610260600480360381019061025b9190613b02565b6107eb565b60405161026d91906144ad565b60405180910390f35b610290600480360381019061028b9190613b56565b61080b565b60405161029d91906144ad565b60405180910390f35b6102c060048036038101906102bb9190613e1f565b6109b2565b6040516102cd919061479b565b60405180910390f35b6102de6109e3565b6040516102eb919061479b565b60405180910390f35b6102fc6109ed565b6040516103099190614470565b60405180910390f35b61032c60048036038101906103279190613bfc565b610a17565b60405161033f97969594939291906145f3565b60405180910390f35b610362600480360381019061035d9190613ca9565b610b41565b60405161036f91906144ad565b60405180910390f35b610392600480360381019061038d9190613bbb565b610d49565b005b6103ae60048036038101906103a99190613ab3565b611108565b6040516103bb91906144ad565b60405180910390f35b6103de60048036038101906103d99190613c3d565b611446565b6040516103eb91906144ad565b60405180910390f35b6103fc6114a1565b604051610409919061479b565b60405180910390f35b61042c60048036038101906104279190613a4e565b6114ab565b005b61044860048036038101906104439190613b92565b611630565b60405161045894939291906147b6565b60405180910390f35b61047b60048036038101906104769190613a4e565b611725565b60405161048891906144ad565b60405180910390f35b610499611782565b6040516104a69190614802565b60405180910390f35b6104c960048036038101906104c49190613e1f565b611799565b005b6104e560048036038101906104e09190613b02565b6117e4565b005b61050160048036038101906104fc9190613b56565b6118ab565b60405161050e91906144ad565b60405180910390f35b610531600480360381019061052c9190613e1f565b611909565b60405161053e91906144ad565b60405180910390f35b610561600480360381019061055c9190613bbb565b61191e565b60405161056e91906144ad565b60405180910390f35b610591600480360381019061058c9190613b02565b611a06565b005b6105ad60048036038101906105a89190613bbb565b611acd565b6040516105ba919061448b565b60405180910390f35b6105dd60048036038101906105d89190613a4e565b611b78565b6040516105ea919061479b565b60405180910390f35b6105fb611bc0565b60405161060891906145d1565b60405180910390f35b61062b60048036038101906106269190613a4e565b611c62565b005b61064760048036038101906106429190613b56565b611c89565b60405161065491906144ad565b60405180910390f35b61067760048036038101906106729190613bbb565b611ddb565b005b610693600480360381019061068e9190613bbb565b612057565b005b6106af60048036038101906106aa9190613d90565b6123bf565b005b6106cb60048036038101906106c69190613a77565b6126d6565b6040516106d8919061479b565b60405180910390f35b6106fb60048036038101906106f69190613bfc565b61275d565b6040516107089190614779565b60405180910390f35b61072b60048036038101906107269190613bfc565b6128e1565b005b61074760048036038101906107429190613d3c565b612c47565b005b606060058054600181600116156101000203166002900480601f0160208091040260200160405190810160405280929190818152602001828054600181600116156101000203166002900480156107e15780601f106107b6576101008083540402835291602001916107e1565b820191906000526020600020905b8154815290600101906020018083116107c457829003601f168201915b5050505050905090565b60006108038383600b612ed09092919063ffffffff16565b905092915050565b60008073ffffffffffffffffffffffffffffffffffffffff168373ffffffffffffffffffffffffffffffffffffffff16141561084657600080fd5b6001546000803373ffffffffffffffffffffffffffffffffffffffff1673ffffffffffffffffffffffffffffffffffffffff16815260200190815260200160002054101561089357600080fd5b81600360003373ffffffffffffffffffffffffffffffffffffffff1673ffffffffffffffffffffffffffffffffffffffff16815260200190815260200160002060008573ffffffffffffffffffffffffffffffffffffffff1673ffffffffffffffffffffffffffffffffffffffff1681526020019081526020016000208190555061094333600260009054906101000a900473ffffffffffffffffffffffffffffffffffffffff16600154612f7f565b8273ffffffffffffffffffffffffffffffffffffffff163373ffffffffffffffffffffffffffffffffffffffff167f8c5be1e5ebec7d5bd14f71427d1e84f3dd0314c0f7b2291e5b200ac8c7c3b925846040516109a0919061479b565b60405180910390a36001905092915050565b60006109dc6001546109ce6000856131ca90919063ffffffff16565b612eb190919063ffffffff16565b9050919050565b6000600454905090565b6000600260009054906101000a900473ffffffffffffffffffffffffffffffffffffffff16905090565b600981805160208101820180518482526020830160208501208183528095505050505050600091509050806000018054600181600116156101000203166002900480601f016020809104026020016040519081016040528092919081815260200182805460018160011615610100020316600290048015610ad95780601f10610aae57610100808354040283529160200191610ad9565b820191906000526020600020905b815481529060010190602001808311610abc57829003601f168201915b5050505050908060010160009054906101000a900473ffffffffffffffffffffffffffffffffffffffff16908060020154908060030154908060040154908060050160009054906101000a900460ff16908060050160019054906101000a900460ff16905087565b6000610b82336040518060400160405280600681526020017f53657276657200000000000000000000000000000000000000000000000000008152506107eb565b610b8b57600080fd5b600073ffffffffffffffffffffffffffffffffffffffff168373ffffffffffffffffffffffffffffffffffffffff161415610bc557600080fd5b600985604051610bd5919061440b565b908152602001604051809103902060030154821115610bf357600080fd5b600a85604051610c03919061440b565b908152602001604051809103902084604051610c1f919061440b565b908152602001604051809103902060009054906101000a900460ff1615610c4557600080fd5b610c7982600987604051610c59919061440b565b90815260200160405180910390206003015461320490919063ffffffff16565b600986604051610c89919061440b565b908152602001604051809103902060030181905550610cea30600987604051610cb2919061440b565b908152602001604051809103902060010160009054906101000a900473ffffffffffffffffffffffffffffffffffffffff1684612f7f565b6001600a86604051610cfc919061440b565b908152602001604051809103902085604051610d18919061440b565b908152602001604051809103902060006101000a81548160ff02191690831515021790555060019050949350505050565b600860008280519060200120815260200190815260200160002060050160009054906101000a900460ff1615610e02573373ffffffffffffffffffffffffffffffffffffffff167fce62159ff3c25a8e61a8bc74b520c1c33ff5acc534e8af236f3b5a587b050b0582604051610dbf9190614532565b60405180910390a26040517f08c379a0000000000000000000000000000000000000000000000000000000008152600401610df990614739565b60405180910390fd5b6060600067ffffffffffffffff81118015610e1c57600080fd5b50604051908082528060200260200182016040528015610e4b5781602001602082028036833780820191505090505b5090506060600067ffffffffffffffff81118015610e6857600080fd5b50604051908082528060200260200182016040528015610e975781602001602082028036833780820191505090505b509050600160086000858051906020012081526020019081526020016000206004018054905010610f67576008600084805190602001208152602001908152602001600020600401805480602002602001604051908101604052809291908181526020018280548015610f5f57602002820191906000526020600020905b8160009054906101000a900473ffffffffffffffffffffffffffffffffffffffff1673ffffffffffffffffffffffffffffffffffffffff1681526020019060010190808311610f15575b505050505090505b6040518060c00160405280428152602001428533604051602001610f8d93929190614437565b60405160208183030381529060405281526020013373ffffffffffffffffffffffffffffffffffffffff16815260200183815260200182815260200160011515815250600860008580519060200120815260200190815260200160002060008201518160000155602082015181600101908051906020019061101092919061372e565b5060408201518160020160006101000a81548173ffffffffffffffffffffffffffffffffffffffff021916908373ffffffffffffffffffffffffffffffffffffffff16021790555060608201518160030190805190602001906110749291906137ae565b5060808201518160040190805190602001906110919291906137ae565b5060a08201518160050160006101000a81548160ff0219169083151502179055509050503373ffffffffffffffffffffffffffffffffffffffff167fce62159ff3c25a8e61a8bc74b520c1c33ff5acc534e8af236f3b5a587b050b05846040516110fb91906144fd565b60405180910390a2505050565b60008061112060015484612eb190919063ffffffff16565b9050600073ffffffffffffffffffffffffffffffffffffffff168473ffffffffffffffffffffffffffffffffffffffff161415611192576040517f08c379a000000000000000000000000000000000000000000000000000000000815260040161118990614719565b60405180910390fd5b600360008673ffffffffffffffffffffffffffffffffffffffff1673ffffffffffffffffffffffffffffffffffffffff16815260200190815260200160002060003373ffffffffffffffffffffffffffffffffffffffff1673ffffffffffffffffffffffffffffffffffffffff16815260200190815260200160002054811115611251576040517f08c379a0000000000000000000000000000000000000000000000000000000008152600401611248906146f9565b60405180910390fd5b6112e081600360008873ffffffffffffffffffffffffffffffffffffffff1673ffffffffffffffffffffffffffffffffffffffff16815260200190815260200160002060003373ffffffffffffffffffffffffffffffffffffffff1673ffffffffffffffffffffffffffffffffffffffff1681526020019081526020016000205461320490919063ffffffff16565b600360008773ffffffffffffffffffffffffffffffffffffffff1673ffffffffffffffffffffffffffffffffffffffff16815260200190815260200160002060003373ffffffffffffffffffffffffffffffffffffffff1673ffffffffffffffffffffffffffffffffffffffff1681526020019081526020016000208190555061136b858585612f7f565b61139a85600260009054906101000a900473ffffffffffffffffffffffffffffffffffffffff16600154612f7f565b600260009054906101000a900473ffffffffffffffffffffffffffffffffffffffff1673ffffffffffffffffffffffffffffffffffffffff168473ffffffffffffffffffffffffffffffffffffffff163373ffffffffffffffffffffffffffffffffffffffff167ffcf5b3276434181e3c48bd3fe569b8939808f11e845d4b963693b9d7dbd6dd99600154604051611432919061479b565b60405180910390a460019150509392505050565b600a82805160208101820180518482526020830160208501208183528095505050505050818051602081018201805184825260208301602085012081835280955050505050506000915091509054906101000a900460ff1681565b6000600154905090565b6114b433611725565b6114bd57600080fd5b80600b60000160006101000a81548173ffffffffffffffffffffffffffffffffffffffff021916908373ffffffffffffffffffffffffffffffffffffffff16021790555061154c816040518060400160405280600681526020017f4d696e7465720000000000000000000000000000000000000000000000000000815250600b6132249092919063ffffffff16565b611597816040518060400160405280600581526020017f41646d696e000000000000000000000000000000000000000000000000000000815250600b6132249092919063ffffffff16565b6115e2336040518060400160405280600681526020017f4d696e7465720000000000000000000000000000000000000000000000000000815250600b6132ee9092919063ffffffff16565b61162d336040518060400160405280600581526020017f41646d696e000000000000000000000000000000000000000000000000000000815250600b6132ee9092919063ffffffff16565b50565b6008602052806000526040600020600091509050806000015490806001018054600181600116156101000203166002900480601f0160208091040260200160405190810160405280929190818152602001828054600181600116156101000203166002900480156116e25780601f106116b7576101008083540402835291602001916116e2565b820191906000526020600020905b8154815290600101906020018083116116c557829003601f168201915b5050505050908060020160009054906101000a900473ffffffffffffffffffffffffffffffffffffffff16908060050160009054906101000a900460ff16905084565b6000600b60000160009054906101000a900473ffffffffffffffffffffffffffffffffffffffff1673ffffffffffffffffffffffffffffffffffffffff168273ffffffffffffffffffffffffffffffffffffffff16149050919050565b6000600760009054906101000a900460ff16905090565b6117a16109ed565b73ffffffffffffffffffffffffffffffffffffffff163373ffffffffffffffffffffffffffffffffffffffff16146117d857600080fd5b6117e1816133b7565b50565b611823336040518060400160405280600581526020017f41646d696e0000000000000000000000000000000000000000000000000000008152506107eb565b61182c57600080fd5b60405160200161183b90614422565b6040516020818303038152906040528051906020012081604051602001611862919061440b565b6040516020818303038152906040528051906020012014156118915761188733611725565b61189057600080fd5b5b6118a78282600b6132249092919063ffffffff16565b5050565b60006118ec336040518060400160405280600681526020017f4d696e74657200000000000000000000000000000000000000000000000000008152506107eb565b6118f557600080fd5b6118ff83836133c1565b6001905092915050565b60006119153383613513565b60019050919050565b600080600090505b6008600084805190602001208152602001908152602001600020600301805490508110156119fb576119df6008600085805190602001208152602001908152602001600020600301828154811061197957fe5b9060005260206000200160009054906101000a900473ffffffffffffffffffffffffffffffffffffffff166040518060400160405280600581526020017f41646d696e0000000000000000000000000000000000000000000000000000008152506107eb565b156119ee576001915050611a01565b8080600101915050611926565b50600090505b919050565b611a45336040518060400160405280600581526020017f41646d696e0000000000000000000000000000000000000000000000000000008152506107eb565b611a4e57600080fd5b604051602001611a5d90614422565b6040516020818303038152906040528051906020012081604051602001611a84919061440b565b604051602081830303815290604052805190602001201415611ab357611aa933611725565b611ab257600080fd5b5b611ac98282600b6132ee9092919063ffffffff16565b5050565b60606008600083805190602001208152602001908152602001600020600301805480602002602001604051908101604052809291908181526020018280548015611b6c57602002820191906000526020600020905b8160009054906101000a900473ffffffffffffffffffffffffffffffffffffffff1673ffffffffffffffffffffffffffffffffffffffff1681526020019060010190808311611b22575b50505050509050919050565b60008060008373ffffffffffffffffffffffffffffffffffffffff1673ffffffffffffffffffffffffffffffffffffffff168152602001908152602001600020549050919050565b606060068054600181600116156101000203166002900480601f016020809104026020016040519081016040528092919081815260200182805460018160011615610100020316600290048015611c585780601f10611c2d57610100808354040283529160200191611c58565b820191906000526020600020905b815481529060010190602001808311611c3b57829003601f168201915b5050505050905090565b611c6b33611725565b611c7457600080fd5b611c7d816136b0565b611c86816114ab565b50565b600080611ca160015484612eb190919063ffffffff16565b9050600073ffffffffffffffffffffffffffffffffffffffff168473ffffffffffffffffffffffffffffffffffffffff161415611cdd57600080fd5b80831115611cea57600080fd5b611cf5338585612f7f565b60006001541115611dd057611d2f33600260009054906101000a900473ffffffffffffffffffffffffffffffffffffffff16600154612f7f565b600260009054906101000a900473ffffffffffffffffffffffffffffffffffffffff1673ffffffffffffffffffffffffffffffffffffffff168473ffffffffffffffffffffffffffffffffffffffff163373ffffffffffffffffffffffffffffffffffffffff167ffcf5b3276434181e3c48bd3fe569b8939808f11e845d4b963693b9d7dbd6dd99600154604051611dc7919061479b565b60405180910390a45b600191505092915050565b600860008280519060200120815260200190815260200160002060050160009054906101000a900460ff16156120545733604051602001611e1c91906143f0565b60405160208183030381529060405280519060200120600860008380519060200120815260200190815260200160002060020160009054906101000a900473ffffffffffffffffffffffffffffffffffffffff16604051602001611e8091906143d5565b604051602081830303815290604052805190602001201480611edd5750611edc336040518060400160405280600581526020017f41646d696e0000000000000000000000000000000000000000000000000000008152506107eb565b5b15612053576060600067ffffffffffffffff81118015611efc57600080fd5b50604051908082528060200260200182016040528015611f2b5781602001602082028036833780820191505090505b5090508060086000848051906020012081526020019081526020016000206003019080519060200190611f5f9291906137ae565b506008600083805190602001208152602001908152602001600020600401600860008480519060200120815260200190815260200160002060020160009054906101000a900473ffffffffffffffffffffffffffffffffffffffff169080600181540180825580915050600190039060005260206000200160009091909190916101000a81548173ffffffffffffffffffffffffffffffffffffffff021916908373ffffffffffffffffffffffffffffffffffffffff1602179055506000600860008480519060200120815260200190815260200160002060050160006101000a81548160ff021916908315150217905550505b5b50565b612096336040518060400160405280600681526020017f4d696e74657200000000000000000000000000000000000000000000000000008152506107eb565b1580156120a957506120a733611725565b155b80156120f157506120ef336040518060400160405280600681526020017f53657276657200000000000000000000000000000000000000000000000000008152506107eb565b155b6120fa57600080fd5b600860008280519060200120815260200190815260200160002060050160009054906101000a900460ff166121b2573373ffffffffffffffffffffffffffffffffffffffff167f7b178bf1583b36c417d982a222dfebdf8e3c8ecff7e75e459627b176a9e8bd728260405161216f91906144c8565b60405180910390a26040517f08c379a00000000000000000000000000000000000000000000000000000000081526004016121a990614699565b60405180910390fd5b6000805b60086000848051906020012081526020019081526020016000206003018054905081101561229a57336040516020016121ef91906143f0565b604051602081830303815290604052805190602001206008600085805190602001208152602001908152602001600020600301828154811061222d57fe5b9060005260206000200160009054906101000a900473ffffffffffffffffffffffffffffffffffffffff1660405160200161226891906143d5565b60405160208183030381529060405280519060200120141561228d576001915061229a565b80806001019150506121b6565b508061236d576008600083805190602001208152602001908152602001600020600301339080600181540180825580915050600190039060005260206000200160009091909190916101000a81548173ffffffffffffffffffffffffffffffffffffffff021916908373ffffffffffffffffffffffffffffffffffffffff1602179055503373ffffffffffffffffffffffffffffffffffffffff167f7b178bf1583b36c417d982a222dfebdf8e3c8ecff7e75e459627b176a9e8bd7283604051612364919061459c565b60405180910390a25b3373ffffffffffffffffffffffffffffffffffffffff167f7b178bf1583b36c417d982a222dfebdf8e3c8ecff7e75e459627b176a9e8bd72836040516123b39190614567565b60405180910390a25050565b600360003373ffffffffffffffffffffffffffffffffffffffff1673ffffffffffffffffffffffffffffffffffffffff16815260200190815260200160002060003073ffffffffffffffffffffffffffffffffffffffff1673ffffffffffffffffffffffffffffffffffffffff1681526020019081526020016000205484111561247e576040517f08c379a0000000000000000000000000000000000000000000000000000000008152600401612475906146f9565b60405180910390fd5b60098560405161248e919061440b565b908152602001604051809103902060050160019054906101000a900460ff1661267f576124bc333086612f7f565b61254b84600360003373ffffffffffffffffffffffffffffffffffffffff1673ffffffffffffffffffffffffffffffffffffffff16815260200190815260200160002060003073ffffffffffffffffffffffffffffffffffffffff1673ffffffffffffffffffffffffffffffffffffffff1681526020019081526020016000205461320490919063ffffffff16565b506040518060e001604052808681526020013373ffffffffffffffffffffffffffffffffffffffff168152602001848152602001838152602001828152602001600115158152602001600115158152506009866040516125ab919061440b565b908152602001604051809103902060008201518160000190805190602001906125d5929190613838565b5060208201518160010160006101000a81548173ffffffffffffffffffffffffffffffffffffffff021916908373ffffffffffffffffffffffffffffffffffffffff16021790555060408201518160020155606082015181600301556080820151816004015560a08201518160050160006101000a81548160ff02191690831515021790555060c08201518160050160016101000a81548160ff0219169083151502179055509050505b3373ffffffffffffffffffffffffffffffffffffffff167f5c04f4c64423af25dc8dc6bd45d037a95fe962bb56e5ca1b993600448846f07f86856040516126c7929190614669565b60405180910390a25050505050565b6000600360008473ffffffffffffffffffffffffffffffffffffffff1673ffffffffffffffffffffffffffffffffffffffff16815260200190815260200160002060008373ffffffffffffffffffffffffffffffffffffffff1673ffffffffffffffffffffffffffffffffffffffff16815260200190815260200160002054905092915050565b6127656138b8565b600982604051612775919061440b565b90815260200160405180910390206040518060e0016040529081600082018054600181600116156101000203166002900480601f0160208091040260200160405190810160405280929190818152602001828054600181600116156101000203166002900480156128275780601f106127fc57610100808354040283529160200191612827565b820191906000526020600020905b81548152906001019060200180831161280a57829003601f168201915b505050505081526020016001820160009054906101000a900473ffffffffffffffffffffffffffffffffffffffff1673ffffffffffffffffffffffffffffffffffffffff1673ffffffffffffffffffffffffffffffffffffffff1681526020016002820154815260200160038201548152602001600482015481526020016005820160009054906101000a900460ff161515151581526020016005820160019054906101000a900460ff1615151515815250509050919050565b6009816040516128f1919061440b565b908152602001604051809103902060050160019054906101000a900460ff1661294f576040517f08c379a0000000000000000000000000000000000000000000000000000000008152600401612946906146b9565b60405180910390fd5b60098160405161295f919061440b565b908152602001604051809103902060050160009054906101000a900460ff166129bd576040517f08c379a00000000000000000000000000000000000000000000000000000000081526004016129b490614759565b60405180910390fd5b3373ffffffffffffffffffffffffffffffffffffffff166009826040516129e4919061440b565b908152602001604051809103902060010160009054906101000a900473ffffffffffffffffffffffffffffffffffffffff1673ffffffffffffffffffffffffffffffffffffffff161480612a735750612a72336040518060400160405280600581526020017f41646d696e0000000000000000000000000000000000000000000000000000008152506107eb565b5b612a7c57600080fd5b612abb336040518060400160405280600581526020017f41646d696e0000000000000000000000000000000000000000000000000000008152506107eb565b15612b3257612b2c600982604051612ad3919061440b565b908152602001604051809103902060010160009054906101000a900473ffffffffffffffffffffffffffffffffffffffff16600983604051612b15919061440b565b908152602001604051809103902060030154611c89565b50612be3565b6000612b89600983604051612b47919061440b565b908152602001604051809103902060040154600984604051612b69919061440b565b90815260200160405180910390206003015461320490919063ffffffff16565b90506000811115612be157612bdf600983604051612ba7919061440b565b908152602001604051809103902060010160009054906101000a900473ffffffffffffffffffffffffffffffffffffffff1682611c89565b505b505b6000600982604051612bf5919061440b565b908152602001604051809103902060050160006101000a81548160ff0219169083151502179055506000600982604051612c2f919061440b565b90815260200160405180910390206003018190555050565b612c86336040518060400160405280600681526020017f53657276657200000000000000000000000000000000000000000000000000008152506107eb565b612c8f57600080fd5b600982604051612c9f919061440b565b908152602001604051809103902060050160019054906101000a900460ff16612cfd576040517f08c379a0000000000000000000000000000000000000000000000000000000008152600401612cf4906146b9565b60405180910390fd5b600982604051612d0d919061440b565b908152602001604051809103902060050160009054906101000a900460ff16612d6b576040517f08c379a0000000000000000000000000000000000000000000000000000000008152600401612d6290614759565b60405180910390fd5b80600983604051612d7c919061440b565b90815260200160405180910390206003015411612dce576040517f08c379a0000000000000000000000000000000000000000000000000000000008152600401612dc5906146d9565b60405180910390fd5b612e19600983604051612de1919061440b565b908152602001604051809103902060010160009054906101000a900473ffffffffffffffffffffffffffffffffffffffff1682611c89565b506000600983604051612e2c919061440b565b908152602001604051809103902060050160006101000a81548160ff021916908315150217905550612e8881600984604051612e68919061440b565b90815260200160405180910390206003015461320490919063ffffffff16565b600983604051612e98919061440b565b9081526020016040518091039020600301819055505050565b600080828401905083811015612ec657600080fd5b8091505092915050565b60008073ffffffffffffffffffffffffffffffffffffffff168373ffffffffffffffffffffffffffffffffffffffff161415612f0b57600080fd5b8360010182604051612f1d919061440b565b908152602001604051809103902060008473ffffffffffffffffffffffffffffffffffffffff1673ffffffffffffffffffffffffffffffffffffffff16815260200190815260200160002060009054906101000a900460ff1690509392505050565b6000808473ffffffffffffffffffffffffffffffffffffffff1673ffffffffffffffffffffffffffffffffffffffff16815260200190815260200160002054811115613000576040517f08c379a0000000000000000000000000000000000000000000000000000000008152600401612ff7906146f9565b60405180910390fd5b600073ffffffffffffffffffffffffffffffffffffffff168273ffffffffffffffffffffffffffffffffffffffff16141561303a57600080fd5b61308b816000808673ffffffffffffffffffffffffffffffffffffffff1673ffffffffffffffffffffffffffffffffffffffff1681526020019081526020016000205461320490919063ffffffff16565b6000808573ffffffffffffffffffffffffffffffffffffffff1673ffffffffffffffffffffffffffffffffffffffff1681526020019081526020016000208190555061311e816000808573ffffffffffffffffffffffffffffffffffffffff1673ffffffffffffffffffffffffffffffffffffffff16815260200190815260200160002054612eb190919063ffffffff16565b6000808473ffffffffffffffffffffffffffffffffffffffff1673ffffffffffffffffffffffffffffffffffffffff168152602001908152602001600020819055508173ffffffffffffffffffffffffffffffffffffffff168373ffffffffffffffffffffffffffffffffffffffff167fddf252ad1be2c89b69c2b068fc378daa952ba7f163c4a11628f55a4df523b3ef836040516131bd919061479b565b60405180910390a3505050565b6000808314156131dd57600090506131fe565b60008284029050828482816131ee57fe5b04146131f957600080fd5b809150505b92915050565b60008282111561321357600080fd5b600082840390508091505092915050565b600073ffffffffffffffffffffffffffffffffffffffff168273ffffffffffffffffffffffffffffffffffffffff16141561325e57600080fd5b613269838383612ed0565b1561327357600080fd5b60018360010182604051613287919061440b565b908152602001604051809103902060008473ffffffffffffffffffffffffffffffffffffffff1673ffffffffffffffffffffffffffffffffffffffff16815260200190815260200160002060006101000a81548160ff021916908315150217905550505050565b600073ffffffffffffffffffffffffffffffffffffffff168273ffffffffffffffffffffffffffffffffffffffff16141561332857600080fd5b613333838383612ed0565b61333c57600080fd5b60008360010182604051613350919061440b565b908152602001604051809103902060008473ffffffffffffffffffffffffffffffffffffffff1673ffffffffffffffffffffffffffffffffffffffff16815260200190815260200160002060006101000a81548160ff021916908315150217905550505050565b8060018190555050565b600073ffffffffffffffffffffffffffffffffffffffff168273ffffffffffffffffffffffffffffffffffffffff1614156133fb57600080fd5b61341081600454612eb190919063ffffffff16565b600481905550613467816000808573ffffffffffffffffffffffffffffffffffffffff1673ffffffffffffffffffffffffffffffffffffffff16815260200190815260200160002054612eb190919063ffffffff16565b6000808473ffffffffffffffffffffffffffffffffffffffff1673ffffffffffffffffffffffffffffffffffffffff168152602001908152602001600020819055508173ffffffffffffffffffffffffffffffffffffffff16600073ffffffffffffffffffffffffffffffffffffffff167fddf252ad1be2c89b69c2b068fc378daa952ba7f163c4a11628f55a4df523b3ef83604051613507919061479b565b60405180910390a35050565b600073ffffffffffffffffffffffffffffffffffffffff168273ffffffffffffffffffffffffffffffffffffffff16141561354d57600080fd5b6000808373ffffffffffffffffffffffffffffffffffffffff1673ffffffffffffffffffffffffffffffffffffffff1681526020019081526020016000205481111561359857600080fd5b6135ad8160045461320490919063ffffffff16565b600481905550613604816000808573ffffffffffffffffffffffffffffffffffffffff1673ffffffffffffffffffffffffffffffffffffffff1681526020019081526020016000205461320490919063ffffffff16565b6000808473ffffffffffffffffffffffffffffffffffffffff1673ffffffffffffffffffffffffffffffffffffffff16815260200190815260200160002081905550600073ffffffffffffffffffffffffffffffffffffffff168273ffffffffffffffffffffffffffffffffffffffff167fddf252ad1be2c89b69c2b068fc378daa952ba7f163c4a11628f55a4df523b3ef836040516136a4919061479b565b60405180910390a35050565b600073ffffffffffffffffffffffffffffffffffffffff168173ffffffffffffffffffffffffffffffffffffffff1614156136ea57600080fd5b80600260006101000a81548173ffffffffffffffffffffffffffffffffffffffff021916908373ffffffffffffffffffffffffffffffffffffffff16021790555050565b828054600181600116156101000203166002900490600052602060002090601f016020900481019282601f1061376f57805160ff191683800117855561379d565b8280016001018555821561379d579182015b8281111561379c578251825591602001919060010190613781565b5b5090506137aa919061390f565b5090565b828054828255906000526020600020908101928215613827579160200282015b828111156138265782518260006101000a81548173ffffffffffffffffffffffffffffffffffffffff021916908373ffffffffffffffffffffffffffffffffffffffff160217905550916020019190600101906137ce565b5b509050613834919061392c565b5090565b828054600181600116156101000203166002900490600052602060002090601f016020900481019282601f1061387957805160ff19168380011785556138a7565b828001600101855582156138a7579182015b828111156138a657825182559160200191906001019061388b565b5b5090506138b4919061390f565b5090565b6040518060e0016040528060608152602001600073ffffffffffffffffffffffffffffffffffffffff1681526020016000815260200160008152602001600081526020016000151581526020016000151581525090565b5b80821115613928576000816000905550600101613910565b5090565b5b8082111561396357600081816101000a81549073ffffffffffffffffffffffffffffffffffffffff02191690555060010161392d565b5090565b60008135905061397681614a57565b92915050565b60008135905061398b81614a6e565b92915050565b600082601f8301126139a257600080fd5b81356139b56139b08261484a565b61481d565b915080825260208301602083018583830111156139d157600080fd5b6139dc8382846149ab565b50505092915050565b600082601f8301126139f657600080fd5b8135613a09613a0482614876565b61481d565b91508082526020830160208301858383011115613a2557600080fd5b613a308382846149ab565b50505092915050565b600081359050613a4881614a85565b92915050565b600060208284031215613a6057600080fd5b6000613a6e84828501613967565b91505092915050565b60008060408385031215613a8a57600080fd5b6000613a9885828601613967565b9250506020613aa985828601613967565b9150509250929050565b600080600060608486031215613ac857600080fd5b6000613ad686828701613967565b9350506020613ae786828701613967565b9250506040613af886828701613a39565b9150509250925092565b60008060408385031215613b1557600080fd5b6000613b2385828601613967565b925050602083013567ffffffffffffffff811115613b4057600080fd5b613b4c858286016139e5565b9150509250929050565b60008060408385031215613b6957600080fd5b6000613b7785828601613967565b9250506020613b8885828601613a39565b9150509250929050565b600060208284031215613ba457600080fd5b6000613bb28482850161397c565b91505092915050565b600060208284031215613bcd57600080fd5b600082013567ffffffffffffffff811115613be757600080fd5b613bf384828501613991565b91505092915050565b600060208284031215613c0e57600080fd5b600082013567ffffffffffffffff811115613c2857600080fd5b613c34848285016139e5565b91505092915050565b60008060408385031215613c5057600080fd5b600083013567ffffffffffffffff811115613c6a57600080fd5b613c76858286016139e5565b925050602083013567ffffffffffffffff811115613c9357600080fd5b613c9f858286016139e5565b9150509250929050565b60008060008060808587031215613cbf57600080fd5b600085013567ffffffffffffffff811115613cd957600080fd5b613ce5878288016139e5565b945050602085013567ffffffffffffffff811115613d0257600080fd5b613d0e878288016139e5565b9350506040613d1f87828801613967565b9250506060613d3087828801613a39565b91505092959194509250565b60008060408385031215613d4f57600080fd5b600083013567ffffffffffffffff811115613d6957600080fd5b613d75858286016139e5565b9250506020613d8685828601613a39565b9150509250929050565b600080600080600060a08688031215613da857600080fd5b600086013567ffffffffffffffff811115613dc257600080fd5b613dce888289016139e5565b9550506020613ddf88828901613a39565b9450506040613df088828901613a39565b9350506060613e0188828901613a39565b9250506080613e1288828901613a39565b9150509295509295909350565b600060208284031215613e3157600080fd5b6000613e3f84828501613a39565b91505092915050565b6000613e548383613e77565b60208301905092915050565b613e71613e6c8261494c565b6149ff565b82525050565b613e808161493a565b82525050565b613e8f8161493a565b82525050565b613ea6613ea18261493a565b6149ed565b82525050565b6000613eb7826148b2565b613ec181856148e0565b9350613ecc836148a2565b8060005b83811015613efd578151613ee48882613e48565b9750613eef836148d3565b925050600181019050613ed0565b5085935050505092915050565b613f138161495e565b82525050565b613f228161495e565b82525050565b6000613f33826148bd565b613f3d81856148f1565b9350613f4d8185602086016149ba565b613f5681614a2d565b840191505092915050565b6000613f6c826148bd565b613f768185614902565b9350613f868185602086016149ba565b80840191505092915050565b6000613f9d826148c8565b613fa7818561490d565b9350613fb78185602086016149ba565b613fc081614a2d565b840191505092915050565b6000613fd6826148c8565b613fe0818561491e565b9350613ff08185602086016149ba565b613ff981614a2d565b840191505092915050565b600061400f826148c8565b614019818561492f565b93506140298185602086016149ba565b80840191505092915050565b600061404260158361491e565b91507f446f63756d656e74206973206e6f7420457869737400000000000000000000006000830152602082019050919050565b6000614082600e8361491e565b91507f446f63756d656e742041646465640000000000000000000000000000000000006000830152602082019050919050565b60006140c260158361491e565b91507f43616d706169676e206973206e6f7420457869737400000000000000000000006000830152602082019050919050565b600061410260118361491e565b91507f5265647564616e742069732077726f6e670000000000000000000000000000006000830152602082019050919050565b600061414260068361492f565b91507f4d696e74657200000000000000000000000000000000000000000000000000006000830152600682019050919050565b600061418260108361491e565b91507f4e6f7420456e6f756768204d6f6e6579000000000000000000000000000000006000830152602082019050919050565b60006141c260178361491e565b91507f5472616e7366657220546f206e6f74206265206e756c6c0000000000000000006000830152602082019050919050565b600061420260118361491e565b91507f446f63756d656e742069732045786973740000000000000000000000000000006000830152602082019050919050565b600061424260178361491e565b91507f446f63756d656e7420616c7265616479205369676e65640000000000000000006000830152602082019050919050565b6000614282600f8361491e565b91507f446f63756d656e74205369676e656400000000000000000000000000000000006000830152602082019050919050565b60006142c260168361491e565b91507f43616d706169676e206973206e6f7420416374697665000000000000000000006000830152602082019050919050565b600060e08301600083015184820360008601526143128282613f92565b91505060208301516143276020860182613e77565b50604083015161433a6040860182614391565b50606083015161434d6060860182614391565b5060808301516143606080860182614391565b5060a083015161437360a0860182613f0a565b5060c083015161438660c0860182613f0a565b508091505092915050565b61439a81614994565b82525050565b6143a981614994565b82525050565b6143c06143bb82614994565b614a23565b82525050565b6143cf8161499e565b82525050565b60006143e18284613e95565b60148201915081905092915050565b60006143fc8284613e60565b60148201915081905092915050565b60006144178284614004565b915081905092915050565b600061442d82614135565b9150819050919050565b600061444382866143af565b6020820191506144538285613f61565b915061445f8284613e60565b601482019150819050949350505050565b60006020820190506144856000830184613e86565b92915050565b600060208201905081810360008301526144a58184613eac565b905092915050565b60006020820190506144c26000830184613f19565b92915050565b600060408201905081810360008301526144e28184613f28565b905081810360208301526144f581614035565b905092915050565b600060408201905081810360008301526145178184613f28565b9050818103602083015261452a81614075565b905092915050565b6000604082019050818103600083015261454c8184613f28565b9050818103602083015261455f816141f5565b905092915050565b600060408201905081810360008301526145818184613f28565b9050818103602083015261459481614235565b905092915050565b600060408201905081810360008301526145b68184613f28565b905081810360208301526145c981614275565b905092915050565b600060208201905081810360008301526145eb8184613fcb565b905092915050565b600060e082019050818103600083015261460d818a613fcb565b905061461c6020830189613e86565b61462960408301886143a0565b61463660608301876143a0565b61464360808301866143a0565b61465060a0830185613f19565b61465d60c0830184613f19565b98975050505050505050565b600060408201905081810360008301526146838185613fcb565b905061469260208301846143a0565b9392505050565b600060208201905081810360008301526146b281614035565b9050919050565b600060208201905081810360008301526146d2816140b5565b9050919050565b600060208201905081810360008301526146f2816140f5565b9050919050565b6000602082019050818103600083015261471281614175565b9050919050565b60006020820190508181036000830152614732816141b5565b9050919050565b60006020820190508181036000830152614752816141f5565b9050919050565b60006020820190508181036000830152614772816142b5565b9050919050565b6000602082019050818103600083015261479381846142f5565b905092915050565b60006020820190506147b060008301846143a0565b92915050565b60006080820190506147cb60008301876143a0565b81810360208301526147dd8186613f28565b90506147ec6040830185613e86565b6147f96060830184613f19565b95945050505050565b600060208201905061481760008301846143c6565b92915050565b6000604051905081810181811067ffffffffffffffff8211171561484057600080fd5b8060405250919050565b600067ffffffffffffffff82111561486157600080fd5b601f19601f8301169050602081019050919050565b600067ffffffffffffffff82111561488d57600080fd5b601f19601f8301169050602081019050919050565b6000819050602082019050919050565b600081519050919050565b600081519050919050565b600081519050919050565b6000602082019050919050565b600082825260208201905092915050565b600082825260208201905092915050565b600081905092915050565b600082825260208201905092915050565b600082825260208201905092915050565b600081905092915050565b600061494582614974565b9050919050565b600061495782614974565b9050919050565b60008115159050919050565b6000819050919050565b600073ffffffffffffffffffffffffffffffffffffffff82169050919050565b6000819050919050565b600060ff82169050919050565b82818337600083830152505050565b60005b838110156149d85780820151818401526020810190506149bd565b838111156149e7576000848401525b50505050565b60006149f882614a11565b9050919050565b6000614a0a82614a11565b9050919050565b6000614a1c82614a3e565b9050919050565b6000819050919050565b6000601f19601f8301169050919050565b60006c0100000000000000000000000082029050919050565b614a608161493a565b8114614a6b57600080fd5b50565b614a778161496a565b8114614a8257600080fd5b50565b614a8e81614994565b8114614a9957600080fd5b5056fea2646970667358221220a690269e00d8b1cd4c3f6a9a4b28cf492c77bdc8eba74e0eb051264d7350d81864736f6c63430007000033",
  "immutableReferences": {},
  "source": "// SPDX-License-Identifier: MIT\npragma experimental ABIEncoderV2;\npragma solidity >=0.7.0 <0.8.0;\nimport \"./TRC21.sol\";\nimport \"./SignDocument.sol\";\nimport './SafeMath.sol';\nimport './Ownable.sol';\nimport './CampaignDetail.sol';\n\ncontract Support is MyTRC21Mintable(\"Adverising\",\"LBAT\", 0, uint256(0) * uint256(10)**18, uint256(0) * uint256(10)**18), SignDocument, CampaignDetail, AccessControl{\n    using SafeMath for uint;\n\n    /* BEGIN: Document function*/\n    /**\n\t * @dev Function to add Document to verify\n\t * @param id The security Hash of documents.\n\t */\n    function addDocument(bytes memory id) public {\n        if(documents[keccak256(id)].isExist){\n            emit Add(id, msg.sender, \"Document is Exist\");\n            revert(\"Document is Exist\");\n        } \n        address[] memory signatures = new address[](0);\n        address[] memory history = new address[](0);\n        if(documents[keccak256(id)].history.length >= 1){\n            history = documents[keccak256(id)].history;\n        }\n        documents[keccak256(id)] = Document(block.timestamp, abi.encodePacked(block.timestamp, id, msg.sender), msg.sender, signatures, history, true);\n        emit Add(id, msg.sender, \"Document Added\");\n    }\n\n    /**\n\t * @dev Function to delete Document\n\t * @param id The security Hash of documents.\n\t */\n    function deleteDocument(bytes memory id) public {\n        if(documents[keccak256(id)].isExist){\n            if(keccak256(abi.encodePacked(documents[keccak256(id)].owner)) == keccak256(abi.encodePacked(msg.sender)) || isRole(msg.sender, \"Admin\")){\n                address[] memory signatures = new address[](0);\n                documents[keccak256(id)].signatures = signatures;\n                documents[keccak256(id)].history.push(documents[keccak256(id)].owner);\n                documents[keccak256(id)].isExist = false;\n            }\n        } \n        \n    }\n    /**\n\t * @dev Function to sign to Document to verify.\n\t * @param id The security Hash of documents.\n\t */\n    function signDocument(bytes memory id) public {\n        require(!isRole(msg.sender,\"Minter\") && !isOwner(msg.sender) && !isRole(msg.sender, \"Server\"));\n        if(!documents[keccak256(id)].isExist){\n            emit Sign(id, msg.sender, \"Document is not Exist\"); \n            revert(\"Document is not Exist\");\n        }\n        bool checkDulicate = false;\n        for(uint i = 0; i < documents[keccak256(id)].signatures.length; i++){\n            if(keccak256(abi.encodePacked(documents[keccak256(id)].signatures[i])) == keccak256(abi.encodePacked(msg.sender))){\n                checkDulicate = true;\n                break;\n            }\n        }\n        if(!checkDulicate){\n            documents[keccak256(id)].signatures.push(msg.sender);\n            emit Sign(id, msg.sender, \"Document Signed\");\n        }\n        emit Sign(id, msg.sender, \"Document already Signed\");\n    }\n\n    /**\n\t * @dev Function to get all signature of document by Security hash of document\n\t * @param id The security Hash of documents.\n\t * @return Array of address of signed\n\t */\n    function getSignatures(bytes memory id) public view returns (address[] memory) {\n        return documents[keccak256(id)].signatures;\n    }\n\n    /**\n\t * @dev Function to check Admin Sign\n\t * @param id The security Hash of documents.\n\t * @return A boolean that verifier admin is signed this document. True is admin signed.\n\t */\n    function checkAdminSigned(bytes memory id) public view returns (bool) {\n        for(uint i = 0; i < documents[keccak256(id)].signatures.length; i++){\n            if(isRole(documents[keccak256(id)].signatures[i], \"Admin\")){\n                return true;\n            }\n        }\n        return false;\n    }\n    /*END: Document function*/\n\n    /*BEGIN: Campaign Detail */\n    \n    /**\n\t * @dev Function to Create Campaign\n\t * @param campaignId The string Identifier of Campaign.\n\t * @param totalWithFee This is all money of campaign include all fee.\n\t * @param totalBudget This is Budget of campaign.\n\t * @param remainBudget This is money after minus fee\n\t * @param feeCancel This is fee to cancel campaign.\n\t */\n    function createCampaign (string memory campaignId, uint totalWithFee, uint totalBudget, uint remainBudget, uint feeCancel) public{\n        //check money amount\n        require(totalWithFee <= _allowed[msg.sender][address(this)],\"Not Enough Money\");\n        //check campaign\n        if(!campaigns[campaignId].isExist){\n            //send money to server wallet\n            _transfer(msg.sender, address(this), totalWithFee);\n            _allowed[msg.sender][address(this)].sub(totalWithFee);\n            //create campaign\n            campaigns[campaignId] = Campaign(campaignId, msg.sender, totalBudget, remainBudget, feeCancel, true, true);\n        }\n        emit CreateCampaign(msg.sender, campaignId, totalBudget);\n    }\n\n    /**\n\t * @dev Function to CheckOut Campaign\n\t * @param campaignId The string Identifier of Campaign.\n\t * @param redudant The address of suppiler to transfer money.\n\t */\n    function checkOutCampaign(string memory campaignId, uint redudant) public onlyServer{\n        require(campaigns[campaignId].isExist,\"Campaign is not Exist\");\n        require(campaigns[campaignId].isActive,\"Campaign is not Active\");\n        require(campaigns[campaignId].remainBudget > redudant, \"Redudant is wrong\");\n\n        transfer(campaigns[campaignId].advertiser, redudant);\n        campaigns[campaignId].isActive = false;\n        campaigns[campaignId].remainBudget = campaigns[campaignId].remainBudget.sub(redudant);\n    }\n\n    /**\n\t * @dev Function to Pay To Supplier\n\t * @param campaignId The string Identifier of Campaign\n\t * @param supplier The address of suppiler to transfer money\n\t * @param value The value of money to transfer to supplier\n\t * @return A boolean that indicates if the operation was successful.\n\t */\n    function payToSupplier(string memory campaignId, string memory paymentKey, address supplier, uint256 value) public onlyServer returns (bool) {\n        require(supplier != address(0));\n        require(value <= campaigns[campaignId].remainBudget);\n        require(!checkPayed[campaignId][paymentKey]);\n        campaigns[campaignId].remainBudget = campaigns[campaignId].remainBudget.sub(value);\n        _transfer(address(this), campaigns[campaignId].advertiser, value);\n        checkPayed[campaignId][paymentKey] = true;\n        return true;\n    }\n\n    /**\n\t * @dev Function to Cancel Campaign\n\t * @param campaignId The string Identifier of Campaign\n\t */\n    function cancelCampaign(string memory campaignId) public{\n        require(campaigns[campaignId].isExist,\"Campaign is not Exist\");\n        require(campaigns[campaignId].isActive,\"Campaign is not Active\");\n        require(campaigns[campaignId].advertiser == msg.sender || isRole(msg.sender, \"Admin\"));\n        \n        if(isRole(msg.sender, \"Admin\")){\n            transfer(campaigns[campaignId].advertiser, campaigns[campaignId].remainBudget);\n        }else{\n            uint temp = campaigns[campaignId].remainBudget.sub(campaigns[campaignId].feeCancel);\n            if(temp > 0){\n                transfer(campaigns[campaignId].advertiser,  temp);\n            }\n        }\n        \n        campaigns[campaignId].isActive = false;\n        campaigns[campaignId].remainBudget = 0;\n    }\n\n    /**\n\t * @dev Function to Get Campaign By Id\n\t * @param campaignId The string Identifier of Campaign\n\t * @return A Campaign will return if there are campaignId \n\t */\n    function getCampaignById(string memory campaignId) public view returns (Campaign memory){\n        return campaigns[campaignId];\n    }\n    /*END: Campaign Detail */\n\n    /*START: MyTRC21Mintable */\n\n    /**\n\t * @dev Function to change OwnerOfContract\n\t * @param newOwner The address that will be new Owner.\n\t */\n    function changeOwner(address newOwner) public onlyOwner{\n        _changeIssuer(newOwner);\n        _changeOwnerRole(newOwner);\n    }\n    /**\n\t * @dev Function to mint tokens\n\t * @param to The address that will receive the minted tokens.\n\t * @param value The amount of tokens to mint.\n\t * @return A boolean that indicates if the operation was successful.\n\t */\n\tfunction mint(\n\t\taddress to,\n\t\tuint256 value\n\t)\n\tpublic\n\tonlyMinter\n\treturns (bool)\n\t{\n\t\t_mint(to, value);\n\t\treturn true;\n\t}\n    /*END: MyTRC21Mintable */\n}",
  "sourcePath": "D:/CN9/Capstone/LBAContract.github.io/contracts/Support.sol",
  "compiler": {
    "name": "solc",
    "version": "0.7.0+commit.9e61f92b.Emscripten.clang"
  },
  "schemaVersion": "3.3.4",
  "updatedAt": "2021-03-30T13:51:14.095Z",
  "networkType": "ethereum",
  "devdoc": {
    "kind": "dev",
    "methods": {
      "addDocument(bytes)": {
        "details": "Function to add Document to verify",
        "params": {
          "id": "The security Hash of documents."
        }
      },
      "allowance(address,address)": {
        "details": "Function to check the amount of tokens that an owner allowed to a spender.",
        "params": {
          "owner": "address The address which owns the funds.",
          "spender": "address The address which will spend the funds."
        },
        "returns": {
          "_0": "A uint256 specifying the amount of tokens still available for the spender."
        }
      },
      "approve(address,uint256)": {
        "details": "Approve the passed address to spend the specified amount of tokens on behalf of msg.sender. Beware that changing an allowance with this method brings the risk that someone may use both the old and the new allowance by unfortunate transaction ordering. One possible solution to mitigate this race condition is to first reduce the spender's allowance to 0 and set the desired value afterwards: https://github.com/ethereum/EIPs/issues/20#issuecomment-263524729",
        "params": {
          "spender": "The address which will spend the funds.",
          "value": "The amount of tokens to be spent."
        }
      },
      "balanceOf(address)": {
        "details": "Gets the balance of the specified address.",
        "params": {
          "owner": "The address to query the balance of."
        },
        "returns": {
          "_0": "An uint256 representing the amount owned by the passed address."
        }
      },
      "burn(uint256)": {
        "details": "Function to burn tokens",
        "params": {
          "value": "The amount of tokens to mint."
        },
        "returns": {
          "_0": "A boolean that indicates if the operation was successful."
        }
      },
      "cancelCampaign(string)": {
        "details": "Function to Cancel Campaign",
        "params": {
          "campaignId": "The string Identifier of Campaign"
        }
      },
      "changeOwner(address)": {
        "details": "Function to change OwnerOfContract",
        "params": {
          "newOwner": "The address that will be new Owner."
        }
      },
      "checkAdminSigned(bytes)": {
        "details": "Function to check Admin Sign",
        "params": {
          "id": "The security Hash of documents."
        },
        "returns": {
          "_0": "A boolean that verifier admin is signed this document. True is admin signed."
        }
      },
      "checkOutCampaign(string,uint256)": {
        "details": "Function to CheckOut Campaign",
        "params": {
          "campaignId": "The string Identifier of Campaign.",
          "redudant": "The address of suppiler to transfer money."
        }
      },
      "createCampaign(string,uint256,uint256,uint256,uint256)": {
        "details": "Function to Create Campaign",
        "params": {
          "campaignId": "The string Identifier of Campaign.",
          "feeCancel": "This is fee to cancel campaign.",
          "remainBudget": "This is money after minus fee",
          "totalBudget": "This is Budget of campaign.",
          "totalWithFee": "This is all money of campaign include all fee."
        }
      },
      "decimals()": {
        "returns": {
          "_0": "the number of decimals of the token."
        }
      },
      "deleteDocument(bytes)": {
        "details": "Function to delete Document",
        "params": {
          "id": "The security Hash of documents."
        }
      },
      "estimateFee(uint256)": {
        "details": "Estimate transaction fee.",
        "params": {
          "value": "amount tokens sent"
        }
      },
      "getCampaignById(string)": {
        "details": "Function to Get Campaign By Id",
        "params": {
          "campaignId": "The string Identifier of Campaign"
        },
        "returns": {
          "_0": "A Campaign will return if there are campaignId "
        }
      },
      "getSignatures(bytes)": {
        "details": "Function to get all signature of document by Security hash of document",
        "params": {
          "id": "The security Hash of documents."
        },
        "returns": {
          "_0": "Array of address of signed"
        }
      },
      "issuer()": {
        "details": "token's foundation"
      },
      "minFee()": {
        "details": "The amount fee that will be lost when transferring."
      },
      "mint(address,uint256)": {
        "details": "Function to mint tokens",
        "params": {
          "to": "The address that will receive the minted tokens.",
          "value": "The amount of tokens to mint."
        },
        "returns": {
          "_0": "A boolean that indicates if the operation was successful."
        }
      },
      "name()": {
        "returns": {
          "_0": "the name of the token."
        }
      },
      "payToSupplier(string,string,address,uint256)": {
        "details": "Function to Pay To Supplier",
        "params": {
          "campaignId": "The string Identifier of Campaign",
          "supplier": "The address of suppiler to transfer money",
          "value": "The value of money to transfer to supplier"
        },
        "returns": {
          "_0": "A boolean that indicates if the operation was successful."
        }
      },
      "signDocument(bytes)": {
        "details": "Function to sign to Document to verify.",
        "params": {
          "id": "The security Hash of documents."
        }
      },
      "symbol()": {
        "returns": {
          "_0": "the symbol of the token."
        }
      },
      "totalSupply()": {
        "details": "Total number of tokens in existence"
      },
      "transfer(address,uint256)": {
        "details": "Transfer token for a specified address",
        "params": {
          "to": "The address to transfer to.",
          "value": "The amount to be transferred."
        }
      },
      "transferFrom(address,address,uint256)": {
        "details": "Transfer tokens from one address to another",
        "params": {
          "from": "address The address which you want to send tokens from",
          "to": "address The address which you want to transfer to",
          "value": "uint256 the amount of tokens to be transferred"
        }
      }
    },
    "version": 1
  },
  "userdoc": {
    "kind": "user",
    "methods": {},
    "version": 1
  }
}