{
  "contractName": "Support",
  "abi": [
    {
      "anonymous": false,
      "inputs": [
        {
          "indexed": false,
          "internalType": "bytes",
          "name": "id",
          "type": "bytes"
        },
        {
          "indexed": true,
          "internalType": "address",
          "name": "from",
          "type": "address"
        },
        {
          "indexed": false,
          "internalType": "string",
          "name": "comment",
          "type": "string"
        }
      ],
      "name": "Add",
      "type": "event"
    },
    {
      "anonymous": false,
      "inputs": [
        {
          "indexed": true,
          "internalType": "address",
          "name": "owner",
          "type": "address"
        },
        {
          "indexed": true,
          "internalType": "address",
          "name": "spender",
          "type": "address"
        },
        {
          "indexed": false,
          "internalType": "uint256",
          "name": "value",
          "type": "uint256"
        }
      ],
      "name": "Approval",
      "type": "event"
    },
    {
      "anonymous": false,
      "inputs": [
        {
          "indexed": true,
          "internalType": "address",
          "name": "owner",
          "type": "address"
        },
        {
          "indexed": false,
          "internalType": "string",
          "name": "campaignId",
          "type": "string"
        },
        {
          "indexed": false,
          "internalType": "uint256",
          "name": "value",
          "type": "uint256"
        }
      ],
      "name": "AuthorityCampaign",
      "type": "event"
    },
    {
      "anonymous": false,
      "inputs": [
        {
          "indexed": true,
          "internalType": "address",
          "name": "from",
          "type": "address"
        },
        {
          "indexed": true,
          "internalType": "address",
          "name": "to",
          "type": "address"
        },
        {
          "indexed": true,
          "internalType": "address",
          "name": "issuer",
          "type": "address"
        },
        {
          "indexed": false,
          "internalType": "uint256",
          "name": "value",
          "type": "uint256"
        }
      ],
      "name": "Fee",
      "type": "event"
    },
    {
      "anonymous": false,
      "inputs": [
        {
          "indexed": true,
          "internalType": "address",
          "name": "account",
          "type": "address"
        }
      ],
      "name": "MinterAdded",
      "type": "event"
    },
    {
      "anonymous": false,
      "inputs": [
        {
          "indexed": true,
          "internalType": "address",
          "name": "account",
          "type": "address"
        }
      ],
      "name": "MinterRemoved",
      "type": "event"
    },
    {
      "anonymous": false,
      "inputs": [
        {
          "indexed": false,
          "internalType": "bytes",
          "name": "id",
          "type": "bytes"
        },
        {
          "indexed": true,
          "internalType": "address",
          "name": "from",
          "type": "address"
        },
        {
          "indexed": false,
          "internalType": "string",
          "name": "comment",
          "type": "string"
        }
      ],
      "name": "Sign",
      "type": "event"
    },
    {
      "anonymous": false,
      "inputs": [
        {
          "indexed": true,
          "internalType": "address",
          "name": "from",
          "type": "address"
        },
        {
          "indexed": true,
          "internalType": "address",
          "name": "to",
          "type": "address"
        },
        {
          "indexed": false,
          "internalType": "uint256",
          "name": "value",
          "type": "uint256"
        }
      ],
      "name": "Transfer",
      "type": "event"
    },
    {
      "inputs": [
        {
          "internalType": "address",
          "name": "",
          "type": "address"
        },
        {
          "internalType": "string",
          "name": "",
          "type": "string"
        }
      ],
      "name": "_allowedCampaign",
      "outputs": [
        {
          "internalType": "string",
          "name": "campaignId",
          "type": "string"
        },
        {
          "internalType": "uint256",
          "name": "money",
          "type": "uint256"
        },
        {
          "internalType": "uint256",
          "name": "timestamp",
          "type": "uint256"
        },
        {
          "internalType": "bool",
          "name": "isActive",
          "type": "bool"
        },
        {
          "internalType": "bool",
          "name": "isExist",
          "type": "bool"
        }
      ],
      "stateMutability": "view",
      "type": "function",
      "constant": true
    },
    {
      "inputs": [
        {
          "internalType": "bytes",
          "name": "id",
          "type": "bytes"
        }
      ],
      "name": "addDocument",
      "outputs": [],
      "stateMutability": "nonpayable",
      "type": "function"
    },
    {
      "inputs": [
        {
          "internalType": "address",
          "name": "account",
          "type": "address"
        }
      ],
      "name": "addMinter",
      "outputs": [],
      "stateMutability": "nonpayable",
      "type": "function"
    },
    {
      "inputs": [
        {
          "internalType": "address",
          "name": "owner",
          "type": "address"
        },
        {
          "internalType": "address",
          "name": "spender",
          "type": "address"
        }
      ],
      "name": "allowance",
      "outputs": [
        {
          "internalType": "uint256",
          "name": "",
          "type": "uint256"
        }
      ],
      "stateMutability": "view",
      "type": "function",
      "constant": true
    },
    {
      "inputs": [
        {
          "internalType": "address",
          "name": "spender",
          "type": "address"
        },
        {
          "internalType": "uint256",
          "name": "value",
          "type": "uint256"
        }
      ],
      "name": "approve",
      "outputs": [
        {
          "internalType": "bool",
          "name": "",
          "type": "bool"
        }
      ],
      "stateMutability": "nonpayable",
      "type": "function"
    },
    {
      "inputs": [
        {
          "internalType": "address",
          "name": "owner",
          "type": "address"
        }
      ],
      "name": "balanceOf",
      "outputs": [
        {
          "internalType": "uint256",
          "name": "",
          "type": "uint256"
        }
      ],
      "stateMutability": "view",
      "type": "function",
      "constant": true
    },
    {
      "inputs": [
        {
          "internalType": "uint256",
          "name": "value",
          "type": "uint256"
        }
      ],
      "name": "burn",
      "outputs": [
        {
          "internalType": "bool",
          "name": "",
          "type": "bool"
        }
      ],
      "stateMutability": "nonpayable",
      "type": "function"
    },
    {
      "inputs": [
        {
          "internalType": "uint256",
          "name": "value",
          "type": "uint256"
        }
      ],
      "name": "changeFeeCampaignCancel",
      "outputs": [],
      "stateMutability": "nonpayable",
      "type": "function"
    },
    {
      "inputs": [],
      "name": "decimals",
      "outputs": [
        {
          "internalType": "uint8",
          "name": "",
          "type": "uint8"
        }
      ],
      "stateMutability": "view",
      "type": "function",
      "constant": true
    },
    {
      "inputs": [
        {
          "internalType": "bytes32",
          "name": "",
          "type": "bytes32"
        }
      ],
      "name": "documents",
      "outputs": [
        {
          "internalType": "uint256",
          "name": "timestamp",
          "type": "uint256"
        },
        {
          "internalType": "bytes",
          "name": "ipfs_hash",
          "type": "bytes"
        },
        {
          "internalType": "bool",
          "name": "isExist",
          "type": "bool"
        }
      ],
      "stateMutability": "view",
      "type": "function",
      "constant": true
    },
    {
      "inputs": [
        {
          "internalType": "uint256",
          "name": "value",
          "type": "uint256"
        }
      ],
      "name": "estimateFee",
      "outputs": [
        {
          "internalType": "uint256",
          "name": "",
          "type": "uint256"
        }
      ],
      "stateMutability": "view",
      "type": "function",
      "constant": true
    },
    {
      "inputs": [],
      "name": "getFeeAdvertiserCampaign",
      "outputs": [
        {
          "internalType": "uint256",
          "name": "",
          "type": "uint256"
        }
      ],
      "stateMutability": "view",
      "type": "function",
      "constant": true
    },
    {
      "inputs": [],
      "name": "getFeeCampaignCancel",
      "outputs": [
        {
          "internalType": "uint256",
          "name": "",
          "type": "uint256"
        }
      ],
      "stateMutability": "view",
      "type": "function",
      "constant": true
    },
    {
      "inputs": [],
      "name": "getFeePublisherCampaign",
      "outputs": [
        {
          "internalType": "uint256",
          "name": "",
          "type": "uint256"
        }
      ],
      "stateMutability": "view",
      "type": "function",
      "constant": true
    },
    {
      "inputs": [
        {
          "internalType": "bytes",
          "name": "id",
          "type": "bytes"
        }
      ],
      "name": "getSignatures",
      "outputs": [
        {
          "internalType": "address[]",
          "name": "",
          "type": "address[]"
        }
      ],
      "stateMutability": "view",
      "type": "function",
      "constant": true
    },
    {
      "inputs": [
        {
          "internalType": "address",
          "name": "account",
          "type": "address"
        }
      ],
      "name": "isMinter",
      "outputs": [
        {
          "internalType": "bool",
          "name": "",
          "type": "bool"
        }
      ],
      "stateMutability": "view",
      "type": "function",
      "constant": true
    },
    {
      "inputs": [],
      "name": "issuer",
      "outputs": [
        {
          "internalType": "address",
          "name": "",
          "type": "address"
        }
      ],
      "stateMutability": "view",
      "type": "function",
      "constant": true
    },
    {
      "inputs": [],
      "name": "minFee",
      "outputs": [
        {
          "internalType": "uint256",
          "name": "",
          "type": "uint256"
        }
      ],
      "stateMutability": "view",
      "type": "function",
      "constant": true
    },
    {
      "inputs": [
        {
          "internalType": "address",
          "name": "to",
          "type": "address"
        },
        {
          "internalType": "uint256",
          "name": "value",
          "type": "uint256"
        }
      ],
      "name": "mint",
      "outputs": [
        {
          "internalType": "bool",
          "name": "",
          "type": "bool"
        }
      ],
      "stateMutability": "nonpayable",
      "type": "function"
    },
    {
      "inputs": [],
      "name": "name",
      "outputs": [
        {
          "internalType": "string",
          "name": "",
          "type": "string"
        }
      ],
      "stateMutability": "view",
      "type": "function",
      "constant": true
    },
    {
      "inputs": [],
      "name": "owner",
      "outputs": [
        {
          "internalType": "address",
          "name": "",
          "type": "address"
        }
      ],
      "stateMutability": "view",
      "type": "function",
      "constant": true
    },
    {
      "inputs": [],
      "name": "renounceMinter",
      "outputs": [],
      "stateMutability": "nonpayable",
      "type": "function"
    },
    {
      "inputs": [
        {
          "internalType": "uint256",
          "name": "value",
          "type": "uint256"
        }
      ],
      "name": "setFeeAdvertiserCampaign",
      "outputs": [],
      "stateMutability": "nonpayable",
      "type": "function"
    },
    {
      "inputs": [
        {
          "internalType": "uint256",
          "name": "value",
          "type": "uint256"
        }
      ],
      "name": "setFeePublisherCampaign",
      "outputs": [],
      "stateMutability": "nonpayable",
      "type": "function"
    },
    {
      "inputs": [
        {
          "internalType": "uint256",
          "name": "value",
          "type": "uint256"
        }
      ],
      "name": "setMinFee",
      "outputs": [],
      "stateMutability": "nonpayable",
      "type": "function"
    },
    {
      "inputs": [
        {
          "internalType": "bytes",
          "name": "id",
          "type": "bytes"
        }
      ],
      "name": "signDocument",
      "outputs": [],
      "stateMutability": "nonpayable",
      "type": "function"
    },
    {
      "inputs": [],
      "name": "symbol",
      "outputs": [
        {
          "internalType": "string",
          "name": "",
          "type": "string"
        }
      ],
      "stateMutability": "view",
      "type": "function",
      "constant": true
    },
    {
      "inputs": [],
      "name": "totalSupply",
      "outputs": [
        {
          "internalType": "uint256",
          "name": "",
          "type": "uint256"
        }
      ],
      "stateMutability": "view",
      "type": "function",
      "constant": true
    },
    {
      "inputs": [
        {
          "internalType": "address",
          "name": "to",
          "type": "address"
        },
        {
          "internalType": "uint256",
          "name": "value",
          "type": "uint256"
        }
      ],
      "name": "transfer",
      "outputs": [
        {
          "internalType": "bool",
          "name": "",
          "type": "bool"
        }
      ],
      "stateMutability": "nonpayable",
      "type": "function"
    },
    {
      "inputs": [
        {
          "internalType": "address",
          "name": "from",
          "type": "address"
        },
        {
          "internalType": "address",
          "name": "to",
          "type": "address"
        },
        {
          "internalType": "uint256",
          "name": "value",
          "type": "uint256"
        }
      ],
      "name": "transferFrom",
      "outputs": [
        {
          "internalType": "bool",
          "name": "",
          "type": "bool"
        }
      ],
      "stateMutability": "nonpayable",
      "type": "function"
    },
    {
      "inputs": [
        {
          "internalType": "string",
          "name": "campaingId",
          "type": "string"
        },
        {
          "internalType": "uint256",
          "name": "value",
          "type": "uint256"
        }
      ],
      "name": "authorityCampaign",
      "outputs": [],
      "stateMutability": "nonpayable",
      "type": "function"
    },
    {
      "inputs": [
        {
          "internalType": "address",
          "name": "from",
          "type": "address"
        },
        {
          "internalType": "address",
          "name": "to",
          "type": "address"
        },
        {
          "internalType": "string",
          "name": "campaignId",
          "type": "string"
        },
        {
          "internalType": "uint256",
          "name": "total",
          "type": "uint256"
        },
        {
          "internalType": "uint256",
          "name": "timesFee",
          "type": "uint256"
        }
      ],
      "name": "payForAdvertising",
      "outputs": [
        {
          "internalType": "bool",
          "name": "",
          "type": "bool"
        }
      ],
      "stateMutability": "nonpayable",
      "type": "function"
    },
    {
      "inputs": [
        {
          "internalType": "string",
          "name": "campaignId",
          "type": "string"
        },
        {
          "internalType": "address",
          "name": "ownerOfCampaign",
          "type": "address"
        },
        {
          "internalType": "uint256",
          "name": "timesFee",
          "type": "uint256"
        }
      ],
      "name": "checkOutCampaign",
      "outputs": [],
      "stateMutability": "nonpayable",
      "type": "function"
    },
    {
      "inputs": [
        {
          "internalType": "string",
          "name": "campaignId",
          "type": "string"
        },
        {
          "internalType": "address",
          "name": "ownerOfCampaign",
          "type": "address"
        },
        {
          "internalType": "uint256",
          "name": "redundant",
          "type": "uint256"
        },
        {
          "internalType": "uint256",
          "name": "timesCancelFee",
          "type": "uint256"
        }
      ],
      "name": "cancelCampaign",
      "outputs": [],
      "stateMutability": "nonpayable",
      "type": "function"
    }
  ],
  "bytecode": "0x60806040523480156200001157600080fd5b506040518060400160405280600b81526020017f41647665726973696e67320000000000000000000000000000000000000000008152506040518060400160405280600481526020017f4c4241320000000000000000000000000000000000000000000000000000000081525060006012600a0a6000026012600a0a600102620000aa33620001aa640100000000026401000000009004565b33600660006101000a81548173ffffffffffffffffffffffffffffffffffffffff021916908373ffffffffffffffffffffffffffffffffffffffff16021790555084600790805190602001906200010392919062000582565b5083600890805190602001906200011c92919062000582565b5082600960006101000a81548160ff021916908360ff16021790555062000153308362000214640100000000026401000000009004565b6200016d3362000387640100000000026401000000009004565b620001878162000406640100000000026401000000009004565b50505050506001600c819055506001600d81905550600a600e8190555062000628565b620001ce816005620004106401000000000262003a77179091906401000000009004565b8073ffffffffffffffffffffffffffffffffffffffff167f6ae172837ea30b801fbfcdd4108aa1d5bf8ff775444fd70256b44e6bf3dfc3f660405160405180910390a250565b600073ffffffffffffffffffffffffffffffffffffffff168273ffffffffffffffffffffffffffffffffffffffff1614156200024f57600080fd5b6200027481600454620004cf6401000000000262003b23179091906401000000009004565b600481905550620002db816000808573ffffffffffffffffffffffffffffffffffffffff1673ffffffffffffffffffffffffffffffffffffffff16815260200190815260200160002054620004cf6401000000000262003b23179091906401000000009004565b6000808473ffffffffffffffffffffffffffffffffffffffff1673ffffffffffffffffffffffffffffffffffffffff168152602001908152602001600020819055508173ffffffffffffffffffffffffffffffffffffffff16600073ffffffffffffffffffffffffffffffffffffffff167fddf252ad1be2c89b69c2b068fc378daa952ba7f163c4a11628f55a4df523b3ef836040518082815260200191505060405180910390a35050565b600073ffffffffffffffffffffffffffffffffffffffff168173ffffffffffffffffffffffffffffffffffffffff161415620003c257600080fd5b80600260006101000a81548173ffffffffffffffffffffffffffffffffffffffff021916908373ffffffffffffffffffffffffffffffffffffffff16021790555050565b8060018190555050565b600073ffffffffffffffffffffffffffffffffffffffff168173ffffffffffffffffffffffffffffffffffffffff1614156200044b57600080fd5b620004668282620004ef640100000000026401000000009004565b156200047157600080fd5b60018260000160008373ffffffffffffffffffffffffffffffffffffffff1673ffffffffffffffffffffffffffffffffffffffff16815260200190815260200160002060006101000a81548160ff0219169083151502179055505050565b600080828401905083811015620004e557600080fd5b8091505092915050565b60008073ffffffffffffffffffffffffffffffffffffffff168273ffffffffffffffffffffffffffffffffffffffff1614156200052b57600080fd5b8260000160008373ffffffffffffffffffffffffffffffffffffffff1673ffffffffffffffffffffffffffffffffffffffff16815260200190815260200160002060009054906101000a900460ff16905092915050565b828054600181600116156101000203166002900490600052602060002090601f016020900481019282601f10620005c557805160ff1916838001178555620005f6565b82800160010185558215620005f6579182015b82811115620005f5578251825591602001919060010190620005d8565b5b50905062000605919062000609565b5090565b5b80821115620006245760008160009055506001016200060a565b5090565b61455f80620006386000396000f3fe608060405234801561001057600080fd5b5060043610610222576000357c0100000000000000000000000000000000000000000000000000000000900480634a3ab0301161013757806398650275116100ca578063c2975e4511610099578063c2975e4514610ebd578063c63c5bd114610eeb578063cc50fd0114610fa6578063dd62ed3e14610fc4578063ff2f7c261461103c57610222565b80639865027514610dc75780639d7364d814610dd1578063a9059cbb14610dff578063aa271e1a14610e6357610222565b806370a082311161010657806370a0823114610c745780638da5cb5b14610ccc57806395d89b4114610d00578063983b2d5614610d8357610222565b80634a3ab03014610982578063679817e7146109b05780636b45b4e314610a755780637027ce0714610b8557610222565b8063228bc0a9116101ba578063313ce56711610189578063313ce5671461071757806331ac9920146107385780633be1f80f1461076657806340c10f19146108da57806342966c681461093e57610222565b8063228bc0a91461050357806323b872dd146105be57806324ec7590146106425780632b2805db1461066057610222565b8063127e8e4d116101f6578063127e8e4d14610451578063128e9aed1461049357806318160ddd146104b15780631d143848146104cf57610222565b80626fd9911461022757806306fdde0314610245578063095ea7b3146102c85780630a5904271461032c575b600080fd5b61022f611121565b6040518082815260200191505060405180910390f35b61024d61112b565b6040518080602001828103825283818151815260200191508051906020019080838360005b8381101561028d578082015181840152602081019050610272565b50505050905090810190601f1680156102ba5780820380516001836020036101000a031916815260200191505b509250505060405180910390f35b610314600480360360408110156102de57600080fd5b81019080803573ffffffffffffffffffffffffffffffffffffffff169060200190929190803590602001909291905050506111cd565b60405180821515815260200191505060405180910390f35b610439600480360360a081101561034257600080fd5b81019080803573ffffffffffffffffffffffffffffffffffffffff169060200190929190803573ffffffffffffffffffffffffffffffffffffffff1690602001909291908035906020019064010000000081111561039f57600080fd5b8201836020820111156103b157600080fd5b803590602001918460018302840111640100000000831117156103d357600080fd5b91908080601f016020809104026020016040519081016040528093929190818152602001838380828437600081840152601f19601f8201169050808301925050505050505091929192908035906020019092919080359060200190929190505050611374565b60405180821515815260200191505060405180910390f35b61047d6004803603602081101561046757600080fd5b81019080803590602001909291905050506116ae565b6040518082815260200191505060405180910390f35b61049b6116df565b6040518082815260200191505060405180910390f35b6104b96116e9565b6040518082815260200191505060405180910390f35b6104d76116f3565b604051808273ffffffffffffffffffffffffffffffffffffffff16815260200191505060405180910390f35b6105bc6004803603602081101561051957600080fd5b810190808035906020019064010000000081111561053657600080fd5b82018360208201111561054857600080fd5b8035906020019184600183028401116401000000008311171561056a57600080fd5b91908080601f016020809104026020016040519081016040528093929190818152602001838380828437600081840152601f19601f82011690508083019250505050505050919291929050505061171d565b005b61062a600480360360608110156105d457600080fd5b81019080803573ffffffffffffffffffffffffffffffffffffffff169060200190929190803573ffffffffffffffffffffffffffffffffffffffff16906020019092919080359060200190929190505050611b27565b60405180821515815260200191505060405180910390f35b61064a611ecb565b6040518082815260200191505060405180910390f35b61068c6004803603602081101561067657600080fd5b8101908080359060200190929190505050611ed5565b60405180848152602001806020018315158152602001828103825284818151815260200191508051906020019080838360005b838110156106da5780820151818401526020810190506106bf565b50505050905090810190601f1680156107075780820380516001836020036101000a031916815260200191505b5094505050505060405180910390f35b61071f611fa4565b604051808260ff16815260200191505060405180910390f35b6107646004803603602081101561074e57600080fd5b8101908080359060200190929190505050611fbb565b005b61083f6004803603604081101561077c57600080fd5b81019080803573ffffffffffffffffffffffffffffffffffffffff169060200190929190803590602001906401000000008111156107b957600080fd5b8201836020820111156107cb57600080fd5b803590602001918460018302840111640100000000831117156107ed57600080fd5b91908080601f016020809104026020016040519081016040528093929190818152602001838380828437600081840152601f19601f820116905080830192505050505050509192919290505050612006565b604051808060200186815260200185815260200184151581526020018315158152602001828103825287818151815260200191508051906020019080838360005b8381101561089b578082015181840152602081019050610880565b50505050905090810190601f1680156108c85780820380516001836020036101000a031916815260200191505b50965050505050505060405180910390f35b610926600480360360408110156108f057600080fd5b81019080803573ffffffffffffffffffffffffffffffffffffffff16906020019092919080359060200190929190505050612111565b60405180821515815260200191505060405180910390f35b61096a6004803603602081101561095457600080fd5b8101908080359060200190929190505050612139565b60405180821515815260200191505060405180910390f35b6109ae6004803603602081101561099857600080fd5b810190808035906020019092919050505061214e565b005b610a73600480360360408110156109c657600080fd5b81019080803590602001906401000000008111156109e357600080fd5b8201836020820111156109f557600080fd5b80359060200191846001830284011164010000000083111715610a1757600080fd5b91908080601f016020809104026020016040519081016040528093929190818152602001838380828437600081840152601f19601f82011690508083019250505050505050919291929080359060200190929190505050612158565b005b610b2e60048036036020811015610a8b57600080fd5b8101908080359060200190640100000000811115610aa857600080fd5b820183602082011115610aba57600080fd5b80359060200191846001830284011164010000000083111715610adc57600080fd5b91908080601f016020809104026020016040519081016040528093929190818152602001838380828437600081840152601f19601f820116905080830192505050505050509192919290505050612551565b6040518080602001828103825283818151815260200191508051906020019060200280838360005b83811015610b71578082015181840152602081019050610b56565b505050509050019250505060405180910390f35b610c7260048036036080811015610b9b57600080fd5b8101908080359060200190640100000000811115610bb857600080fd5b820183602082011115610bca57600080fd5b80359060200191846001830284011164010000000083111715610bec57600080fd5b91908080601f016020809104026020016040519081016040528093929190818152602001838380828437600081840152601f19601f820116905080830192505050505050509192919290803573ffffffffffffffffffffffffffffffffffffffff16906020019092919080359060200190929190803590602001909291905050506125fc565b005b610cb660048036036020811015610c8a57600080fd5b81019080803573ffffffffffffffffffffffffffffffffffffffff169060200190929190505050612c16565b6040518082815260200191505060405180910390f35b610cd4612c5e565b604051808273ffffffffffffffffffffffffffffffffffffffff16815260200191505060405180910390f35b610d08612c84565b6040518080602001828103825283818151815260200191508051906020019080838360005b83811015610d48578082015181840152602081019050610d2d565b50505050905090810190601f168015610d755780820380516001836020036101000a031916815260200191505b509250505060405180910390f35b610dc560048036036020811015610d9957600080fd5b81019080803573ffffffffffffffffffffffffffffffffffffffff169060200190929190505050612d26565b005b610dcf612d44565b005b610dfd60048036036020811015610de757600080fd5b8101908080359060200190929190505050612d4f565b005b610e4b60048036036040811015610e1557600080fd5b81019080803573ffffffffffffffffffffffffffffffffffffffff16906020019092919080359060200190929190505050612d59565b60405180821515815260200191505060405180910390f35b610ea560048036036020811015610e7957600080fd5b81019080803573ffffffffffffffffffffffffffffffffffffffff169060200190929190505050612eab565b60405180821515815260200191505060405180910390f35b610ee960048036036020811015610ed357600080fd5b8101908080359060200190929190505050612ec8565b005b610fa460048036036020811015610f0157600080fd5b8101908080359060200190640100000000811115610f1e57600080fd5b820183602082011115610f3057600080fd5b80359060200191846001830284011164010000000083111715610f5257600080fd5b91908080601f016020809104026020016040519081016040528093929190818152602001838380828437600081840152601f19601f820116905080830192505050505050509192919290505050612ed2565b005b610fae6133ee565b6040518082815260200191505060405180910390f35b61102660048036036040811015610fda57600080fd5b81019080803573ffffffffffffffffffffffffffffffffffffffff169060200190929190803573ffffffffffffffffffffffffffffffffffffffff1690602001909291905050506133f8565b6040518082815260200191505060405180910390f35b61111f6004803603606081101561105257600080fd5b810190808035906020019064010000000081111561106f57600080fd5b82018360208201111561108157600080fd5b803590602001918460018302840111640100000000831117156110a357600080fd5b91908080601f016020809104026020016040519081016040528093929190818152602001838380828437600081840152601f19601f820116905080830192505050505050509192919290803573ffffffffffffffffffffffffffffffffffffffff1690602001909291908035906020019092919050505061347f565b005b6000600e54905090565b606060078054600181600116156101000203166002900480601f0160208091040260200160405190810160405280929190818152602001828054600181600116156101000203166002900480156111c35780601f10611198576101008083540402835291602001916111c3565b820191906000526020600020905b8154815290600101906020018083116111a657829003601f168201915b5050505050905090565b60008073ffffffffffffffffffffffffffffffffffffffff168373ffffffffffffffffffffffffffffffffffffffff16141561120857600080fd5b6001546000803373ffffffffffffffffffffffffffffffffffffffff1673ffffffffffffffffffffffffffffffffffffffff16815260200190815260200160002054101561125557600080fd5b81600360003373ffffffffffffffffffffffffffffffffffffffff1673ffffffffffffffffffffffffffffffffffffffff16815260200190815260200160002060008573ffffffffffffffffffffffffffffffffffffffff1673ffffffffffffffffffffffffffffffffffffffff1681526020019081526020016000208190555061130533600260009054906101000a900473ffffffffffffffffffffffffffffffffffffffff16600154613b42565b8273ffffffffffffffffffffffffffffffffffffffff163373ffffffffffffffffffffffffffffffffffffffff167f8c5be1e5ebec7d5bd14f71427d1e84f3dd0314c0f7b2291e5b200ac8c7c3b925846040518082815260200191505060405180910390a36001905092915050565b6000600660009054906101000a900473ffffffffffffffffffffffffffffffffffffffff1673ffffffffffffffffffffffffffffffffffffffff163373ffffffffffffffffffffffffffffffffffffffff161461141c576040517f08c379a00000000000000000000000000000000000000000000000000000000081526004018080602001828103825260228152602001806145086022913960400191505060405180910390fd5b600061143a8361142a6116df565b0285613dc090919063ffffffff16565b9050600073ffffffffffffffffffffffffffffffffffffffff168673ffffffffffffffffffffffffffffffffffffffff16141561147657600080fd5b600b60008873ffffffffffffffffffffffffffffffffffffffff1673ffffffffffffffffffffffffffffffffffffffff168152602001908152602001600020856040518082805190602001908083835b602083106114e957805182526020820191506020810190506020830392506114c6565b6001836020036101000a03801982511681845116808217855250505050505090500191505090815260200160405180910390206001015484111561152c57600080fd5b6115e884600b60008a73ffffffffffffffffffffffffffffffffffffffff1673ffffffffffffffffffffffffffffffffffffffff168152602001908152602001600020876040518082805190602001908083835b602083106115a35780518252602082019150602081019050602083039250611580565b6001836020036101000a038019825116818451168082178552505050505050905001915050908152602001604051809103902060010154613dc090919063ffffffff16565b600b60008973ffffffffffffffffffffffffffffffffffffffff1673ffffffffffffffffffffffffffffffffffffffff168152602001908152602001600020866040518082805190602001908083835b6020831061165b5780518252602082019150602081019050602083039250611638565b6001836020036101000a0380198251168184511680821785525050505050509050019150509081526020016040518091039020600101819055506116a0308783613b42565b600191505095945050505050565b60006116d86001546116ca600085613de090919063ffffffff16565b613b2390919063ffffffff16565b9050919050565b6000600d54905090565b6000600454905090565b6000600260009054906101000a900473ffffffffffffffffffffffffffffffffffffffff16905090565b600a60008280519060200120815260200190815260200160002060030160009054906101000a900460ff16156118a7573373ffffffffffffffffffffffffffffffffffffffff167fce62159ff3c25a8e61a8bc74b520c1c33ff5acc534e8af236f3b5a587b050b0582604051808060200180602001838103835284818151815260200191508051906020019080838360005b838110156117ca5780820151818401526020810190506117af565b50505050905090810190601f1680156117f75780820380516001836020036101000a031916815260200191505b50838103825260118152602001807f446f63756d656e74206973204578697374000000000000000000000000000000815250602001935050505060405180910390a26040517f08c379a00000000000000000000000000000000000000000000000000000000081526004018080602001828103825260118152602001807f446f63756d656e7420697320457869737400000000000000000000000000000081525060200191505060405180910390fd5b6060600167ffffffffffffffff811180156118c157600080fd5b506040519080825280602002602001820160405280156118f05781602001602082028036833780820191505090505b50905060405180608001604052804281526020014284336040516020018084815260200183805190602001908083835b602083106119435780518252602082019150602081019050602083039250611920565b6001836020036101000a0380198251168184511680821785525050505050509050018273ffffffffffffffffffffffffffffffffffffffff166c010000000000000000000000000281526014019350505050604051602081830303815290604052815260200182815260200160011515815250600a6000848051906020012081526020019081526020016000206000820151816000015560208201518160010190805190602001906119f6929190614304565b506040820151816002019080519060200190611a13929190614384565b5060608201518160030160006101000a81548160ff0219169083151502179055509050503373ffffffffffffffffffffffffffffffffffffffff167fce62159ff3c25a8e61a8bc74b520c1c33ff5acc534e8af236f3b5a587b050b0583604051808060200180602001838103835284818151815260200191508051906020019080838360005b83811015611ab4578082015181840152602081019050611a99565b50505050905090810190601f168015611ae15780820380516001836020036101000a031916815260200191505b508381038252600e8152602001807f446f63756d656e74204164646564000000000000000000000000000000000000815250602001935050505060405180910390a25050565b600080611b3f60015484613b2390919063ffffffff16565b9050600073ffffffffffffffffffffffffffffffffffffffff168473ffffffffffffffffffffffffffffffffffffffff161415611be4576040517f08c379a00000000000000000000000000000000000000000000000000000000081526004018080602001828103825260178152602001807f5472616e7366657220546f206e6f74206265206e756c6c00000000000000000081525060200191505060405180910390fd5b600360008673ffffffffffffffffffffffffffffffffffffffff1673ffffffffffffffffffffffffffffffffffffffff16815260200190815260200160002060003373ffffffffffffffffffffffffffffffffffffffff1673ffffffffffffffffffffffffffffffffffffffff16815260200190815260200160002054811115611cd6576040517f08c379a00000000000000000000000000000000000000000000000000000000081526004018080602001828103825260108152602001807f4e6f7420456e6f756768204d6f6e65790000000000000000000000000000000081525060200191505060405180910390fd5b611d6581600360008873ffffffffffffffffffffffffffffffffffffffff1673ffffffffffffffffffffffffffffffffffffffff16815260200190815260200160002060003373ffffffffffffffffffffffffffffffffffffffff1673ffffffffffffffffffffffffffffffffffffffff16815260200190815260200160002054613dc090919063ffffffff16565b600360008773ffffffffffffffffffffffffffffffffffffffff1673ffffffffffffffffffffffffffffffffffffffff16815260200190815260200160002060003373ffffffffffffffffffffffffffffffffffffffff1673ffffffffffffffffffffffffffffffffffffffff16815260200190815260200160002081905550611df0858585613b42565b611e1f85600260009054906101000a900473ffffffffffffffffffffffffffffffffffffffff16600154613b42565b600260009054906101000a900473ffffffffffffffffffffffffffffffffffffffff1673ffffffffffffffffffffffffffffffffffffffff168473ffffffffffffffffffffffffffffffffffffffff163373ffffffffffffffffffffffffffffffffffffffff167ffcf5b3276434181e3c48bd3fe569b8939808f11e845d4b963693b9d7dbd6dd996001546040518082815260200191505060405180910390a460019150509392505050565b6000600154905090565b600a602052806000526040600020600091509050806000015490806001018054600181600116156101000203166002900480601f016020809104026020016040519081016040528092919081815260200182805460018160011615610100020316600290048015611f875780601f10611f5c57610100808354040283529160200191611f87565b820191906000526020600020905b815481529060010190602001808311611f6a57829003601f168201915b5050505050908060030160009054906101000a900460ff16905083565b6000600960009054906101000a900460ff16905090565b611fc36116f3565b73ffffffffffffffffffffffffffffffffffffffff163373ffffffffffffffffffffffffffffffffffffffff1614611ffa57600080fd5b61200381613e1a565b50565b600b6020528160005260406000208180516020810182018051848252602083016020850120818352809550505050505060009150915050806000018054600181600116156101000203166002900480601f0160208091040260200160405190810160405280929190818152602001828054600181600116156101000203166002900480156120d55780601f106120aa576101008083540402835291602001916120d5565b820191906000526020600020905b8154815290600101906020018083116120b857829003601f168201915b5050505050908060010154908060020154908060030160009054906101000a900460ff16908060030160019054906101000a900460ff16905085565b600061211c33612eab565b61212557600080fd5b61212f8383613e24565b6001905092915050565b60006121453383613f76565b60019050919050565b80600c8190555050565b600660009054906101000a900473ffffffffffffffffffffffffffffffffffffffff1673ffffffffffffffffffffffffffffffffffffffff163373ffffffffffffffffffffffffffffffffffffffff1614156121ff576040517f08c379a00000000000000000000000000000000000000000000000000000000081526004018080602001828103825260218152602001806144e76021913960400191505060405180910390fd5b600b60003373ffffffffffffffffffffffffffffffffffffffff1673ffffffffffffffffffffffffffffffffffffffff168152602001908152602001600020826040518082805190602001908083835b60208310612272578051825260208201915060208101905060208303925061224f565b6001836020036101000a038019825116818451168082178552505050505050905001915050908152602001604051809103902060030160019054906101000a900460ff1661254d5760006122c633306133f8565b90508082111561233e576040517f08c379a00000000000000000000000000000000000000000000000000000000081526004018080602001828103825260108152602001807f4e6f7420456e6f756768204d6f6e65790000000000000000000000000000000081525060200191505060405180910390fd5b612349333084613b42565b6040518060a0016040528084815260200183815260200142815260200160011515815260200160011515815250600b60003373ffffffffffffffffffffffffffffffffffffffff1673ffffffffffffffffffffffffffffffffffffffff168152602001908152602001600020846040518082805190602001908083835b602083106123e957805182526020820191506020810190506020830392506123c6565b6001836020036101000a0380198251168184511680821785525050505050509050019150509081526020016040518091039020600082015181600001908051906020019061243892919061440e565b50602082015181600101556040820151816002015560608201518160030160006101000a81548160ff02191690831515021790555060808201518160030160016101000a81548160ff0219169083151502179055509050503373ffffffffffffffffffffffffffffffffffffffff167fd4a317c13fdae990b1350b7b6837b856112de30dbaae0233d9d06fc4cbc357de84846040518080602001838152602001828103825284818151815260200191508051906020019080838360005b838110156125105780820151818401526020810190506124f5565b50505050905090810190601f16801561253d5780820380516001836020036101000a031916815260200191505b50935050505060405180910390a2505b5050565b6060600a6000838051906020012081526020019081526020016000206002018054806020026020016040519081016040528092919081815260200182805480156125f057602002820191906000526020600020905b8160009054906101000a900473ffffffffffffffffffffffffffffffffffffffff1673ffffffffffffffffffffffffffffffffffffffff16815260200190600101908083116125a6575b50505050509050919050565b600660009054906101000a900473ffffffffffffffffffffffffffffffffffffffff1673ffffffffffffffffffffffffffffffffffffffff163373ffffffffffffffffffffffffffffffffffffffff16146126a2576040517f08c379a00000000000000000000000000000000000000000000000000000000081526004018080602001828103825260228152602001806145086022913960400191505060405180910390fd5b600b60008473ffffffffffffffffffffffffffffffffffffffff1673ffffffffffffffffffffffffffffffffffffffff168152602001908152602001600020846040518082805190602001908083835b6020831061271557805182526020820191506020810190506020830392506126f2565b6001836020036101000a038019825116818451168082178552505050505050905001915050908152602001604051809103902060030160019054906101000a900460ff166127cb576040517f08c379a00000000000000000000000000000000000000000000000000000000081526004018080602001828103825260158152602001807f43616d706169676e206973206e6f74204578697374000000000000000000000081525060200191505060405180910390fd5b600b60008473ffffffffffffffffffffffffffffffffffffffff1673ffffffffffffffffffffffffffffffffffffffff168152602001908152602001600020846040518082805190602001908083835b6020831061283e578051825260208201915060208101905060208303925061281b565b6001836020036101000a038019825116818451168082178552505050505050905001915050908152602001604051809103902060030160009054906101000a900460ff166128f4576040517f08c379a00000000000000000000000000000000000000000000000000000000081526004018080602001828103825260168152602001807f43616d706169676e206973206e6f74204163746976650000000000000000000081525060200191505060405180910390fd5b600b60008473ffffffffffffffffffffffffffffffffffffffff1673ffffffffffffffffffffffffffffffffffffffff168152602001908152602001600020846040518082805190602001908083835b602083106129675780518252602082019150602081019050602083039250612944565b6001836020036101000a0380198251168184511680821785525050505050509050019150509081526020016040518091039020600101548211612a6657612a6082600b60008673ffffffffffffffffffffffffffffffffffffffff1673ffffffffffffffffffffffffffffffffffffffff168152602001908152602001600020866040518082805190602001908083835b60208310612a1b57805182526020820191506020810190506020830392506129f8565b6001836020036101000a038019825116818451168082178552505050505050905001915050908152602001604051809103902060010154613dc090919063ffffffff16565b50612b16565b6000600b60008573ffffffffffffffffffffffffffffffffffffffff1673ffffffffffffffffffffffffffffffffffffffff168152602001908152602001600020856040518082805190602001908083835b60208310612adb5780518252602082019150602081019050602083039250612ab8565b6001836020036101000a0380198251168184511680821785525050505050509050019150509081526020016040518091039020600101819055505b80612b1f611121565b02821115612b4e57612b4c83612b4783612b37611121565b0285613dc090919063ffffffff16565b612d59565b505b6000600b60008573ffffffffffffffffffffffffffffffffffffffff1673ffffffffffffffffffffffffffffffffffffffff168152602001908152602001600020856040518082805190602001908083835b60208310612bc35780518252602082019150602081019050602083039250612ba0565b6001836020036101000a038019825116818451168082178552505050505050905001915050908152602001604051809103902060030160006101000a81548160ff02191690831515021790555050505050565b60008060008373ffffffffffffffffffffffffffffffffffffffff1673ffffffffffffffffffffffffffffffffffffffff168152602001908152602001600020549050919050565b600660009054906101000a900473ffffffffffffffffffffffffffffffffffffffff1681565b606060088054600181600116156101000203166002900480601f016020809104026020016040519081016040528092919081815260200182805460018160011615610100020316600290048015612d1c5780601f10612cf157610100808354040283529160200191612d1c565b820191906000526020600020905b815481529060010190602001808311612cff57829003601f168201915b5050505050905090565b612d2f33612eab565b612d3857600080fd5b612d4181614113565b50565b612d4d3361416d565b565b80600d8190555050565b600080612d7160015484613b2390919063ffffffff16565b9050600073ffffffffffffffffffffffffffffffffffffffff168473ffffffffffffffffffffffffffffffffffffffff161415612dad57600080fd5b80831115612dba57600080fd5b612dc5338585613b42565b60006001541115612ea057612dff33600260009054906101000a900473ffffffffffffffffffffffffffffffffffffffff16600154613b42565b600260009054906101000a900473ffffffffffffffffffffffffffffffffffffffff1673ffffffffffffffffffffffffffffffffffffffff168473ffffffffffffffffffffffffffffffffffffffff163373ffffffffffffffffffffffffffffffffffffffff167ffcf5b3276434181e3c48bd3fe569b8939808f11e845d4b963693b9d7dbd6dd996001546040518082815260200191505060405180910390a45b600191505092915050565b6000612ec18260056141c790919063ffffffff16565b9050919050565b80600e8190555050565b600a60008280519060200120815260200190815260200160002060030160009054906101000a900460ff1661305b573373ffffffffffffffffffffffffffffffffffffffff167f7b178bf1583b36c417d982a222dfebdf8e3c8ecff7e75e459627b176a9e8bd7282604051808060200180602001838103835284818151815260200191508051906020019080838360005b83811015612f7e578082015181840152602081019050612f63565b50505050905090810190601f168015612fab5780820380516001836020036101000a031916815260200191505b50838103825260158152602001807f446f63756d656e74206973206e6f742045786973740000000000000000000000815250602001935050505060405180910390a26040517f08c379a00000000000000000000000000000000000000000000000000000000081526004018080602001828103825260158152602001807f446f63756d656e74206973206e6f74204578697374000000000000000000000081525060200191505060405180910390fd5b6000805b600a6000848051906020012081526020019081526020016000206002018054905081101561318d5733604051602001808273ffffffffffffffffffffffffffffffffffffffff166c0100000000000000000000000002815260140191505060405160208183030381529060405280519060200120600a60008580519060200120815260200190815260200160002060020182815481106130fb57fe5b9060005260206000200160009054906101000a900473ffffffffffffffffffffffffffffffffffffffff16604051602001808273ffffffffffffffffffffffffffffffffffffffff166c01000000000000000000000000028152601401915050604051602081830303815290604052805190602001201415613180576001915061318d565b808060010191505061305f565b50806132fe57600a600083805190602001208152602001908152602001600020600201339080600181540180825580915050600190039060005260206000200160009091909190916101000a81548173ffffffffffffffffffffffffffffffffffffffff021916908373ffffffffffffffffffffffffffffffffffffffff1602179055503373ffffffffffffffffffffffffffffffffffffffff167f7b178bf1583b36c417d982a222dfebdf8e3c8ecff7e75e459627b176a9e8bd7283604051808060200180602001838103835284818151815260200191508051906020019080838360005b8381101561328e578082015181840152602081019050613273565b50505050905090810190601f1680156132bb5780820380516001836020036101000a031916815260200191505b508381038252600f8152602001807f446f63756d656e74205369676e65640000000000000000000000000000000000815250602001935050505060405180910390a25b3373ffffffffffffffffffffffffffffffffffffffff167f7b178bf1583b36c417d982a222dfebdf8e3c8ecff7e75e459627b176a9e8bd7283604051808060200180602001838103835284818151815260200191508051906020019080838360005b8381101561337b578082015181840152602081019050613360565b50505050905090810190601f1680156133a85780820380516001836020036101000a031916815260200191505b50838103825260178152602001807f446f63756d656e7420616c7265616479205369676e6564000000000000000000815250602001935050505060405180910390a25050565b6000600c54905090565b6000600360008473ffffffffffffffffffffffffffffffffffffffff1673ffffffffffffffffffffffffffffffffffffffff16815260200190815260200160002060008373ffffffffffffffffffffffffffffffffffffffff1673ffffffffffffffffffffffffffffffffffffffff16815260200190815260200160002054905092915050565b600660009054906101000a900473ffffffffffffffffffffffffffffffffffffffff1673ffffffffffffffffffffffffffffffffffffffff163373ffffffffffffffffffffffffffffffffffffffff1614613525576040517f08c379a00000000000000000000000000000000000000000000000000000000081526004018080602001828103825260228152602001806145086022913960400191505060405180910390fd5b600b60008373ffffffffffffffffffffffffffffffffffffffff1673ffffffffffffffffffffffffffffffffffffffff168152602001908152602001600020836040518082805190602001908083835b602083106135985780518252602082019150602081019050602083039250613575565b6001836020036101000a038019825116818451168082178552505050505050905001915050908152602001604051809103902060030160019054906101000a900460ff1661364e576040517f08c379a00000000000000000000000000000000000000000000000000000000081526004018080602001828103825260158152602001807f43616d706169676e206973206e6f74204578697374000000000000000000000081525060200191505060405180910390fd5b600b60008373ffffffffffffffffffffffffffffffffffffffff1673ffffffffffffffffffffffffffffffffffffffff168152602001908152602001600020836040518082805190602001908083835b602083106136c1578051825260208201915060208101905060208303925061369e565b6001836020036101000a038019825116818451168082178552505050505050905001915050908152602001604051809103902060030160009054906101000a900460ff16613777576040517f08c379a00000000000000000000000000000000000000000000000000000000081526004018080602001828103825260168152602001807f43616d706169676e206973206e6f74204163746976650000000000000000000081525060200191505060405180910390fd5b806137806133ee565b02600b60008473ffffffffffffffffffffffffffffffffffffffff1673ffffffffffffffffffffffffffffffffffffffff168152602001908152602001600020846040518082805190602001908083835b602083106137f457805182526020820191506020810190506020830392506137d1565b6001836020036101000a0380198251168184511680821785525050505050509050019150509081526020016040518091039020600101541115613901576138ff826138fa836138416133ee565b02600b60008773ffffffffffffffffffffffffffffffffffffffff1673ffffffffffffffffffffffffffffffffffffffff168152602001908152602001600020876040518082805190602001908083835b602083106138b55780518252602082019150602081019050602083039250613892565b6001836020036101000a038019825116818451168082178552505050505050905001915050908152602001604051809103902060010154613dc090919063ffffffff16565b612d59565b505b6000600b60008473ffffffffffffffffffffffffffffffffffffffff1673ffffffffffffffffffffffffffffffffffffffff168152602001908152602001600020846040518082805190602001908083835b602083106139765780518252602082019150602081019050602083039250613953565b6001836020036101000a038019825116818451168082178552505050505050905001915050908152602001604051809103902060030160006101000a81548160ff0219169083151502179055506000600b60008473ffffffffffffffffffffffffffffffffffffffff1673ffffffffffffffffffffffffffffffffffffffff168152602001908152602001600020846040518082805190602001908083835b60208310613a385780518252602082019150602081019050602083039250613a15565b6001836020036101000a038019825116818451168082178552505050505050905001915050908152602001604051809103902060010181905550505050565b600073ffffffffffffffffffffffffffffffffffffffff168173ffffffffffffffffffffffffffffffffffffffff161415613ab157600080fd5b613abb82826141c7565b15613ac557600080fd5b60018260000160008373ffffffffffffffffffffffffffffffffffffffff1673ffffffffffffffffffffffffffffffffffffffff16815260200190815260200160002060006101000a81548160ff0219169083151502179055505050565b600080828401905083811015613b3857600080fd5b8091505092915050565b6000808473ffffffffffffffffffffffffffffffffffffffff1673ffffffffffffffffffffffffffffffffffffffff16815260200190815260200160002054811115613bf6576040517f08c379a00000000000000000000000000000000000000000000000000000000081526004018080602001828103825260108152602001807f4e6f7420456e6f756768204d6f6e65790000000000000000000000000000000081525060200191505060405180910390fd5b600073ffffffffffffffffffffffffffffffffffffffff168273ffffffffffffffffffffffffffffffffffffffff161415613c3057600080fd5b613c81816000808673ffffffffffffffffffffffffffffffffffffffff1673ffffffffffffffffffffffffffffffffffffffff16815260200190815260200160002054613dc090919063ffffffff16565b6000808573ffffffffffffffffffffffffffffffffffffffff1673ffffffffffffffffffffffffffffffffffffffff16815260200190815260200160002081905550613d14816000808573ffffffffffffffffffffffffffffffffffffffff1673ffffffffffffffffffffffffffffffffffffffff16815260200190815260200160002054613b2390919063ffffffff16565b6000808473ffffffffffffffffffffffffffffffffffffffff1673ffffffffffffffffffffffffffffffffffffffff168152602001908152602001600020819055508173ffffffffffffffffffffffffffffffffffffffff168373ffffffffffffffffffffffffffffffffffffffff167fddf252ad1be2c89b69c2b068fc378daa952ba7f163c4a11628f55a4df523b3ef836040518082815260200191505060405180910390a3505050565b600082821115613dcf57600080fd5b600082840390508091505092915050565b600080831415613df35760009050613e14565b6000828402905082848281613e0457fe5b0414613e0f57600080fd5b809150505b92915050565b8060018190555050565b600073ffffffffffffffffffffffffffffffffffffffff168273ffffffffffffffffffffffffffffffffffffffff161415613e5e57600080fd5b613e7381600454613b2390919063ffffffff16565b600481905550613eca816000808573ffffffffffffffffffffffffffffffffffffffff1673ffffffffffffffffffffffffffffffffffffffff16815260200190815260200160002054613b2390919063ffffffff16565b6000808473ffffffffffffffffffffffffffffffffffffffff1673ffffffffffffffffffffffffffffffffffffffff168152602001908152602001600020819055508173ffffffffffffffffffffffffffffffffffffffff16600073ffffffffffffffffffffffffffffffffffffffff167fddf252ad1be2c89b69c2b068fc378daa952ba7f163c4a11628f55a4df523b3ef836040518082815260200191505060405180910390a35050565b600073ffffffffffffffffffffffffffffffffffffffff168273ffffffffffffffffffffffffffffffffffffffff161415613fb057600080fd5b6000808373ffffffffffffffffffffffffffffffffffffffff1673ffffffffffffffffffffffffffffffffffffffff16815260200190815260200160002054811115613ffb57600080fd5b61401081600454613dc090919063ffffffff16565b600481905550614067816000808573ffffffffffffffffffffffffffffffffffffffff1673ffffffffffffffffffffffffffffffffffffffff16815260200190815260200160002054613dc090919063ffffffff16565b6000808473ffffffffffffffffffffffffffffffffffffffff1673ffffffffffffffffffffffffffffffffffffffff16815260200190815260200160002081905550600073ffffffffffffffffffffffffffffffffffffffff168273ffffffffffffffffffffffffffffffffffffffff167fddf252ad1be2c89b69c2b068fc378daa952ba7f163c4a11628f55a4df523b3ef836040518082815260200191505060405180910390a35050565b614127816005613a7790919063ffffffff16565b8073ffffffffffffffffffffffffffffffffffffffff167f6ae172837ea30b801fbfcdd4108aa1d5bf8ff775444fd70256b44e6bf3dfc3f660405160405180910390a250565b61418181600561425990919063ffffffff16565b8073ffffffffffffffffffffffffffffffffffffffff167fe94479a9f7e1952cc78f2d6baab678adc1b772d936c6583def489e524cb6669260405160405180910390a250565b60008073ffffffffffffffffffffffffffffffffffffffff168273ffffffffffffffffffffffffffffffffffffffff16141561420257600080fd5b8260000160008373ffffffffffffffffffffffffffffffffffffffff1673ffffffffffffffffffffffffffffffffffffffff16815260200190815260200160002060009054906101000a900460ff16905092915050565b600073ffffffffffffffffffffffffffffffffffffffff168173ffffffffffffffffffffffffffffffffffffffff16141561429357600080fd5b61429d82826141c7565b6142a657600080fd5b60008260000160008373ffffffffffffffffffffffffffffffffffffffff1673ffffffffffffffffffffffffffffffffffffffff16815260200190815260200160002060006101000a81548160ff0219169083151502179055505050565b828054600181600116156101000203166002900490600052602060002090601f016020900481019282601f1061434557805160ff1916838001178555614373565b82800160010185558215614373579182015b82811115614372578251825591602001919060010190614357565b5b509050614380919061448e565b5090565b8280548282559060005260206000209081019282156143fd579160200282015b828111156143fc5782518260006101000a81548173ffffffffffffffffffffffffffffffffffffffff021916908373ffffffffffffffffffffffffffffffffffffffff160217905550916020019190600101906143a4565b5b50905061440a91906144ab565b5090565b828054600181600116156101000203166002900490600052602060002090601f016020900481019282601f1061444f57805160ff191683800117855561447d565b8280016001018555821561447d579182015b8281111561447c578251825591602001919060010190614461565b5b50905061448a919061448e565b5090565b5b808211156144a757600081600090555060010161448f565b5090565b5b808211156144e257600081816101000a81549073ffffffffffffffffffffffffffffffffffffffff0219169055506001016144ac565b509056fe546869732066756e6374696f6e206973206f6e6c79207573652062792075736572546869732066756e6374696f6e206973206f6e6c7920757365206279204f776e6572a2646970667358221220752048a6274554d8f628736c118f99426aebb5a01a9d80ef559bfa539147808764736f6c63430007000033",
  "immutableReferences": {},
  "source": "// SPDX-License-Identifier: MIT\r\npragma solidity >=0.4.22 <0.8.0;\r\nimport \"./TRC21.sol\";\r\nimport \"./SignDocument.sol\";\r\nimport \"./CampaignMoney.sol\";\r\nimport './SafeMath.sol';\r\nimport './Ownable.sol';\r\n\r\n\r\ncontract Support is Ownable, MyTRC21Mintable(\"Adverising2\",\"LBA2\", 0, uint256(0) * uint256(10)**18, 1 * uint256(10)**18), SignDocument, CampaignMoney{\r\n    using SafeMath for uint256;\r\n\r\n    function authorityCampaign (string memory campaingId, uint value) public onlyUser{\r\n        if(!_allowedCampaign[msg.sender][campaingId].isExist){\r\n            uint256 allowed = allowance(msg.sender, address(this));\r\n            require(value <= allowed,\"Not Enough Money\");\r\n            _transfer(msg.sender, address(this), value);\r\n            _allowedCampaign[msg.sender][campaingId] = Campaign(campaingId, value, block.timestamp, true, true);\r\n            emit AuthorityCampaign(msg.sender, campaingId, value);\r\n        }\r\n    }\r\n\r\n    function payForAdvertising(address from, address to, string memory campaignId, uint256 total, uint timesFee) public onlyOwner returns (bool) {\r\n        uint256 payToSuplier = total.sub(getFeePublisherCampaign() * timesFee);\r\n        require(to != address(0));\r\n        require(total <= _allowedCampaign[from][campaignId].money);\r\n\r\n        _allowedCampaign[from][campaignId].money = _allowedCampaign[from][campaignId].money.sub(total);\r\n        _transfer(address(this), to, payToSuplier);\r\n        return true;\r\n    }\r\n\r\n    function checkOutCampaign(string memory campaignId, address ownerOfCampaign, uint timesFee) public onlyOwner{\r\n        require(_allowedCampaign[ownerOfCampaign][campaignId].isExist,\"Campaign is not Exist\");\r\n        require(_allowedCampaign[ownerOfCampaign][campaignId].isActive,\"Campaign is not Active\");\r\n        if(_allowedCampaign[ownerOfCampaign][campaignId].money > getFeeAdvertiserCampaign() * timesFee){\r\n            transfer(ownerOfCampaign, _allowedCampaign[ownerOfCampaign][campaignId].money.sub(getFeeAdvertiserCampaign()*timesFee));\r\n        }\r\n        _allowedCampaign[ownerOfCampaign][campaignId].isActive = false;\r\n        _allowedCampaign[ownerOfCampaign][campaignId].money = 0;\r\n    }\r\n\r\n    function cancelCampaign(string memory campaignId, address ownerOfCampaign, uint redundant, uint timesCancelFee) public onlyOwner{\r\n        require(_allowedCampaign[ownerOfCampaign][campaignId].isExist,\"Campaign is not Exist\");\r\n        require(_allowedCampaign[ownerOfCampaign][campaignId].isActive,\"Campaign is not Active\");\r\n\r\n        if(redundant <= _allowedCampaign[ownerOfCampaign][campaignId].money){\r\n            _allowedCampaign[ownerOfCampaign][campaignId].money.sub(redundant);\r\n        }else{\r\n            _allowedCampaign[ownerOfCampaign][campaignId].money = 0;\r\n        }\r\n        if(redundant > getFeeCampaignCancel()*timesCancelFee){\r\n            transfer(ownerOfCampaign, redundant.sub(getFeeCampaignCancel()*timesCancelFee));\r\n        }\r\n        _allowedCampaign[ownerOfCampaign][campaignId].isActive = false;\r\n    }\r\n}",
  "sourcePath": "D:/CN9/Capstone/LBAContract.github.io/contracts/Support.sol",
  "compiler": {
    "name": "solc",
    "version": "0.7.0+commit.9e61f92b.Emscripten.clang"
  },
  "schemaVersion": "3.3.3",
  "updatedAt": "2021-03-01T14:30:03.173Z",
  "networkType": "ethereum",
  "devdoc": {
    "kind": "dev",
    "methods": {
      "allowance(address,address)": {
        "details": "Function to check the amount of tokens that an owner allowed to a spender.",
        "params": {
          "owner": "address The address which owns the funds.",
          "spender": "address The address which will spend the funds."
        },
        "returns": {
          "_0": "A uint256 specifying the amount of tokens still available for the spender."
        }
      },
      "approve(address,uint256)": {
        "details": "Approve the passed address to spend the specified amount of tokens on behalf of msg.sender. Beware that changing an allowance with this method brings the risk that someone may use both the old and the new allowance by unfortunate transaction ordering. One possible solution to mitigate this race condition is to first reduce the spender's allowance to 0 and set the desired value afterwards: https://github.com/ethereum/EIPs/issues/20#issuecomment-263524729",
        "params": {
          "spender": "The address which will spend the funds.",
          "value": "The amount of tokens to be spent."
        }
      },
      "balanceOf(address)": {
        "details": "Gets the balance of the specified address.",
        "params": {
          "owner": "The address to query the balance of."
        },
        "returns": {
          "_0": "An uint256 representing the amount owned by the passed address."
        }
      },
      "burn(uint256)": {
        "details": "Function to burn tokens",
        "params": {
          "value": "The amount of tokens to mint."
        },
        "returns": {
          "_0": "A boolean that indicates if the operation was successful."
        }
      },
      "decimals()": {
        "returns": {
          "_0": "the number of decimals of the token."
        }
      },
      "estimateFee(uint256)": {
        "details": "Estimate transaction fee.",
        "params": {
          "value": "amount tokens sent"
        }
      },
      "issuer()": {
        "details": "token's foundation"
      },
      "minFee()": {
        "details": "The amount fee that will be lost when transferring."
      },
      "mint(address,uint256)": {
        "details": "Function to mint tokens",
        "params": {
          "to": "The address that will receive the minted tokens.",
          "value": "The amount of tokens to mint."
        },
        "returns": {
          "_0": "A boolean that indicates if the operation was successful."
        }
      },
      "name()": {
        "returns": {
          "_0": "the name of the token."
        }
      },
      "symbol()": {
        "returns": {
          "_0": "the symbol of the token."
        }
      },
      "totalSupply()": {
        "details": "Total number of tokens in existence"
      },
      "transfer(address,uint256)": {
        "details": "Transfer token for a specified address",
        "params": {
          "to": "The address to transfer to.",
          "value": "The amount to be transferred."
        }
      },
      "transferFrom(address,address,uint256)": {
        "details": "Transfer tokens from one address to another",
        "params": {
          "from": "address The address which you want to send tokens from",
          "to": "address The address which you want to transfer to",
          "value": "uint256 the amount of tokens to be transferred"
        }
      }
    },
    "version": 1
  },
  "userdoc": {
    "kind": "user",
    "methods": {},
    "version": 1
  }
}