{
  "contractName": "Support",
  "abi": [
    {
      "anonymous": false,
      "inputs": [
        {
          "indexed": false,
          "internalType": "bytes",
          "name": "id",
          "type": "bytes"
        },
        {
          "indexed": true,
          "internalType": "address",
          "name": "from",
          "type": "address"
        },
        {
          "indexed": false,
          "internalType": "string",
          "name": "comment",
          "type": "string"
        }
      ],
      "name": "Add",
      "type": "event"
    },
    {
      "anonymous": false,
      "inputs": [
        {
          "indexed": true,
          "internalType": "address",
          "name": "owner",
          "type": "address"
        },
        {
          "indexed": true,
          "internalType": "address",
          "name": "spender",
          "type": "address"
        },
        {
          "indexed": false,
          "internalType": "uint256",
          "name": "value",
          "type": "uint256"
        }
      ],
      "name": "Approval",
      "type": "event"
    },
    {
      "anonymous": false,
      "inputs": [
        {
          "indexed": true,
          "internalType": "address",
          "name": "owner",
          "type": "address"
        },
        {
          "indexed": false,
          "internalType": "string",
          "name": "campaignId",
          "type": "string"
        },
        {
          "indexed": false,
          "internalType": "uint256",
          "name": "value",
          "type": "uint256"
        }
      ],
      "name": "AuthorityCampaign",
      "type": "event"
    },
    {
      "anonymous": false,
      "inputs": [
        {
          "indexed": true,
          "internalType": "address",
          "name": "owner",
          "type": "address"
        },
        {
          "indexed": false,
          "internalType": "string",
          "name": "campaignId",
          "type": "string"
        },
        {
          "indexed": false,
          "internalType": "uint256",
          "name": "value",
          "type": "uint256"
        }
      ],
      "name": "CreateCampaign",
      "type": "event"
    },
    {
      "anonymous": false,
      "inputs": [
        {
          "indexed": false,
          "internalType": "bytes",
          "name": "id",
          "type": "bytes"
        },
        {
          "indexed": true,
          "internalType": "address",
          "name": "from",
          "type": "address"
        },
        {
          "indexed": false,
          "internalType": "string",
          "name": "comment",
          "type": "string"
        }
      ],
      "name": "Delete",
      "type": "event"
    },
    {
      "anonymous": false,
      "inputs": [
        {
          "indexed": true,
          "internalType": "address",
          "name": "from",
          "type": "address"
        },
        {
          "indexed": true,
          "internalType": "address",
          "name": "to",
          "type": "address"
        },
        {
          "indexed": true,
          "internalType": "address",
          "name": "issuer",
          "type": "address"
        },
        {
          "indexed": false,
          "internalType": "uint256",
          "name": "value",
          "type": "uint256"
        }
      ],
      "name": "Fee",
      "type": "event"
    },
    {
      "anonymous": false,
      "inputs": [
        {
          "indexed": false,
          "internalType": "bytes",
          "name": "id",
          "type": "bytes"
        },
        {
          "indexed": true,
          "internalType": "address",
          "name": "from",
          "type": "address"
        },
        {
          "indexed": false,
          "internalType": "string",
          "name": "comment",
          "type": "string"
        }
      ],
      "name": "Sign",
      "type": "event"
    },
    {
      "anonymous": false,
      "inputs": [
        {
          "indexed": true,
          "internalType": "address",
          "name": "from",
          "type": "address"
        },
        {
          "indexed": true,
          "internalType": "address",
          "name": "to",
          "type": "address"
        },
        {
          "indexed": false,
          "internalType": "uint256",
          "name": "value",
          "type": "uint256"
        }
      ],
      "name": "Transfer",
      "type": "event"
    },
    {
      "inputs": [
        {
          "internalType": "address",
          "name": "account",
          "type": "address"
        }
      ],
      "name": "_changeOwnerRole",
      "outputs": [],
      "stateMutability": "nonpayable",
      "type": "function"
    },
    {
      "inputs": [
        {
          "internalType": "address",
          "name": "account",
          "type": "address"
        },
        {
          "internalType": "string",
          "name": "roleType",
          "type": "string"
        }
      ],
      "name": "add",
      "outputs": [],
      "stateMutability": "nonpayable",
      "type": "function"
    },
    {
      "inputs": [
        {
          "internalType": "address",
          "name": "owner",
          "type": "address"
        },
        {
          "internalType": "address",
          "name": "spender",
          "type": "address"
        }
      ],
      "name": "allowance",
      "outputs": [
        {
          "internalType": "uint256",
          "name": "",
          "type": "uint256"
        }
      ],
      "stateMutability": "view",
      "type": "function",
      "constant": true
    },
    {
      "inputs": [
        {
          "internalType": "address",
          "name": "spender",
          "type": "address"
        },
        {
          "internalType": "uint256",
          "name": "value",
          "type": "uint256"
        }
      ],
      "name": "approve",
      "outputs": [
        {
          "internalType": "bool",
          "name": "",
          "type": "bool"
        }
      ],
      "stateMutability": "nonpayable",
      "type": "function"
    },
    {
      "inputs": [
        {
          "internalType": "address",
          "name": "owner",
          "type": "address"
        }
      ],
      "name": "balanceOf",
      "outputs": [
        {
          "internalType": "uint256",
          "name": "",
          "type": "uint256"
        }
      ],
      "stateMutability": "view",
      "type": "function",
      "constant": true
    },
    {
      "inputs": [
        {
          "internalType": "uint256",
          "name": "value",
          "type": "uint256"
        }
      ],
      "name": "burn",
      "outputs": [
        {
          "internalType": "bool",
          "name": "",
          "type": "bool"
        }
      ],
      "stateMutability": "nonpayable",
      "type": "function"
    },
    {
      "inputs": [
        {
          "internalType": "string",
          "name": "",
          "type": "string"
        }
      ],
      "name": "campaigns",
      "outputs": [
        {
          "internalType": "string",
          "name": "campaignId",
          "type": "string"
        },
        {
          "internalType": "address",
          "name": "advertiser",
          "type": "address"
        },
        {
          "internalType": "uint256",
          "name": "totalBudget",
          "type": "uint256"
        },
        {
          "internalType": "uint256",
          "name": "remainBudget",
          "type": "uint256"
        },
        {
          "internalType": "uint256",
          "name": "feeCancel",
          "type": "uint256"
        },
        {
          "internalType": "bool",
          "name": "isActive",
          "type": "bool"
        },
        {
          "internalType": "bool",
          "name": "isExist",
          "type": "bool"
        }
      ],
      "stateMutability": "view",
      "type": "function",
      "constant": true
    },
    {
      "inputs": [
        {
          "internalType": "string",
          "name": "",
          "type": "string"
        },
        {
          "internalType": "string",
          "name": "",
          "type": "string"
        }
      ],
      "name": "checkPayed",
      "outputs": [
        {
          "internalType": "bool",
          "name": "",
          "type": "bool"
        }
      ],
      "stateMutability": "view",
      "type": "function",
      "constant": true
    },
    {
      "inputs": [],
      "name": "decimals",
      "outputs": [
        {
          "internalType": "uint8",
          "name": "",
          "type": "uint8"
        }
      ],
      "stateMutability": "view",
      "type": "function",
      "constant": true
    },
    {
      "inputs": [
        {
          "internalType": "bytes32",
          "name": "",
          "type": "bytes32"
        }
      ],
      "name": "documents",
      "outputs": [
        {
          "internalType": "uint256",
          "name": "timestamp",
          "type": "uint256"
        },
        {
          "internalType": "bytes",
          "name": "ipfs_hash",
          "type": "bytes"
        },
        {
          "internalType": "address",
          "name": "owner",
          "type": "address"
        },
        {
          "internalType": "bool",
          "name": "isExist",
          "type": "bool"
        }
      ],
      "stateMutability": "view",
      "type": "function",
      "constant": true
    },
    {
      "inputs": [
        {
          "internalType": "uint256",
          "name": "value",
          "type": "uint256"
        }
      ],
      "name": "estimateFee",
      "outputs": [
        {
          "internalType": "uint256",
          "name": "",
          "type": "uint256"
        }
      ],
      "stateMutability": "view",
      "type": "function",
      "constant": true
    },
    {
      "inputs": [
        {
          "internalType": "address",
          "name": "account",
          "type": "address"
        }
      ],
      "name": "isOwner",
      "outputs": [
        {
          "internalType": "bool",
          "name": "",
          "type": "bool"
        }
      ],
      "stateMutability": "view",
      "type": "function",
      "constant": true
    },
    {
      "inputs": [
        {
          "internalType": "address",
          "name": "account",
          "type": "address"
        },
        {
          "internalType": "string",
          "name": "roleType",
          "type": "string"
        }
      ],
      "name": "isRole",
      "outputs": [
        {
          "internalType": "bool",
          "name": "",
          "type": "bool"
        }
      ],
      "stateMutability": "view",
      "type": "function",
      "constant": true
    },
    {
      "inputs": [],
      "name": "issuer",
      "outputs": [
        {
          "internalType": "address",
          "name": "",
          "type": "address"
        }
      ],
      "stateMutability": "view",
      "type": "function",
      "constant": true
    },
    {
      "inputs": [],
      "name": "minFee",
      "outputs": [
        {
          "internalType": "uint256",
          "name": "",
          "type": "uint256"
        }
      ],
      "stateMutability": "view",
      "type": "function",
      "constant": true
    },
    {
      "inputs": [],
      "name": "name",
      "outputs": [
        {
          "internalType": "string",
          "name": "",
          "type": "string"
        }
      ],
      "stateMutability": "view",
      "type": "function",
      "constant": true
    },
    {
      "inputs": [
        {
          "internalType": "address",
          "name": "account",
          "type": "address"
        },
        {
          "internalType": "string",
          "name": "roleType",
          "type": "string"
        }
      ],
      "name": "remove",
      "outputs": [],
      "stateMutability": "nonpayable",
      "type": "function"
    },
    {
      "inputs": [
        {
          "internalType": "bytes",
          "name": "id",
          "type": "bytes"
        },
        {
          "internalType": "address",
          "name": "checkAddress",
          "type": "address"
        }
      ],
      "name": "removeApprove",
      "outputs": [
        {
          "internalType": "bool",
          "name": "",
          "type": "bool"
        }
      ],
      "stateMutability": "nonpayable",
      "type": "function"
    },
    {
      "inputs": [
        {
          "internalType": "bytes",
          "name": "id",
          "type": "bytes"
        },
        {
          "internalType": "address",
          "name": "checkAddress",
          "type": "address"
        }
      ],
      "name": "removeReject",
      "outputs": [
        {
          "internalType": "bool",
          "name": "",
          "type": "bool"
        }
      ],
      "stateMutability": "nonpayable",
      "type": "function"
    },
    {
      "inputs": [
        {
          "internalType": "uint256",
          "name": "value",
          "type": "uint256"
        }
      ],
      "name": "setMinFee",
      "outputs": [],
      "stateMutability": "nonpayable",
      "type": "function"
    },
    {
      "inputs": [],
      "name": "symbol",
      "outputs": [
        {
          "internalType": "string",
          "name": "",
          "type": "string"
        }
      ],
      "stateMutability": "view",
      "type": "function",
      "constant": true
    },
    {
      "inputs": [],
      "name": "totalSupply",
      "outputs": [
        {
          "internalType": "uint256",
          "name": "",
          "type": "uint256"
        }
      ],
      "stateMutability": "view",
      "type": "function",
      "constant": true
    },
    {
      "inputs": [
        {
          "internalType": "address",
          "name": "to",
          "type": "address"
        },
        {
          "internalType": "uint256",
          "name": "value",
          "type": "uint256"
        }
      ],
      "name": "transfer",
      "outputs": [
        {
          "internalType": "bool",
          "name": "",
          "type": "bool"
        }
      ],
      "stateMutability": "nonpayable",
      "type": "function"
    },
    {
      "inputs": [
        {
          "internalType": "address",
          "name": "from",
          "type": "address"
        },
        {
          "internalType": "address",
          "name": "to",
          "type": "address"
        },
        {
          "internalType": "uint256",
          "name": "value",
          "type": "uint256"
        }
      ],
      "name": "transferFrom",
      "outputs": [
        {
          "internalType": "bool",
          "name": "",
          "type": "bool"
        }
      ],
      "stateMutability": "nonpayable",
      "type": "function"
    },
    {
      "inputs": [
        {
          "internalType": "bytes",
          "name": "id",
          "type": "bytes"
        }
      ],
      "name": "addDocument",
      "outputs": [],
      "stateMutability": "nonpayable",
      "type": "function"
    },
    {
      "inputs": [
        {
          "internalType": "bytes",
          "name": "id",
          "type": "bytes"
        }
      ],
      "name": "deleteDocument",
      "outputs": [],
      "stateMutability": "nonpayable",
      "type": "function"
    },
    {
      "inputs": [
        {
          "internalType": "bytes",
          "name": "id",
          "type": "bytes"
        }
      ],
      "name": "approveDocument",
      "outputs": [],
      "stateMutability": "nonpayable",
      "type": "function"
    },
    {
      "inputs": [
        {
          "internalType": "bytes",
          "name": "id",
          "type": "bytes"
        }
      ],
      "name": "rejectDocument",
      "outputs": [],
      "stateMutability": "nonpayable",
      "type": "function"
    },
    {
      "inputs": [
        {
          "internalType": "bytes",
          "name": "id",
          "type": "bytes"
        }
      ],
      "name": "getOwnerDocument",
      "outputs": [
        {
          "internalType": "address",
          "name": "",
          "type": "address"
        }
      ],
      "stateMutability": "view",
      "type": "function",
      "constant": true
    },
    {
      "inputs": [
        {
          "internalType": "bytes",
          "name": "id",
          "type": "bytes"
        }
      ],
      "name": "getRejectDocument",
      "outputs": [
        {
          "internalType": "address[]",
          "name": "",
          "type": "address[]"
        }
      ],
      "stateMutability": "view",
      "type": "function",
      "constant": true
    },
    {
      "inputs": [
        {
          "internalType": "bytes",
          "name": "id",
          "type": "bytes"
        }
      ],
      "name": "getApproveDocument",
      "outputs": [
        {
          "internalType": "address[]",
          "name": "",
          "type": "address[]"
        }
      ],
      "stateMutability": "view",
      "type": "function",
      "constant": true
    },
    {
      "inputs": [
        {
          "internalType": "string",
          "name": "campaignId",
          "type": "string"
        },
        {
          "internalType": "uint256",
          "name": "totalWithFee",
          "type": "uint256"
        },
        {
          "internalType": "uint256",
          "name": "totalBudget",
          "type": "uint256"
        },
        {
          "internalType": "uint256",
          "name": "remainBudget",
          "type": "uint256"
        },
        {
          "internalType": "uint256",
          "name": "feeCancel",
          "type": "uint256"
        }
      ],
      "name": "createCampaign",
      "outputs": [],
      "stateMutability": "nonpayable",
      "type": "function"
    },
    {
      "inputs": [
        {
          "internalType": "string",
          "name": "campaignId",
          "type": "string"
        },
        {
          "internalType": "uint256",
          "name": "redudant",
          "type": "uint256"
        }
      ],
      "name": "checkOutCampaign",
      "outputs": [],
      "stateMutability": "nonpayable",
      "type": "function"
    },
    {
      "inputs": [
        {
          "internalType": "string",
          "name": "campaignId",
          "type": "string"
        },
        {
          "internalType": "string",
          "name": "paymentKey",
          "type": "string"
        },
        {
          "internalType": "address",
          "name": "supplier",
          "type": "address"
        },
        {
          "internalType": "uint256",
          "name": "value",
          "type": "uint256"
        }
      ],
      "name": "payToSupplier",
      "outputs": [
        {
          "internalType": "bool",
          "name": "",
          "type": "bool"
        }
      ],
      "stateMutability": "nonpayable",
      "type": "function"
    },
    {
      "inputs": [
        {
          "internalType": "string",
          "name": "campaignId",
          "type": "string"
        }
      ],
      "name": "cancelCampaign",
      "outputs": [],
      "stateMutability": "nonpayable",
      "type": "function"
    },
    {
      "inputs": [
        {
          "internalType": "string",
          "name": "campaignId",
          "type": "string"
        }
      ],
      "name": "getCampaignById",
      "outputs": [
        {
          "components": [
            {
              "internalType": "string",
              "name": "campaignId",
              "type": "string"
            },
            {
              "internalType": "address",
              "name": "advertiser",
              "type": "address"
            },
            {
              "internalType": "uint256",
              "name": "totalBudget",
              "type": "uint256"
            },
            {
              "internalType": "uint256",
              "name": "remainBudget",
              "type": "uint256"
            },
            {
              "internalType": "uint256",
              "name": "feeCancel",
              "type": "uint256"
            },
            {
              "internalType": "bool",
              "name": "isActive",
              "type": "bool"
            },
            {
              "internalType": "bool",
              "name": "isExist",
              "type": "bool"
            }
          ],
          "internalType": "struct CampaignDetail.Campaign",
          "name": "",
          "type": "tuple"
        }
      ],
      "stateMutability": "view",
      "type": "function",
      "constant": true
    },
    {
      "inputs": [
        {
          "internalType": "address",
          "name": "newOwner",
          "type": "address"
        }
      ],
      "name": "changeOwner",
      "outputs": [],
      "stateMutability": "nonpayable",
      "type": "function"
    },
    {
      "inputs": [
        {
          "internalType": "address",
          "name": "to",
          "type": "address"
        },
        {
          "internalType": "uint256",
          "name": "value",
          "type": "uint256"
        }
      ],
      "name": "mint",
      "outputs": [
        {
          "internalType": "bool",
          "name": "",
          "type": "bool"
        }
      ],
      "stateMutability": "nonpayable",
      "type": "function"
    }
  ],
  "bytecode": "0x60806040523480156200001157600080fd5b506040518060400160405280600a81526020017f41647665726973696e67000000000000000000000000000000000000000000008152506040518060400160405280600481526020017f4c4241540000000000000000000000000000000000000000000000000000000081525060006012600a0a6000026012600a0a6000028460059080519060200190620000a89291906200059d565b508360069080519060200190620000c19291906200059d565b5082600760006101000a81548160ff021916908360ff160217905550620000f830836200037f640100000000026401000000009004565b6200011233620004f4640100000000026401000000009004565b6200012c8162000573640100000000026401000000009004565b505050505033600b60000160006101000a81548173ffffffffffffffffffffffffffffffffffffffff021916908373ffffffffffffffffffffffffffffffffffffffff1602179055506001600b6001016040516200018a9062000748565b908152602001604051809103902060003373ffffffffffffffffffffffffffffffffffffffff1673ffffffffffffffffffffffffffffffffffffffff16815260200190815260200160002060006101000a81548160ff0219169083151502179055506001600b60010160405162000201906200071a565b908152602001604051809103902060003373ffffffffffffffffffffffffffffffffffffffff1673ffffffffffffffffffffffffffffffffffffffff16815260200190815260200160002060006101000a81548160ff0219169083151502179055506001600b600101604051620002789062000731565b9081526020016040518091039020600073591d6d73aa1ee46202f55443ab166d8b4b1403e073ffffffffffffffffffffffffffffffffffffffff1673ffffffffffffffffffffffffffffffffffffffff16815260200190815260200160002060006101000a81548160ff0219169083151502179055506001600b60010160405162000303906200071a565b9081526020016040518091039020600073591d6d73aa1ee46202f55443ab166d8b4b1403e073ffffffffffffffffffffffffffffffffffffffff1673ffffffffffffffffffffffffffffffffffffffff16815260200190815260200160002060006101000a81548160ff02191690831515021790555062000791565b600073ffffffffffffffffffffffffffffffffffffffff168273ffffffffffffffffffffffffffffffffffffffff161415620003ba57600080fd5b620003df816004546200057d6401000000000262003314179091906401000000009004565b60048190555062000446816000808573ffffffffffffffffffffffffffffffffffffffff1673ffffffffffffffffffffffffffffffffffffffff168152602001908152602001600020546200057d6401000000000262003314179091906401000000009004565b6000808473ffffffffffffffffffffffffffffffffffffffff1673ffffffffffffffffffffffffffffffffffffffff168152602001908152602001600020819055508173ffffffffffffffffffffffffffffffffffffffff16600073ffffffffffffffffffffffffffffffffffffffff167fddf252ad1be2c89b69c2b068fc378daa952ba7f163c4a11628f55a4df523b3ef83604051620004e891906200075f565b60405180910390a35050565b600073ffffffffffffffffffffffffffffffffffffffff168173ffffffffffffffffffffffffffffffffffffffff1614156200052f57600080fd5b80600260006101000a81548173ffffffffffffffffffffffffffffffffffffffff021916908373ffffffffffffffffffffffffffffffffffffffff16021790555050565b8060018190555050565b6000808284019050838110156200059357600080fd5b8091505092915050565b828054600181600116156101000203166002900490600052602060002090601f016020900481019282601f10620005e057805160ff191683800117855562000611565b8280016001018555821562000611579182015b8281111562000610578251825591602001919060010190620005f3565b5b50905062000620919062000624565b5090565b5b808211156200063f57600081600090555060010162000625565b5090565b6000620006526006836200077c565b91507f4d696e74657200000000000000000000000000000000000000000000000000006000830152600682019050919050565b6000620006946006836200077c565b91507f53657276657200000000000000000000000000000000000000000000000000006000830152600682019050919050565b6000620006d66005836200077c565b91507f41646d696e0000000000000000000000000000000000000000000000000000006000830152600582019050919050565b620007148162000787565b82525050565b6000620007278262000643565b9150819050919050565b60006200073e8262000685565b9150819050919050565b60006200075582620006c7565b9150819050919050565b600060208201905062000776600083018462000709565b92915050565b600081905092915050565b6000819050919050565b614f8980620007a16000396000f3fe608060405234801561001057600080fd5b506004361061024f576000357c01000000000000000000000000000000000000000000000000000000009004806336d6da551161014d57806395d89b41116100d5578063dd62ed3e11610099578063dd62ed3e14610759578063e26034cd14610789578063e35d66a8146107b9578063e631ce99146107d5578063ebdc695d146107f15761024f565b806395d89b41146106b7578063a6f9dae1146106d5578063a9059cbb146106f1578063be7e2a0b14610721578063c79de09b1461073d5761024f565b806349209fc81161011c57806349209fc8146105ef5780634f8eb0c81461060b57806370a082311461063b5780637769bc741461066b5780638f21a9a5146106875761024f565b806336d6da551461054357806340c10f191461055f57806342966c681461058f5780634340d51c146105bf5761024f565b8063228bc0a9116101db5780632b2805db1161019f5780632b2805db146104765780632bae5a44146104a95780632f54bf6e146104d9578063313ce5671461050957806331ac9920146105275761024f565b8063228bc0a9146103c057806323b872dd146103dc57806323e8f4bb1461040c57806324ec75901461043c578063267945ff1461045a5761024f565b806314c160621161022257806314c160621461030257806318160ddd1461031e5780631d1438481461033c5780631d39e5091461035a578063219782f7146103905761024f565b806306fdde0314610254578063070eb15714610272578063095ea7b3146102a2578063127e8e4d146102d2575b600080fd5b61025c610821565b6040516102699190614a88565b60405180910390f35b61028c60048036038101906102879190613f65565b6108c3565b6040516102999190614964565b60405180910390f35b6102bc60048036038101906102b79190613fb9565b6108e3565b6040516102c99190614964565b60405180910390f35b6102ec60048036038101906102e791906142d6565b610a8a565b6040516102f99190614c52565b60405180910390f35b61031c6004803603810190610317919061401e565b610abb565b005b610326610d38565b6040516103339190614c52565b60405180910390f35b610344610d42565b6040516103519190614927565b60405180910390f35b610374600480360381019061036f91906140b3565b610d6c565b6040516103879796959493929190614aaa565b60405180910390f35b6103aa60048036038101906103a59190614160565b610e96565b6040516103b79190614964565b60405180910390f35b6103da60048036038101906103d5919061401e565b61109e565b005b6103f660048036038101906103f19190613f16565b611390565b6040516104039190614964565b60405180910390f35b610426600480360381019061042191906140f4565b6116ce565b6040516104339190614964565b60405180910390f35b610444611729565b6040516104519190614c52565b60405180910390f35b610474600480360381019061046f9190613eb1565b611733565b005b610490600480360381019061048b9190613ff5565b6118b8565b6040516104a09493929190614c6d565b60405180910390f35b6104c360048036038101906104be919061401e565b6119ad565b6040516104d09190614942565b60405180910390f35b6104f360048036038101906104ee9190613eb1565b611a58565b6040516105009190614964565b60405180910390f35b610511611ab5565b60405161051e9190614cb9565b60405180910390f35b610541600480360381019061053c91906142d6565b611acc565b005b61055d60048036038101906105589190613f65565b611b17565b005b61057960048036038101906105749190613fb9565b611bde565b6040516105869190614964565b60405180910390f35b6105a960048036038101906105a491906142d6565b611c3c565b6040516105b69190614964565b60405180910390f35b6105d960048036038101906105d4919061405f565b611c51565b6040516105e69190614964565b60405180910390f35b61060960048036038101906106049190613f65565b611dcd565b005b6106256004803603810190610620919061405f565b611e94565b6040516106329190614964565b60405180910390f35b61065560048036038101906106509190613eb1565b612010565b6040516106629190614c52565b60405180910390f35b6106856004803603810190610680919061401e565b612058565b005b6106a1600480360381019061069c919061401e565b6122d5565b6040516106ae9190614942565b60405180910390f35b6106bf612380565b6040516106cc9190614a88565b60405180910390f35b6106ef60048036038101906106ea9190613eb1565b612422565b005b61070b60048036038101906107069190613fb9565b612449565b6040516107189190614964565b60405180910390f35b61073b6004803603810190610736919061401e565b61259b565b005b61075760048036038101906107529190614247565b6127db565b005b610773600480360381019061076e9190613eda565b612af2565b6040516107809190614c52565b60405180910390f35b6107a3600480360381019061079e91906140b3565b612b79565b6040516107b09190614c30565b60405180910390f35b6107d360048036038101906107ce91906140b3565b612cfd565b005b6107ef60048036038101906107ea91906141f3565b613063565b005b61080b6004803603810190610806919061401e565b6132cd565b6040516108189190614927565b60405180910390f35b606060058054600181600116156101000203166002900480601f0160208091040260200160405190810160405280929190818152602001828054600181600116156101000203166002900480156108b95780601f1061088e576101008083540402835291602001916108b9565b820191906000526020600020905b81548152906001019060200180831161089c57829003601f168201915b5050505050905090565b60006108db8383600b6133339092919063ffffffff16565b905092915050565b60008073ffffffffffffffffffffffffffffffffffffffff168373ffffffffffffffffffffffffffffffffffffffff16141561091e57600080fd5b6001546000803373ffffffffffffffffffffffffffffffffffffffff1673ffffffffffffffffffffffffffffffffffffffff16815260200190815260200160002054101561096b57600080fd5b81600360003373ffffffffffffffffffffffffffffffffffffffff1673ffffffffffffffffffffffffffffffffffffffff16815260200190815260200160002060008573ffffffffffffffffffffffffffffffffffffffff1673ffffffffffffffffffffffffffffffffffffffff16815260200190815260200160002081905550610a1b33600260009054906101000a900473ffffffffffffffffffffffffffffffffffffffff166001546133e2565b8273ffffffffffffffffffffffffffffffffffffffff163373ffffffffffffffffffffffffffffffffffffffff167f8c5be1e5ebec7d5bd14f71427d1e84f3dd0314c0f7b2291e5b200ac8c7c3b92584604051610a789190614c52565b60405180910390a36001905092915050565b6000610ab4600154610aa660008561362d90919063ffffffff16565b61331490919063ffffffff16565b9050919050565b610afa336040518060400160405280600681526020017f4d696e74657200000000000000000000000000000000000000000000000000008152506108c3565b158015610b0d5750610b0b33611a58565b155b8015610b555750610b53336040518060400160405280600681526020017f53657276657200000000000000000000000000000000000000000000000000008152506108c3565b155b610b5e57600080fd5b610b9d336040518060400160405280600581526020017f41646d696e0000000000000000000000000000000000000000000000000000008152506108c3565b610ba657600080fd5b600860008280519060200120815260200190815260200160002060050160009054906101000a900460ff16610c5e573373ffffffffffffffffffffffffffffffffffffffff167f7b178bf1583b36c417d982a222dfebdf8e3c8ecff7e75e459627b176a9e8bd7282604051610c1b919061497f565b60405180910390a26040517f08c379a0000000000000000000000000000000000000000000000000000000008152600401610c5590614b50565b60405180910390fd5b610c688133611c51565b506008600082805190602001208152602001908152602001600020600401339080600181540180825580915050600190039060005260206000200160009091909190916101000a81548173ffffffffffffffffffffffffffffffffffffffff021916908373ffffffffffffffffffffffffffffffffffffffff1602179055503373ffffffffffffffffffffffffffffffffffffffff167f7b178bf1583b36c417d982a222dfebdf8e3c8ecff7e75e459627b176a9e8bd7282604051610d2d9190614a1e565b60405180910390a250565b6000600454905090565b6000600260009054906101000a900473ffffffffffffffffffffffffffffffffffffffff16905090565b600981805160208101820180518482526020830160208501208183528095505050505050600091509050806000018054600181600116156101000203166002900480601f016020809104026020016040519081016040528092919081815260200182805460018160011615610100020316600290048015610e2e5780601f10610e0357610100808354040283529160200191610e2e565b820191906000526020600020905b815481529060010190602001808311610e1157829003601f168201915b5050505050908060010160009054906101000a900473ffffffffffffffffffffffffffffffffffffffff16908060020154908060030154908060040154908060050160009054906101000a900460ff16908060050160019054906101000a900460ff16905087565b6000610ed7336040518060400160405280600681526020017f53657276657200000000000000000000000000000000000000000000000000008152506108c3565b610ee057600080fd5b600073ffffffffffffffffffffffffffffffffffffffff168373ffffffffffffffffffffffffffffffffffffffff161415610f1a57600080fd5b600985604051610f2a91906148c2565b908152602001604051809103902060030154821115610f4857600080fd5b600a85604051610f5891906148c2565b908152602001604051809103902084604051610f7491906148c2565b908152602001604051809103902060009054906101000a900460ff1615610f9a57600080fd5b610fce82600987604051610fae91906148c2565b90815260200160405180910390206003015461366790919063ffffffff16565b600986604051610fde91906148c2565b90815260200160405180910390206003018190555061103f3060098760405161100791906148c2565b908152602001604051809103902060010160009054906101000a900473ffffffffffffffffffffffffffffffffffffffff16846133e2565b6001600a8660405161105191906148c2565b90815260200160405180910390208560405161106d91906148c2565b908152602001604051809103902060006101000a81548160ff02191690831515021790555060019050949350505050565b600860008280519060200120815260200190815260200160002060050160009054906101000a900460ff1615611157573373ffffffffffffffffffffffffffffffffffffffff167fce62159ff3c25a8e61a8bc74b520c1c33ff5acc534e8af236f3b5a587b050b05826040516111149190614a53565b60405180910390a26040517f08c379a000000000000000000000000000000000000000000000000000000000815260040161114e90614bf0565b60405180910390fd5b6060600067ffffffffffffffff8111801561117157600080fd5b506040519080825280602002602001820160405280156111a05781602001602082028036833780820191505090505b5090506060600067ffffffffffffffff811180156111bd57600080fd5b506040519080825280602002602001820160405280156111ec5781602001602082028036833780820191505090505b5090506040518060c00160405280428152602001428533604051602001611215939291906148ee565b60405160208183030381529060405281526020013373ffffffffffffffffffffffffffffffffffffffff168152602001838152602001828152602001600115158152506008600085805190602001208152602001908152602001600020600082015181600001556020820151816001019080519060200190611298929190613b91565b5060408201518160020160006101000a81548173ffffffffffffffffffffffffffffffffffffffff021916908373ffffffffffffffffffffffffffffffffffffffff16021790555060608201518160030190805190602001906112fc929190613c11565b506080820151816004019080519060200190611319929190613c11565b5060a08201518160050160006101000a81548160ff0219169083151502179055509050503373ffffffffffffffffffffffffffffffffffffffff167fce62159ff3c25a8e61a8bc74b520c1c33ff5acc534e8af236f3b5a587b050b058460405161138391906149e9565b60405180910390a2505050565b6000806113a86001548461331490919063ffffffff16565b9050600073ffffffffffffffffffffffffffffffffffffffff168473ffffffffffffffffffffffffffffffffffffffff16141561141a576040517f08c379a000000000000000000000000000000000000000000000000000000000815260040161141190614bd0565b60405180910390fd5b600360008673ffffffffffffffffffffffffffffffffffffffff1673ffffffffffffffffffffffffffffffffffffffff16815260200190815260200160002060003373ffffffffffffffffffffffffffffffffffffffff1673ffffffffffffffffffffffffffffffffffffffff168152602001908152602001600020548111156114d9576040517f08c379a00000000000000000000000000000000000000000000000000000000081526004016114d090614bb0565b60405180910390fd5b61156881600360008873ffffffffffffffffffffffffffffffffffffffff1673ffffffffffffffffffffffffffffffffffffffff16815260200190815260200160002060003373ffffffffffffffffffffffffffffffffffffffff1673ffffffffffffffffffffffffffffffffffffffff1681526020019081526020016000205461366790919063ffffffff16565b600360008773ffffffffffffffffffffffffffffffffffffffff1673ffffffffffffffffffffffffffffffffffffffff16815260200190815260200160002060003373ffffffffffffffffffffffffffffffffffffffff1673ffffffffffffffffffffffffffffffffffffffff168152602001908152602001600020819055506115f38585856133e2565b61162285600260009054906101000a900473ffffffffffffffffffffffffffffffffffffffff166001546133e2565b600260009054906101000a900473ffffffffffffffffffffffffffffffffffffffff1673ffffffffffffffffffffffffffffffffffffffff168473ffffffffffffffffffffffffffffffffffffffff163373ffffffffffffffffffffffffffffffffffffffff167ffcf5b3276434181e3c48bd3fe569b8939808f11e845d4b963693b9d7dbd6dd996001546040516116ba9190614c52565b60405180910390a460019150509392505050565b600a82805160208101820180518482526020830160208501208183528095505050505050818051602081018201805184825260208301602085012081835280955050505050506000915091509054906101000a900460ff1681565b6000600154905090565b61173c33611a58565b61174557600080fd5b80600b60000160006101000a81548173ffffffffffffffffffffffffffffffffffffffff021916908373ffffffffffffffffffffffffffffffffffffffff1602179055506117d4816040518060400160405280600681526020017f4d696e7465720000000000000000000000000000000000000000000000000000815250600b6136879092919063ffffffff16565b61181f816040518060400160405280600581526020017f41646d696e000000000000000000000000000000000000000000000000000000815250600b6136879092919063ffffffff16565b61186a336040518060400160405280600681526020017f4d696e7465720000000000000000000000000000000000000000000000000000815250600b6137519092919063ffffffff16565b6118b5336040518060400160405280600581526020017f41646d696e000000000000000000000000000000000000000000000000000000815250600b6137519092919063ffffffff16565b50565b6008602052806000526040600020600091509050806000015490806001018054600181600116156101000203166002900480601f01602080910402602001604051908101604052809291908181526020018280546001816001161561010002031660029004801561196a5780601f1061193f5761010080835404028352916020019161196a565b820191906000526020600020905b81548152906001019060200180831161194d57829003601f168201915b5050505050908060020160009054906101000a900473ffffffffffffffffffffffffffffffffffffffff16908060050160009054906101000a900460ff16905084565b60606008600083805190602001208152602001908152602001600020600301805480602002602001604051908101604052809291908181526020018280548015611a4c57602002820191906000526020600020905b8160009054906101000a900473ffffffffffffffffffffffffffffffffffffffff1673ffffffffffffffffffffffffffffffffffffffff1681526020019060010190808311611a02575b50505050509050919050565b6000600b60000160009054906101000a900473ffffffffffffffffffffffffffffffffffffffff1673ffffffffffffffffffffffffffffffffffffffff168273ffffffffffffffffffffffffffffffffffffffff16149050919050565b6000600760009054906101000a900460ff16905090565b611ad4610d42565b73ffffffffffffffffffffffffffffffffffffffff163373ffffffffffffffffffffffffffffffffffffffff1614611b0b57600080fd5b611b148161381a565b50565b611b56336040518060400160405280600581526020017f41646d696e0000000000000000000000000000000000000000000000000000008152506108c3565b611b5f57600080fd5b604051602001611b6e906148d9565b6040516020818303038152906040528051906020012081604051602001611b9591906148c2565b604051602081830303815290604052805190602001201415611bc457611bba33611a58565b611bc357600080fd5b5b611bda8282600b6136879092919063ffffffff16565b5050565b6000611c1f336040518060400160405280600681526020017f4d696e74657200000000000000000000000000000000000000000000000000008152506108c3565b611c2857600080fd5b611c328383613824565b6001905092915050565b6000611c483383613976565b60019050919050565b6000600860008480519060200120815260200190815260200160002060050160009054906101000a900460ff1615611dc25760005b600860008580519060200120815260200190815260200160002060030180549050811015611dc05782604051602001611cbf919061488c565b6040516020818303038152906040528051906020012060086000868051906020012081526020019081526020016000206003018281548110611cfd57fe5b9060005260206000200160009054906101000a900473ffffffffffffffffffffffffffffffffffffffff16604051602001611d38919061488c565b604051602081830303815290604052805190602001201415611db35760086000858051906020012081526020019081526020016000206003018181548110611d7c57fe5b9060005260206000200160006101000a81549073ffffffffffffffffffffffffffffffffffffffff02191690556001915050611dc7565b8080600101915050611c86565b505b600090505b92915050565b611e0c336040518060400160405280600581526020017f41646d696e0000000000000000000000000000000000000000000000000000008152506108c3565b611e1557600080fd5b604051602001611e24906148d9565b6040516020818303038152906040528051906020012081604051602001611e4b91906148c2565b604051602081830303815290604052805190602001201415611e7a57611e7033611a58565b611e7957600080fd5b5b611e908282600b6137519092919063ffffffff16565b5050565b6000600860008480519060200120815260200190815260200160002060050160009054906101000a900460ff16156120055760005b6008600085805190602001208152602001908152602001600020600401805490508110156120035782604051602001611f02919061488c565b6040516020818303038152906040528051906020012060086000868051906020012081526020019081526020016000206004018281548110611f4057fe5b9060005260206000200160009054906101000a900473ffffffffffffffffffffffffffffffffffffffff16604051602001611f7b919061488c565b604051602081830303815290604052805190602001201415611ff65760086000858051906020012081526020019081526020016000206004018181548110611fbf57fe5b9060005260206000200160006101000a81549073ffffffffffffffffffffffffffffffffffffffff0219169055600191505061200a565b8080600101915050611ec9565b505b600090505b92915050565b60008060008373ffffffffffffffffffffffffffffffffffffffff1673ffffffffffffffffffffffffffffffffffffffff168152602001908152602001600020549050919050565b612097336040518060400160405280600681526020017f4d696e74657200000000000000000000000000000000000000000000000000008152506108c3565b1580156120aa57506120a833611a58565b155b80156120f257506120f0336040518060400160405280600681526020017f53657276657200000000000000000000000000000000000000000000000000008152506108c3565b155b6120fb57600080fd5b61213a336040518060400160405280600581526020017f41646d696e0000000000000000000000000000000000000000000000000000008152506108c3565b61214357600080fd5b600860008280519060200120815260200190815260200160002060050160009054906101000a900460ff166121fb573373ffffffffffffffffffffffffffffffffffffffff167f7b178bf1583b36c417d982a222dfebdf8e3c8ecff7e75e459627b176a9e8bd72826040516121b8919061497f565b60405180910390a26040517f08c379a00000000000000000000000000000000000000000000000000000000081526004016121f290614b50565b60405180910390fd5b6122058133611e94565b506008600082805190602001208152602001908152602001600020600301339080600181540180825580915050600190039060005260206000200160009091909190916101000a81548173ffffffffffffffffffffffffffffffffffffffff021916908373ffffffffffffffffffffffffffffffffffffffff1602179055503373ffffffffffffffffffffffffffffffffffffffff167f7b178bf1583b36c417d982a222dfebdf8e3c8ecff7e75e459627b176a9e8bd72826040516122ca91906149b4565b60405180910390a250565b6060600860008380519060200120815260200190815260200160002060040180548060200260200160405190810160405280929190818152602001828054801561237457602002820191906000526020600020905b8160009054906101000a900473ffffffffffffffffffffffffffffffffffffffff1673ffffffffffffffffffffffffffffffffffffffff168152602001906001019080831161232a575b50505050509050919050565b606060068054600181600116156101000203166002900480601f0160208091040260200160405190810160405280929190818152602001828054600181600116156101000203166002900480156124185780601f106123ed57610100808354040283529160200191612418565b820191906000526020600020905b8154815290600101906020018083116123fb57829003601f168201915b5050505050905090565b61242b33611a58565b61243457600080fd5b61243d81613b13565b61244681611733565b50565b6000806124616001548461331490919063ffffffff16565b9050600073ffffffffffffffffffffffffffffffffffffffff168473ffffffffffffffffffffffffffffffffffffffff16141561249d57600080fd5b808311156124aa57600080fd5b6124b53385856133e2565b60006001541115612590576124ef33600260009054906101000a900473ffffffffffffffffffffffffffffffffffffffff166001546133e2565b600260009054906101000a900473ffffffffffffffffffffffffffffffffffffffff1673ffffffffffffffffffffffffffffffffffffffff168473ffffffffffffffffffffffffffffffffffffffff163373ffffffffffffffffffffffffffffffffffffffff167ffcf5b3276434181e3c48bd3fe569b8939808f11e845d4b963693b9d7dbd6dd996001546040516125879190614c52565b60405180910390a45b600191505092915050565b600860008280519060200120815260200190815260200160002060050160009054906101000a900460ff16156127d857336040516020016125dc91906148a7565b60405160208183030381529060405280519060200120600860008380519060200120815260200190815260200160002060020160009054906101000a900473ffffffffffffffffffffffffffffffffffffffff16604051602001612640919061488c565b60405160208183030381529060405280519060200120148061269d575061269c336040518060400160405280600581526020017f41646d696e0000000000000000000000000000000000000000000000000000008152506108c3565b5b156127d7576060600067ffffffffffffffff811180156126bc57600080fd5b506040519080825280602002602001820160405280156126eb5781602001602082028036833780820191505090505b5090506060600067ffffffffffffffff8111801561270857600080fd5b506040519080825280602002602001820160405280156127375781602001602082028036833780820191505090505b509050816008600085805190602001208152602001908152602001600020600301908051906020019061276b929190613c11565b50806008600085805190602001208152602001908152602001600020600401908051906020019061279d929190613c11565b506000600860008580519060200120815260200190815260200160002060050160006101000a81548160ff02191690831515021790555050505b5b50565b600360003373ffffffffffffffffffffffffffffffffffffffff1673ffffffffffffffffffffffffffffffffffffffff16815260200190815260200160002060003073ffffffffffffffffffffffffffffffffffffffff1673ffffffffffffffffffffffffffffffffffffffff1681526020019081526020016000205484111561289a576040517f08c379a000000000000000000000000000000000000000000000000000000000815260040161289190614bb0565b60405180910390fd5b6009856040516128aa91906148c2565b908152602001604051809103902060050160019054906101000a900460ff16612a9b576128d83330866133e2565b61296784600360003373ffffffffffffffffffffffffffffffffffffffff1673ffffffffffffffffffffffffffffffffffffffff16815260200190815260200160002060003073ffffffffffffffffffffffffffffffffffffffff1673ffffffffffffffffffffffffffffffffffffffff1681526020019081526020016000205461366790919063ffffffff16565b506040518060e001604052808681526020013373ffffffffffffffffffffffffffffffffffffffff168152602001848152602001838152602001828152602001600115158152602001600115158152506009866040516129c791906148c2565b908152602001604051809103902060008201518160000190805190602001906129f1929190613c9b565b5060208201518160010160006101000a81548173ffffffffffffffffffffffffffffffffffffffff021916908373ffffffffffffffffffffffffffffffffffffffff16021790555060408201518160020155606082015181600301556080820151816004015560a08201518160050160006101000a81548160ff02191690831515021790555060c08201518160050160016101000a81548160ff0219169083151502179055509050505b3373ffffffffffffffffffffffffffffffffffffffff167f5c04f4c64423af25dc8dc6bd45d037a95fe962bb56e5ca1b993600448846f07f8685604051612ae3929190614b20565b60405180910390a25050505050565b6000600360008473ffffffffffffffffffffffffffffffffffffffff1673ffffffffffffffffffffffffffffffffffffffff16815260200190815260200160002060008373ffffffffffffffffffffffffffffffffffffffff1673ffffffffffffffffffffffffffffffffffffffff16815260200190815260200160002054905092915050565b612b81613d1b565b600982604051612b9191906148c2565b90815260200160405180910390206040518060e0016040529081600082018054600181600116156101000203166002900480601f016020809104026020016040519081016040528092919081815260200182805460018160011615610100020316600290048015612c435780601f10612c1857610100808354040283529160200191612c43565b820191906000526020600020905b815481529060010190602001808311612c2657829003601f168201915b505050505081526020016001820160009054906101000a900473ffffffffffffffffffffffffffffffffffffffff1673ffffffffffffffffffffffffffffffffffffffff1673ffffffffffffffffffffffffffffffffffffffff1681526020016002820154815260200160038201548152602001600482015481526020016005820160009054906101000a900460ff161515151581526020016005820160019054906101000a900460ff1615151515815250509050919050565b600981604051612d0d91906148c2565b908152602001604051809103902060050160019054906101000a900460ff16612d6b576040517f08c379a0000000000000000000000000000000000000000000000000000000008152600401612d6290614b70565b60405180910390fd5b600981604051612d7b91906148c2565b908152602001604051809103902060050160009054906101000a900460ff16612dd9576040517f08c379a0000000000000000000000000000000000000000000000000000000008152600401612dd090614c10565b60405180910390fd5b3373ffffffffffffffffffffffffffffffffffffffff16600982604051612e0091906148c2565b908152602001604051809103902060010160009054906101000a900473ffffffffffffffffffffffffffffffffffffffff1673ffffffffffffffffffffffffffffffffffffffff161480612e8f5750612e8e336040518060400160405280600581526020017f41646d696e0000000000000000000000000000000000000000000000000000008152506108c3565b5b612e9857600080fd5b612ed7336040518060400160405280600581526020017f41646d696e0000000000000000000000000000000000000000000000000000008152506108c3565b15612f4e57612f48600982604051612eef91906148c2565b908152602001604051809103902060010160009054906101000a900473ffffffffffffffffffffffffffffffffffffffff16600983604051612f3191906148c2565b908152602001604051809103902060030154612449565b50612fff565b6000612fa5600983604051612f6391906148c2565b908152602001604051809103902060040154600984604051612f8591906148c2565b90815260200160405180910390206003015461366790919063ffffffff16565b90506000811115612ffd57612ffb600983604051612fc391906148c2565b908152602001604051809103902060010160009054906101000a900473ffffffffffffffffffffffffffffffffffffffff1682612449565b505b505b600060098260405161301191906148c2565b908152602001604051809103902060050160006101000a81548160ff021916908315150217905550600060098260405161304b91906148c2565b90815260200160405180910390206003018190555050565b6130a2336040518060400160405280600681526020017f53657276657200000000000000000000000000000000000000000000000000008152506108c3565b6130ab57600080fd5b6009826040516130bb91906148c2565b908152602001604051809103902060050160019054906101000a900460ff16613119576040517f08c379a000000000000000000000000000000000000000000000000000000000815260040161311090614b70565b60405180910390fd5b60098260405161312991906148c2565b908152602001604051809103902060050160009054906101000a900460ff16613187576040517f08c379a000000000000000000000000000000000000000000000000000000000815260040161317e90614c10565b60405180910390fd5b8060098360405161319891906148c2565b908152602001604051809103902060030154116131ea576040517f08c379a00000000000000000000000000000000000000000000000000000000081526004016131e190614b90565b60405180910390fd5b6132356009836040516131fd91906148c2565b908152602001604051809103902060010160009054906101000a900473ffffffffffffffffffffffffffffffffffffffff1682612449565b50600060098360405161324891906148c2565b908152602001604051809103902060050160006101000a81548160ff0219169083151502179055506132a48160098460405161328491906148c2565b90815260200160405180910390206003015461366790919063ffffffff16565b6009836040516132b491906148c2565b9081526020016040518091039020600301819055505050565b6000600860008380519060200120815260200190815260200160002060020160009054906101000a900473ffffffffffffffffffffffffffffffffffffffff169050919050565b60008082840190508381101561332957600080fd5b8091505092915050565b60008073ffffffffffffffffffffffffffffffffffffffff168373ffffffffffffffffffffffffffffffffffffffff16141561336e57600080fd5b836001018260405161338091906148c2565b908152602001604051809103902060008473ffffffffffffffffffffffffffffffffffffffff1673ffffffffffffffffffffffffffffffffffffffff16815260200190815260200160002060009054906101000a900460ff1690509392505050565b6000808473ffffffffffffffffffffffffffffffffffffffff1673ffffffffffffffffffffffffffffffffffffffff16815260200190815260200160002054811115613463576040517f08c379a000000000000000000000000000000000000000000000000000000000815260040161345a90614bb0565b60405180910390fd5b600073ffffffffffffffffffffffffffffffffffffffff168273ffffffffffffffffffffffffffffffffffffffff16141561349d57600080fd5b6134ee816000808673ffffffffffffffffffffffffffffffffffffffff1673ffffffffffffffffffffffffffffffffffffffff1681526020019081526020016000205461366790919063ffffffff16565b6000808573ffffffffffffffffffffffffffffffffffffffff1673ffffffffffffffffffffffffffffffffffffffff16815260200190815260200160002081905550613581816000808573ffffffffffffffffffffffffffffffffffffffff1673ffffffffffffffffffffffffffffffffffffffff1681526020019081526020016000205461331490919063ffffffff16565b6000808473ffffffffffffffffffffffffffffffffffffffff1673ffffffffffffffffffffffffffffffffffffffff168152602001908152602001600020819055508173ffffffffffffffffffffffffffffffffffffffff168373ffffffffffffffffffffffffffffffffffffffff167fddf252ad1be2c89b69c2b068fc378daa952ba7f163c4a11628f55a4df523b3ef836040516136209190614c52565b60405180910390a3505050565b6000808314156136405760009050613661565b600082840290508284828161365157fe5b041461365c57600080fd5b809150505b92915050565b60008282111561367657600080fd5b600082840390508091505092915050565b600073ffffffffffffffffffffffffffffffffffffffff168273ffffffffffffffffffffffffffffffffffffffff1614156136c157600080fd5b6136cc838383613333565b156136d657600080fd5b600183600101826040516136ea91906148c2565b908152602001604051809103902060008473ffffffffffffffffffffffffffffffffffffffff1673ffffffffffffffffffffffffffffffffffffffff16815260200190815260200160002060006101000a81548160ff021916908315150217905550505050565b600073ffffffffffffffffffffffffffffffffffffffff168273ffffffffffffffffffffffffffffffffffffffff16141561378b57600080fd5b613796838383613333565b61379f57600080fd5b600083600101826040516137b391906148c2565b908152602001604051809103902060008473ffffffffffffffffffffffffffffffffffffffff1673ffffffffffffffffffffffffffffffffffffffff16815260200190815260200160002060006101000a81548160ff021916908315150217905550505050565b8060018190555050565b600073ffffffffffffffffffffffffffffffffffffffff168273ffffffffffffffffffffffffffffffffffffffff16141561385e57600080fd5b6138738160045461331490919063ffffffff16565b6004819055506138ca816000808573ffffffffffffffffffffffffffffffffffffffff1673ffffffffffffffffffffffffffffffffffffffff1681526020019081526020016000205461331490919063ffffffff16565b6000808473ffffffffffffffffffffffffffffffffffffffff1673ffffffffffffffffffffffffffffffffffffffff168152602001908152602001600020819055508173ffffffffffffffffffffffffffffffffffffffff16600073ffffffffffffffffffffffffffffffffffffffff167fddf252ad1be2c89b69c2b068fc378daa952ba7f163c4a11628f55a4df523b3ef8360405161396a9190614c52565b60405180910390a35050565b600073ffffffffffffffffffffffffffffffffffffffff168273ffffffffffffffffffffffffffffffffffffffff1614156139b057600080fd5b6000808373ffffffffffffffffffffffffffffffffffffffff1673ffffffffffffffffffffffffffffffffffffffff168152602001908152602001600020548111156139fb57600080fd5b613a108160045461366790919063ffffffff16565b600481905550613a67816000808573ffffffffffffffffffffffffffffffffffffffff1673ffffffffffffffffffffffffffffffffffffffff1681526020019081526020016000205461366790919063ffffffff16565b6000808473ffffffffffffffffffffffffffffffffffffffff1673ffffffffffffffffffffffffffffffffffffffff16815260200190815260200160002081905550600073ffffffffffffffffffffffffffffffffffffffff168273ffffffffffffffffffffffffffffffffffffffff167fddf252ad1be2c89b69c2b068fc378daa952ba7f163c4a11628f55a4df523b3ef83604051613b079190614c52565b60405180910390a35050565b600073ffffffffffffffffffffffffffffffffffffffff168173ffffffffffffffffffffffffffffffffffffffff161415613b4d57600080fd5b80600260006101000a81548173ffffffffffffffffffffffffffffffffffffffff021916908373ffffffffffffffffffffffffffffffffffffffff16021790555050565b828054600181600116156101000203166002900490600052602060002090601f016020900481019282601f10613bd257805160ff1916838001178555613c00565b82800160010185558215613c00579182015b82811115613bff578251825591602001919060010190613be4565b5b509050613c0d9190613d72565b5090565b828054828255906000526020600020908101928215613c8a579160200282015b82811115613c895782518260006101000a81548173ffffffffffffffffffffffffffffffffffffffff021916908373ffffffffffffffffffffffffffffffffffffffff16021790555091602001919060010190613c31565b5b509050613c979190613d8f565b5090565b828054600181600116156101000203166002900490600052602060002090601f016020900481019282601f10613cdc57805160ff1916838001178555613d0a565b82800160010185558215613d0a579182015b82811115613d09578251825591602001919060010190613cee565b5b509050613d179190613d72565b5090565b6040518060e0016040528060608152602001600073ffffffffffffffffffffffffffffffffffffffff1681526020016000815260200160008152602001600081526020016000151581526020016000151581525090565b5b80821115613d8b576000816000905550600101613d73565b5090565b5b80821115613dc657600081816101000a81549073ffffffffffffffffffffffffffffffffffffffff021916905550600101613d90565b5090565b600081359050613dd981614f0e565b92915050565b600081359050613dee81614f25565b92915050565b600082601f830112613e0557600080fd5b8135613e18613e1382614d01565b614cd4565b91508082526020830160208301858383011115613e3457600080fd5b613e3f838284614e62565b50505092915050565b600082601f830112613e5957600080fd5b8135613e6c613e6782614d2d565b614cd4565b91508082526020830160208301858383011115613e8857600080fd5b613e93838284614e62565b50505092915050565b600081359050613eab81614f3c565b92915050565b600060208284031215613ec357600080fd5b6000613ed184828501613dca565b91505092915050565b60008060408385031215613eed57600080fd5b6000613efb85828601613dca565b9250506020613f0c85828601613dca565b9150509250929050565b600080600060608486031215613f2b57600080fd5b6000613f3986828701613dca565b9350506020613f4a86828701613dca565b9250506040613f5b86828701613e9c565b9150509250925092565b60008060408385031215613f7857600080fd5b6000613f8685828601613dca565b925050602083013567ffffffffffffffff811115613fa357600080fd5b613faf85828601613e48565b9150509250929050565b60008060408385031215613fcc57600080fd5b6000613fda85828601613dca565b9250506020613feb85828601613e9c565b9150509250929050565b60006020828403121561400757600080fd5b600061401584828501613ddf565b91505092915050565b60006020828403121561403057600080fd5b600082013567ffffffffffffffff81111561404a57600080fd5b61405684828501613df4565b91505092915050565b6000806040838503121561407257600080fd5b600083013567ffffffffffffffff81111561408c57600080fd5b61409885828601613df4565b92505060206140a985828601613dca565b9150509250929050565b6000602082840312156140c557600080fd5b600082013567ffffffffffffffff8111156140df57600080fd5b6140eb84828501613e48565b91505092915050565b6000806040838503121561410757600080fd5b600083013567ffffffffffffffff81111561412157600080fd5b61412d85828601613e48565b925050602083013567ffffffffffffffff81111561414a57600080fd5b61415685828601613e48565b9150509250929050565b6000806000806080858703121561417657600080fd5b600085013567ffffffffffffffff81111561419057600080fd5b61419c87828801613e48565b945050602085013567ffffffffffffffff8111156141b957600080fd5b6141c587828801613e48565b93505060406141d687828801613dca565b92505060606141e787828801613e9c565b91505092959194509250565b6000806040838503121561420657600080fd5b600083013567ffffffffffffffff81111561422057600080fd5b61422c85828601613e48565b925050602061423d85828601613e9c565b9150509250929050565b600080600080600060a0868803121561425f57600080fd5b600086013567ffffffffffffffff81111561427957600080fd5b61428588828901613e48565b955050602061429688828901613e9c565b94505060406142a788828901613e9c565b93505060606142b888828901613e9c565b92505060806142c988828901613e9c565b9150509295509295909350565b6000602082840312156142e857600080fd5b60006142f684828501613e9c565b91505092915050565b600061430b838361432e565b60208301905092915050565b61432861432382614e03565b614eb6565b82525050565b61433781614df1565b82525050565b61434681614df1565b82525050565b61435d61435882614df1565b614ea4565b82525050565b600061436e82614d69565b6143788185614d97565b935061438383614d59565b8060005b838110156143b457815161439b88826142ff565b97506143a683614d8a565b925050600181019050614387565b5085935050505092915050565b6143ca81614e15565b82525050565b6143d981614e15565b82525050565b60006143ea82614d74565b6143f48185614da8565b9350614404818560208601614e71565b61440d81614ee4565b840191505092915050565b600061442382614d74565b61442d8185614db9565b935061443d818560208601614e71565b80840191505092915050565b600061445482614d7f565b61445e8185614dc4565b935061446e818560208601614e71565b61447781614ee4565b840191505092915050565b600061448d82614d7f565b6144978185614dd5565b93506144a7818560208601614e71565b6144b081614ee4565b840191505092915050565b60006144c682614d7f565b6144d08185614de6565b93506144e0818560208601614e71565b80840191505092915050565b60006144f9601583614dd5565b91507f446f63756d656e74206973206e6f7420457869737400000000000000000000006000830152602082019050919050565b6000614539601183614dd5565b91507f446f63756d656e7420417070726f7665640000000000000000000000000000006000830152602082019050919050565b6000614579600e83614dd5565b91507f446f63756d656e742041646465640000000000000000000000000000000000006000830152602082019050919050565b60006145b9601583614dd5565b91507f43616d706169676e206973206e6f7420457869737400000000000000000000006000830152602082019050919050565b60006145f9601183614dd5565b91507f446f63756d656e742052656a65637465640000000000000000000000000000006000830152602082019050919050565b6000614639601183614dd5565b91507f5265647564616e742069732077726f6e670000000000000000000000000000006000830152602082019050919050565b6000614679600683614de6565b91507f4d696e74657200000000000000000000000000000000000000000000000000006000830152600682019050919050565b60006146b9601083614dd5565b91507f4e6f7420456e6f756768204d6f6e6579000000000000000000000000000000006000830152602082019050919050565b60006146f9601783614dd5565b91507f5472616e7366657220546f206e6f74206265206e756c6c0000000000000000006000830152602082019050919050565b6000614739601183614dd5565b91507f446f63756d656e742069732045786973740000000000000000000000000000006000830152602082019050919050565b6000614779601683614dd5565b91507f43616d706169676e206973206e6f7420416374697665000000000000000000006000830152602082019050919050565b600060e08301600083015184820360008601526147c98282614449565b91505060208301516147de602086018261432e565b5060408301516147f16040860182614848565b5060608301516148046060860182614848565b5060808301516148176080860182614848565b5060a083015161482a60a08601826143c1565b5060c083015161483d60c08601826143c1565b508091505092915050565b61485181614e4b565b82525050565b61486081614e4b565b82525050565b61487761487282614e4b565b614eda565b82525050565b61488681614e55565b82525050565b6000614898828461434c565b60148201915081905092915050565b60006148b38284614317565b60148201915081905092915050565b60006148ce82846144bb565b915081905092915050565b60006148e48261466c565b9150819050919050565b60006148fa8286614866565b60208201915061490a8285614418565b91506149168284614317565b601482019150819050949350505050565b600060208201905061493c600083018461433d565b92915050565b6000602082019050818103600083015261495c8184614363565b905092915050565b600060208201905061497960008301846143d0565b92915050565b6000604082019050818103600083015261499981846143df565b905081810360208301526149ac816144ec565b905092915050565b600060408201905081810360008301526149ce81846143df565b905081810360208301526149e18161452c565b905092915050565b60006040820190508181036000830152614a0381846143df565b90508181036020830152614a168161456c565b905092915050565b60006040820190508181036000830152614a3881846143df565b90508181036020830152614a4b816145ec565b905092915050565b60006040820190508181036000830152614a6d81846143df565b90508181036020830152614a808161472c565b905092915050565b60006020820190508181036000830152614aa28184614482565b905092915050565b600060e0820190508181036000830152614ac4818a614482565b9050614ad3602083018961433d565b614ae06040830188614857565b614aed6060830187614857565b614afa6080830186614857565b614b0760a08301856143d0565b614b1460c08301846143d0565b98975050505050505050565b60006040820190508181036000830152614b3a8185614482565b9050614b496020830184614857565b9392505050565b60006020820190508181036000830152614b69816144ec565b9050919050565b60006020820190508181036000830152614b89816145ac565b9050919050565b60006020820190508181036000830152614ba98161462c565b9050919050565b60006020820190508181036000830152614bc9816146ac565b9050919050565b60006020820190508181036000830152614be9816146ec565b9050919050565b60006020820190508181036000830152614c098161472c565b9050919050565b60006020820190508181036000830152614c298161476c565b9050919050565b60006020820190508181036000830152614c4a81846147ac565b905092915050565b6000602082019050614c676000830184614857565b92915050565b6000608082019050614c826000830187614857565b8181036020830152614c9481866143df565b9050614ca3604083018561433d565b614cb060608301846143d0565b95945050505050565b6000602082019050614cce600083018461487d565b92915050565b6000604051905081810181811067ffffffffffffffff82111715614cf757600080fd5b8060405250919050565b600067ffffffffffffffff821115614d1857600080fd5b601f19601f8301169050602081019050919050565b600067ffffffffffffffff821115614d4457600080fd5b601f19601f8301169050602081019050919050565b6000819050602082019050919050565b600081519050919050565b600081519050919050565b600081519050919050565b6000602082019050919050565b600082825260208201905092915050565b600082825260208201905092915050565b600081905092915050565b600082825260208201905092915050565b600082825260208201905092915050565b600081905092915050565b6000614dfc82614e2b565b9050919050565b6000614e0e82614e2b565b9050919050565b60008115159050919050565b6000819050919050565b600073ffffffffffffffffffffffffffffffffffffffff82169050919050565b6000819050919050565b600060ff82169050919050565b82818337600083830152505050565b60005b83811015614e8f578082015181840152602081019050614e74565b83811115614e9e576000848401525b50505050565b6000614eaf82614ec8565b9050919050565b6000614ec182614ec8565b9050919050565b6000614ed382614ef5565b9050919050565b6000819050919050565b6000601f19601f8301169050919050565b60006c0100000000000000000000000082029050919050565b614f1781614df1565b8114614f2257600080fd5b50565b614f2e81614e21565b8114614f3957600080fd5b50565b614f4581614e4b565b8114614f5057600080fd5b5056fea264697066735822122058a85be1e25a4a800d38d80385bb40656d701f8c83cb48e15c39acbde616875964736f6c63430007000033",
  "immutableReferences": {},
  "source": "// SPDX-License-Identifier: MIT\npragma experimental ABIEncoderV2;\npragma solidity >=0.7.0 <0.8.0;\nimport \"./TRC21.sol\";\nimport \"./ManageDocument.sol\";\nimport './SafeMath.sol';\nimport './Ownable.sol';\nimport './CampaignDetail.sol';\n\ncontract Support is MyTRC21Mintable(\"Adverising\",\"LBAT\", 0, uint256(0) * uint256(10)**18, uint256(0) * uint256(10)**18), ManageDocument, CampaignDetail, AccessControl{\n    using SafeMath for uint;\n\n    /* BEGIN: Document function*/\n    /**\n\t * @dev Function to add Document to verify\n\t * @param id The security Hash of documents.\n\t */\n    function addDocument(bytes memory id) public {\n        if(documents[keccak256(id)].isExist){\n            emit Add(id, msg.sender, \"Document is Exist\");\n            revert(\"Document is Exist\");\n        } \n        address[] memory approve = new address[](0);\n        address[] memory reject = new address[](0);\n        documents[keccak256(id)] = Document(block.timestamp, abi.encodePacked(block.timestamp, id, msg.sender), msg.sender, approve, reject, true);\n        emit Add(id, msg.sender, \"Document Added\");\n    }\n\n    /**\n\t * @dev Function to delete Document\n\t * @param id The security Hash of documents.\n\t */\n    function deleteDocument(bytes memory id) public {\n        if(documents[keccak256(id)].isExist){\n            if(keccak256(abi.encodePacked(documents[keccak256(id)].owner)) == keccak256(abi.encodePacked(msg.sender)) || isRole(msg.sender, \"Admin\")){\n                address[] memory approve = new address[](0);\n                address[] memory reject = new address[](0);\n                documents[keccak256(id)].approve = approve;\n                documents[keccak256(id)].reject = reject;\n                documents[keccak256(id)].isExist = false;\n            }\n        } \n    }\n\n    /**\n\t * @dev Function to approve to Document to verify.\n\t * @param id The security Hash of documents.\n\t */\n    function approveDocument(bytes memory id) public {\n        require(!isRole(msg.sender,\"Minter\") && !isOwner(msg.sender) && !isRole(msg.sender, \"Server\"));\n        require(isRole(msg.sender,\"Admin\"));\n        if(!documents[keccak256(id)].isExist){\n            emit Sign(id, msg.sender, \"Document is not Exist\"); \n            revert(\"Document is not Exist\");\n        }\n        removeReject(id, msg.sender);\n        documents[keccak256(id)].approve.push(msg.sender);\n        emit Sign(id, msg.sender, \"Document Approved\");\n    }\n\n    /**\n\t * @dev Function to reject to Document to verify.\n\t * @param id The security Hash of documents.\n\t */\n    function rejectDocument(bytes memory id) public {\n        require(!isRole(msg.sender,\"Minter\") && !isOwner(msg.sender) && !isRole(msg.sender, \"Server\"));\n        require(isRole(msg.sender,\"Admin\"));\n        if(!documents[keccak256(id)].isExist){\n            emit Sign(id, msg.sender, \"Document is not Exist\");\n            revert(\"Document is not Exist\");\n        }\n        removeApprove(id, msg.sender);\n        documents[keccak256(id)].reject.push(msg.sender);\n        emit Sign(id, msg.sender, \"Document Rejected\");\n    }\n\n    /**\n\t * @dev Function to get all signature of document by Security hash of document\n\t * @param id The security Hash of documents.\n\t * @return Array of address of signed\n\t */\n    function getOwnerDocument(bytes memory id) public view returns (address) {\n        return documents[keccak256(id)].owner;\n    }\n\n     /**\n\t * @dev Function to get all signature of document by Security hash of document\n\t * @param id The security Hash of documents.\n\t * @return Array of address of signed\n\t */\n    function getRejectDocument(bytes memory id) public view returns (address[] memory) {\n        return documents[keccak256(id)].approve;\n    }\n\n    /**\n\t * @dev Function to get all signature of document by Security hash of document\n\t * @param id The security Hash of documents.\n\t * @return Array of address of signed\n\t */\n    function getApproveDocument(bytes memory id) public view returns (address[] memory) {\n        return documents[keccak256(id)].reject;\n    }\n    /*END: Document function*/\n\n    /*BEGIN: Campaign Detail */\n    \n    /**\n\t * @dev Function to Create Campaign\n\t * @param campaignId The string Identifier of Campaign.\n\t * @param totalWithFee This is all money of campaign include all fee.\n\t * @param totalBudget This is Budget of campaign.\n\t * @param remainBudget This is money after minus fee\n\t * @param feeCancel This is fee to cancel campaign.\n\t */\n    function createCampaign (string memory campaignId, uint totalWithFee, uint totalBudget, uint remainBudget, uint feeCancel) public{\n        //check money amount\n        require(totalWithFee <= _allowed[msg.sender][address(this)],\"Not Enough Money\");\n        //check campaign\n        if(!campaigns[campaignId].isExist){\n            //send money to server wallet\n            _transfer(msg.sender, address(this), totalWithFee);\n            _allowed[msg.sender][address(this)].sub(totalWithFee);\n            //create campaign\n            campaigns[campaignId] = Campaign(campaignId, msg.sender, totalBudget, remainBudget, feeCancel, true, true);\n        }\n        emit CreateCampaign(msg.sender, campaignId, totalBudget);\n    }\n\n    /**\n\t * @dev Function to CheckOut Campaign\n\t * @param campaignId The string Identifier of Campaign.\n\t * @param redudant The address of suppiler to transfer money.\n\t */\n    function checkOutCampaign(string memory campaignId, uint redudant) public onlyServer{\n        require(campaigns[campaignId].isExist,\"Campaign is not Exist\");\n        require(campaigns[campaignId].isActive,\"Campaign is not Active\");\n        require(campaigns[campaignId].remainBudget > redudant, \"Redudant is wrong\");\n\n        transfer(campaigns[campaignId].advertiser, redudant);\n        campaigns[campaignId].isActive = false;\n        campaigns[campaignId].remainBudget = campaigns[campaignId].remainBudget.sub(redudant);\n    }\n\n    /**\n\t * @dev Function to Pay To Supplier\n\t * @param campaignId The string Identifier of Campaign\n\t * @param supplier The address of suppiler to transfer money\n\t * @param value The value of money to transfer to supplier\n\t * @return A boolean that indicates if the operation was successful.\n\t */\n    function payToSupplier(string memory campaignId, string memory paymentKey, address supplier, uint256 value) public onlyServer returns (bool) {\n        require(supplier != address(0));\n        require(value <= campaigns[campaignId].remainBudget);\n        require(!checkPayed[campaignId][paymentKey]);\n        campaigns[campaignId].remainBudget = campaigns[campaignId].remainBudget.sub(value);\n        _transfer(address(this), campaigns[campaignId].advertiser, value);\n        checkPayed[campaignId][paymentKey] = true;\n        return true;\n    }\n\n    /**\n\t * @dev Function to Cancel Campaign\n\t * @param campaignId The string Identifier of Campaign\n\t */\n    function cancelCampaign(string memory campaignId) public{\n        require(campaigns[campaignId].isExist,\"Campaign is not Exist\");\n        require(campaigns[campaignId].isActive,\"Campaign is not Active\");\n        require(campaigns[campaignId].advertiser == msg.sender || isRole(msg.sender, \"Admin\"));\n        \n        if(isRole(msg.sender, \"Admin\")){\n            transfer(campaigns[campaignId].advertiser, campaigns[campaignId].remainBudget);\n        }else{\n            uint temp = campaigns[campaignId].remainBudget.sub(campaigns[campaignId].feeCancel);\n            if(temp > 0){\n                transfer(campaigns[campaignId].advertiser,  temp);\n            }\n        }\n        \n        campaigns[campaignId].isActive = false;\n        campaigns[campaignId].remainBudget = 0;\n    }\n\n    /**\n\t * @dev Function to Get Campaign By Id\n\t * @param campaignId The string Identifier of Campaign\n\t * @return A Campaign will return if there are campaignId \n\t */\n    function getCampaignById(string memory campaignId) public view returns (Campaign memory){\n        return campaigns[campaignId];\n    }\n    /*END: Campaign Detail */\n\n    /*START: MyTRC21Mintable */\n\n    /**\n\t * @dev Function to change OwnerOfContract\n\t * @param newOwner The address that will be new Owner.\n\t */\n    function changeOwner(address newOwner) public onlyOwner{\n        _changeIssuer(newOwner);\n        _changeOwnerRole(newOwner);\n    }\n    /**\n\t * @dev Function to mint tokens\n\t * @param to The address that will receive the minted tokens.\n\t * @param value The amount of tokens to mint.\n\t * @return A boolean that indicates if the operation was successful.\n\t */\n\tfunction mint(\n\t\taddress to,\n\t\tuint256 value\n\t)\n\tpublic\n\tonlyMinter\n\treturns (bool)\n\t{\n\t\t_mint(to, value);\n\t\treturn true;\n\t}\n    /*END: MyTRC21Mintable */\n}",
  "sourcePath": "D:/CN9/Capstone/LBAContract.github.io/contracts/Support.sol",
  "compiler": {
    "name": "solc",
    "version": "0.7.0+commit.9e61f92b.Emscripten.clang"
  },
  "schemaVersion": "3.3.4",
  "updatedAt": "2021-04-09T04:17:10.024Z",
  "networkType": "ethereum",
  "devdoc": {
    "kind": "dev",
    "methods": {
      "addDocument(bytes)": {
        "details": "Function to add Document to verify",
        "params": {
          "id": "The security Hash of documents."
        }
      },
      "allowance(address,address)": {
        "details": "Function to check the amount of tokens that an owner allowed to a spender.",
        "params": {
          "owner": "address The address which owns the funds.",
          "spender": "address The address which will spend the funds."
        },
        "returns": {
          "_0": "A uint256 specifying the amount of tokens still available for the spender."
        }
      },
      "approve(address,uint256)": {
        "details": "Approve the passed address to spend the specified amount of tokens on behalf of msg.sender. Beware that changing an allowance with this method brings the risk that someone may use both the old and the new allowance by unfortunate transaction ordering. One possible solution to mitigate this race condition is to first reduce the spender's allowance to 0 and set the desired value afterwards: https://github.com/ethereum/EIPs/issues/20#issuecomment-263524729",
        "params": {
          "spender": "The address which will spend the funds.",
          "value": "The amount of tokens to be spent."
        }
      },
      "approveDocument(bytes)": {
        "details": "Function to approve to Document to verify.",
        "params": {
          "id": "The security Hash of documents."
        }
      },
      "balanceOf(address)": {
        "details": "Gets the balance of the specified address.",
        "params": {
          "owner": "The address to query the balance of."
        },
        "returns": {
          "_0": "An uint256 representing the amount owned by the passed address."
        }
      },
      "burn(uint256)": {
        "details": "Function to burn tokens",
        "params": {
          "value": "The amount of tokens to mint."
        },
        "returns": {
          "_0": "A boolean that indicates if the operation was successful."
        }
      },
      "cancelCampaign(string)": {
        "details": "Function to Cancel Campaign",
        "params": {
          "campaignId": "The string Identifier of Campaign"
        }
      },
      "changeOwner(address)": {
        "details": "Function to change OwnerOfContract",
        "params": {
          "newOwner": "The address that will be new Owner."
        }
      },
      "checkOutCampaign(string,uint256)": {
        "details": "Function to CheckOut Campaign",
        "params": {
          "campaignId": "The string Identifier of Campaign.",
          "redudant": "The address of suppiler to transfer money."
        }
      },
      "createCampaign(string,uint256,uint256,uint256,uint256)": {
        "details": "Function to Create Campaign",
        "params": {
          "campaignId": "The string Identifier of Campaign.",
          "feeCancel": "This is fee to cancel campaign.",
          "remainBudget": "This is money after minus fee",
          "totalBudget": "This is Budget of campaign.",
          "totalWithFee": "This is all money of campaign include all fee."
        }
      },
      "decimals()": {
        "returns": {
          "_0": "the number of decimals of the token."
        }
      },
      "deleteDocument(bytes)": {
        "details": "Function to delete Document",
        "params": {
          "id": "The security Hash of documents."
        }
      },
      "estimateFee(uint256)": {
        "details": "Estimate transaction fee.",
        "params": {
          "value": "amount tokens sent"
        }
      },
      "getApproveDocument(bytes)": {
        "details": "Function to get all signature of document by Security hash of document",
        "params": {
          "id": "The security Hash of documents."
        },
        "returns": {
          "_0": "Array of address of signed"
        }
      },
      "getCampaignById(string)": {
        "details": "Function to Get Campaign By Id",
        "params": {
          "campaignId": "The string Identifier of Campaign"
        },
        "returns": {
          "_0": "A Campaign will return if there are campaignId "
        }
      },
      "getOwnerDocument(bytes)": {
        "details": "Function to get all signature of document by Security hash of document",
        "params": {
          "id": "The security Hash of documents."
        },
        "returns": {
          "_0": "Array of address of signed"
        }
      },
      "getRejectDocument(bytes)": {
        "details": "Function to get all signature of document by Security hash of document",
        "params": {
          "id": "The security Hash of documents."
        },
        "returns": {
          "_0": "Array of address of signed"
        }
      },
      "issuer()": {
        "details": "token's foundation"
      },
      "minFee()": {
        "details": "The amount fee that will be lost when transferring."
      },
      "mint(address,uint256)": {
        "details": "Function to mint tokens",
        "params": {
          "to": "The address that will receive the minted tokens.",
          "value": "The amount of tokens to mint."
        },
        "returns": {
          "_0": "A boolean that indicates if the operation was successful."
        }
      },
      "name()": {
        "returns": {
          "_0": "the name of the token."
        }
      },
      "payToSupplier(string,string,address,uint256)": {
        "details": "Function to Pay To Supplier",
        "params": {
          "campaignId": "The string Identifier of Campaign",
          "supplier": "The address of suppiler to transfer money",
          "value": "The value of money to transfer to supplier"
        },
        "returns": {
          "_0": "A boolean that indicates if the operation was successful."
        }
      },
      "rejectDocument(bytes)": {
        "details": "Function to reject to Document to verify.",
        "params": {
          "id": "The security Hash of documents."
        }
      },
      "removeApprove(bytes,address)": {
        "details": "Function to remove who approved this document",
        "params": {
          "id": "The security Hash of documents."
        }
      },
      "removeReject(bytes,address)": {
        "details": "Function to remove who rejected this document",
        "params": {
          "id": "The security Hash of documents."
        }
      },
      "symbol()": {
        "returns": {
          "_0": "the symbol of the token."
        }
      },
      "totalSupply()": {
        "details": "Total number of tokens in existence"
      },
      "transfer(address,uint256)": {
        "details": "Transfer token for a specified address",
        "params": {
          "to": "The address to transfer to.",
          "value": "The amount to be transferred."
        }
      },
      "transferFrom(address,address,uint256)": {
        "details": "Transfer tokens from one address to another",
        "params": {
          "from": "address The address which you want to send tokens from",
          "to": "address The address which you want to transfer to",
          "value": "uint256 the amount of tokens to be transferred"
        }
      }
    },
    "version": 1
  },
  "userdoc": {
    "kind": "user",
    "methods": {},
    "version": 1
  }
}