{
  "contractName": "Support",
  "abi": [
    {
      "anonymous": false,
      "inputs": [
        {
          "indexed": false,
          "internalType": "bytes",
          "name": "id",
          "type": "bytes"
        },
        {
          "indexed": true,
          "internalType": "address",
          "name": "from",
          "type": "address"
        },
        {
          "indexed": false,
          "internalType": "string",
          "name": "comment",
          "type": "string"
        }
      ],
      "name": "Add",
      "type": "event"
    },
    {
      "anonymous": false,
      "inputs": [
        {
          "indexed": true,
          "internalType": "address",
          "name": "owner",
          "type": "address"
        },
        {
          "indexed": true,
          "internalType": "address",
          "name": "spender",
          "type": "address"
        },
        {
          "indexed": false,
          "internalType": "uint256",
          "name": "value",
          "type": "uint256"
        }
      ],
      "name": "Approval",
      "type": "event"
    },
    {
      "anonymous": false,
      "inputs": [
        {
          "indexed": true,
          "internalType": "address",
          "name": "owner",
          "type": "address"
        },
        {
          "indexed": false,
          "internalType": "string",
          "name": "campaignId",
          "type": "string"
        },
        {
          "indexed": false,
          "internalType": "uint256",
          "name": "value",
          "type": "uint256"
        }
      ],
      "name": "AuthorityCampaign",
      "type": "event"
    },
    {
      "anonymous": false,
      "inputs": [
        {
          "indexed": true,
          "internalType": "address",
          "name": "owner",
          "type": "address"
        },
        {
          "indexed": false,
          "internalType": "string",
          "name": "campaignId",
          "type": "string"
        },
        {
          "indexed": false,
          "internalType": "uint256",
          "name": "value",
          "type": "uint256"
        }
      ],
      "name": "CreateCampaign",
      "type": "event"
    },
    {
      "anonymous": false,
      "inputs": [
        {
          "indexed": true,
          "internalType": "address",
          "name": "from",
          "type": "address"
        },
        {
          "indexed": true,
          "internalType": "address",
          "name": "to",
          "type": "address"
        },
        {
          "indexed": true,
          "internalType": "address",
          "name": "issuer",
          "type": "address"
        },
        {
          "indexed": false,
          "internalType": "uint256",
          "name": "value",
          "type": "uint256"
        }
      ],
      "name": "Fee",
      "type": "event"
    },
    {
      "anonymous": false,
      "inputs": [
        {
          "indexed": false,
          "internalType": "bytes",
          "name": "id",
          "type": "bytes"
        },
        {
          "indexed": true,
          "internalType": "address",
          "name": "from",
          "type": "address"
        },
        {
          "indexed": false,
          "internalType": "string",
          "name": "comment",
          "type": "string"
        }
      ],
      "name": "Sign",
      "type": "event"
    },
    {
      "anonymous": false,
      "inputs": [
        {
          "indexed": true,
          "internalType": "address",
          "name": "from",
          "type": "address"
        },
        {
          "indexed": true,
          "internalType": "address",
          "name": "to",
          "type": "address"
        },
        {
          "indexed": false,
          "internalType": "uint256",
          "name": "value",
          "type": "uint256"
        }
      ],
      "name": "Transfer",
      "type": "event"
    },
    {
      "inputs": [
        {
          "internalType": "address",
          "name": "account",
          "type": "address"
        }
      ],
      "name": "_changeOwnerRole",
      "outputs": [],
      "stateMutability": "nonpayable",
      "type": "function"
    },
    {
      "inputs": [
        {
          "internalType": "address",
          "name": "account",
          "type": "address"
        },
        {
          "internalType": "string",
          "name": "roleType",
          "type": "string"
        }
      ],
      "name": "add",
      "outputs": [],
      "stateMutability": "nonpayable",
      "type": "function"
    },
    {
      "inputs": [
        {
          "internalType": "address",
          "name": "owner",
          "type": "address"
        },
        {
          "internalType": "address",
          "name": "spender",
          "type": "address"
        }
      ],
      "name": "allowance",
      "outputs": [
        {
          "internalType": "uint256",
          "name": "",
          "type": "uint256"
        }
      ],
      "stateMutability": "view",
      "type": "function",
      "constant": true
    },
    {
      "inputs": [
        {
          "internalType": "address",
          "name": "spender",
          "type": "address"
        },
        {
          "internalType": "uint256",
          "name": "value",
          "type": "uint256"
        }
      ],
      "name": "approve",
      "outputs": [
        {
          "internalType": "bool",
          "name": "",
          "type": "bool"
        }
      ],
      "stateMutability": "nonpayable",
      "type": "function"
    },
    {
      "inputs": [
        {
          "internalType": "address",
          "name": "owner",
          "type": "address"
        }
      ],
      "name": "balanceOf",
      "outputs": [
        {
          "internalType": "uint256",
          "name": "",
          "type": "uint256"
        }
      ],
      "stateMutability": "view",
      "type": "function",
      "constant": true
    },
    {
      "inputs": [
        {
          "internalType": "uint256",
          "name": "value",
          "type": "uint256"
        }
      ],
      "name": "burn",
      "outputs": [
        {
          "internalType": "bool",
          "name": "",
          "type": "bool"
        }
      ],
      "stateMutability": "nonpayable",
      "type": "function"
    },
    {
      "inputs": [
        {
          "internalType": "string",
          "name": "",
          "type": "string"
        }
      ],
      "name": "campaigns",
      "outputs": [
        {
          "internalType": "string",
          "name": "campaignId",
          "type": "string"
        },
        {
          "internalType": "address",
          "name": "advertiser",
          "type": "address"
        },
        {
          "internalType": "uint256",
          "name": "totalBudget",
          "type": "uint256"
        },
        {
          "internalType": "uint256",
          "name": "remainBudget",
          "type": "uint256"
        },
        {
          "internalType": "uint256",
          "name": "feeCancel",
          "type": "uint256"
        },
        {
          "internalType": "bool",
          "name": "isActive",
          "type": "bool"
        },
        {
          "internalType": "bool",
          "name": "isExist",
          "type": "bool"
        }
      ],
      "stateMutability": "view",
      "type": "function",
      "constant": true
    },
    {
      "inputs": [],
      "name": "decimals",
      "outputs": [
        {
          "internalType": "uint8",
          "name": "",
          "type": "uint8"
        }
      ],
      "stateMutability": "view",
      "type": "function",
      "constant": true
    },
    {
      "inputs": [
        {
          "internalType": "bytes32",
          "name": "",
          "type": "bytes32"
        }
      ],
      "name": "documents",
      "outputs": [
        {
          "internalType": "uint256",
          "name": "timestamp",
          "type": "uint256"
        },
        {
          "internalType": "bytes",
          "name": "ipfs_hash",
          "type": "bytes"
        },
        {
          "internalType": "bool",
          "name": "isExist",
          "type": "bool"
        }
      ],
      "stateMutability": "view",
      "type": "function",
      "constant": true
    },
    {
      "inputs": [
        {
          "internalType": "uint256",
          "name": "value",
          "type": "uint256"
        }
      ],
      "name": "estimateFee",
      "outputs": [
        {
          "internalType": "uint256",
          "name": "",
          "type": "uint256"
        }
      ],
      "stateMutability": "view",
      "type": "function",
      "constant": true
    },
    {
      "inputs": [
        {
          "internalType": "address",
          "name": "account",
          "type": "address"
        }
      ],
      "name": "isOwner",
      "outputs": [
        {
          "internalType": "bool",
          "name": "",
          "type": "bool"
        }
      ],
      "stateMutability": "view",
      "type": "function",
      "constant": true
    },
    {
      "inputs": [
        {
          "internalType": "address",
          "name": "account",
          "type": "address"
        },
        {
          "internalType": "string",
          "name": "roleType",
          "type": "string"
        }
      ],
      "name": "isRole",
      "outputs": [
        {
          "internalType": "bool",
          "name": "",
          "type": "bool"
        }
      ],
      "stateMutability": "view",
      "type": "function",
      "constant": true
    },
    {
      "inputs": [],
      "name": "issuer",
      "outputs": [
        {
          "internalType": "address",
          "name": "",
          "type": "address"
        }
      ],
      "stateMutability": "view",
      "type": "function",
      "constant": true
    },
    {
      "inputs": [],
      "name": "minFee",
      "outputs": [
        {
          "internalType": "uint256",
          "name": "",
          "type": "uint256"
        }
      ],
      "stateMutability": "view",
      "type": "function",
      "constant": true
    },
    {
      "inputs": [],
      "name": "name",
      "outputs": [
        {
          "internalType": "string",
          "name": "",
          "type": "string"
        }
      ],
      "stateMutability": "view",
      "type": "function",
      "constant": true
    },
    {
      "inputs": [
        {
          "internalType": "address",
          "name": "account",
          "type": "address"
        },
        {
          "internalType": "string",
          "name": "roleType",
          "type": "string"
        }
      ],
      "name": "remove",
      "outputs": [],
      "stateMutability": "nonpayable",
      "type": "function"
    },
    {
      "inputs": [
        {
          "internalType": "uint256",
          "name": "value",
          "type": "uint256"
        }
      ],
      "name": "setMinFee",
      "outputs": [],
      "stateMutability": "nonpayable",
      "type": "function"
    },
    {
      "inputs": [],
      "name": "symbol",
      "outputs": [
        {
          "internalType": "string",
          "name": "",
          "type": "string"
        }
      ],
      "stateMutability": "view",
      "type": "function",
      "constant": true
    },
    {
      "inputs": [],
      "name": "totalSupply",
      "outputs": [
        {
          "internalType": "uint256",
          "name": "",
          "type": "uint256"
        }
      ],
      "stateMutability": "view",
      "type": "function",
      "constant": true
    },
    {
      "inputs": [
        {
          "internalType": "address",
          "name": "to",
          "type": "address"
        },
        {
          "internalType": "uint256",
          "name": "value",
          "type": "uint256"
        }
      ],
      "name": "transfer",
      "outputs": [
        {
          "internalType": "bool",
          "name": "",
          "type": "bool"
        }
      ],
      "stateMutability": "nonpayable",
      "type": "function"
    },
    {
      "inputs": [
        {
          "internalType": "address",
          "name": "from",
          "type": "address"
        },
        {
          "internalType": "address",
          "name": "to",
          "type": "address"
        },
        {
          "internalType": "uint256",
          "name": "value",
          "type": "uint256"
        }
      ],
      "name": "transferFrom",
      "outputs": [
        {
          "internalType": "bool",
          "name": "",
          "type": "bool"
        }
      ],
      "stateMutability": "nonpayable",
      "type": "function"
    },
    {
      "inputs": [
        {
          "internalType": "bytes",
          "name": "id",
          "type": "bytes"
        }
      ],
      "name": "addDocument",
      "outputs": [],
      "stateMutability": "nonpayable",
      "type": "function"
    },
    {
      "inputs": [
        {
          "internalType": "bytes",
          "name": "id",
          "type": "bytes"
        }
      ],
      "name": "signDocument",
      "outputs": [],
      "stateMutability": "nonpayable",
      "type": "function"
    },
    {
      "inputs": [
        {
          "internalType": "bytes",
          "name": "id",
          "type": "bytes"
        }
      ],
      "name": "getSignatures",
      "outputs": [
        {
          "internalType": "address[]",
          "name": "",
          "type": "address[]"
        }
      ],
      "stateMutability": "view",
      "type": "function",
      "constant": true
    },
    {
      "inputs": [
        {
          "internalType": "bytes",
          "name": "id",
          "type": "bytes"
        }
      ],
      "name": "checkAdminSigned",
      "outputs": [
        {
          "internalType": "bool",
          "name": "",
          "type": "bool"
        }
      ],
      "stateMutability": "view",
      "type": "function",
      "constant": true
    },
    {
      "inputs": [
        {
          "internalType": "string",
          "name": "campaignId",
          "type": "string"
        },
        {
          "internalType": "uint256",
          "name": "totalWithFee",
          "type": "uint256"
        },
        {
          "internalType": "uint256",
          "name": "totalBudget",
          "type": "uint256"
        },
        {
          "internalType": "uint256",
          "name": "remainBudget",
          "type": "uint256"
        },
        {
          "internalType": "uint256",
          "name": "feeCancel",
          "type": "uint256"
        }
      ],
      "name": "createCampaign",
      "outputs": [],
      "stateMutability": "nonpayable",
      "type": "function"
    },
    {
      "inputs": [
        {
          "internalType": "string",
          "name": "campaignId",
          "type": "string"
        },
        {
          "internalType": "uint256",
          "name": "redudant",
          "type": "uint256"
        }
      ],
      "name": "checkOutCampaign",
      "outputs": [],
      "stateMutability": "nonpayable",
      "type": "function"
    },
    {
      "inputs": [
        {
          "internalType": "string",
          "name": "campaignId",
          "type": "string"
        },
        {
          "internalType": "address",
          "name": "supplier",
          "type": "address"
        },
        {
          "internalType": "uint256",
          "name": "value",
          "type": "uint256"
        }
      ],
      "name": "payToSupplier",
      "outputs": [
        {
          "internalType": "bool",
          "name": "",
          "type": "bool"
        }
      ],
      "stateMutability": "nonpayable",
      "type": "function"
    },
    {
      "inputs": [
        {
          "internalType": "string",
          "name": "campaignId",
          "type": "string"
        }
      ],
      "name": "cancelCampaign",
      "outputs": [],
      "stateMutability": "nonpayable",
      "type": "function"
    },
    {
      "inputs": [
        {
          "internalType": "string",
          "name": "campaignId",
          "type": "string"
        }
      ],
      "name": "getCampaignById",
      "outputs": [
        {
          "components": [
            {
              "internalType": "string",
              "name": "campaignId",
              "type": "string"
            },
            {
              "internalType": "address",
              "name": "advertiser",
              "type": "address"
            },
            {
              "internalType": "uint256",
              "name": "totalBudget",
              "type": "uint256"
            },
            {
              "internalType": "uint256",
              "name": "remainBudget",
              "type": "uint256"
            },
            {
              "internalType": "uint256",
              "name": "feeCancel",
              "type": "uint256"
            },
            {
              "internalType": "bool",
              "name": "isActive",
              "type": "bool"
            },
            {
              "internalType": "bool",
              "name": "isExist",
              "type": "bool"
            }
          ],
          "internalType": "struct CampaignDetail.Campaign",
          "name": "",
          "type": "tuple"
        }
      ],
      "stateMutability": "view",
      "type": "function",
      "constant": true
    },
    {
      "inputs": [
        {
          "internalType": "address",
          "name": "newOwner",
          "type": "address"
        }
      ],
      "name": "changeOwner",
      "outputs": [],
      "stateMutability": "nonpayable",
      "type": "function"
    },
    {
      "inputs": [
        {
          "internalType": "address",
          "name": "to",
          "type": "address"
        },
        {
          "internalType": "uint256",
          "name": "value",
          "type": "uint256"
        }
      ],
      "name": "mint",
      "outputs": [
        {
          "internalType": "bool",
          "name": "",
          "type": "bool"
        }
      ],
      "stateMutability": "nonpayable",
      "type": "function"
    }
  ],
  "bytecode": "0x60806040523480156200001157600080fd5b506040518060400160405280600b81526020017f41647665726973696e67320000000000000000000000000000000000000000008152506040518060400160405280600481526020017f4c4241320000000000000000000000000000000000000000000000000000000081525060006012600a0a6000026012600a0a6000028460059080519060200190620000a892919062000487565b508360069080519060200190620000c192919062000487565b5082600760006101000a81548160ff021916908360ff160217905550620000f8308362000269640100000000026401000000009004565b6200011233620003de640100000000026401000000009004565b6200012c816200045d640100000000026401000000009004565b505050505033600a60000160006101000a81548173ffffffffffffffffffffffffffffffffffffffff021916908373ffffffffffffffffffffffffffffffffffffffff1602179055506001600a6001016040516200018a90620005d9565b908152602001604051809103902060003373ffffffffffffffffffffffffffffffffffffffff1673ffffffffffffffffffffffffffffffffffffffff16815260200190815260200160002060006101000a81548160ff0219169083151502179055506001600a6001016040516200020190620005c2565b908152602001604051809103902060003373ffffffffffffffffffffffffffffffffffffffff1673ffffffffffffffffffffffffffffffffffffffff16815260200190815260200160002060006101000a81548160ff02191690831515021790555062000622565b600073ffffffffffffffffffffffffffffffffffffffff168273ffffffffffffffffffffffffffffffffffffffff161415620002a457600080fd5b620002c9816004546200046764010000000002620027fe179091906401000000009004565b60048190555062000330816000808573ffffffffffffffffffffffffffffffffffffffff1673ffffffffffffffffffffffffffffffffffffffff168152602001908152602001600020546200046764010000000002620027fe179091906401000000009004565b6000808473ffffffffffffffffffffffffffffffffffffffff1673ffffffffffffffffffffffffffffffffffffffff168152602001908152602001600020819055508173ffffffffffffffffffffffffffffffffffffffff16600073ffffffffffffffffffffffffffffffffffffffff167fddf252ad1be2c89b69c2b068fc378daa952ba7f163c4a11628f55a4df523b3ef83604051620003d29190620005f0565b60405180910390a35050565b600073ffffffffffffffffffffffffffffffffffffffff168173ffffffffffffffffffffffffffffffffffffffff1614156200041957600080fd5b80600260006101000a81548173ffffffffffffffffffffffffffffffffffffffff021916908373ffffffffffffffffffffffffffffffffffffffff16021790555050565b8060018190555050565b6000808284019050838110156200047d57600080fd5b8091505092915050565b828054600181600116156101000203166002900490600052602060002090601f016020900481019282601f10620004ca57805160ff1916838001178555620004fb565b82800160010185558215620004fb579182015b82811115620004fa578251825591602001919060010190620004dd565b5b5090506200050a91906200050e565b5090565b5b80821115620005295760008160009055506001016200050f565b5090565b60006200053c6006836200060d565b91507f4d696e74657200000000000000000000000000000000000000000000000000006000830152600682019050919050565b60006200057e6005836200060d565b91507f41646d696e0000000000000000000000000000000000000000000000000000006000830152600582019050919050565b620005bc8162000618565b82525050565b6000620005cf826200052d565b9150819050919050565b6000620005e6826200056f565b9150819050919050565b6000602082019050620006076000830184620005b1565b92915050565b600081905092915050565b6000819050919050565b61437980620006326000396000f3fe608060405234801561001057600080fd5b506004361061020d576000357c01000000000000000000000000000000000000000000000000000000009004806340c10f191161012c578063a9059cbb116100bf578063dd62ed3e1161008e578063dd62ed3e1461064e578063e26034cd1461067e578063e35d66a8146106ae578063e631ce99146106ca5761020d565b8063a9059cbb146105b6578063c63c5bd1146105e6578063c79de09b14610602578063d63e83251461061e5761020d565b80636b45b4e3116100fb5780636b45b4e31461051c57806370a082311461054c57806395d89b411461057c578063a6f9dae11461059a5761020d565b806340c10f191461047057806342966c68146104a0578063475a1178146104d057806349209fc8146105005761020d565b806323b872dd116101a45780632f54bf6e116101735780632f54bf6e146103ea578063313ce5671461041a57806331ac99201461043857806336d6da55146104545761020d565b806323b872dd1461034e57806324ec75901461037e578063267945ff1461039c5780632b2805db146103b85761020d565b806318160ddd116101e057806318160ddd146102c05780631d143848146102de5780631d39e509146102fc578063228bc0a9146103325761020d565b806306fdde0314610212578063070eb15714610230578063095ea7b314610260578063127e8e4d14610290575b600080fd5b61021a6106e6565b6040516102279190613e86565b60405180910390f35b61024a6004803603810190610245919061344f565b610788565b6040516102579190613d62565b60405180910390f35b61027a600480360381019061027591906134a3565b6107a8565b6040516102879190613d62565b60405180910390f35b6102aa60048036038101906102a591906136d4565b61094f565b6040516102b79190614050565b60405180910390f35b6102c8610980565b6040516102d59190614050565b60405180910390f35b6102e661098a565b6040516102f39190613d25565b60405180910390f35b61031660048036038101906103119190613549565b6109b4565b6040516103299796959493929190613ea8565b60405180910390f35b61034c60048036038101906103479190613508565b610ade565b005b61036860048036038101906103639190613400565b610cfd565b6040516103759190613d62565b60405180910390f35b61038661103b565b6040516103939190614050565b60405180910390f35b6103b660048036038101906103b1919061339b565b611045565b005b6103d260048036038101906103cd91906134df565b6111ca565b6040516103e19392919061406b565b60405180910390f35b61040460048036038101906103ff919061339b565b611299565b6040516104119190613d62565b60405180910390f35b6104226112f6565b60405161042f91906140a9565b60405180910390f35b610452600480360381019061044d91906136d4565b61130d565b005b61046e6004803603810190610469919061344f565b611358565b005b61048a600480360381019061048591906134a3565b61141f565b6040516104979190613d62565b60405180910390f35b6104ba60048036038101906104b591906136d4565b61147d565b6040516104c79190613d62565b60405180910390f35b6104ea60048036038101906104e59190613508565b611492565b6040516104f79190613d62565b60405180910390f35b61051a6004803603810190610515919061344f565b61157a565b005b61053660048036038101906105319190613508565b611641565b6040516105439190613d40565b60405180910390f35b6105666004803603810190610561919061339b565b6116ec565b6040516105739190614050565b60405180910390f35b610584611734565b6040516105919190613e86565b60405180910390f35b6105b460048036038101906105af919061339b565b6117d6565b005b6105d060048036038101906105cb91906134a3565b6117fd565b6040516105dd9190613d62565b60405180910390f35b61060060048036038101906105fb9190613508565b61194f565b005b61061c60048036038101906106179190613645565b611c14565b005b6106386004803603810190610633919061358a565b611f2b565b6040516106459190613d62565b60405180910390f35b610668600480360381019061066391906133c4565b61208d565b6040516106759190614050565b60405180910390f35b61069860048036038101906106939190613549565b612114565b6040516106a5919061402e565b60405180910390f35b6106c860048036038101906106c39190613549565b612298565b005b6106e460048036038101906106df91906135f1565b612594565b005b606060058054600181600116156101000203166002900480601f01602080910402602001604051908101604052809291908181526020018280546001816001161561010002031660029004801561077e5780601f106107535761010080835404028352916020019161077e565b820191906000526020600020905b81548152906001019060200180831161076157829003601f168201915b5050505050905090565b60006107a08383600a61281d9092919063ffffffff16565b905092915050565b60008073ffffffffffffffffffffffffffffffffffffffff168373ffffffffffffffffffffffffffffffffffffffff1614156107e357600080fd5b6001546000803373ffffffffffffffffffffffffffffffffffffffff1673ffffffffffffffffffffffffffffffffffffffff16815260200190815260200160002054101561083057600080fd5b81600360003373ffffffffffffffffffffffffffffffffffffffff1673ffffffffffffffffffffffffffffffffffffffff16815260200190815260200160002060008573ffffffffffffffffffffffffffffffffffffffff1673ffffffffffffffffffffffffffffffffffffffff168152602001908152602001600020819055506108e033600260009054906101000a900473ffffffffffffffffffffffffffffffffffffffff166001546128cc565b8273ffffffffffffffffffffffffffffffffffffffff163373ffffffffffffffffffffffffffffffffffffffff167f8c5be1e5ebec7d5bd14f71427d1e84f3dd0314c0f7b2291e5b200ac8c7c3b9258460405161093d9190614050565b60405180910390a36001905092915050565b600061097960015461096b600085612b1790919063ffffffff16565b6127fe90919063ffffffff16565b9050919050565b6000600454905090565b6000600260009054906101000a900473ffffffffffffffffffffffffffffffffffffffff16905090565b600981805160208101820180518482526020830160208501208183528095505050505050600091509050806000018054600181600116156101000203166002900480601f016020809104026020016040519081016040528092919081815260200182805460018160011615610100020316600290048015610a765780601f10610a4b57610100808354040283529160200191610a76565b820191906000526020600020905b815481529060010190602001808311610a5957829003601f168201915b5050505050908060010160009054906101000a900473ffffffffffffffffffffffffffffffffffffffff16908060020154908060030154908060040154908060050160009054906101000a900460ff16908060050160019054906101000a900460ff16905087565b600860008280519060200120815260200190815260200160002060030160009054906101000a900460ff1615610b97573373ffffffffffffffffffffffffffffffffffffffff167fce62159ff3c25a8e61a8bc74b520c1c33ff5acc534e8af236f3b5a587b050b0582604051610b549190613de7565b60405180910390a26040517f08c379a0000000000000000000000000000000000000000000000000000000008152600401610b8e90613fee565b60405180910390fd5b6060600067ffffffffffffffff81118015610bb157600080fd5b50604051908082528060200260200182016040528015610be05781602001602082028036833780820191505090505b5090506040518060800160405280428152602001428433604051602001610c0993929190613cec565b6040516020818303038152906040528152602001828152602001600115158152506008600084805190602001208152602001908152602001600020600082015181600001556020820151816001019080519060200190610c6a92919061307b565b506040820151816002019080519060200190610c879291906130fb565b5060608201518160030160006101000a81548160ff0219169083151502179055509050503373ffffffffffffffffffffffffffffffffffffffff167fce62159ff3c25a8e61a8bc74b520c1c33ff5acc534e8af236f3b5a587b050b0583604051610cf19190613db2565b60405180910390a25050565b600080610d15600154846127fe90919063ffffffff16565b9050600073ffffffffffffffffffffffffffffffffffffffff168473ffffffffffffffffffffffffffffffffffffffff161415610d87576040517f08c379a0000000000000000000000000000000000000000000000000000000008152600401610d7e90613fce565b60405180910390fd5b600360008673ffffffffffffffffffffffffffffffffffffffff1673ffffffffffffffffffffffffffffffffffffffff16815260200190815260200160002060003373ffffffffffffffffffffffffffffffffffffffff1673ffffffffffffffffffffffffffffffffffffffff16815260200190815260200160002054811115610e46576040517f08c379a0000000000000000000000000000000000000000000000000000000008152600401610e3d90613fae565b60405180910390fd5b610ed581600360008873ffffffffffffffffffffffffffffffffffffffff1673ffffffffffffffffffffffffffffffffffffffff16815260200190815260200160002060003373ffffffffffffffffffffffffffffffffffffffff1673ffffffffffffffffffffffffffffffffffffffff16815260200190815260200160002054612b5190919063ffffffff16565b600360008773ffffffffffffffffffffffffffffffffffffffff1673ffffffffffffffffffffffffffffffffffffffff16815260200190815260200160002060003373ffffffffffffffffffffffffffffffffffffffff1673ffffffffffffffffffffffffffffffffffffffff16815260200190815260200160002081905550610f608585856128cc565b610f8f85600260009054906101000a900473ffffffffffffffffffffffffffffffffffffffff166001546128cc565b600260009054906101000a900473ffffffffffffffffffffffffffffffffffffffff1673ffffffffffffffffffffffffffffffffffffffff168473ffffffffffffffffffffffffffffffffffffffff163373ffffffffffffffffffffffffffffffffffffffff167ffcf5b3276434181e3c48bd3fe569b8939808f11e845d4b963693b9d7dbd6dd996001546040516110279190614050565b60405180910390a460019150509392505050565b6000600154905090565b61104e33611299565b61105757600080fd5b80600a60000160006101000a81548173ffffffffffffffffffffffffffffffffffffffff021916908373ffffffffffffffffffffffffffffffffffffffff1602179055506110e6816040518060400160405280600681526020017f4d696e7465720000000000000000000000000000000000000000000000000000815250600a612b719092919063ffffffff16565b611131816040518060400160405280600581526020017f41646d696e000000000000000000000000000000000000000000000000000000815250600a612b719092919063ffffffff16565b61117c336040518060400160405280600681526020017f4d696e7465720000000000000000000000000000000000000000000000000000815250600a612c3b9092919063ffffffff16565b6111c7336040518060400160405280600581526020017f41646d696e000000000000000000000000000000000000000000000000000000815250600a612c3b9092919063ffffffff16565b50565b6008602052806000526040600020600091509050806000015490806001018054600181600116156101000203166002900480601f01602080910402602001604051908101604052809291908181526020018280546001816001161561010002031660029004801561127c5780601f106112515761010080835404028352916020019161127c565b820191906000526020600020905b81548152906001019060200180831161125f57829003601f168201915b5050505050908060030160009054906101000a900460ff16905083565b6000600a60000160009054906101000a900473ffffffffffffffffffffffffffffffffffffffff1673ffffffffffffffffffffffffffffffffffffffff168273ffffffffffffffffffffffffffffffffffffffff16149050919050565b6000600760009054906101000a900460ff16905090565b61131561098a565b73ffffffffffffffffffffffffffffffffffffffff163373ffffffffffffffffffffffffffffffffffffffff161461134c57600080fd5b61135581612d04565b50565b611397336040518060400160405280600581526020017f41646d696e000000000000000000000000000000000000000000000000000000815250610788565b6113a057600080fd5b6040516020016113af90613cd7565b60405160208183030381529060405280519060200120816040516020016113d69190613cc0565b604051602081830303815290604052805190602001201415611405576113fb33611299565b61140457600080fd5b5b61141b8282600a612b719092919063ffffffff16565b5050565b6000611460336040518060400160405280600681526020017f4d696e7465720000000000000000000000000000000000000000000000000000815250610788565b61146957600080fd5b6114738383612d0e565b6001905092915050565b60006114893383612e60565b60019050919050565b600080600090505b60086000848051906020012081526020019081526020016000206002018054905081101561156f57611553600860008580519060200120815260200190815260200160002060020182815481106114ed57fe5b9060005260206000200160009054906101000a900473ffffffffffffffffffffffffffffffffffffffff166040518060400160405280600581526020017f41646d696e000000000000000000000000000000000000000000000000000000815250610788565b15611562576001915050611575565b808060010191505061149a565b50600090505b919050565b6115b9336040518060400160405280600581526020017f41646d696e000000000000000000000000000000000000000000000000000000815250610788565b6115c257600080fd5b6040516020016115d190613cd7565b60405160208183030381529060405280519060200120816040516020016115f89190613cc0565b6040516020818303038152906040528051906020012014156116275761161d33611299565b61162657600080fd5b5b61163d8282600a612c3b9092919063ffffffff16565b5050565b606060086000838051906020012081526020019081526020016000206002018054806020026020016040519081016040528092919081815260200182805480156116e057602002820191906000526020600020905b8160009054906101000a900473ffffffffffffffffffffffffffffffffffffffff1673ffffffffffffffffffffffffffffffffffffffff1681526020019060010190808311611696575b50505050509050919050565b60008060008373ffffffffffffffffffffffffffffffffffffffff1673ffffffffffffffffffffffffffffffffffffffff168152602001908152602001600020549050919050565b606060068054600181600116156101000203166002900480601f0160208091040260200160405190810160405280929190818152602001828054600181600116156101000203166002900480156117cc5780601f106117a1576101008083540402835291602001916117cc565b820191906000526020600020905b8154815290600101906020018083116117af57829003601f168201915b5050505050905090565b6117df33611299565b6117e857600080fd5b6117f181612ffd565b6117fa81611045565b50565b600080611815600154846127fe90919063ffffffff16565b9050600073ffffffffffffffffffffffffffffffffffffffff168473ffffffffffffffffffffffffffffffffffffffff16141561185157600080fd5b8083111561185e57600080fd5b6118693385856128cc565b60006001541115611944576118a333600260009054906101000a900473ffffffffffffffffffffffffffffffffffffffff166001546128cc565b600260009054906101000a900473ffffffffffffffffffffffffffffffffffffffff1673ffffffffffffffffffffffffffffffffffffffff168473ffffffffffffffffffffffffffffffffffffffff163373ffffffffffffffffffffffffffffffffffffffff167ffcf5b3276434181e3c48bd3fe569b8939808f11e845d4b963693b9d7dbd6dd9960015460405161193b9190614050565b60405180910390a45b600191505092915050565b600860008280519060200120815260200190815260200160002060030160009054906101000a900460ff16611a07573373ffffffffffffffffffffffffffffffffffffffff167f7b178bf1583b36c417d982a222dfebdf8e3c8ecff7e75e459627b176a9e8bd72826040516119c49190613d7d565b60405180910390a26040517f08c379a00000000000000000000000000000000000000000000000000000000081526004016119fe90613f4e565b60405180910390fd5b6000805b600860008480519060200120815260200190815260200160002060020180549050811015611aef5733604051602001611a449190613ca5565b6040516020818303038152906040528051906020012060086000858051906020012081526020019081526020016000206002018281548110611a8257fe5b9060005260206000200160009054906101000a900473ffffffffffffffffffffffffffffffffffffffff16604051602001611abd9190613c8a565b604051602081830303815290604052805190602001201415611ae25760019150611aef565b8080600101915050611a0b565b5080611bc2576008600083805190602001208152602001908152602001600020600201339080600181540180825580915050600190039060005260206000200160009091909190916101000a81548173ffffffffffffffffffffffffffffffffffffffff021916908373ffffffffffffffffffffffffffffffffffffffff1602179055503373ffffffffffffffffffffffffffffffffffffffff167f7b178bf1583b36c417d982a222dfebdf8e3c8ecff7e75e459627b176a9e8bd7283604051611bb99190613e51565b60405180910390a25b3373ffffffffffffffffffffffffffffffffffffffff167f7b178bf1583b36c417d982a222dfebdf8e3c8ecff7e75e459627b176a9e8bd7283604051611c089190613e1c565b60405180910390a25050565b600360003373ffffffffffffffffffffffffffffffffffffffff1673ffffffffffffffffffffffffffffffffffffffff16815260200190815260200160002060003073ffffffffffffffffffffffffffffffffffffffff1673ffffffffffffffffffffffffffffffffffffffff16815260200190815260200160002054841115611cd3576040517f08c379a0000000000000000000000000000000000000000000000000000000008152600401611cca90613fae565b60405180910390fd5b600985604051611ce39190613cc0565b908152602001604051809103902060050160019054906101000a900460ff16611ed457611d113330866128cc565b611da084600360003373ffffffffffffffffffffffffffffffffffffffff1673ffffffffffffffffffffffffffffffffffffffff16815260200190815260200160002060003073ffffffffffffffffffffffffffffffffffffffff1673ffffffffffffffffffffffffffffffffffffffff16815260200190815260200160002054612b5190919063ffffffff16565b506040518060e001604052808681526020013373ffffffffffffffffffffffffffffffffffffffff16815260200184815260200183815260200182815260200160011515815260200160011515815250600986604051611e009190613cc0565b90815260200160405180910390206000820151816000019080519060200190611e2a929190613185565b5060208201518160010160006101000a81548173ffffffffffffffffffffffffffffffffffffffff021916908373ffffffffffffffffffffffffffffffffffffffff16021790555060408201518160020155606082015181600301556080820151816004015560a08201518160050160006101000a81548160ff02191690831515021790555060c08201518160050160016101000a81548160ff0219169083151502179055509050505b3373ffffffffffffffffffffffffffffffffffffffff167f5c04f4c64423af25dc8dc6bd45d037a95fe962bb56e5ca1b993600448846f07f8685604051611f1c929190613f1e565b60405180910390a25050505050565b6000611f6c336040518060400160405280600581526020017f41646d696e000000000000000000000000000000000000000000000000000000815250610788565b611f7557600080fd5b600073ffffffffffffffffffffffffffffffffffffffff168373ffffffffffffffffffffffffffffffffffffffff161415611faf57600080fd5b600984604051611fbf9190613cc0565b908152602001604051809103902060030154821115611fdd57600080fd5b61201182600986604051611ff19190613cc0565b908152602001604051809103902060030154612b5190919063ffffffff16565b6009856040516120219190613cc0565b9081526020016040518091039020600301819055506120823060098660405161204a9190613cc0565b908152602001604051809103902060010160009054906101000a900473ffffffffffffffffffffffffffffffffffffffff16846128cc565b600190509392505050565b6000600360008473ffffffffffffffffffffffffffffffffffffffff1673ffffffffffffffffffffffffffffffffffffffff16815260200190815260200160002060008373ffffffffffffffffffffffffffffffffffffffff1673ffffffffffffffffffffffffffffffffffffffff16815260200190815260200160002054905092915050565b61211c613205565b60098260405161212c9190613cc0565b90815260200160405180910390206040518060e0016040529081600082018054600181600116156101000203166002900480601f0160208091040260200160405190810160405280929190818152602001828054600181600116156101000203166002900480156121de5780601f106121b3576101008083540402835291602001916121de565b820191906000526020600020905b8154815290600101906020018083116121c157829003601f168201915b505050505081526020016001820160009054906101000a900473ffffffffffffffffffffffffffffffffffffffff1673ffffffffffffffffffffffffffffffffffffffff1673ffffffffffffffffffffffffffffffffffffffff1681526020016002820154815260200160038201548152602001600482015481526020016005820160009054906101000a900460ff161515151581526020016005820160019054906101000a900460ff1615151515815250509050919050565b6122a133611299565b1580156122ea57506122e8336040518060400160405280600581526020017f41646d696e000000000000000000000000000000000000000000000000000000815250610788565b155b80156123325750612330336040518060400160405280600681526020017f4d696e7465720000000000000000000000000000000000000000000000000000815250610788565b155b61233b57600080fd5b60098160405161234b9190613cc0565b908152602001604051809103902060050160019054906101000a900460ff166123a9576040517f08c379a00000000000000000000000000000000000000000000000000000000081526004016123a090613f6e565b60405180910390fd5b6009816040516123b99190613cc0565b908152602001604051809103902060050160009054906101000a900460ff16612417576040517f08c379a000000000000000000000000000000000000000000000000000000000815260040161240e9061400e565b60405180910390fd5b3373ffffffffffffffffffffffffffffffffffffffff1660098260405161243e9190613cc0565b908152602001604051809103902060010160009054906101000a900473ffffffffffffffffffffffffffffffffffffffff1673ffffffffffffffffffffffffffffffffffffffff161461249057600080fd5b61252f6009826040516124a39190613cc0565b908152602001604051809103902060010160009054906101000a900473ffffffffffffffffffffffffffffffffffffffff1661252a6009846040516124e89190613cc0565b90815260200160405180910390206004015460098560405161250a9190613cc0565b908152602001604051809103902060020154612b5190919063ffffffff16565b6117fd565b5060006009826040516125429190613cc0565b908152602001604051809103902060050160006101000a81548160ff021916908315150217905550600060098260405161257c9190613cc0565b90815260200160405180910390206003018190555050565b6125d3336040518060400160405280600581526020017f41646d696e000000000000000000000000000000000000000000000000000000815250610788565b6125dc57600080fd5b6009826040516125ec9190613cc0565b908152602001604051809103902060050160019054906101000a900460ff1661264a576040517f08c379a000000000000000000000000000000000000000000000000000000000815260040161264190613f6e565b60405180910390fd5b60098260405161265a9190613cc0565b908152602001604051809103902060050160009054906101000a900460ff166126b8576040517f08c379a00000000000000000000000000000000000000000000000000000000081526004016126af9061400e565b60405180910390fd5b806009836040516126c99190613cc0565b9081526020016040518091039020600301541161271b576040517f08c379a000000000000000000000000000000000000000000000000000000000815260040161271290613f8e565b60405180910390fd5b61276660098360405161272e9190613cc0565b908152602001604051809103902060010160009054906101000a900473ffffffffffffffffffffffffffffffffffffffff16826117fd565b5060006009836040516127799190613cc0565b908152602001604051809103902060050160006101000a81548160ff0219169083151502179055506127d5816009846040516127b59190613cc0565b908152602001604051809103902060030154612b5190919063ffffffff16565b6009836040516127e59190613cc0565b9081526020016040518091039020600301819055505050565b60008082840190508381101561281357600080fd5b8091505092915050565b60008073ffffffffffffffffffffffffffffffffffffffff168373ffffffffffffffffffffffffffffffffffffffff16141561285857600080fd5b836001018260405161286a9190613cc0565b908152602001604051809103902060008473ffffffffffffffffffffffffffffffffffffffff1673ffffffffffffffffffffffffffffffffffffffff16815260200190815260200160002060009054906101000a900460ff1690509392505050565b6000808473ffffffffffffffffffffffffffffffffffffffff1673ffffffffffffffffffffffffffffffffffffffff1681526020019081526020016000205481111561294d576040517f08c379a000000000000000000000000000000000000000000000000000000000815260040161294490613fae565b60405180910390fd5b600073ffffffffffffffffffffffffffffffffffffffff168273ffffffffffffffffffffffffffffffffffffffff16141561298757600080fd5b6129d8816000808673ffffffffffffffffffffffffffffffffffffffff1673ffffffffffffffffffffffffffffffffffffffff16815260200190815260200160002054612b5190919063ffffffff16565b6000808573ffffffffffffffffffffffffffffffffffffffff1673ffffffffffffffffffffffffffffffffffffffff16815260200190815260200160002081905550612a6b816000808573ffffffffffffffffffffffffffffffffffffffff1673ffffffffffffffffffffffffffffffffffffffff168152602001908152602001600020546127fe90919063ffffffff16565b6000808473ffffffffffffffffffffffffffffffffffffffff1673ffffffffffffffffffffffffffffffffffffffff168152602001908152602001600020819055508173ffffffffffffffffffffffffffffffffffffffff168373ffffffffffffffffffffffffffffffffffffffff167fddf252ad1be2c89b69c2b068fc378daa952ba7f163c4a11628f55a4df523b3ef83604051612b0a9190614050565b60405180910390a3505050565b600080831415612b2a5760009050612b4b565b6000828402905082848281612b3b57fe5b0414612b4657600080fd5b809150505b92915050565b600082821115612b6057600080fd5b600082840390508091505092915050565b600073ffffffffffffffffffffffffffffffffffffffff168273ffffffffffffffffffffffffffffffffffffffff161415612bab57600080fd5b612bb683838361281d565b15612bc057600080fd5b60018360010182604051612bd49190613cc0565b908152602001604051809103902060008473ffffffffffffffffffffffffffffffffffffffff1673ffffffffffffffffffffffffffffffffffffffff16815260200190815260200160002060006101000a81548160ff021916908315150217905550505050565b600073ffffffffffffffffffffffffffffffffffffffff168273ffffffffffffffffffffffffffffffffffffffff161415612c7557600080fd5b612c8083838361281d565b612c8957600080fd5b60008360010182604051612c9d9190613cc0565b908152602001604051809103902060008473ffffffffffffffffffffffffffffffffffffffff1673ffffffffffffffffffffffffffffffffffffffff16815260200190815260200160002060006101000a81548160ff021916908315150217905550505050565b8060018190555050565b600073ffffffffffffffffffffffffffffffffffffffff168273ffffffffffffffffffffffffffffffffffffffff161415612d4857600080fd5b612d5d816004546127fe90919063ffffffff16565b600481905550612db4816000808573ffffffffffffffffffffffffffffffffffffffff1673ffffffffffffffffffffffffffffffffffffffff168152602001908152602001600020546127fe90919063ffffffff16565b6000808473ffffffffffffffffffffffffffffffffffffffff1673ffffffffffffffffffffffffffffffffffffffff168152602001908152602001600020819055508173ffffffffffffffffffffffffffffffffffffffff16600073ffffffffffffffffffffffffffffffffffffffff167fddf252ad1be2c89b69c2b068fc378daa952ba7f163c4a11628f55a4df523b3ef83604051612e549190614050565b60405180910390a35050565b600073ffffffffffffffffffffffffffffffffffffffff168273ffffffffffffffffffffffffffffffffffffffff161415612e9a57600080fd5b6000808373ffffffffffffffffffffffffffffffffffffffff1673ffffffffffffffffffffffffffffffffffffffff16815260200190815260200160002054811115612ee557600080fd5b612efa81600454612b5190919063ffffffff16565b600481905550612f51816000808573ffffffffffffffffffffffffffffffffffffffff1673ffffffffffffffffffffffffffffffffffffffff16815260200190815260200160002054612b5190919063ffffffff16565b6000808473ffffffffffffffffffffffffffffffffffffffff1673ffffffffffffffffffffffffffffffffffffffff16815260200190815260200160002081905550600073ffffffffffffffffffffffffffffffffffffffff168273ffffffffffffffffffffffffffffffffffffffff167fddf252ad1be2c89b69c2b068fc378daa952ba7f163c4a11628f55a4df523b3ef83604051612ff19190614050565b60405180910390a35050565b600073ffffffffffffffffffffffffffffffffffffffff168173ffffffffffffffffffffffffffffffffffffffff16141561303757600080fd5b80600260006101000a81548173ffffffffffffffffffffffffffffffffffffffff021916908373ffffffffffffffffffffffffffffffffffffffff16021790555050565b828054600181600116156101000203166002900490600052602060002090601f016020900481019282601f106130bc57805160ff19168380011785556130ea565b828001600101855582156130ea579182015b828111156130e95782518255916020019190600101906130ce565b5b5090506130f7919061325c565b5090565b828054828255906000526020600020908101928215613174579160200282015b828111156131735782518260006101000a81548173ffffffffffffffffffffffffffffffffffffffff021916908373ffffffffffffffffffffffffffffffffffffffff1602179055509160200191906001019061311b565b5b5090506131819190613279565b5090565b828054600181600116156101000203166002900490600052602060002090601f016020900481019282601f106131c657805160ff19168380011785556131f4565b828001600101855582156131f4579182015b828111156131f35782518255916020019190600101906131d8565b5b509050613201919061325c565b5090565b6040518060e0016040528060608152602001600073ffffffffffffffffffffffffffffffffffffffff1681526020016000815260200160008152602001600081526020016000151581526020016000151581525090565b5b8082111561327557600081600090555060010161325d565b5090565b5b808211156132b057600081816101000a81549073ffffffffffffffffffffffffffffffffffffffff02191690555060010161327a565b5090565b6000813590506132c3816142fe565b92915050565b6000813590506132d881614315565b92915050565b600082601f8301126132ef57600080fd5b81356133026132fd826140f1565b6140c4565b9150808252602083016020830185838301111561331e57600080fd5b613329838284614252565b50505092915050565b600082601f83011261334357600080fd5b81356133566133518261411d565b6140c4565b9150808252602083016020830185838301111561337257600080fd5b61337d838284614252565b50505092915050565b6000813590506133958161432c565b92915050565b6000602082840312156133ad57600080fd5b60006133bb848285016132b4565b91505092915050565b600080604083850312156133d757600080fd5b60006133e5858286016132b4565b92505060206133f6858286016132b4565b9150509250929050565b60008060006060848603121561341557600080fd5b6000613423868287016132b4565b9350506020613434868287016132b4565b925050604061344586828701613386565b9150509250925092565b6000806040838503121561346257600080fd5b6000613470858286016132b4565b925050602083013567ffffffffffffffff81111561348d57600080fd5b61349985828601613332565b9150509250929050565b600080604083850312156134b657600080fd5b60006134c4858286016132b4565b92505060206134d585828601613386565b9150509250929050565b6000602082840312156134f157600080fd5b60006134ff848285016132c9565b91505092915050565b60006020828403121561351a57600080fd5b600082013567ffffffffffffffff81111561353457600080fd5b613540848285016132de565b91505092915050565b60006020828403121561355b57600080fd5b600082013567ffffffffffffffff81111561357557600080fd5b61358184828501613332565b91505092915050565b60008060006060848603121561359f57600080fd5b600084013567ffffffffffffffff8111156135b957600080fd5b6135c586828701613332565b93505060206135d6868287016132b4565b92505060406135e786828701613386565b9150509250925092565b6000806040838503121561360457600080fd5b600083013567ffffffffffffffff81111561361e57600080fd5b61362a85828601613332565b925050602061363b85828601613386565b9150509250929050565b600080600080600060a0868803121561365d57600080fd5b600086013567ffffffffffffffff81111561367757600080fd5b61368388828901613332565b955050602061369488828901613386565b94505060406136a588828901613386565b93505060606136b688828901613386565b92505060806136c788828901613386565b9150509295509295909350565b6000602082840312156136e657600080fd5b60006136f484828501613386565b91505092915050565b6000613709838361372c565b60208301905092915050565b613726613721826141f3565b6142a6565b82525050565b613735816141e1565b82525050565b613744816141e1565b82525050565b61375b613756826141e1565b614294565b82525050565b600061376c82614159565b6137768185614187565b935061378183614149565b8060005b838110156137b257815161379988826136fd565b97506137a48361417a565b925050600181019050613785565b5085935050505092915050565b6137c881614205565b82525050565b6137d781614205565b82525050565b60006137e882614164565b6137f28185614198565b9350613802818560208601614261565b61380b816142d4565b840191505092915050565b600061382182614164565b61382b81856141a9565b935061383b818560208601614261565b80840191505092915050565b60006138528261416f565b61385c81856141b4565b935061386c818560208601614261565b613875816142d4565b840191505092915050565b600061388b8261416f565b61389581856141c5565b93506138a5818560208601614261565b6138ae816142d4565b840191505092915050565b60006138c48261416f565b6138ce81856141d6565b93506138de818560208601614261565b80840191505092915050565b60006138f76015836141c5565b91507f446f63756d656e74206973206e6f7420457869737400000000000000000000006000830152602082019050919050565b6000613937600e836141c5565b91507f446f63756d656e742041646465640000000000000000000000000000000000006000830152602082019050919050565b60006139776015836141c5565b91507f43616d706169676e206973206e6f7420457869737400000000000000000000006000830152602082019050919050565b60006139b76011836141c5565b91507f5265647564616e742069732077726f6e670000000000000000000000000000006000830152602082019050919050565b60006139f76006836141d6565b91507f4d696e74657200000000000000000000000000000000000000000000000000006000830152600682019050919050565b6000613a376010836141c5565b91507f4e6f7420456e6f756768204d6f6e6579000000000000000000000000000000006000830152602082019050919050565b6000613a776017836141c5565b91507f5472616e7366657220546f206e6f74206265206e756c6c0000000000000000006000830152602082019050919050565b6000613ab76011836141c5565b91507f446f63756d656e742069732045786973740000000000000000000000000000006000830152602082019050919050565b6000613af76017836141c5565b91507f446f63756d656e7420616c7265616479205369676e65640000000000000000006000830152602082019050919050565b6000613b37600f836141c5565b91507f446f63756d656e74205369676e656400000000000000000000000000000000006000830152602082019050919050565b6000613b776016836141c5565b91507f43616d706169676e206973206e6f7420416374697665000000000000000000006000830152602082019050919050565b600060e0830160008301518482036000860152613bc78282613847565b9150506020830151613bdc602086018261372c565b506040830151613bef6040860182613c46565b506060830151613c026060860182613c46565b506080830151613c156080860182613c46565b5060a0830151613c2860a08601826137bf565b5060c0830151613c3b60c08601826137bf565b508091505092915050565b613c4f8161423b565b82525050565b613c5e8161423b565b82525050565b613c75613c708261423b565b6142ca565b82525050565b613c8481614245565b82525050565b6000613c96828461374a565b60148201915081905092915050565b6000613cb18284613715565b60148201915081905092915050565b6000613ccc82846138b9565b915081905092915050565b6000613ce2826139ea565b9150819050919050565b6000613cf88286613c64565b602082019150613d088285613816565b9150613d148284613715565b601482019150819050949350505050565b6000602082019050613d3a600083018461373b565b92915050565b60006020820190508181036000830152613d5a8184613761565b905092915050565b6000602082019050613d7760008301846137ce565b92915050565b60006040820190508181036000830152613d9781846137dd565b90508181036020830152613daa816138ea565b905092915050565b60006040820190508181036000830152613dcc81846137dd565b90508181036020830152613ddf8161392a565b905092915050565b60006040820190508181036000830152613e0181846137dd565b90508181036020830152613e1481613aaa565b905092915050565b60006040820190508181036000830152613e3681846137dd565b90508181036020830152613e4981613aea565b905092915050565b60006040820190508181036000830152613e6b81846137dd565b90508181036020830152613e7e81613b2a565b905092915050565b60006020820190508181036000830152613ea08184613880565b905092915050565b600060e0820190508181036000830152613ec2818a613880565b9050613ed1602083018961373b565b613ede6040830188613c55565b613eeb6060830187613c55565b613ef86080830186613c55565b613f0560a08301856137ce565b613f1260c08301846137ce565b98975050505050505050565b60006040820190508181036000830152613f388185613880565b9050613f476020830184613c55565b9392505050565b60006020820190508181036000830152613f67816138ea565b9050919050565b60006020820190508181036000830152613f878161396a565b9050919050565b60006020820190508181036000830152613fa7816139aa565b9050919050565b60006020820190508181036000830152613fc781613a2a565b9050919050565b60006020820190508181036000830152613fe781613a6a565b9050919050565b6000602082019050818103600083015261400781613aaa565b9050919050565b6000602082019050818103600083015261402781613b6a565b9050919050565b600060208201905081810360008301526140488184613baa565b905092915050565b60006020820190506140656000830184613c55565b92915050565b60006060820190506140806000830186613c55565b818103602083015261409281856137dd565b90506140a160408301846137ce565b949350505050565b60006020820190506140be6000830184613c7b565b92915050565b6000604051905081810181811067ffffffffffffffff821117156140e757600080fd5b8060405250919050565b600067ffffffffffffffff82111561410857600080fd5b601f19601f8301169050602081019050919050565b600067ffffffffffffffff82111561413457600080fd5b601f19601f8301169050602081019050919050565b6000819050602082019050919050565b600081519050919050565b600081519050919050565b600081519050919050565b6000602082019050919050565b600082825260208201905092915050565b600082825260208201905092915050565b600081905092915050565b600082825260208201905092915050565b600082825260208201905092915050565b600081905092915050565b60006141ec8261421b565b9050919050565b60006141fe8261421b565b9050919050565b60008115159050919050565b6000819050919050565b600073ffffffffffffffffffffffffffffffffffffffff82169050919050565b6000819050919050565b600060ff82169050919050565b82818337600083830152505050565b60005b8381101561427f578082015181840152602081019050614264565b8381111561428e576000848401525b50505050565b600061429f826142b8565b9050919050565b60006142b1826142b8565b9050919050565b60006142c3826142e5565b9050919050565b6000819050919050565b6000601f19601f8301169050919050565b60006c0100000000000000000000000082029050919050565b614307816141e1565b811461431257600080fd5b50565b61431e81614211565b811461432957600080fd5b50565b6143358161423b565b811461434057600080fd5b5056fea2646970667358221220a7082335aab0d987c4ced8e6b1602fe0f57586db21189d1b0085087e55e017fa64736f6c63430007000033",
  "immutableReferences": {},
  "source": "// SPDX-License-Identifier: MIT\r\npragma experimental ABIEncoderV2;\r\npragma solidity >=0.7.0 <0.8.0;\r\nimport \"./TRC21.sol\";\r\nimport \"./SignDocument.sol\";\r\nimport './SafeMath.sol';\r\nimport './Ownable.sol';\r\nimport './CampaignDetail.sol';\r\n\r\ncontract Support is MyTRC21Mintable(\"Adverising2\",\"LBA2\", 0, uint256(0) * uint256(10)**18, uint256(0) * uint256(10)**18), SignDocument, CampaignDetail, AccessControl{\r\n    using SafeMath for uint;\r\n\r\n    /* BEGIN: Document function*/\r\n    function addDocument(bytes memory id) public {\r\n        if(documents[keccak256(id)].isExist){\r\n            emit Add(id, msg.sender, \"Document is Exist\");\r\n            revert(\"Document is Exist\");\r\n        } \r\n        address[] memory sender = new address[](0);\r\n        documents[keccak256(id)] = Document(block.timestamp, abi.encodePacked(block.timestamp, id, msg.sender), sender, true);\r\n        emit Add(id, msg.sender, \"Document Added\");\r\n    }\r\n\r\n    function signDocument(bytes memory id) public {\r\n        if(!documents[keccak256(id)].isExist){\r\n            emit Sign(id, msg.sender, \"Document is not Exist\"); \r\n            revert(\"Document is not Exist\");\r\n        }\r\n        bool checkDulicate = false;\r\n        for(uint i = 0; i < documents[keccak256(id)].signatures.length; i++){\r\n            if(keccak256(abi.encodePacked(documents[keccak256(id)].signatures[i])) == keccak256(abi.encodePacked(msg.sender))){\r\n                checkDulicate = true;\r\n                break;\r\n            }\r\n        }\r\n        if(!checkDulicate){\r\n            documents[keccak256(id)].signatures.push(msg.sender);\r\n            emit Sign(id, msg.sender, \"Document Signed\");\r\n        }\r\n        emit Sign(id, msg.sender, \"Document already Signed\");\r\n    }\r\n    \r\n    function getSignatures(bytes memory id) public view returns (address[] memory) {\r\n        return documents[keccak256(id)].signatures;\r\n    }\r\n\r\n    function checkAdminSigned(bytes memory id) public view returns (bool) {\r\n        for(uint i = 0; i < documents[keccak256(id)].signatures.length; i++){\r\n            if(isRole(documents[keccak256(id)].signatures[i], \"Admin\")){\r\n                return true;\r\n            }\r\n        }\r\n        return false;\r\n    }\r\n    /*END: Document function*/\r\n\r\n    /*BEGIN: Campaign Detail */\r\n    function createCampaign (string memory campaignId, uint totalWithFee, uint totalBudget, uint remainBudget, uint feeCancel) public{\r\n        //check money amount\r\n        require(totalWithFee <= _allowed[msg.sender][address(this)],\"Not Enough Money\");\r\n        //check campaign\r\n        if(!campaigns[campaignId].isExist){\r\n            //send money to server wallet\r\n            _transfer(msg.sender, address(this), totalWithFee);\r\n            _allowed[msg.sender][address(this)].sub(totalWithFee);\r\n            //create campaign\r\n            campaigns[campaignId] = Campaign(campaignId, msg.sender, totalBudget, remainBudget, feeCancel, true, true);\r\n        }\r\n        emit CreateCampaign(msg.sender, campaignId, totalBudget);\r\n    }\r\n\r\n    function checkOutCampaign(string memory campaignId, uint redudant) public onlyAdmin{\r\n        require(campaigns[campaignId].isExist,\"Campaign is not Exist\");\r\n        require(campaigns[campaignId].isActive,\"Campaign is not Active\");\r\n        require(campaigns[campaignId].remainBudget > redudant, \"Redudant is wrong\");\r\n\r\n        transfer(campaigns[campaignId].advertiser, redudant);\r\n        campaigns[campaignId].isActive = false;\r\n        campaigns[campaignId].remainBudget = campaigns[campaignId].remainBudget.sub(redudant);\r\n    }\r\n\r\n    /**\r\n\t * @dev Function to change OwnerOfContract\r\n\t * @param campaignId The string Identifier of Campaign\r\n\t * @param supplier The address of suppiler to transfer money\r\n\t * @param value The value of money to transfer to supplier\r\n\t * @return A boolean that indicates if the operation was successful.\r\n\t */\r\n    function payToSupplier(string memory campaignId, address supplier, uint256 value) public onlyAdmin returns (bool) {\r\n        require(supplier != address(0));\r\n        require(value <= campaigns[campaignId].remainBudget);\r\n\r\n        campaigns[campaignId].remainBudget = campaigns[campaignId].remainBudget.sub(value);\r\n        _transfer(address(this), campaigns[campaignId].advertiser, value);\r\n        return true;\r\n    }\r\n\r\n    /**\r\n\t * @dev Function to change OwnerOfContract\r\n\t * @param campaignId The string Identifier of Campaign\r\n\t */\r\n    function cancelCampaign(string memory campaignId) public onlyUser{\r\n        require(campaigns[campaignId].isExist,\"Campaign is not Exist\");\r\n        require(campaigns[campaignId].isActive,\"Campaign is not Active\");\r\n        require(campaigns[campaignId].advertiser == msg.sender);\r\n\r\n        transfer(campaigns[campaignId].advertiser, \r\n                            campaigns[campaignId].totalBudget.sub(campaigns[campaignId].feeCancel));\r\n\r\n        \r\n        campaigns[campaignId].isActive = false;\r\n        campaigns[campaignId].remainBudget = 0;\r\n    }\r\n\r\n    /**\r\n\t * @dev Function to change OwnerOfContract\r\n\t * @param campaignId The string Identifier of Campaign\r\n\t * @return A Campaign will return if there are campaignId \r\n\t */\r\n    function getCampaignById(string memory campaignId) public view returns (Campaign memory){\r\n        return campaigns[campaignId];\r\n    }\r\n    /*END: Campaign Detail */\r\n\r\n    /*START: MyTRC21Mintable */\r\n\r\n    /**\r\n\t * @dev Function to change OwnerOfContract\r\n\t * @param newOwner The address that will be new Owner.\r\n\t */\r\n    function changeOwner(address newOwner) public onlyOwner{\r\n        _changeIssuer(newOwner);\r\n        _changeOwnerRole(newOwner);\r\n    }\r\n    /**\r\n\t * @dev Function to mint tokens\r\n\t * @param to The address that will receive the minted tokens.\r\n\t * @param value The amount of tokens to mint.\r\n\t * @return A boolean that indicates if the operation was successful.\r\n\t */\r\n\tfunction mint(\r\n\t\taddress to,\r\n\t\tuint256 value\r\n\t)\r\n\tpublic\r\n\tonlyMinter\r\n\treturns (bool)\r\n\t{\r\n\t\t_mint(to, value);\r\n\t\treturn true;\r\n\t}\r\n    /*END: MyTRC21Mintable */\r\n}",
  "sourcePath": "D:/CN9/Capstone/LBAContract.github.io/contracts/Support.sol",
  "compiler": {
    "name": "solc",
    "version": "0.7.0+commit.9e61f92b.Emscripten.clang"
  },
  "schemaVersion": "3.3.3",
  "updatedAt": "2021-03-11T06:01:42.098Z",
  "networkType": "ethereum",
  "devdoc": {
    "kind": "dev",
    "methods": {
      "allowance(address,address)": {
        "details": "Function to check the amount of tokens that an owner allowed to a spender.",
        "params": {
          "owner": "address The address which owns the funds.",
          "spender": "address The address which will spend the funds."
        },
        "returns": {
          "_0": "A uint256 specifying the amount of tokens still available for the spender."
        }
      },
      "approve(address,uint256)": {
        "details": "Approve the passed address to spend the specified amount of tokens on behalf of msg.sender. Beware that changing an allowance with this method brings the risk that someone may use both the old and the new allowance by unfortunate transaction ordering. One possible solution to mitigate this race condition is to first reduce the spender's allowance to 0 and set the desired value afterwards: https://github.com/ethereum/EIPs/issues/20#issuecomment-263524729",
        "params": {
          "spender": "The address which will spend the funds.",
          "value": "The amount of tokens to be spent."
        }
      },
      "balanceOf(address)": {
        "details": "Gets the balance of the specified address.",
        "params": {
          "owner": "The address to query the balance of."
        },
        "returns": {
          "_0": "An uint256 representing the amount owned by the passed address."
        }
      },
      "burn(uint256)": {
        "details": "Function to burn tokens",
        "params": {
          "value": "The amount of tokens to mint."
        },
        "returns": {
          "_0": "A boolean that indicates if the operation was successful."
        }
      },
      "cancelCampaign(string)": {
        "details": "Function to change OwnerOfContract",
        "params": {
          "campaignId": "The string Identifier of Campaign"
        }
      },
      "changeOwner(address)": {
        "details": "Function to change OwnerOfContract",
        "params": {
          "newOwner": "The address that will be new Owner."
        }
      },
      "decimals()": {
        "returns": {
          "_0": "the number of decimals of the token."
        }
      },
      "estimateFee(uint256)": {
        "details": "Estimate transaction fee.",
        "params": {
          "value": "amount tokens sent"
        }
      },
      "getCampaignById(string)": {
        "details": "Function to change OwnerOfContract",
        "params": {
          "campaignId": "The string Identifier of Campaign"
        },
        "returns": {
          "_0": "A Campaign will return if there are campaignId "
        }
      },
      "issuer()": {
        "details": "token's foundation"
      },
      "minFee()": {
        "details": "The amount fee that will be lost when transferring."
      },
      "mint(address,uint256)": {
        "details": "Function to mint tokens",
        "params": {
          "to": "The address that will receive the minted tokens.",
          "value": "The amount of tokens to mint."
        },
        "returns": {
          "_0": "A boolean that indicates if the operation was successful."
        }
      },
      "name()": {
        "returns": {
          "_0": "the name of the token."
        }
      },
      "payToSupplier(string,address,uint256)": {
        "details": "Function to change OwnerOfContract",
        "params": {
          "campaignId": "The string Identifier of Campaign",
          "supplier": "The address of suppiler to transfer money",
          "value": "The value of money to transfer to supplier"
        },
        "returns": {
          "_0": "A boolean that indicates if the operation was successful."
        }
      },
      "symbol()": {
        "returns": {
          "_0": "the symbol of the token."
        }
      },
      "totalSupply()": {
        "details": "Total number of tokens in existence"
      },
      "transfer(address,uint256)": {
        "details": "Transfer token for a specified address",
        "params": {
          "to": "The address to transfer to.",
          "value": "The amount to be transferred."
        }
      },
      "transferFrom(address,address,uint256)": {
        "details": "Transfer tokens from one address to another",
        "params": {
          "from": "address The address which you want to send tokens from",
          "to": "address The address which you want to transfer to",
          "value": "uint256 the amount of tokens to be transferred"
        }
      }
    },
    "version": 1
  },
  "userdoc": {
    "kind": "user",
    "methods": {},
    "version": 1
  }
}