{
  "contractName": "Support",
  "abi": [
    {
      "anonymous": false,
      "inputs": [
        {
          "indexed": false,
          "internalType": "bytes",
          "name": "id",
          "type": "bytes"
        },
        {
          "indexed": true,
          "internalType": "address",
          "name": "from",
          "type": "address"
        },
        {
          "indexed": false,
          "internalType": "string",
          "name": "comment",
          "type": "string"
        }
      ],
      "name": "Add",
      "type": "event"
    },
    {
      "anonymous": false,
      "inputs": [
        {
          "indexed": true,
          "internalType": "address",
          "name": "owner",
          "type": "address"
        },
        {
          "indexed": true,
          "internalType": "address",
          "name": "spender",
          "type": "address"
        },
        {
          "indexed": false,
          "internalType": "uint256",
          "name": "value",
          "type": "uint256"
        }
      ],
      "name": "Approval",
      "type": "event"
    },
    {
      "anonymous": false,
      "inputs": [
        {
          "indexed": true,
          "internalType": "address",
          "name": "owner",
          "type": "address"
        },
        {
          "indexed": false,
          "internalType": "string",
          "name": "campaignId",
          "type": "string"
        },
        {
          "indexed": false,
          "internalType": "uint256",
          "name": "value",
          "type": "uint256"
        }
      ],
      "name": "AuthorityCampaign",
      "type": "event"
    },
    {
      "anonymous": false,
      "inputs": [
        {
          "indexed": true,
          "internalType": "address",
          "name": "owner",
          "type": "address"
        },
        {
          "indexed": false,
          "internalType": "string",
          "name": "campaignId",
          "type": "string"
        },
        {
          "indexed": false,
          "internalType": "uint256",
          "name": "value",
          "type": "uint256"
        }
      ],
      "name": "CreateCampaign",
      "type": "event"
    },
    {
      "anonymous": false,
      "inputs": [
        {
          "indexed": false,
          "internalType": "bytes",
          "name": "id",
          "type": "bytes"
        },
        {
          "indexed": true,
          "internalType": "address",
          "name": "from",
          "type": "address"
        },
        {
          "indexed": false,
          "internalType": "string",
          "name": "comment",
          "type": "string"
        }
      ],
      "name": "Delete",
      "type": "event"
    },
    {
      "anonymous": false,
      "inputs": [
        {
          "indexed": true,
          "internalType": "address",
          "name": "from",
          "type": "address"
        },
        {
          "indexed": true,
          "internalType": "address",
          "name": "to",
          "type": "address"
        },
        {
          "indexed": true,
          "internalType": "address",
          "name": "issuer",
          "type": "address"
        },
        {
          "indexed": false,
          "internalType": "uint256",
          "name": "value",
          "type": "uint256"
        }
      ],
      "name": "Fee",
      "type": "event"
    },
    {
      "anonymous": false,
      "inputs": [
        {
          "indexed": false,
          "internalType": "bytes",
          "name": "id",
          "type": "bytes"
        },
        {
          "indexed": true,
          "internalType": "address",
          "name": "from",
          "type": "address"
        },
        {
          "indexed": false,
          "internalType": "string",
          "name": "comment",
          "type": "string"
        }
      ],
      "name": "Sign",
      "type": "event"
    },
    {
      "anonymous": false,
      "inputs": [
        {
          "indexed": true,
          "internalType": "address",
          "name": "from",
          "type": "address"
        },
        {
          "indexed": true,
          "internalType": "address",
          "name": "to",
          "type": "address"
        },
        {
          "indexed": false,
          "internalType": "uint256",
          "name": "value",
          "type": "uint256"
        }
      ],
      "name": "Transfer",
      "type": "event"
    },
    {
      "inputs": [
        {
          "internalType": "address",
          "name": "account",
          "type": "address"
        }
      ],
      "name": "_changeOwnerRole",
      "outputs": [],
      "stateMutability": "nonpayable",
      "type": "function"
    },
    {
      "inputs": [
        {
          "internalType": "address",
          "name": "account",
          "type": "address"
        },
        {
          "internalType": "string",
          "name": "roleType",
          "type": "string"
        }
      ],
      "name": "add",
      "outputs": [],
      "stateMutability": "nonpayable",
      "type": "function"
    },
    {
      "inputs": [
        {
          "internalType": "address",
          "name": "owner",
          "type": "address"
        },
        {
          "internalType": "address",
          "name": "spender",
          "type": "address"
        }
      ],
      "name": "allowance",
      "outputs": [
        {
          "internalType": "uint256",
          "name": "",
          "type": "uint256"
        }
      ],
      "stateMutability": "view",
      "type": "function",
      "constant": true
    },
    {
      "inputs": [
        {
          "internalType": "address",
          "name": "spender",
          "type": "address"
        },
        {
          "internalType": "uint256",
          "name": "value",
          "type": "uint256"
        }
      ],
      "name": "approve",
      "outputs": [
        {
          "internalType": "bool",
          "name": "",
          "type": "bool"
        }
      ],
      "stateMutability": "nonpayable",
      "type": "function"
    },
    {
      "inputs": [
        {
          "internalType": "address",
          "name": "owner",
          "type": "address"
        }
      ],
      "name": "balanceOf",
      "outputs": [
        {
          "internalType": "uint256",
          "name": "",
          "type": "uint256"
        }
      ],
      "stateMutability": "view",
      "type": "function",
      "constant": true
    },
    {
      "inputs": [
        {
          "internalType": "uint256",
          "name": "value",
          "type": "uint256"
        }
      ],
      "name": "burn",
      "outputs": [
        {
          "internalType": "bool",
          "name": "",
          "type": "bool"
        }
      ],
      "stateMutability": "nonpayable",
      "type": "function"
    },
    {
      "inputs": [
        {
          "internalType": "string",
          "name": "",
          "type": "string"
        }
      ],
      "name": "campaigns",
      "outputs": [
        {
          "internalType": "string",
          "name": "campaignId",
          "type": "string"
        },
        {
          "internalType": "address",
          "name": "advertiser",
          "type": "address"
        },
        {
          "internalType": "uint256",
          "name": "totalBudget",
          "type": "uint256"
        },
        {
          "internalType": "uint256",
          "name": "remainBudget",
          "type": "uint256"
        },
        {
          "internalType": "uint256",
          "name": "feeCancel",
          "type": "uint256"
        },
        {
          "internalType": "bool",
          "name": "isActive",
          "type": "bool"
        },
        {
          "internalType": "bool",
          "name": "isExist",
          "type": "bool"
        }
      ],
      "stateMutability": "view",
      "type": "function",
      "constant": true
    },
    {
      "inputs": [
        {
          "internalType": "string",
          "name": "",
          "type": "string"
        },
        {
          "internalType": "string",
          "name": "",
          "type": "string"
        }
      ],
      "name": "checkPayed",
      "outputs": [
        {
          "internalType": "bool",
          "name": "",
          "type": "bool"
        }
      ],
      "stateMutability": "view",
      "type": "function",
      "constant": true
    },
    {
      "inputs": [],
      "name": "decimals",
      "outputs": [
        {
          "internalType": "uint8",
          "name": "",
          "type": "uint8"
        }
      ],
      "stateMutability": "view",
      "type": "function",
      "constant": true
    },
    {
      "inputs": [
        {
          "internalType": "bytes32",
          "name": "",
          "type": "bytes32"
        }
      ],
      "name": "documents",
      "outputs": [
        {
          "internalType": "uint256",
          "name": "timestamp",
          "type": "uint256"
        },
        {
          "internalType": "bytes",
          "name": "ipfs_hash",
          "type": "bytes"
        },
        {
          "internalType": "address",
          "name": "owner",
          "type": "address"
        },
        {
          "internalType": "bool",
          "name": "isExist",
          "type": "bool"
        }
      ],
      "stateMutability": "view",
      "type": "function",
      "constant": true
    },
    {
      "inputs": [
        {
          "internalType": "uint256",
          "name": "value",
          "type": "uint256"
        }
      ],
      "name": "estimateFee",
      "outputs": [
        {
          "internalType": "uint256",
          "name": "",
          "type": "uint256"
        }
      ],
      "stateMutability": "view",
      "type": "function",
      "constant": true
    },
    {
      "inputs": [
        {
          "internalType": "address",
          "name": "account",
          "type": "address"
        }
      ],
      "name": "isOwner",
      "outputs": [
        {
          "internalType": "bool",
          "name": "",
          "type": "bool"
        }
      ],
      "stateMutability": "view",
      "type": "function",
      "constant": true
    },
    {
      "inputs": [
        {
          "internalType": "address",
          "name": "account",
          "type": "address"
        },
        {
          "internalType": "string",
          "name": "roleType",
          "type": "string"
        }
      ],
      "name": "isRole",
      "outputs": [
        {
          "internalType": "bool",
          "name": "",
          "type": "bool"
        }
      ],
      "stateMutability": "view",
      "type": "function",
      "constant": true
    },
    {
      "inputs": [],
      "name": "issuer",
      "outputs": [
        {
          "internalType": "address",
          "name": "",
          "type": "address"
        }
      ],
      "stateMutability": "view",
      "type": "function",
      "constant": true
    },
    {
      "inputs": [],
      "name": "minFee",
      "outputs": [
        {
          "internalType": "uint256",
          "name": "",
          "type": "uint256"
        }
      ],
      "stateMutability": "view",
      "type": "function",
      "constant": true
    },
    {
      "inputs": [],
      "name": "name",
      "outputs": [
        {
          "internalType": "string",
          "name": "",
          "type": "string"
        }
      ],
      "stateMutability": "view",
      "type": "function",
      "constant": true
    },
    {
      "inputs": [
        {
          "internalType": "address",
          "name": "account",
          "type": "address"
        },
        {
          "internalType": "string",
          "name": "roleType",
          "type": "string"
        }
      ],
      "name": "remove",
      "outputs": [],
      "stateMutability": "nonpayable",
      "type": "function"
    },
    {
      "inputs": [
        {
          "internalType": "uint256",
          "name": "value",
          "type": "uint256"
        }
      ],
      "name": "setMinFee",
      "outputs": [],
      "stateMutability": "nonpayable",
      "type": "function"
    },
    {
      "inputs": [],
      "name": "symbol",
      "outputs": [
        {
          "internalType": "string",
          "name": "",
          "type": "string"
        }
      ],
      "stateMutability": "view",
      "type": "function",
      "constant": true
    },
    {
      "inputs": [],
      "name": "totalSupply",
      "outputs": [
        {
          "internalType": "uint256",
          "name": "",
          "type": "uint256"
        }
      ],
      "stateMutability": "view",
      "type": "function",
      "constant": true
    },
    {
      "inputs": [
        {
          "internalType": "address",
          "name": "to",
          "type": "address"
        },
        {
          "internalType": "uint256",
          "name": "value",
          "type": "uint256"
        }
      ],
      "name": "transfer",
      "outputs": [
        {
          "internalType": "bool",
          "name": "",
          "type": "bool"
        }
      ],
      "stateMutability": "nonpayable",
      "type": "function"
    },
    {
      "inputs": [
        {
          "internalType": "address",
          "name": "from",
          "type": "address"
        },
        {
          "internalType": "address",
          "name": "to",
          "type": "address"
        },
        {
          "internalType": "uint256",
          "name": "value",
          "type": "uint256"
        }
      ],
      "name": "transferFrom",
      "outputs": [
        {
          "internalType": "bool",
          "name": "",
          "type": "bool"
        }
      ],
      "stateMutability": "nonpayable",
      "type": "function"
    },
    {
      "inputs": [
        {
          "internalType": "bytes",
          "name": "id",
          "type": "bytes"
        }
      ],
      "name": "addDocument",
      "outputs": [],
      "stateMutability": "nonpayable",
      "type": "function"
    },
    {
      "inputs": [
        {
          "internalType": "bytes",
          "name": "id",
          "type": "bytes"
        }
      ],
      "name": "deleteDocument",
      "outputs": [],
      "stateMutability": "nonpayable",
      "type": "function"
    },
    {
      "inputs": [
        {
          "internalType": "bytes",
          "name": "id",
          "type": "bytes"
        }
      ],
      "name": "signDocument",
      "outputs": [],
      "stateMutability": "nonpayable",
      "type": "function"
    },
    {
      "inputs": [
        {
          "internalType": "bytes",
          "name": "id",
          "type": "bytes"
        }
      ],
      "name": "getSignatures",
      "outputs": [
        {
          "internalType": "address[]",
          "name": "",
          "type": "address[]"
        }
      ],
      "stateMutability": "view",
      "type": "function",
      "constant": true
    },
    {
      "inputs": [
        {
          "internalType": "bytes",
          "name": "id",
          "type": "bytes"
        }
      ],
      "name": "checkAdminSigned",
      "outputs": [
        {
          "internalType": "bool",
          "name": "",
          "type": "bool"
        }
      ],
      "stateMutability": "view",
      "type": "function",
      "constant": true
    },
    {
      "inputs": [
        {
          "internalType": "string",
          "name": "campaignId",
          "type": "string"
        },
        {
          "internalType": "uint256",
          "name": "totalWithFee",
          "type": "uint256"
        },
        {
          "internalType": "uint256",
          "name": "totalBudget",
          "type": "uint256"
        },
        {
          "internalType": "uint256",
          "name": "remainBudget",
          "type": "uint256"
        },
        {
          "internalType": "uint256",
          "name": "feeCancel",
          "type": "uint256"
        }
      ],
      "name": "createCampaign",
      "outputs": [],
      "stateMutability": "nonpayable",
      "type": "function"
    },
    {
      "inputs": [
        {
          "internalType": "string",
          "name": "campaignId",
          "type": "string"
        },
        {
          "internalType": "uint256",
          "name": "redudant",
          "type": "uint256"
        }
      ],
      "name": "checkOutCampaign",
      "outputs": [],
      "stateMutability": "nonpayable",
      "type": "function"
    },
    {
      "inputs": [
        {
          "internalType": "string",
          "name": "campaignId",
          "type": "string"
        },
        {
          "internalType": "string",
          "name": "paymentKey",
          "type": "string"
        },
        {
          "internalType": "address",
          "name": "supplier",
          "type": "address"
        },
        {
          "internalType": "uint256",
          "name": "value",
          "type": "uint256"
        }
      ],
      "name": "payToSupplier",
      "outputs": [
        {
          "internalType": "bool",
          "name": "",
          "type": "bool"
        }
      ],
      "stateMutability": "nonpayable",
      "type": "function"
    },
    {
      "inputs": [
        {
          "internalType": "string",
          "name": "campaignId",
          "type": "string"
        }
      ],
      "name": "cancelCampaign",
      "outputs": [],
      "stateMutability": "nonpayable",
      "type": "function"
    },
    {
      "inputs": [
        {
          "internalType": "string",
          "name": "campaignId",
          "type": "string"
        }
      ],
      "name": "getCampaignById",
      "outputs": [
        {
          "components": [
            {
              "internalType": "string",
              "name": "campaignId",
              "type": "string"
            },
            {
              "internalType": "address",
              "name": "advertiser",
              "type": "address"
            },
            {
              "internalType": "uint256",
              "name": "totalBudget",
              "type": "uint256"
            },
            {
              "internalType": "uint256",
              "name": "remainBudget",
              "type": "uint256"
            },
            {
              "internalType": "uint256",
              "name": "feeCancel",
              "type": "uint256"
            },
            {
              "internalType": "bool",
              "name": "isActive",
              "type": "bool"
            },
            {
              "internalType": "bool",
              "name": "isExist",
              "type": "bool"
            }
          ],
          "internalType": "struct CampaignDetail.Campaign",
          "name": "",
          "type": "tuple"
        }
      ],
      "stateMutability": "view",
      "type": "function",
      "constant": true
    },
    {
      "inputs": [
        {
          "internalType": "address",
          "name": "newOwner",
          "type": "address"
        }
      ],
      "name": "changeOwner",
      "outputs": [],
      "stateMutability": "nonpayable",
      "type": "function"
    },
    {
      "inputs": [
        {
          "internalType": "address",
          "name": "to",
          "type": "address"
        },
        {
          "internalType": "uint256",
          "name": "value",
          "type": "uint256"
        }
      ],
      "name": "mint",
      "outputs": [
        {
          "internalType": "bool",
          "name": "",
          "type": "bool"
        }
      ],
      "stateMutability": "nonpayable",
      "type": "function"
    }
  ],
  "bytecode": "0x60806040523480156200001157600080fd5b506040518060400160405280600b81526020017f41647665726973696e67320000000000000000000000000000000000000000008152506040518060400160405280600481526020017f4c4241320000000000000000000000000000000000000000000000000000000081525060006012600a0a6000026012600a0a6000028460059080519060200190620000a89291906200059d565b508360069080519060200190620000c19291906200059d565b5082600760006101000a81548160ff021916908360ff160217905550620000f830836200037f640100000000026401000000009004565b6200011233620004f4640100000000026401000000009004565b6200012c8162000573640100000000026401000000009004565b505050505033600b60000160006101000a81548173ffffffffffffffffffffffffffffffffffffffff021916908373ffffffffffffffffffffffffffffffffffffffff1602179055506001600b6001016040516200018a9062000748565b908152602001604051809103902060003373ffffffffffffffffffffffffffffffffffffffff1673ffffffffffffffffffffffffffffffffffffffff16815260200190815260200160002060006101000a81548160ff0219169083151502179055506001600b60010160405162000201906200071a565b908152602001604051809103902060003373ffffffffffffffffffffffffffffffffffffffff1673ffffffffffffffffffffffffffffffffffffffff16815260200190815260200160002060006101000a81548160ff0219169083151502179055506001600b600101604051620002789062000731565b9081526020016040518091039020600073591d6d73aa1ee46202f55443ab166d8b4b1403e073ffffffffffffffffffffffffffffffffffffffff1673ffffffffffffffffffffffffffffffffffffffff16815260200190815260200160002060006101000a81548160ff0219169083151502179055506001600b60010160405162000303906200071a565b9081526020016040518091039020600073591d6d73aa1ee46202f55443ab166d8b4b1403e073ffffffffffffffffffffffffffffffffffffffff1673ffffffffffffffffffffffffffffffffffffffff16815260200190815260200160002060006101000a81548160ff02191690831515021790555062000791565b600073ffffffffffffffffffffffffffffffffffffffff168273ffffffffffffffffffffffffffffffffffffffff161415620003ba57600080fd5b620003df816004546200057d6401000000000262002e8f179091906401000000009004565b60048190555062000446816000808573ffffffffffffffffffffffffffffffffffffffff1673ffffffffffffffffffffffffffffffffffffffff168152602001908152602001600020546200057d6401000000000262002e8f179091906401000000009004565b6000808473ffffffffffffffffffffffffffffffffffffffff1673ffffffffffffffffffffffffffffffffffffffff168152602001908152602001600020819055508173ffffffffffffffffffffffffffffffffffffffff16600073ffffffffffffffffffffffffffffffffffffffff167fddf252ad1be2c89b69c2b068fc378daa952ba7f163c4a11628f55a4df523b3ef83604051620004e891906200075f565b60405180910390a35050565b600073ffffffffffffffffffffffffffffffffffffffff168173ffffffffffffffffffffffffffffffffffffffff1614156200052f57600080fd5b80600260006101000a81548173ffffffffffffffffffffffffffffffffffffffff021916908373ffffffffffffffffffffffffffffffffffffffff16021790555050565b8060018190555050565b6000808284019050838110156200059357600080fd5b8091505092915050565b828054600181600116156101000203166002900490600052602060002090601f016020900481019282601f10620005e057805160ff191683800117855562000611565b8280016001018555821562000611579182015b8281111562000610578251825591602001919060010190620005f3565b5b50905062000620919062000624565b5090565b5b808211156200063f57600081600090555060010162000625565b5090565b6000620006526006836200077c565b91507f4d696e74657200000000000000000000000000000000000000000000000000006000830152600682019050919050565b6000620006946006836200077c565b91507f53657276657200000000000000000000000000000000000000000000000000006000830152600682019050919050565b6000620006d66005836200077c565b91507f41646d696e0000000000000000000000000000000000000000000000000000006000830152600582019050919050565b620007148162000787565b82525050565b6000620007278262000643565b9150819050919050565b60006200073e8262000685565b9150819050919050565b60006200075582620006c7565b9150819050919050565b600060208201905062000776600083018462000709565b92915050565b600081905092915050565b6000819050919050565b614ab080620007a16000396000f3fe608060405234801561001057600080fd5b5060043610610223576000357c01000000000000000000000000000000000000000000000000000000009004806336d6da5511610137578063a6f9dae1116100ca578063c79de09b11610099578063c79de09b14610695578063dd62ed3e146106b1578063e26034cd146106e1578063e35d66a814610711578063e631ce991461072d57610223565b8063a6f9dae114610611578063a9059cbb1461062d578063be7e2a0b1461065d578063c63c5bd11461067957610223565b806349209fc81161010657806349209fc8146105775780636b45b4e31461059357806370a08231146105c357806395d89b41146105f357610223565b806336d6da55146104cb57806340c10f19146104e757806342966c6814610517578063475a11781461054757610223565b8063228bc0a9116101ba578063267945ff11610189578063267945ff146104125780632b2805db1461042e5780632f54bf6e14610461578063313ce5671461049157806331ac9920146104af57610223565b8063228bc0a91461037857806323b872dd1461039457806323e8f4bb146103c457806324ec7590146103f457610223565b806318160ddd116101f657806318160ddd146102d65780631d143848146102f45780631d39e50914610312578063219782f71461034857610223565b806306fdde0314610228578063070eb15714610246578063095ea7b314610276578063127e8e4d146102a6575b600080fd5b610230610749565b60405161023d91906145af565b60405180910390f35b610260600480360381019061025b9190613ae0565b6107eb565b60405161026d919061448b565b60405180910390f35b610290600480360381019061028b9190613b34565b61080b565b60405161029d919061448b565b60405180910390f35b6102c060048036038101906102bb9190613dfd565b6109b2565b6040516102cd9190614779565b60405180910390f35b6102de6109e3565b6040516102eb9190614779565b60405180910390f35b6102fc6109ed565b604051610309919061444e565b60405180910390f35b61032c60048036038101906103279190613bda565b610a17565b60405161033f97969594939291906145d1565b60405180910390f35b610362600480360381019061035d9190613c87565b610b41565b60405161036f919061448b565b60405180910390f35b610392600480360381019061038d9190613b99565b610d49565b005b6103ae60048036038101906103a99190613a91565b611108565b6040516103bb919061448b565b60405180910390f35b6103de60048036038101906103d99190613c1b565b611446565b6040516103eb919061448b565b60405180910390f35b6103fc6114a1565b6040516104099190614779565b60405180910390f35b61042c60048036038101906104279190613a2c565b6114ab565b005b61044860048036038101906104439190613b70565b611630565b6040516104589493929190614794565b60405180910390f35b61047b60048036038101906104769190613a2c565b611725565b604051610488919061448b565b60405180910390f35b610499611782565b6040516104a691906147e0565b60405180910390f35b6104c960048036038101906104c49190613dfd565b611799565b005b6104e560048036038101906104e09190613ae0565b6117e4565b005b61050160048036038101906104fc9190613b34565b6118ab565b60405161050e919061448b565b60405180910390f35b610531600480360381019061052c9190613dfd565b611909565b60405161053e919061448b565b60405180910390f35b610561600480360381019061055c9190613b99565b61191e565b60405161056e919061448b565b60405180910390f35b610591600480360381019061058c9190613ae0565b611a06565b005b6105ad60048036038101906105a89190613b99565b611acd565b6040516105ba9190614469565b60405180910390f35b6105dd60048036038101906105d89190613a2c565b611b78565b6040516105ea9190614779565b60405180910390f35b6105fb611bc0565b60405161060891906145af565b60405180910390f35b61062b60048036038101906106269190613a2c565b611c62565b005b61064760048036038101906106429190613b34565b611c89565b604051610654919061448b565b60405180910390f35b61067760048036038101906106729190613b99565b611ddb565b005b610693600480360381019061068e9190613b99565b612057565b005b6106af60048036038101906106aa9190613d6e565b6123bf565b005b6106cb60048036038101906106c69190613a55565b6126d6565b6040516106d89190614779565b60405180910390f35b6106fb60048036038101906106f69190613bda565b61275d565b6040516107089190614757565b60405180910390f35b61072b60048036038101906107269190613bda565b6128e1565b005b61074760048036038101906107429190613d1a565b612c25565b005b606060058054600181600116156101000203166002900480601f0160208091040260200160405190810160405280929190818152602001828054600181600116156101000203166002900480156107e15780601f106107b6576101008083540402835291602001916107e1565b820191906000526020600020905b8154815290600101906020018083116107c457829003601f168201915b5050505050905090565b60006108038383600b612eae9092919063ffffffff16565b905092915050565b60008073ffffffffffffffffffffffffffffffffffffffff168373ffffffffffffffffffffffffffffffffffffffff16141561084657600080fd5b6001546000803373ffffffffffffffffffffffffffffffffffffffff1673ffffffffffffffffffffffffffffffffffffffff16815260200190815260200160002054101561089357600080fd5b81600360003373ffffffffffffffffffffffffffffffffffffffff1673ffffffffffffffffffffffffffffffffffffffff16815260200190815260200160002060008573ffffffffffffffffffffffffffffffffffffffff1673ffffffffffffffffffffffffffffffffffffffff1681526020019081526020016000208190555061094333600260009054906101000a900473ffffffffffffffffffffffffffffffffffffffff16600154612f5d565b8273ffffffffffffffffffffffffffffffffffffffff163373ffffffffffffffffffffffffffffffffffffffff167f8c5be1e5ebec7d5bd14f71427d1e84f3dd0314c0f7b2291e5b200ac8c7c3b925846040516109a09190614779565b60405180910390a36001905092915050565b60006109dc6001546109ce6000856131a890919063ffffffff16565b612e8f90919063ffffffff16565b9050919050565b6000600454905090565b6000600260009054906101000a900473ffffffffffffffffffffffffffffffffffffffff16905090565b600981805160208101820180518482526020830160208501208183528095505050505050600091509050806000018054600181600116156101000203166002900480601f016020809104026020016040519081016040528092919081815260200182805460018160011615610100020316600290048015610ad95780601f10610aae57610100808354040283529160200191610ad9565b820191906000526020600020905b815481529060010190602001808311610abc57829003601f168201915b5050505050908060010160009054906101000a900473ffffffffffffffffffffffffffffffffffffffff16908060020154908060030154908060040154908060050160009054906101000a900460ff16908060050160019054906101000a900460ff16905087565b6000610b82336040518060400160405280600681526020017f53657276657200000000000000000000000000000000000000000000000000008152506107eb565b610b8b57600080fd5b600073ffffffffffffffffffffffffffffffffffffffff168373ffffffffffffffffffffffffffffffffffffffff161415610bc557600080fd5b600985604051610bd591906143e9565b908152602001604051809103902060030154821115610bf357600080fd5b600a85604051610c0391906143e9565b908152602001604051809103902084604051610c1f91906143e9565b908152602001604051809103902060009054906101000a900460ff1615610c4557600080fd5b610c7982600987604051610c5991906143e9565b9081526020016040518091039020600301546131e290919063ffffffff16565b600986604051610c8991906143e9565b908152602001604051809103902060030181905550610cea30600987604051610cb291906143e9565b908152602001604051809103902060010160009054906101000a900473ffffffffffffffffffffffffffffffffffffffff1684612f5d565b6001600a86604051610cfc91906143e9565b908152602001604051809103902085604051610d1891906143e9565b908152602001604051809103902060006101000a81548160ff02191690831515021790555060019050949350505050565b600860008280519060200120815260200190815260200160002060050160009054906101000a900460ff1615610e02573373ffffffffffffffffffffffffffffffffffffffff167fce62159ff3c25a8e61a8bc74b520c1c33ff5acc534e8af236f3b5a587b050b0582604051610dbf9190614510565b60405180910390a26040517f08c379a0000000000000000000000000000000000000000000000000000000008152600401610df990614717565b60405180910390fd5b6060600067ffffffffffffffff81118015610e1c57600080fd5b50604051908082528060200260200182016040528015610e4b5781602001602082028036833780820191505090505b5090506060600067ffffffffffffffff81118015610e6857600080fd5b50604051908082528060200260200182016040528015610e975781602001602082028036833780820191505090505b509050600160086000858051906020012081526020019081526020016000206004018054905010610f67576008600084805190602001208152602001908152602001600020600401805480602002602001604051908101604052809291908181526020018280548015610f5f57602002820191906000526020600020905b8160009054906101000a900473ffffffffffffffffffffffffffffffffffffffff1673ffffffffffffffffffffffffffffffffffffffff1681526020019060010190808311610f15575b505050505090505b6040518060c00160405280428152602001428533604051602001610f8d93929190614415565b60405160208183030381529060405281526020013373ffffffffffffffffffffffffffffffffffffffff16815260200183815260200182815260200160011515815250600860008580519060200120815260200190815260200160002060008201518160000155602082015181600101908051906020019061101092919061370c565b5060408201518160020160006101000a81548173ffffffffffffffffffffffffffffffffffffffff021916908373ffffffffffffffffffffffffffffffffffffffff160217905550606082015181600301908051906020019061107492919061378c565b50608082015181600401908051906020019061109192919061378c565b5060a08201518160050160006101000a81548160ff0219169083151502179055509050503373ffffffffffffffffffffffffffffffffffffffff167fce62159ff3c25a8e61a8bc74b520c1c33ff5acc534e8af236f3b5a587b050b05846040516110fb91906144db565b60405180910390a2505050565b60008061112060015484612e8f90919063ffffffff16565b9050600073ffffffffffffffffffffffffffffffffffffffff168473ffffffffffffffffffffffffffffffffffffffff161415611192576040517f08c379a0000000000000000000000000000000000000000000000000000000008152600401611189906146f7565b60405180910390fd5b600360008673ffffffffffffffffffffffffffffffffffffffff1673ffffffffffffffffffffffffffffffffffffffff16815260200190815260200160002060003373ffffffffffffffffffffffffffffffffffffffff1673ffffffffffffffffffffffffffffffffffffffff16815260200190815260200160002054811115611251576040517f08c379a0000000000000000000000000000000000000000000000000000000008152600401611248906146d7565b60405180910390fd5b6112e081600360008873ffffffffffffffffffffffffffffffffffffffff1673ffffffffffffffffffffffffffffffffffffffff16815260200190815260200160002060003373ffffffffffffffffffffffffffffffffffffffff1673ffffffffffffffffffffffffffffffffffffffff168152602001908152602001600020546131e290919063ffffffff16565b600360008773ffffffffffffffffffffffffffffffffffffffff1673ffffffffffffffffffffffffffffffffffffffff16815260200190815260200160002060003373ffffffffffffffffffffffffffffffffffffffff1673ffffffffffffffffffffffffffffffffffffffff1681526020019081526020016000208190555061136b858585612f5d565b61139a85600260009054906101000a900473ffffffffffffffffffffffffffffffffffffffff16600154612f5d565b600260009054906101000a900473ffffffffffffffffffffffffffffffffffffffff1673ffffffffffffffffffffffffffffffffffffffff168473ffffffffffffffffffffffffffffffffffffffff163373ffffffffffffffffffffffffffffffffffffffff167ffcf5b3276434181e3c48bd3fe569b8939808f11e845d4b963693b9d7dbd6dd996001546040516114329190614779565b60405180910390a460019150509392505050565b600a82805160208101820180518482526020830160208501208183528095505050505050818051602081018201805184825260208301602085012081835280955050505050506000915091509054906101000a900460ff1681565b6000600154905090565b6114b433611725565b6114bd57600080fd5b80600b60000160006101000a81548173ffffffffffffffffffffffffffffffffffffffff021916908373ffffffffffffffffffffffffffffffffffffffff16021790555061154c816040518060400160405280600681526020017f4d696e7465720000000000000000000000000000000000000000000000000000815250600b6132029092919063ffffffff16565b611597816040518060400160405280600581526020017f41646d696e000000000000000000000000000000000000000000000000000000815250600b6132029092919063ffffffff16565b6115e2336040518060400160405280600681526020017f4d696e7465720000000000000000000000000000000000000000000000000000815250600b6132cc9092919063ffffffff16565b61162d336040518060400160405280600581526020017f41646d696e000000000000000000000000000000000000000000000000000000815250600b6132cc9092919063ffffffff16565b50565b6008602052806000526040600020600091509050806000015490806001018054600181600116156101000203166002900480601f0160208091040260200160405190810160405280929190818152602001828054600181600116156101000203166002900480156116e25780601f106116b7576101008083540402835291602001916116e2565b820191906000526020600020905b8154815290600101906020018083116116c557829003601f168201915b5050505050908060020160009054906101000a900473ffffffffffffffffffffffffffffffffffffffff16908060050160009054906101000a900460ff16905084565b6000600b60000160009054906101000a900473ffffffffffffffffffffffffffffffffffffffff1673ffffffffffffffffffffffffffffffffffffffff168273ffffffffffffffffffffffffffffffffffffffff16149050919050565b6000600760009054906101000a900460ff16905090565b6117a16109ed565b73ffffffffffffffffffffffffffffffffffffffff163373ffffffffffffffffffffffffffffffffffffffff16146117d857600080fd5b6117e181613395565b50565b611823336040518060400160405280600581526020017f41646d696e0000000000000000000000000000000000000000000000000000008152506107eb565b61182c57600080fd5b60405160200161183b90614400565b604051602081830303815290604052805190602001208160405160200161186291906143e9565b6040516020818303038152906040528051906020012014156118915761188733611725565b61189057600080fd5b5b6118a78282600b6132029092919063ffffffff16565b5050565b60006118ec336040518060400160405280600681526020017f4d696e74657200000000000000000000000000000000000000000000000000008152506107eb565b6118f557600080fd5b6118ff838361339f565b6001905092915050565b600061191533836134f1565b60019050919050565b600080600090505b6008600084805190602001208152602001908152602001600020600301805490508110156119fb576119df6008600085805190602001208152602001908152602001600020600301828154811061197957fe5b9060005260206000200160009054906101000a900473ffffffffffffffffffffffffffffffffffffffff166040518060400160405280600581526020017f41646d696e0000000000000000000000000000000000000000000000000000008152506107eb565b156119ee576001915050611a01565b8080600101915050611926565b50600090505b919050565b611a45336040518060400160405280600581526020017f41646d696e0000000000000000000000000000000000000000000000000000008152506107eb565b611a4e57600080fd5b604051602001611a5d90614400565b6040516020818303038152906040528051906020012081604051602001611a8491906143e9565b604051602081830303815290604052805190602001201415611ab357611aa933611725565b611ab257600080fd5b5b611ac98282600b6132cc9092919063ffffffff16565b5050565b60606008600083805190602001208152602001908152602001600020600301805480602002602001604051908101604052809291908181526020018280548015611b6c57602002820191906000526020600020905b8160009054906101000a900473ffffffffffffffffffffffffffffffffffffffff1673ffffffffffffffffffffffffffffffffffffffff1681526020019060010190808311611b22575b50505050509050919050565b60008060008373ffffffffffffffffffffffffffffffffffffffff1673ffffffffffffffffffffffffffffffffffffffff168152602001908152602001600020549050919050565b606060068054600181600116156101000203166002900480601f016020809104026020016040519081016040528092919081815260200182805460018160011615610100020316600290048015611c585780601f10611c2d57610100808354040283529160200191611c58565b820191906000526020600020905b815481529060010190602001808311611c3b57829003601f168201915b5050505050905090565b611c6b33611725565b611c7457600080fd5b611c7d8161368e565b611c86816114ab565b50565b600080611ca160015484612e8f90919063ffffffff16565b9050600073ffffffffffffffffffffffffffffffffffffffff168473ffffffffffffffffffffffffffffffffffffffff161415611cdd57600080fd5b80831115611cea57600080fd5b611cf5338585612f5d565b60006001541115611dd057611d2f33600260009054906101000a900473ffffffffffffffffffffffffffffffffffffffff16600154612f5d565b600260009054906101000a900473ffffffffffffffffffffffffffffffffffffffff1673ffffffffffffffffffffffffffffffffffffffff168473ffffffffffffffffffffffffffffffffffffffff163373ffffffffffffffffffffffffffffffffffffffff167ffcf5b3276434181e3c48bd3fe569b8939808f11e845d4b963693b9d7dbd6dd99600154604051611dc79190614779565b60405180910390a45b600191505092915050565b600860008280519060200120815260200190815260200160002060050160009054906101000a900460ff16156120545733604051602001611e1c91906143ce565b60405160208183030381529060405280519060200120600860008380519060200120815260200190815260200160002060020160009054906101000a900473ffffffffffffffffffffffffffffffffffffffff16604051602001611e8091906143b3565b604051602081830303815290604052805190602001201480611edd5750611edc336040518060400160405280600581526020017f41646d696e0000000000000000000000000000000000000000000000000000008152506107eb565b5b15612053576060600067ffffffffffffffff81118015611efc57600080fd5b50604051908082528060200260200182016040528015611f2b5781602001602082028036833780820191505090505b5090508060086000848051906020012081526020019081526020016000206003019080519060200190611f5f92919061378c565b506008600083805190602001208152602001908152602001600020600401600860008480519060200120815260200190815260200160002060020160009054906101000a900473ffffffffffffffffffffffffffffffffffffffff169080600181540180825580915050600190039060005260206000200160009091909190916101000a81548173ffffffffffffffffffffffffffffffffffffffff021916908373ffffffffffffffffffffffffffffffffffffffff1602179055506000600860008480519060200120815260200190815260200160002060050160006101000a81548160ff021916908315150217905550505b5b50565b612096336040518060400160405280600681526020017f4d696e74657200000000000000000000000000000000000000000000000000008152506107eb565b1580156120a957506120a733611725565b155b80156120f157506120ef336040518060400160405280600681526020017f53657276657200000000000000000000000000000000000000000000000000008152506107eb565b155b6120fa57600080fd5b600860008280519060200120815260200190815260200160002060050160009054906101000a900460ff166121b2573373ffffffffffffffffffffffffffffffffffffffff167f7b178bf1583b36c417d982a222dfebdf8e3c8ecff7e75e459627b176a9e8bd728260405161216f91906144a6565b60405180910390a26040517f08c379a00000000000000000000000000000000000000000000000000000000081526004016121a990614677565b60405180910390fd5b6000805b60086000848051906020012081526020019081526020016000206003018054905081101561229a57336040516020016121ef91906143ce565b604051602081830303815290604052805190602001206008600085805190602001208152602001908152602001600020600301828154811061222d57fe5b9060005260206000200160009054906101000a900473ffffffffffffffffffffffffffffffffffffffff1660405160200161226891906143b3565b60405160208183030381529060405280519060200120141561228d576001915061229a565b80806001019150506121b6565b508061236d576008600083805190602001208152602001908152602001600020600301339080600181540180825580915050600190039060005260206000200160009091909190916101000a81548173ffffffffffffffffffffffffffffffffffffffff021916908373ffffffffffffffffffffffffffffffffffffffff1602179055503373ffffffffffffffffffffffffffffffffffffffff167f7b178bf1583b36c417d982a222dfebdf8e3c8ecff7e75e459627b176a9e8bd7283604051612364919061457a565b60405180910390a25b3373ffffffffffffffffffffffffffffffffffffffff167f7b178bf1583b36c417d982a222dfebdf8e3c8ecff7e75e459627b176a9e8bd72836040516123b39190614545565b60405180910390a25050565b600360003373ffffffffffffffffffffffffffffffffffffffff1673ffffffffffffffffffffffffffffffffffffffff16815260200190815260200160002060003073ffffffffffffffffffffffffffffffffffffffff1673ffffffffffffffffffffffffffffffffffffffff1681526020019081526020016000205484111561247e576040517f08c379a0000000000000000000000000000000000000000000000000000000008152600401612475906146d7565b60405180910390fd5b60098560405161248e91906143e9565b908152602001604051809103902060050160019054906101000a900460ff1661267f576124bc333086612f5d565b61254b84600360003373ffffffffffffffffffffffffffffffffffffffff1673ffffffffffffffffffffffffffffffffffffffff16815260200190815260200160002060003073ffffffffffffffffffffffffffffffffffffffff1673ffffffffffffffffffffffffffffffffffffffff168152602001908152602001600020546131e290919063ffffffff16565b506040518060e001604052808681526020013373ffffffffffffffffffffffffffffffffffffffff168152602001848152602001838152602001828152602001600115158152602001600115158152506009866040516125ab91906143e9565b908152602001604051809103902060008201518160000190805190602001906125d5929190613816565b5060208201518160010160006101000a81548173ffffffffffffffffffffffffffffffffffffffff021916908373ffffffffffffffffffffffffffffffffffffffff16021790555060408201518160020155606082015181600301556080820151816004015560a08201518160050160006101000a81548160ff02191690831515021790555060c08201518160050160016101000a81548160ff0219169083151502179055509050505b3373ffffffffffffffffffffffffffffffffffffffff167f5c04f4c64423af25dc8dc6bd45d037a95fe962bb56e5ca1b993600448846f07f86856040516126c7929190614647565b60405180910390a25050505050565b6000600360008473ffffffffffffffffffffffffffffffffffffffff1673ffffffffffffffffffffffffffffffffffffffff16815260200190815260200160002060008373ffffffffffffffffffffffffffffffffffffffff1673ffffffffffffffffffffffffffffffffffffffff16815260200190815260200160002054905092915050565b612765613896565b60098260405161277591906143e9565b90815260200160405180910390206040518060e0016040529081600082018054600181600116156101000203166002900480601f0160208091040260200160405190810160405280929190818152602001828054600181600116156101000203166002900480156128275780601f106127fc57610100808354040283529160200191612827565b820191906000526020600020905b81548152906001019060200180831161280a57829003601f168201915b505050505081526020016001820160009054906101000a900473ffffffffffffffffffffffffffffffffffffffff1673ffffffffffffffffffffffffffffffffffffffff1673ffffffffffffffffffffffffffffffffffffffff1681526020016002820154815260200160038201548152602001600482015481526020016005820160009054906101000a900460ff161515151581526020016005820160019054906101000a900460ff1615151515815250509050919050565b6128ea33611725565b1580156129335750612931336040518060400160405280600581526020017f41646d696e0000000000000000000000000000000000000000000000000000008152506107eb565b155b801561297b5750612979336040518060400160405280600681526020017f4d696e74657200000000000000000000000000000000000000000000000000008152506107eb565b155b80156129c357506129c1336040518060400160405280600681526020017f53657276657200000000000000000000000000000000000000000000000000008152506107eb565b155b6129cc57600080fd5b6009816040516129dc91906143e9565b908152602001604051809103902060050160019054906101000a900460ff16612a3a576040517f08c379a0000000000000000000000000000000000000000000000000000000008152600401612a3190614697565b60405180910390fd5b600981604051612a4a91906143e9565b908152602001604051809103902060050160009054906101000a900460ff16612aa8576040517f08c379a0000000000000000000000000000000000000000000000000000000008152600401612a9f90614737565b60405180910390fd5b3373ffffffffffffffffffffffffffffffffffffffff16600982604051612acf91906143e9565b908152602001604051809103902060010160009054906101000a900473ffffffffffffffffffffffffffffffffffffffff1673ffffffffffffffffffffffffffffffffffffffff1614612b2157600080fd5b612bc0600982604051612b3491906143e9565b908152602001604051809103902060010160009054906101000a900473ffffffffffffffffffffffffffffffffffffffff16612bbb600984604051612b7991906143e9565b908152602001604051809103902060040154600985604051612b9b91906143e9565b9081526020016040518091039020600201546131e290919063ffffffff16565b611c89565b506000600982604051612bd391906143e9565b908152602001604051809103902060050160006101000a81548160ff0219169083151502179055506000600982604051612c0d91906143e9565b90815260200160405180910390206003018190555050565b612c64336040518060400160405280600681526020017f53657276657200000000000000000000000000000000000000000000000000008152506107eb565b612c6d57600080fd5b600982604051612c7d91906143e9565b908152602001604051809103902060050160019054906101000a900460ff16612cdb576040517f08c379a0000000000000000000000000000000000000000000000000000000008152600401612cd290614697565b60405180910390fd5b600982604051612ceb91906143e9565b908152602001604051809103902060050160009054906101000a900460ff16612d49576040517f08c379a0000000000000000000000000000000000000000000000000000000008152600401612d4090614737565b60405180910390fd5b80600983604051612d5a91906143e9565b90815260200160405180910390206003015411612dac576040517f08c379a0000000000000000000000000000000000000000000000000000000008152600401612da3906146b7565b60405180910390fd5b612df7600983604051612dbf91906143e9565b908152602001604051809103902060010160009054906101000a900473ffffffffffffffffffffffffffffffffffffffff1682611c89565b506000600983604051612e0a91906143e9565b908152602001604051809103902060050160006101000a81548160ff021916908315150217905550612e6681600984604051612e4691906143e9565b9081526020016040518091039020600301546131e290919063ffffffff16565b600983604051612e7691906143e9565b9081526020016040518091039020600301819055505050565b600080828401905083811015612ea457600080fd5b8091505092915050565b60008073ffffffffffffffffffffffffffffffffffffffff168373ffffffffffffffffffffffffffffffffffffffff161415612ee957600080fd5b8360010182604051612efb91906143e9565b908152602001604051809103902060008473ffffffffffffffffffffffffffffffffffffffff1673ffffffffffffffffffffffffffffffffffffffff16815260200190815260200160002060009054906101000a900460ff1690509392505050565b6000808473ffffffffffffffffffffffffffffffffffffffff1673ffffffffffffffffffffffffffffffffffffffff16815260200190815260200160002054811115612fde576040517f08c379a0000000000000000000000000000000000000000000000000000000008152600401612fd5906146d7565b60405180910390fd5b600073ffffffffffffffffffffffffffffffffffffffff168273ffffffffffffffffffffffffffffffffffffffff16141561301857600080fd5b613069816000808673ffffffffffffffffffffffffffffffffffffffff1673ffffffffffffffffffffffffffffffffffffffff168152602001908152602001600020546131e290919063ffffffff16565b6000808573ffffffffffffffffffffffffffffffffffffffff1673ffffffffffffffffffffffffffffffffffffffff168152602001908152602001600020819055506130fc816000808573ffffffffffffffffffffffffffffffffffffffff1673ffffffffffffffffffffffffffffffffffffffff16815260200190815260200160002054612e8f90919063ffffffff16565b6000808473ffffffffffffffffffffffffffffffffffffffff1673ffffffffffffffffffffffffffffffffffffffff168152602001908152602001600020819055508173ffffffffffffffffffffffffffffffffffffffff168373ffffffffffffffffffffffffffffffffffffffff167fddf252ad1be2c89b69c2b068fc378daa952ba7f163c4a11628f55a4df523b3ef8360405161319b9190614779565b60405180910390a3505050565b6000808314156131bb57600090506131dc565b60008284029050828482816131cc57fe5b04146131d757600080fd5b809150505b92915050565b6000828211156131f157600080fd5b600082840390508091505092915050565b600073ffffffffffffffffffffffffffffffffffffffff168273ffffffffffffffffffffffffffffffffffffffff16141561323c57600080fd5b613247838383612eae565b1561325157600080fd5b6001836001018260405161326591906143e9565b908152602001604051809103902060008473ffffffffffffffffffffffffffffffffffffffff1673ffffffffffffffffffffffffffffffffffffffff16815260200190815260200160002060006101000a81548160ff021916908315150217905550505050565b600073ffffffffffffffffffffffffffffffffffffffff168273ffffffffffffffffffffffffffffffffffffffff16141561330657600080fd5b613311838383612eae565b61331a57600080fd5b6000836001018260405161332e91906143e9565b908152602001604051809103902060008473ffffffffffffffffffffffffffffffffffffffff1673ffffffffffffffffffffffffffffffffffffffff16815260200190815260200160002060006101000a81548160ff021916908315150217905550505050565b8060018190555050565b600073ffffffffffffffffffffffffffffffffffffffff168273ffffffffffffffffffffffffffffffffffffffff1614156133d957600080fd5b6133ee81600454612e8f90919063ffffffff16565b600481905550613445816000808573ffffffffffffffffffffffffffffffffffffffff1673ffffffffffffffffffffffffffffffffffffffff16815260200190815260200160002054612e8f90919063ffffffff16565b6000808473ffffffffffffffffffffffffffffffffffffffff1673ffffffffffffffffffffffffffffffffffffffff168152602001908152602001600020819055508173ffffffffffffffffffffffffffffffffffffffff16600073ffffffffffffffffffffffffffffffffffffffff167fddf252ad1be2c89b69c2b068fc378daa952ba7f163c4a11628f55a4df523b3ef836040516134e59190614779565b60405180910390a35050565b600073ffffffffffffffffffffffffffffffffffffffff168273ffffffffffffffffffffffffffffffffffffffff16141561352b57600080fd5b6000808373ffffffffffffffffffffffffffffffffffffffff1673ffffffffffffffffffffffffffffffffffffffff1681526020019081526020016000205481111561357657600080fd5b61358b816004546131e290919063ffffffff16565b6004819055506135e2816000808573ffffffffffffffffffffffffffffffffffffffff1673ffffffffffffffffffffffffffffffffffffffff168152602001908152602001600020546131e290919063ffffffff16565b6000808473ffffffffffffffffffffffffffffffffffffffff1673ffffffffffffffffffffffffffffffffffffffff16815260200190815260200160002081905550600073ffffffffffffffffffffffffffffffffffffffff168273ffffffffffffffffffffffffffffffffffffffff167fddf252ad1be2c89b69c2b068fc378daa952ba7f163c4a11628f55a4df523b3ef836040516136829190614779565b60405180910390a35050565b600073ffffffffffffffffffffffffffffffffffffffff168173ffffffffffffffffffffffffffffffffffffffff1614156136c857600080fd5b80600260006101000a81548173ffffffffffffffffffffffffffffffffffffffff021916908373ffffffffffffffffffffffffffffffffffffffff16021790555050565b828054600181600116156101000203166002900490600052602060002090601f016020900481019282601f1061374d57805160ff191683800117855561377b565b8280016001018555821561377b579182015b8281111561377a57825182559160200191906001019061375f565b5b50905061378891906138ed565b5090565b828054828255906000526020600020908101928215613805579160200282015b828111156138045782518260006101000a81548173ffffffffffffffffffffffffffffffffffffffff021916908373ffffffffffffffffffffffffffffffffffffffff160217905550916020019190600101906137ac565b5b509050613812919061390a565b5090565b828054600181600116156101000203166002900490600052602060002090601f016020900481019282601f1061385757805160ff1916838001178555613885565b82800160010185558215613885579182015b82811115613884578251825591602001919060010190613869565b5b50905061389291906138ed565b5090565b6040518060e0016040528060608152602001600073ffffffffffffffffffffffffffffffffffffffff1681526020016000815260200160008152602001600081526020016000151581526020016000151581525090565b5b808211156139065760008160009055506001016138ee565b5090565b5b8082111561394157600081816101000a81549073ffffffffffffffffffffffffffffffffffffffff02191690555060010161390b565b5090565b60008135905061395481614a35565b92915050565b60008135905061396981614a4c565b92915050565b600082601f83011261398057600080fd5b813561399361398e82614828565b6147fb565b915080825260208301602083018583830111156139af57600080fd5b6139ba838284614989565b50505092915050565b600082601f8301126139d457600080fd5b81356139e76139e282614854565b6147fb565b91508082526020830160208301858383011115613a0357600080fd5b613a0e838284614989565b50505092915050565b600081359050613a2681614a63565b92915050565b600060208284031215613a3e57600080fd5b6000613a4c84828501613945565b91505092915050565b60008060408385031215613a6857600080fd5b6000613a7685828601613945565b9250506020613a8785828601613945565b9150509250929050565b600080600060608486031215613aa657600080fd5b6000613ab486828701613945565b9350506020613ac586828701613945565b9250506040613ad686828701613a17565b9150509250925092565b60008060408385031215613af357600080fd5b6000613b0185828601613945565b925050602083013567ffffffffffffffff811115613b1e57600080fd5b613b2a858286016139c3565b9150509250929050565b60008060408385031215613b4757600080fd5b6000613b5585828601613945565b9250506020613b6685828601613a17565b9150509250929050565b600060208284031215613b8257600080fd5b6000613b908482850161395a565b91505092915050565b600060208284031215613bab57600080fd5b600082013567ffffffffffffffff811115613bc557600080fd5b613bd18482850161396f565b91505092915050565b600060208284031215613bec57600080fd5b600082013567ffffffffffffffff811115613c0657600080fd5b613c12848285016139c3565b91505092915050565b60008060408385031215613c2e57600080fd5b600083013567ffffffffffffffff811115613c4857600080fd5b613c54858286016139c3565b925050602083013567ffffffffffffffff811115613c7157600080fd5b613c7d858286016139c3565b9150509250929050565b60008060008060808587031215613c9d57600080fd5b600085013567ffffffffffffffff811115613cb757600080fd5b613cc3878288016139c3565b945050602085013567ffffffffffffffff811115613ce057600080fd5b613cec878288016139c3565b9350506040613cfd87828801613945565b9250506060613d0e87828801613a17565b91505092959194509250565b60008060408385031215613d2d57600080fd5b600083013567ffffffffffffffff811115613d4757600080fd5b613d53858286016139c3565b9250506020613d6485828601613a17565b9150509250929050565b600080600080600060a08688031215613d8657600080fd5b600086013567ffffffffffffffff811115613da057600080fd5b613dac888289016139c3565b9550506020613dbd88828901613a17565b9450506040613dce88828901613a17565b9350506060613ddf88828901613a17565b9250506080613df088828901613a17565b9150509295509295909350565b600060208284031215613e0f57600080fd5b6000613e1d84828501613a17565b91505092915050565b6000613e328383613e55565b60208301905092915050565b613e4f613e4a8261492a565b6149dd565b82525050565b613e5e81614918565b82525050565b613e6d81614918565b82525050565b613e84613e7f82614918565b6149cb565b82525050565b6000613e9582614890565b613e9f81856148be565b9350613eaa83614880565b8060005b83811015613edb578151613ec28882613e26565b9750613ecd836148b1565b925050600181019050613eae565b5085935050505092915050565b613ef18161493c565b82525050565b613f008161493c565b82525050565b6000613f118261489b565b613f1b81856148cf565b9350613f2b818560208601614998565b613f3481614a0b565b840191505092915050565b6000613f4a8261489b565b613f5481856148e0565b9350613f64818560208601614998565b80840191505092915050565b6000613f7b826148a6565b613f8581856148eb565b9350613f95818560208601614998565b613f9e81614a0b565b840191505092915050565b6000613fb4826148a6565b613fbe81856148fc565b9350613fce818560208601614998565b613fd781614a0b565b840191505092915050565b6000613fed826148a6565b613ff7818561490d565b9350614007818560208601614998565b80840191505092915050565b60006140206015836148fc565b91507f446f63756d656e74206973206e6f7420457869737400000000000000000000006000830152602082019050919050565b6000614060600e836148fc565b91507f446f63756d656e742041646465640000000000000000000000000000000000006000830152602082019050919050565b60006140a06015836148fc565b91507f43616d706169676e206973206e6f7420457869737400000000000000000000006000830152602082019050919050565b60006140e06011836148fc565b91507f5265647564616e742069732077726f6e670000000000000000000000000000006000830152602082019050919050565b600061412060068361490d565b91507f4d696e74657200000000000000000000000000000000000000000000000000006000830152600682019050919050565b60006141606010836148fc565b91507f4e6f7420456e6f756768204d6f6e6579000000000000000000000000000000006000830152602082019050919050565b60006141a06017836148fc565b91507f5472616e7366657220546f206e6f74206265206e756c6c0000000000000000006000830152602082019050919050565b60006141e06011836148fc565b91507f446f63756d656e742069732045786973740000000000000000000000000000006000830152602082019050919050565b60006142206017836148fc565b91507f446f63756d656e7420616c7265616479205369676e65640000000000000000006000830152602082019050919050565b6000614260600f836148fc565b91507f446f63756d656e74205369676e656400000000000000000000000000000000006000830152602082019050919050565b60006142a06016836148fc565b91507f43616d706169676e206973206e6f7420416374697665000000000000000000006000830152602082019050919050565b600060e08301600083015184820360008601526142f08282613f70565b91505060208301516143056020860182613e55565b506040830151614318604086018261436f565b50606083015161432b606086018261436f565b50608083015161433e608086018261436f565b5060a083015161435160a0860182613ee8565b5060c083015161436460c0860182613ee8565b508091505092915050565b61437881614972565b82525050565b61438781614972565b82525050565b61439e61439982614972565b614a01565b82525050565b6143ad8161497c565b82525050565b60006143bf8284613e73565b60148201915081905092915050565b60006143da8284613e3e565b60148201915081905092915050565b60006143f58284613fe2565b915081905092915050565b600061440b82614113565b9150819050919050565b6000614421828661438d565b6020820191506144318285613f3f565b915061443d8284613e3e565b601482019150819050949350505050565b60006020820190506144636000830184613e64565b92915050565b600060208201905081810360008301526144838184613e8a565b905092915050565b60006020820190506144a06000830184613ef7565b92915050565b600060408201905081810360008301526144c08184613f06565b905081810360208301526144d381614013565b905092915050565b600060408201905081810360008301526144f58184613f06565b9050818103602083015261450881614053565b905092915050565b6000604082019050818103600083015261452a8184613f06565b9050818103602083015261453d816141d3565b905092915050565b6000604082019050818103600083015261455f8184613f06565b9050818103602083015261457281614213565b905092915050565b600060408201905081810360008301526145948184613f06565b905081810360208301526145a781614253565b905092915050565b600060208201905081810360008301526145c98184613fa9565b905092915050565b600060e08201905081810360008301526145eb818a613fa9565b90506145fa6020830189613e64565b614607604083018861437e565b614614606083018761437e565b614621608083018661437e565b61462e60a0830185613ef7565b61463b60c0830184613ef7565b98975050505050505050565b600060408201905081810360008301526146618185613fa9565b9050614670602083018461437e565b9392505050565b6000602082019050818103600083015261469081614013565b9050919050565b600060208201905081810360008301526146b081614093565b9050919050565b600060208201905081810360008301526146d0816140d3565b9050919050565b600060208201905081810360008301526146f081614153565b9050919050565b6000602082019050818103600083015261471081614193565b9050919050565b60006020820190508181036000830152614730816141d3565b9050919050565b6000602082019050818103600083015261475081614293565b9050919050565b6000602082019050818103600083015261477181846142d3565b905092915050565b600060208201905061478e600083018461437e565b92915050565b60006080820190506147a9600083018761437e565b81810360208301526147bb8186613f06565b90506147ca6040830185613e64565b6147d76060830184613ef7565b95945050505050565b60006020820190506147f560008301846143a4565b92915050565b6000604051905081810181811067ffffffffffffffff8211171561481e57600080fd5b8060405250919050565b600067ffffffffffffffff82111561483f57600080fd5b601f19601f8301169050602081019050919050565b600067ffffffffffffffff82111561486b57600080fd5b601f19601f8301169050602081019050919050565b6000819050602082019050919050565b600081519050919050565b600081519050919050565b600081519050919050565b6000602082019050919050565b600082825260208201905092915050565b600082825260208201905092915050565b600081905092915050565b600082825260208201905092915050565b600082825260208201905092915050565b600081905092915050565b600061492382614952565b9050919050565b600061493582614952565b9050919050565b60008115159050919050565b6000819050919050565b600073ffffffffffffffffffffffffffffffffffffffff82169050919050565b6000819050919050565b600060ff82169050919050565b82818337600083830152505050565b60005b838110156149b657808201518184015260208101905061499b565b838111156149c5576000848401525b50505050565b60006149d6826149ef565b9050919050565b60006149e8826149ef565b9050919050565b60006149fa82614a1c565b9050919050565b6000819050919050565b6000601f19601f8301169050919050565b60006c0100000000000000000000000082029050919050565b614a3e81614918565b8114614a4957600080fd5b50565b614a5581614948565b8114614a6057600080fd5b50565b614a6c81614972565b8114614a7757600080fd5b5056fea264697066735822122069a430a7407366716cc72f1234cfd7ad2c59e8a386d6f7c8f0c890c94877ea7164736f6c63430007000033",
  "immutableReferences": {},
  "source": "// SPDX-License-Identifier: MIT\r\npragma experimental ABIEncoderV2;\r\npragma solidity >=0.7.0 <0.8.0;\r\nimport \"./TRC21.sol\";\r\nimport \"./SignDocument.sol\";\r\nimport './SafeMath.sol';\r\nimport './Ownable.sol';\r\nimport './CampaignDetail.sol';\r\n\r\ncontract Support is MyTRC21Mintable(\"Adverising2\",\"LBA2\", 0, uint256(0) * uint256(10)**18, uint256(0) * uint256(10)**18), SignDocument, CampaignDetail, AccessControl{\r\n    using SafeMath for uint;\r\n\r\n    /* BEGIN: Document function*/\r\n    /**\r\n\t * @dev Function to add Document to verify\r\n\t * @param id The security Hash of documents.\r\n\t */\r\n    function addDocument(bytes memory id) public {\r\n        if(documents[keccak256(id)].isExist){\r\n            emit Add(id, msg.sender, \"Document is Exist\");\r\n            revert(\"Document is Exist\");\r\n        } \r\n        address[] memory signatures = new address[](0);\r\n        address[] memory history = new address[](0);\r\n        if(documents[keccak256(id)].history.length >= 1){\r\n            history = documents[keccak256(id)].history;\r\n        }\r\n        documents[keccak256(id)] = Document(block.timestamp, abi.encodePacked(block.timestamp, id, msg.sender), msg.sender, signatures, history, true);\r\n        emit Add(id, msg.sender, \"Document Added\");\r\n    }\r\n\r\n    /**\r\n\t * @dev Function to delete Document\r\n\t * @param id The security Hash of documents.\r\n\t */\r\n    function deleteDocument(bytes memory id) public {\r\n        if(documents[keccak256(id)].isExist){\r\n            if(keccak256(abi.encodePacked(documents[keccak256(id)].owner)) == keccak256(abi.encodePacked(msg.sender)) || isRole(msg.sender, \"Admin\")){\r\n                address[] memory signatures = new address[](0);\r\n                documents[keccak256(id)].signatures = signatures;\r\n                documents[keccak256(id)].history.push(documents[keccak256(id)].owner);\r\n                documents[keccak256(id)].isExist = false;\r\n            }\r\n        } \r\n        \r\n    }\r\n    /**\r\n\t * @dev Function to sign to Document to verify.\r\n\t * @param id The security Hash of documents.\r\n\t */\r\n    function signDocument(bytes memory id) public {\r\n        require(!isRole(msg.sender,\"Minter\") && !isOwner(msg.sender) && !isRole(msg.sender, \"Server\"));\r\n        if(!documents[keccak256(id)].isExist){\r\n            emit Sign(id, msg.sender, \"Document is not Exist\"); \r\n            revert(\"Document is not Exist\");\r\n        }\r\n        bool checkDulicate = false;\r\n        for(uint i = 0; i < documents[keccak256(id)].signatures.length; i++){\r\n            if(keccak256(abi.encodePacked(documents[keccak256(id)].signatures[i])) == keccak256(abi.encodePacked(msg.sender))){\r\n                checkDulicate = true;\r\n                break;\r\n            }\r\n        }\r\n        if(!checkDulicate){\r\n            documents[keccak256(id)].signatures.push(msg.sender);\r\n            emit Sign(id, msg.sender, \"Document Signed\");\r\n        }\r\n        emit Sign(id, msg.sender, \"Document already Signed\");\r\n    }\r\n\r\n    /**\r\n\t * @dev Function to get all signature of document by Security hash of document\r\n\t * @param id The security Hash of documents.\r\n\t * @return Array of address of signed\r\n\t */\r\n    function getSignatures(bytes memory id) public view returns (address[] memory) {\r\n        return documents[keccak256(id)].signatures;\r\n    }\r\n\r\n    /**\r\n\t * @dev Function to check Admin Sign\r\n\t * @param id The security Hash of documents.\r\n\t * @return A boolean that verifier admin is signed this document. True is admin signed.\r\n\t */\r\n    function checkAdminSigned(bytes memory id) public view returns (bool) {\r\n        for(uint i = 0; i < documents[keccak256(id)].signatures.length; i++){\r\n            if(isRole(documents[keccak256(id)].signatures[i], \"Admin\")){\r\n                return true;\r\n            }\r\n        }\r\n        return false;\r\n    }\r\n    /*END: Document function*/\r\n\r\n    /*BEGIN: Campaign Detail */\r\n    \r\n    /**\r\n\t * @dev Function to Create Campaign\r\n\t * @param campaignId The string Identifier of Campaign.\r\n\t * @param totalWithFee This is all money of campaign include all fee.\r\n\t * @param totalBudget This is Budget of campaign.\r\n\t * @param remainBudget This is money after minus fee\r\n\t * @param feeCancel This is fee to cancel campaign.\r\n\t */\r\n    function createCampaign (string memory campaignId, uint totalWithFee, uint totalBudget, uint remainBudget, uint feeCancel) public{\r\n        //check money amount\r\n        require(totalWithFee <= _allowed[msg.sender][address(this)],\"Not Enough Money\");\r\n        //check campaign\r\n        if(!campaigns[campaignId].isExist){\r\n            //send money to server wallet\r\n            _transfer(msg.sender, address(this), totalWithFee);\r\n            _allowed[msg.sender][address(this)].sub(totalWithFee);\r\n            //create campaign\r\n            campaigns[campaignId] = Campaign(campaignId, msg.sender, totalBudget, remainBudget, feeCancel, true, true);\r\n        }\r\n        emit CreateCampaign(msg.sender, campaignId, totalBudget);\r\n    }\r\n\r\n    /**\r\n\t * @dev Function to CheckOut Campaign\r\n\t * @param campaignId The string Identifier of Campaign.\r\n\t * @param redudant The address of suppiler to transfer money.\r\n\t */\r\n    function checkOutCampaign(string memory campaignId, uint redudant) public onlyServer{\r\n        require(campaigns[campaignId].isExist,\"Campaign is not Exist\");\r\n        require(campaigns[campaignId].isActive,\"Campaign is not Active\");\r\n        require(campaigns[campaignId].remainBudget > redudant, \"Redudant is wrong\");\r\n\r\n        transfer(campaigns[campaignId].advertiser, redudant);\r\n        campaigns[campaignId].isActive = false;\r\n        campaigns[campaignId].remainBudget = campaigns[campaignId].remainBudget.sub(redudant);\r\n    }\r\n\r\n    /**\r\n\t * @dev Function to Pay To Supplier\r\n\t * @param campaignId The string Identifier of Campaign\r\n\t * @param supplier The address of suppiler to transfer money\r\n\t * @param value The value of money to transfer to supplier\r\n\t * @return A boolean that indicates if the operation was successful.\r\n\t */\r\n    function payToSupplier(string memory campaignId, string memory paymentKey, address supplier, uint256 value) public onlyServer returns (bool) {\r\n        require(supplier != address(0));\r\n        require(value <= campaigns[campaignId].remainBudget);\r\n        require(!checkPayed[campaignId][paymentKey]);\r\n        campaigns[campaignId].remainBudget = campaigns[campaignId].remainBudget.sub(value);\r\n        _transfer(address(this), campaigns[campaignId].advertiser, value);\r\n        checkPayed[campaignId][paymentKey] = true;\r\n        return true;\r\n    }\r\n\r\n    /**\r\n\t * @dev Function to Cancel Campaign\r\n\t * @param campaignId The string Identifier of Campaign\r\n\t */\r\n    function cancelCampaign(string memory campaignId) public onlyUser{\r\n        require(campaigns[campaignId].isExist,\"Campaign is not Exist\");\r\n        require(campaigns[campaignId].isActive,\"Campaign is not Active\");\r\n        require(campaigns[campaignId].advertiser == msg.sender);\r\n\r\n        transfer(campaigns[campaignId].advertiser, \r\n                            campaigns[campaignId].totalBudget.sub(campaigns[campaignId].feeCancel));\r\n\r\n        \r\n        campaigns[campaignId].isActive = false;\r\n        campaigns[campaignId].remainBudget = 0;\r\n    }\r\n\r\n    /**\r\n\t * @dev Function to Get Campaign By Id\r\n\t * @param campaignId The string Identifier of Campaign\r\n\t * @return A Campaign will return if there are campaignId \r\n\t */\r\n    function getCampaignById(string memory campaignId) public view returns (Campaign memory){\r\n        return campaigns[campaignId];\r\n    }\r\n    /*END: Campaign Detail */\r\n\r\n    /*START: MyTRC21Mintable */\r\n\r\n    /**\r\n\t * @dev Function to change OwnerOfContract\r\n\t * @param newOwner The address that will be new Owner.\r\n\t */\r\n    function changeOwner(address newOwner) public onlyOwner{\r\n        _changeIssuer(newOwner);\r\n        _changeOwnerRole(newOwner);\r\n    }\r\n    /**\r\n\t * @dev Function to mint tokens\r\n\t * @param to The address that will receive the minted tokens.\r\n\t * @param value The amount of tokens to mint.\r\n\t * @return A boolean that indicates if the operation was successful.\r\n\t */\r\n\tfunction mint(\r\n\t\taddress to,\r\n\t\tuint256 value\r\n\t)\r\n\tpublic\r\n\tonlyMinter\r\n\treturns (bool)\r\n\t{\r\n\t\t_mint(to, value);\r\n\t\treturn true;\r\n\t}\r\n    /*END: MyTRC21Mintable */\r\n}",
  "sourcePath": "D:/CN9/Capstone/LBAContract.github.io/contracts/Support.sol",
  "compiler": {
    "name": "solc",
    "version": "0.7.0+commit.9e61f92b.Emscripten.clang"
  },
  "schemaVersion": "3.3.4",
  "updatedAt": "2021-03-29T03:05:26.124Z",
  "networkType": "ethereum",
  "devdoc": {
    "kind": "dev",
    "methods": {
      "addDocument(bytes)": {
        "details": "Function to add Document to verify",
        "params": {
          "id": "The security Hash of documents."
        }
      },
      "allowance(address,address)": {
        "details": "Function to check the amount of tokens that an owner allowed to a spender.",
        "params": {
          "owner": "address The address which owns the funds.",
          "spender": "address The address which will spend the funds."
        },
        "returns": {
          "_0": "A uint256 specifying the amount of tokens still available for the spender."
        }
      },
      "approve(address,uint256)": {
        "details": "Approve the passed address to spend the specified amount of tokens on behalf of msg.sender. Beware that changing an allowance with this method brings the risk that someone may use both the old and the new allowance by unfortunate transaction ordering. One possible solution to mitigate this race condition is to first reduce the spender's allowance to 0 and set the desired value afterwards: https://github.com/ethereum/EIPs/issues/20#issuecomment-263524729",
        "params": {
          "spender": "The address which will spend the funds.",
          "value": "The amount of tokens to be spent."
        }
      },
      "balanceOf(address)": {
        "details": "Gets the balance of the specified address.",
        "params": {
          "owner": "The address to query the balance of."
        },
        "returns": {
          "_0": "An uint256 representing the amount owned by the passed address."
        }
      },
      "burn(uint256)": {
        "details": "Function to burn tokens",
        "params": {
          "value": "The amount of tokens to mint."
        },
        "returns": {
          "_0": "A boolean that indicates if the operation was successful."
        }
      },
      "cancelCampaign(string)": {
        "details": "Function to Cancel Campaign",
        "params": {
          "campaignId": "The string Identifier of Campaign"
        }
      },
      "changeOwner(address)": {
        "details": "Function to change OwnerOfContract",
        "params": {
          "newOwner": "The address that will be new Owner."
        }
      },
      "checkAdminSigned(bytes)": {
        "details": "Function to check Admin Sign",
        "params": {
          "id": "The security Hash of documents."
        },
        "returns": {
          "_0": "A boolean that verifier admin is signed this document. True is admin signed."
        }
      },
      "checkOutCampaign(string,uint256)": {
        "details": "Function to CheckOut Campaign",
        "params": {
          "campaignId": "The string Identifier of Campaign.",
          "redudant": "The address of suppiler to transfer money."
        }
      },
      "createCampaign(string,uint256,uint256,uint256,uint256)": {
        "details": "Function to Create Campaign",
        "params": {
          "campaignId": "The string Identifier of Campaign.",
          "feeCancel": "This is fee to cancel campaign.",
          "remainBudget": "This is money after minus fee",
          "totalBudget": "This is Budget of campaign.",
          "totalWithFee": "This is all money of campaign include all fee."
        }
      },
      "decimals()": {
        "returns": {
          "_0": "the number of decimals of the token."
        }
      },
      "deleteDocument(bytes)": {
        "details": "Function to delete Document",
        "params": {
          "id": "The security Hash of documents."
        }
      },
      "estimateFee(uint256)": {
        "details": "Estimate transaction fee.",
        "params": {
          "value": "amount tokens sent"
        }
      },
      "getCampaignById(string)": {
        "details": "Function to Get Campaign By Id",
        "params": {
          "campaignId": "The string Identifier of Campaign"
        },
        "returns": {
          "_0": "A Campaign will return if there are campaignId "
        }
      },
      "getSignatures(bytes)": {
        "details": "Function to get all signature of document by Security hash of document",
        "params": {
          "id": "The security Hash of documents."
        },
        "returns": {
          "_0": "Array of address of signed"
        }
      },
      "issuer()": {
        "details": "token's foundation"
      },
      "minFee()": {
        "details": "The amount fee that will be lost when transferring."
      },
      "mint(address,uint256)": {
        "details": "Function to mint tokens",
        "params": {
          "to": "The address that will receive the minted tokens.",
          "value": "The amount of tokens to mint."
        },
        "returns": {
          "_0": "A boolean that indicates if the operation was successful."
        }
      },
      "name()": {
        "returns": {
          "_0": "the name of the token."
        }
      },
      "payToSupplier(string,string,address,uint256)": {
        "details": "Function to Pay To Supplier",
        "params": {
          "campaignId": "The string Identifier of Campaign",
          "supplier": "The address of suppiler to transfer money",
          "value": "The value of money to transfer to supplier"
        },
        "returns": {
          "_0": "A boolean that indicates if the operation was successful."
        }
      },
      "signDocument(bytes)": {
        "details": "Function to sign to Document to verify.",
        "params": {
          "id": "The security Hash of documents."
        }
      },
      "symbol()": {
        "returns": {
          "_0": "the symbol of the token."
        }
      },
      "totalSupply()": {
        "details": "Total number of tokens in existence"
      },
      "transfer(address,uint256)": {
        "details": "Transfer token for a specified address",
        "params": {
          "to": "The address to transfer to.",
          "value": "The amount to be transferred."
        }
      },
      "transferFrom(address,address,uint256)": {
        "details": "Transfer tokens from one address to another",
        "params": {
          "from": "address The address which you want to send tokens from",
          "to": "address The address which you want to transfer to",
          "value": "uint256 the amount of tokens to be transferred"
        }
      }
    },
    "version": 1
  },
  "userdoc": {
    "kind": "user",
    "methods": {},
    "version": 1
  }
}